{
  "contractName": "MemberShip",
  "abi": [
    {
      "constant": true,
      "inputs": [],
      "name": "canTradeToken",
      "outputs": [
        {
          "name": "",
          "type": "bool"
        }
      ],
      "payable": false,
      "stateMutability": "view",
      "type": "function",
      "signature": "0x351f9501"
    },
    {
      "constant": true,
      "inputs": [],
      "name": "paused",
      "outputs": [
        {
          "name": "",
          "type": "bool"
        }
      ],
      "payable": false,
      "stateMutability": "view",
      "type": "function",
      "signature": "0x5c975abb"
    },
    {
      "constant": true,
      "inputs": [],
      "name": "ELEMAddr",
      "outputs": [
        {
          "name": "",
          "type": "address"
        }
      ],
      "payable": false,
      "stateMutability": "view",
      "type": "function",
      "signature": "0x885869dc"
    },
    {
      "constant": true,
      "inputs": [],
      "name": "owner",
      "outputs": [
        {
          "name": "",
          "type": "address"
        }
      ],
      "payable": false,
      "stateMutability": "view",
      "type": "function",
      "signature": "0x8da5cb5b"
    },
    {
      "constant": true,
      "inputs": [],
      "name": "memberPeriod",
      "outputs": [
        {
          "name": "",
          "type": "uint256"
        }
      ],
      "payable": false,
      "stateMutability": "view",
      "type": "function",
      "signature": "0xaba35b72"
    },
    {
      "constant": true,
      "inputs": [
        {
          "name": "",
          "type": "uint256"
        }
      ],
      "name": "coreManagers",
      "outputs": [
        {
          "name": "",
          "type": "address"
        }
      ],
      "payable": false,
      "stateMutability": "view",
      "type": "function",
      "signature": "0xcc523d37"
    },
    {
      "constant": true,
      "inputs": [],
      "name": "fee",
      "outputs": [
        {
          "name": "",
          "type": "uint256"
        }
      ],
      "payable": false,
      "stateMutability": "view",
      "type": "function",
      "signature": "0xddca3f43"
    },
    {
      "constant": true,
      "inputs": [
        {
          "name": "",
          "type": "address"
        }
      ],
      "name": "appWhitelist",
      "outputs": [
        {
          "name": "",
          "type": "bool"
        }
      ],
      "payable": false,
      "stateMutability": "view",
      "type": "function",
      "signature": "0xfe2b5de1"
    },
    {
      "inputs": [
        {
          "name": "_ELEMAddr",
          "type": "address"
        }
      ],
      "payable": false,
      "stateMutability": "nonpayable",
      "type": "constructor",
      "signature": "constructor"
    },
    {
      "constant": false,
      "inputs": [
        {
          "name": "_tokenId",
          "type": "uint256"
        }
      ],
      "name": "putNFTForSale",
      "outputs": [],
      "payable": false,
      "stateMutability": "nonpayable",
      "type": "function",
      "signature": "0x557d21fc"
    },
    {
      "constant": false,
      "inputs": [],
      "name": "tradeTokenToggle",
      "outputs": [
        {
          "name": "",
          "type": "bool"
        }
      ],
      "payable": false,
      "stateMutability": "nonpayable",
      "type": "function",
      "signature": "0x91e842af"
    },
    {
      "constant": false,
      "inputs": [],
      "name": "buyToken",
      "outputs": [
        {
          "name": "",
          "type": "bool"
        }
      ],
      "payable": true,
      "stateMutability": "payable",
      "type": "function",
      "signature": "0xa4821719"
    },
    {
      "constant": false,
      "inputs": [
        {
          "name": "_tokenToTransfer",
          "type": "uint256"
        },
        {
          "name": "_tokenId",
          "type": "uint256"
        },
        {
          "name": "_receiver",
          "type": "address"
        }
      ],
      "name": "transferToken",
      "outputs": [
        {
          "name": "",
          "type": "bool"
        }
      ],
      "payable": false,
      "stateMutability": "nonpayable",
      "type": "function",
      "signature": "0x6823e680"
    },
    {
      "constant": false,
      "inputs": [
        {
          "name": "_tokenId",
          "type": "uint256"
        }
      ],
      "name": "bindMembership",
      "outputs": [
        {
          "name": "",
          "type": "bool"
        }
      ],
      "payable": false,
      "stateMutability": "nonpayable",
      "type": "function",
      "signature": "0x9b8bb779"
    },
    {
      "constant": false,
      "inputs": [
        {
          "name": "_tokenId",
          "type": "uint256"
        }
      ],
      "name": "unbindMembership",
      "outputs": [
        {
          "name": "",
          "type": "bool"
        }
      ],
      "payable": false,
      "stateMutability": "nonpayable",
      "type": "function",
      "signature": "0x329ae6f2"
    },
    {
      "constant": false,
      "inputs": [
        {
          "name": "_tokenId",
          "type": "uint256"
        }
      ],
      "name": "renewMembership",
      "outputs": [
        {
          "name": "",
          "type": "uint256"
        }
      ],
      "payable": true,
      "stateMutability": "payable",
      "type": "function",
      "signature": "0x7c9669ac"
    },
    {
      "constant": false,
      "inputs": [
        {
          "name": "_tokenId",
          "type": "uint256"
        },
        {
          "name": "_kycid",
          "type": "bytes32"
        }
      ],
      "name": "assginKYCid",
      "outputs": [
        {
          "name": "",
          "type": "bool"
        }
      ],
      "payable": false,
      "stateMutability": "nonpayable",
      "type": "function",
      "signature": "0xc9a69336"
    },
    {
      "constant": false,
      "inputs": [
        {
          "name": "_addr",
          "type": "address"
        }
      ],
      "name": "addWhitelistApps",
      "outputs": [
        {
          "name": "",
          "type": "bool"
        }
      ],
      "payable": false,
      "stateMutability": "nonpayable",
      "type": "function",
      "signature": "0x0d2da680"
    },
    {
      "constant": false,
      "inputs": [
        {
          "name": "_addr",
          "type": "address"
        }
      ],
      "name": "rmWhitelistApps",
      "outputs": [
        {
          "name": "",
          "type": "bool"
        }
      ],
      "payable": false,
      "stateMutability": "nonpayable",
      "type": "function",
      "signature": "0xa7f70e73"
    },
    {
      "constant": false,
      "inputs": [
        {
          "name": "_tokenId",
          "type": "uint256"
        },
        {
          "name": "_penalty",
          "type": "uint256"
        }
      ],
      "name": "addPenalty",
      "outputs": [
        {
          "name": "",
          "type": "uint256"
        }
      ],
      "payable": false,
      "stateMutability": "nonpayable",
      "type": "function",
      "signature": "0xc6906749"
    },
    {
      "constant": true,
      "inputs": [
        {
          "name": "_tokenId",
          "type": "uint256"
        }
      ],
      "name": "readNotes",
      "outputs": [
        {
          "name": "",
          "type": "string"
        }
      ],
      "payable": false,
      "stateMutability": "view",
      "type": "function",
      "signature": "0xc449b262"
    },
    {
      "constant": false,
      "inputs": [
        {
          "name": "_tokenId",
          "type": "uint256"
        },
        {
          "name": "_notes",
          "type": "string"
        }
      ],
      "name": "addNotes",
      "outputs": [],
      "payable": false,
      "stateMutability": "nonpayable",
      "type": "function",
      "signature": "0xd9ed28b7"
    },
    {
      "constant": true,
      "inputs": [
        {
          "name": "_addr",
          "type": "address"
        }
      ],
      "name": "addrIsMember",
      "outputs": [
        {
          "name": "",
          "type": "bool"
        }
      ],
      "payable": false,
      "stateMutability": "view",
      "type": "function",
      "signature": "0x7a7d32e5"
    },
    {
      "constant": true,
      "inputs": [
        {
          "name": "_addr",
          "type": "address"
        }
      ],
      "name": "addrIsActiveMember",
      "outputs": [
        {
          "name": "",
          "type": "bool"
        }
      ],
      "payable": false,
      "stateMutability": "view",
      "type": "function",
      "signature": "0xc41a32ec"
    },
    {
      "constant": true,
      "inputs": [
        {
          "name": "_tokenId",
          "type": "uint256"
        }
      ],
      "name": "tokenIsMember",
      "outputs": [
        {
          "name": "",
          "type": "bool"
        }
      ],
      "payable": false,
      "stateMutability": "view",
      "type": "function",
      "signature": "0xbeb04204"
    },
    {
      "constant": true,
      "inputs": [
        {
          "name": "_tokenId",
          "type": "uint256"
        }
      ],
      "name": "tokenIsActiveMember",
      "outputs": [
        {
          "name": "",
          "type": "bool"
        }
      ],
      "payable": false,
      "stateMutability": "view",
      "type": "function",
      "signature": "0x2f8c4a59"
    },
    {
      "constant": true,
      "inputs": [
        {
          "name": "_addr",
          "type": "address"
        }
      ],
      "name": "addrToTokenId",
      "outputs": [
        {
          "name": "",
          "type": "uint256"
        }
      ],
      "payable": false,
      "stateMutability": "view",
      "type": "function",
      "signature": "0x43ddfd57"
    },
    {
      "constant": false,
      "inputs": [],
      "name": "pause",
      "outputs": [],
      "payable": false,
      "stateMutability": "nonpayable",
      "type": "function",
      "signature": "0x8456cb59"
    },
    {
      "constant": false,
      "inputs": [],
      "name": "unpause",
      "outputs": [],
      "payable": false,
      "stateMutability": "nonpayable",
      "type": "function",
      "signature": "0x3f4ba83a"
    },
    {
      "constant": false,
      "inputs": [
        {
          "name": "_addr",
          "type": "address"
        }
      ],
      "name": "updateELEMAddr",
      "outputs": [],
      "payable": false,
      "stateMutability": "nonpayable",
      "type": "function",
      "signature": "0xffdcc980"
    }
  ],
  "bytecode": "0x6080604052662386f26fc10000600555619c406006556000600760006101000a81548160ff0219169083151502179055506001600760016101000a81548160ff0219169083151502179055503480156200005857600080fd5b5060405160208062003683833981018060405260208110156200007a57600080fd5b8101908080519060200190929190505050336000806101000a81548173ffffffffffffffffffffffffffffffffffffffff021916908373ffffffffffffffffffffffffffffffffffffffff16021790555060606040519081016040528073b440ea2780614b3c6a00e512f432785e7dfafa3e73ffffffffffffffffffffffffffffffffffffffff1673ffffffffffffffffffffffffffffffffffffffff168152602001734ad56641c569c91c64c28a904cda50ae5326da4173ffffffffffffffffffffffffffffffffffffffff1673ffffffffffffffffffffffffffffffffffffffff16815260200173362ea687b8a372a0235466a097e578d55491d37f73ffffffffffffffffffffffffffffffffffffffff1673ffffffffffffffffffffffffffffffffffffffff168152506001906003620001b992919062000202565b5080600460006101000a81548173ffffffffffffffffffffffffffffffffffffffff021916908373ffffffffffffffffffffffffffffffffffffffff16021790555050620002ca565b826003810192821562000271579160200282015b82811115620002705782518260006101000a81548173ffffffffffffffffffffffffffffffffffffffff021916908373ffffffffffffffffffffffffffffffffffffffff1602179055509160200191906001019062000216565b5b50905062000280919062000284565b5090565b620002c791905b80821115620002c357600081816101000a81549073ffffffffffffffffffffffffffffffffffffffff0219169055506001016200028b565b5090565b90565b6133a980620002da6000396000f3fe6080604052600436106101df576000357c01000000000000000000000000000000000000000000000000000000009004806391e842af11610114578063c449b262116100b2578063d9ed28b711610081578063d9ed28b7146109ce578063ddca3f4314610a5e578063fe2b5de114610a89578063ffdcc98014610af2576101df565b8063c449b262146107e9578063c69067491461089d578063c9a69336146108f6578063cc523d3714610953576101df565b8063a7f70e73116100ee578063a7f70e7314610699578063aba35b7214610702578063beb042041461072d578063c41a32ec14610780576101df565b806391e842af146105f55780639b8bb77914610624578063a482171914610677576101df565b80635c975abb116101815780637c9669ac1161015b5780637c9669ac146104ee5780638456cb5914610530578063885869dc146105475780638da5cb5b1461059e576101df565b80635c975abb146103d95780636823e680146104085780637a7d32e514610485576101df565b8063351f9501116101bd578063351f9501146102f35780633f4ba83a1461032257806343ddfd5714610339578063557d21fc1461039e576101df565b80630d2da680146101e45780632f8c4a591461024d578063329ae6f2146102a0575b600080fd5b3480156101f057600080fd5b506102336004803603602081101561020757600080fd5b81019080803573ffffffffffffffffffffffffffffffffffffffff169060200190929190505050610b43565b604051808215151515815260200191505060405180910390f35b34801561025957600080fd5b506102866004803603602081101561027057600080fd5b8101908080359060200190929190505050610cde565b604051808215151515815260200191505060405180910390f35b3480156102ac57600080fd5b506102d9600480360360208110156102c357600080fd5b8101908080359060200190929190505050610d2d565b604051808215151515815260200191505060405180910390f35b3480156102ff57600080fd5b5061030861109b565b604051808215151515815260200191505060405180910390f35b34801561032e57600080fd5b506103376110ae565b005b34801561034557600080fd5b506103886004803603602081101561035c57600080fd5b81019080803573ffffffffffffffffffffffffffffffffffffffff169060200190929190505050611141565b6040518082815260200191505060405180910390f35b3480156103aa57600080fd5b506103d7600480360360208110156103c157600080fd5b810190808035906020019092919050505061118a565b005b3480156103e557600080fd5b506103ee611518565b604051808215151515815260200191505060405180910390f35b34801561041457600080fd5b5061046b6004803603606081101561042b57600080fd5b810190808035906020019092919080359060200190929190803573ffffffffffffffffffffffffffffffffffffffff16906020019092919050505061152b565b604051808215151515815260200191505060405180910390f35b34801561049157600080fd5b506104d4600480360360208110156104a857600080fd5b81019080803573ffffffffffffffffffffffffffffffffffffffff169060200190929190505050611a41565b604051808215151515815260200191505060405180910390f35b61051a6004803603602081101561050457600080fd5b8101908080359060200190929190505050611ada565b6040518082815260200191505060405180910390f35b34801561053c57600080fd5b50610545611d1c565b005b34801561055357600080fd5b5061055c611e8d565b604051808273ffffffffffffffffffffffffffffffffffffffff1673ffffffffffffffffffffffffffffffffffffffff16815260200191505060405180910390f35b3480156105aa57600080fd5b506105b3611eb3565b604051808273ffffffffffffffffffffffffffffffffffffffff1673ffffffffffffffffffffffffffffffffffffffff16815260200191505060405180910390f35b34801561060157600080fd5b5061060a611ed8565b604051808215151515815260200191505060405180910390f35b34801561063057600080fd5b5061065d6004803603602081101561064757600080fd5b8101908080359060200190929190505050612051565b604051808215151515815260200191505060405180910390f35b61067f6123ca565b604051808215151515815260200191505060405180910390f35b3480156106a557600080fd5b506106e8600480360360208110156106bc57600080fd5b81019080803573ffffffffffffffffffffffffffffffffffffffff16906020019092919050505061287b565b604051808215151515815260200191505060405180910390f35b34801561070e57600080fd5b50610717612a16565b6040518082815260200191505060405180910390f35b34801561073957600080fd5b506107666004803603602081101561075057600080fd5b8101908080359060200190929190505050612a1c565b604051808215151515815260200191505060405180910390f35b34801561078c57600080fd5b506107cf600480360360208110156107a357600080fd5b81019080803573ffffffffffffffffffffffffffffffffffffffff169060200190929190505050612a9c565b604051808215151515815260200191505060405180910390f35b3480156107f557600080fd5b506108226004803603602081101561080c57600080fd5b8101908080359060200190929190505050612b79565b6040518080602001828103825283818151815260200191508051906020019080838360005b83811015610862578082015181840152602081019050610847565b50505050905090810190601f16801561088f5780820380516001836020036101000a031916815260200191505b509250505060405180910390f35b3480156108a957600080fd5b506108e0600480360360408110156108c057600080fd5b810190808035906020019092919080359060200190929190505050612c56565b6040518082815260200191505060405180910390f35b34801561090257600080fd5b506109396004803603604081101561091957600080fd5b810190808035906020019092919080359060200190929190505050612d73565b604051808215151515815260200191505060405180910390f35b34801561095f57600080fd5b5061098c6004803603602081101561097657600080fd5b8101908080359060200190929190505050612f9e565b604051808273ffffffffffffffffffffffffffffffffffffffff1673ffffffffffffffffffffffffffffffffffffffff16815260200191505060405180910390f35b3480156109da57600080fd5b50610a5c600480360360408110156109f157600080fd5b810190808035906020019092919080359060200190640100000000811115610a1857600080fd5b820183602082011115610a2a57600080fd5b80359060200191846001830284011164010000000083111715610a4c57600080fd5b9091929391929390505050612fd3565b005b348015610a6a57600080fd5b50610a73613193565b6040518082815260200191505060405180910390f35b348015610a9557600080fd5b50610ad860048036036020811015610aac57600080fd5b81019080803573ffffffffffffffffffffffffffffffffffffffff169060200190929190505050613199565b604051808215151515815260200191505060405180910390f35b348015610afe57600080fd5b50610b4160048036036020811015610b1557600080fd5b81019080803573ffffffffffffffffffffffffffffffffffffffff1690602001909291905050506131b9565b005b600060016000600381101515610b5557fe5b0160009054906101000a900473ffffffffffffffffffffffffffffffffffffffff1673ffffffffffffffffffffffffffffffffffffffff163373ffffffffffffffffffffffffffffffffffffffff161480610c0b5750600180600381101515610bba57fe5b0160009054906101000a900473ffffffffffffffffffffffffffffffffffffffff1673ffffffffffffffffffffffffffffffffffffffff163373ffffffffffffffffffffffffffffffffffffffff16145b80610c72575060016002600381101515610c2157fe5b0160009054906101000a900473ffffffffffffffffffffffffffffffffffffffff1673ffffffffffffffffffffffffffffffffffffffff163373ffffffffffffffffffffffffffffffffffffffff16145b1515610c7d57600080fd5b6001600a60008473ffffffffffffffffffffffffffffffffffffffff1673ffffffffffffffffffffffffffffffffffffffff16815260200190815260200160002060006101000a81548160ff02191690831515021790555060019050919050565b6000436008600084815260200190815260200160002060020154600654600860008681526020019081526020016000206001015401031115610d235760019050610d28565b600090505b919050565b6000813373ffffffffffffffffffffffffffffffffffffffff16600460009054906101000a900473ffffffffffffffffffffffffffffffffffffffff1673ffffffffffffffffffffffffffffffffffffffff16636352211e836040518263ffffffff167c01000000000000000000000000000000000000000000000000000000000281526004018082815260200191505060206040518083038186803b158015610dd657600080fd5b505afa158015610dea573d6000803e3d6000fd5b505050506040513d6020811015610e0057600080fd5b810190808051906020019092919050505073ffffffffffffffffffffffffffffffffffffffff16141515610e3357600080fd5b823373ffffffffffffffffffffffffffffffffffffffff166008600083815260200190815260200160002060000160009054906101000a900473ffffffffffffffffffffffffffffffffffffffff1673ffffffffffffffffffffffffffffffffffffffff16148015610ed25750600073ffffffffffffffffffffffffffffffffffffffff163373ffffffffffffffffffffffffffffffffffffffff1614155b1515610edd57600080fd5b60006008600083815260200190815260200160002060010154111515610f0257600080fd5b600760009054906101000a900460ff16151515610f1e57600080fd5b43600860008681526020019081526020016000206002015460065460086000888152602001908152602001600020600101540103101515610f5e57600080fd5b60a060405190810160405280600073ffffffffffffffffffffffffffffffffffffffff16815260200160008152602001600081526020016000600102815260200160206040519081016040528060008152508152506008600086815260200190815260200160002060008201518160000160006101000a81548173ffffffffffffffffffffffffffffffffffffffff021916908373ffffffffffffffffffffffffffffffffffffffff1602179055506020820151816001015560408201518160020155606082015181600301556080820151816004019080519060200190611047929190613258565b509050506000600960003373ffffffffffffffffffffffffffffffffffffffff1673ffffffffffffffffffffffffffffffffffffffff16815260200190815260200160002081905550600192505050919050565b600760019054906101000a900460ff1681565b6000809054906101000a900473ffffffffffffffffffffffffffffffffffffffff1673ffffffffffffffffffffffffffffffffffffffff163373ffffffffffffffffffffffffffffffffffffffff1614151561110957600080fd5b600760009054906101000a900460ff16151561112457600080fd5b6000600760006101000a81548160ff021916908315150217905550565b6000600960008373ffffffffffffffffffffffffffffffffffffffff1673ffffffffffffffffffffffffffffffffffffffff168152602001908152602001600020549050919050565b6001600060038110151561119a57fe5b0160009054906101000a900473ffffffffffffffffffffffffffffffffffffffff1673ffffffffffffffffffffffffffffffffffffffff163373ffffffffffffffffffffffffffffffffffffffff16148061125057506001806003811015156111ff57fe5b0160009054906101000a900473ffffffffffffffffffffffffffffffffffffffff1673ffffffffffffffffffffffffffffffffffffffff163373ffffffffffffffffffffffffffffffffffffffff16145b806112b757506001600260038110151561126657fe5b0160009054906101000a900473ffffffffffffffffffffffffffffffffffffffff1673ffffffffffffffffffffffffffffffffffffffff163373ffffffffffffffffffffffffffffffffffffffff16145b15156112c257600080fd5b803373ffffffffffffffffffffffffffffffffffffffff16600460009054906101000a900473ffffffffffffffffffffffffffffffffffffffff1673ffffffffffffffffffffffffffffffffffffffff16636352211e836040518263ffffffff167c01000000000000000000000000000000000000000000000000000000000281526004018082815260200191505060206040518083038186803b15801561136957600080fd5b505afa15801561137d573d6000803e3d6000fd5b505050506040513d602081101561139357600080fd5b810190808051906020019092919050505073ffffffffffffffffffffffffffffffffffffffff161415156113c657600080fd5b8160007f1111111111111111111111111111111111111111111111111111111111111111828115156113f457fe5b061415151561140257600080fd5b600460009054906101000a900473ffffffffffffffffffffffffffffffffffffffff1673ffffffffffffffffffffffffffffffffffffffff166342842e0e3330866040518463ffffffff167c0100000000000000000000000000000000000000000000000000000000028152600401808473ffffffffffffffffffffffffffffffffffffffff1673ffffffffffffffffffffffffffffffffffffffff1681526020018373ffffffffffffffffffffffffffffffffffffffff1673ffffffffffffffffffffffffffffffffffffffff1681526020018281526020019350505050600060405180830381600087803b1580156114fb57600080fd5b505af115801561150f573d6000803e3d6000fd5b50505050505050565b600760009054906101000a900460ff1681565b6000823373ffffffffffffffffffffffffffffffffffffffff166008600083815260200190815260200160002060000160009054906101000a900473ffffffffffffffffffffffffffffffffffffffff1673ffffffffffffffffffffffffffffffffffffffff161480156115cc5750600073ffffffffffffffffffffffffffffffffffffffff163373ffffffffffffffffffffffffffffffffffffffff1614155b15156115d757600080fd5b600060086000838152602001908152602001600020600101541115156115fc57600080fd5b833373ffffffffffffffffffffffffffffffffffffffff16600460009054906101000a900473ffffffffffffffffffffffffffffffffffffffff1673ffffffffffffffffffffffffffffffffffffffff16636352211e836040518263ffffffff167c01000000000000000000000000000000000000000000000000000000000281526004018082815260200191505060206040518083038186803b1580156116a357600080fd5b505afa1580156116b7573d6000803e3d6000fd5b505050506040513d60208110156116cd57600080fd5b810190808051906020019092919050505073ffffffffffffffffffffffffffffffffffffffff1614151561170057600080fd5b600760009054906101000a900460ff1615151561171c57600080fd5b60011515600760019054906101000a900460ff16151514151561173e57600080fd5b600060086000888152602001908152602001600020600101541480156117c65750600073ffffffffffffffffffffffffffffffffffffffff166008600088815260200190815260200160002060000160009054906101000a900473ffffffffffffffffffffffffffffffffffffffff1673ffffffffffffffffffffffffffffffffffffffff16145b15156117d157600080fd5b6000600460009054906101000a900473ffffffffffffffffffffffffffffffffffffffff1673ffffffffffffffffffffffffffffffffffffffff166370a08231336040518263ffffffff167c0100000000000000000000000000000000000000000000000000000000028152600401808273ffffffffffffffffffffffffffffffffffffffff1673ffffffffffffffffffffffffffffffffffffffff16815260200191505060206040518083038186803b15801561188e57600080fd5b505afa1580156118a2573d6000803e3d6000fd5b505050506040513d60208110156118b857600080fd5b81019080805190602001909291905050501415156118d557600080fd5b6000600960008673ffffffffffffffffffffffffffffffffffffffff1673ffffffffffffffffffffffffffffffffffffffff1681526020019081526020016000205414151561192357600080fd5b600460009054906101000a900473ffffffffffffffffffffffffffffffffffffffff1673ffffffffffffffffffffffffffffffffffffffff166342842e0e3386896040518463ffffffff167c0100000000000000000000000000000000000000000000000000000000028152600401808473ffffffffffffffffffffffffffffffffffffffff1673ffffffffffffffffffffffffffffffffffffffff1681526020018373ffffffffffffffffffffffffffffffffffffffff1673ffffffffffffffffffffffffffffffffffffffff1681526020018281526020019350505050600060405180830381600087803b158015611a1c57600080fd5b505af1158015611a30573d6000803e3d6000fd5b505050506001925050509392505050565b60008073ffffffffffffffffffffffffffffffffffffffff168273ffffffffffffffffffffffffffffffffffffffff1614151515611a7e57600080fd5b6000600960008473ffffffffffffffffffffffffffffffffffffffff1673ffffffffffffffffffffffffffffffffffffffff16815260200190815260200160002054141515611ad05760019050611ad5565b600090505b919050565b6000813373ffffffffffffffffffffffffffffffffffffffff166008600083815260200190815260200160002060000160009054906101000a900473ffffffffffffffffffffffffffffffffffffffff1673ffffffffffffffffffffffffffffffffffffffff16148015611b7b5750600073ffffffffffffffffffffffffffffffffffffffff163373ffffffffffffffffffffffffffffffffffffffff1614155b1515611b8657600080fd5b60006008600083815260200190815260200160002060010154111515611bab57600080fd5b823373ffffffffffffffffffffffffffffffffffffffff16600460009054906101000a900473ffffffffffffffffffffffffffffffffffffffff1673ffffffffffffffffffffffffffffffffffffffff16636352211e836040518263ffffffff167c01000000000000000000000000000000000000000000000000000000000281526004018082815260200191505060206040518083038186803b158015611c5257600080fd5b505afa158015611c66573d6000803e3d6000fd5b505050506040513d6020811015611c7c57600080fd5b810190808051906020019092919050505073ffffffffffffffffffffffffffffffffffffffff16141515611caf57600080fd5b600760009054906101000a900460ff16151515611ccb57600080fd5b6127106006546008600087815260200190815260200160002060010154010343111515611cf757600080fd5b4360086000868152602001908152602001600020600101819055504392505050919050565b60016000600381101515611d2c57fe5b0160009054906101000a900473ffffffffffffffffffffffffffffffffffffffff1673ffffffffffffffffffffffffffffffffffffffff163373ffffffffffffffffffffffffffffffffffffffff161480611de25750600180600381101515611d9157fe5b0160009054906101000a900473ffffffffffffffffffffffffffffffffffffffff1673ffffffffffffffffffffffffffffffffffffffff163373ffffffffffffffffffffffffffffffffffffffff16145b80611e49575060016002600381101515611df857fe5b0160009054906101000a900473ffffffffffffffffffffffffffffffffffffffff1673ffffffffffffffffffffffffffffffffffffffff163373ffffffffffffffffffffffffffffffffffffffff16145b1515611e5457600080fd5b600760009054906101000a900460ff16151515611e7057600080fd5b6001600760006101000a81548160ff021916908315150217905550565b600460009054906101000a900473ffffffffffffffffffffffffffffffffffffffff1681565b6000809054906101000a900473ffffffffffffffffffffffffffffffffffffffff1681565b600060016000600381101515611eea57fe5b0160009054906101000a900473ffffffffffffffffffffffffffffffffffffffff1673ffffffffffffffffffffffffffffffffffffffff163373ffffffffffffffffffffffffffffffffffffffff161480611fa05750600180600381101515611f4f57fe5b0160009054906101000a900473ffffffffffffffffffffffffffffffffffffffff1673ffffffffffffffffffffffffffffffffffffffff163373ffffffffffffffffffffffffffffffffffffffff16145b80612007575060016002600381101515611fb657fe5b0160009054906101000a900473ffffffffffffffffffffffffffffffffffffffff1673ffffffffffffffffffffffffffffffffffffffff163373ffffffffffffffffffffffffffffffffffffffff16145b151561201257600080fd5b600760019054906101000a900460ff1615600760016101000a81548160ff021916908315150217905550600760019054906101000a900460ff16905090565b6000813373ffffffffffffffffffffffffffffffffffffffff16600460009054906101000a900473ffffffffffffffffffffffffffffffffffffffff1673ffffffffffffffffffffffffffffffffffffffff16636352211e836040518263ffffffff167c01000000000000000000000000000000000000000000000000000000000281526004018082815260200191505060206040518083038186803b1580156120fa57600080fd5b505afa15801561210e573d6000803e3d6000fd5b505050506040513d602081101561212457600080fd5b810190808051906020019092919050505073ffffffffffffffffffffffffffffffffffffffff1614151561215757600080fd5b8260007f11111111111111111111111111111111111111111111111111111111111111118281151561218557fe5b061415151561219357600080fd5b600760009054906101000a900460ff161515156121af57600080fd5b600060086000868152602001908152602001600020600101541480156122375750600073ffffffffffffffffffffffffffffffffffffffff166008600086815260200190815260200160002060000160009054906101000a900473ffffffffffffffffffffffffffffffffffffffff1673ffffffffffffffffffffffffffffffffffffffff16145b151561224257600080fd5b6000600960003373ffffffffffffffffffffffffffffffffffffffff1673ffffffffffffffffffffffffffffffffffffffff1681526020019081526020016000205414151561229057600080fd5b60a0604051908101604052803373ffffffffffffffffffffffffffffffffffffffff168152602001438152602001600081526020016000600102815260200160206040519081016040528060008152508152506008600086815260200190815260200160002060008201518160000160006101000a81548173ffffffffffffffffffffffffffffffffffffffff021916908373ffffffffffffffffffffffffffffffffffffffff1602179055506020820151816001015560408201518160020155606082015181600301556080820151816004019080519060200190612377929190613258565b5090505083600960003373ffffffffffffffffffffffffffffffffffffffff1673ffffffffffffffffffffffffffffffffffffffff16815260200190815260200160002081905550600192505050919050565b600060055434101515156123dd57600080fd5b60011515600760019054906101000a900460ff1615151415156123ff57600080fd5b6000600460009054906101000a900473ffffffffffffffffffffffffffffffffffffffff1673ffffffffffffffffffffffffffffffffffffffff16632f745c593060006040518363ffffffff167c0100000000000000000000000000000000000000000000000000000000028152600401808373ffffffffffffffffffffffffffffffffffffffff1673ffffffffffffffffffffffffffffffffffffffff1681526020018281526020019250505060206040518083038186803b1580156124c557600080fd5b505afa1580156124d9573d6000803e3d6000fd5b505050506040513d60208110156124ef57600080fd5b81019080805190602001909291905050501415151561250d57600080fd5b6000600460009054906101000a900473ffffffffffffffffffffffffffffffffffffffff1673ffffffffffffffffffffffffffffffffffffffff166370a08231336040518263ffffffff167c0100000000000000000000000000000000000000000000000000000000028152600401808273ffffffffffffffffffffffffffffffffffffffff1673ffffffffffffffffffffffffffffffffffffffff16815260200191505060206040518083038186803b1580156125ca57600080fd5b505afa1580156125de573d6000803e3d6000fd5b505050506040513d60208110156125f457600080fd5b810190808051906020019092919050505014151561261157600080fd5b6000600960003373ffffffffffffffffffffffffffffffffffffffff1673ffffffffffffffffffffffffffffffffffffffff1681526020019081526020016000205414151561265f57600080fd5b6000600460009054906101000a900473ffffffffffffffffffffffffffffffffffffffff1673ffffffffffffffffffffffffffffffffffffffff16632f745c593060006040518363ffffffff167c0100000000000000000000000000000000000000000000000000000000028152600401808373ffffffffffffffffffffffffffffffffffffffff1673ffffffffffffffffffffffffffffffffffffffff1681526020018281526020019250505060206040518083038186803b15801561272557600080fd5b505afa158015612739573d6000803e3d6000fd5b505050506040513d602081101561274f57600080fd5b81019080805190602001909291905050509050600460009054906101000a900473ffffffffffffffffffffffffffffffffffffffff1673ffffffffffffffffffffffffffffffffffffffff166342842e0e3033846040518463ffffffff167c0100000000000000000000000000000000000000000000000000000000028152600401808473ffffffffffffffffffffffffffffffffffffffff1673ffffffffffffffffffffffffffffffffffffffff1681526020018373ffffffffffffffffffffffffffffffffffffffff1673ffffffffffffffffffffffffffffffffffffffff1681526020018281526020019350505050600060405180830381600087803b15801561285b57600080fd5b505af115801561286f573d6000803e3d6000fd5b50505050600191505090565b60006001600060038110151561288d57fe5b0160009054906101000a900473ffffffffffffffffffffffffffffffffffffffff1673ffffffffffffffffffffffffffffffffffffffff163373ffffffffffffffffffffffffffffffffffffffff16148061294357506001806003811015156128f257fe5b0160009054906101000a900473ffffffffffffffffffffffffffffffffffffffff1673ffffffffffffffffffffffffffffffffffffffff163373ffffffffffffffffffffffffffffffffffffffff16145b806129aa57506001600260038110151561295957fe5b0160009054906101000a900473ffffffffffffffffffffffffffffffffffffffff1673ffffffffffffffffffffffffffffffffffffffff163373ffffffffffffffffffffffffffffffffffffffff16145b15156129b557600080fd5b6000600a60008473ffffffffffffffffffffffffffffffffffffffff1673ffffffffffffffffffffffffffffffffffffffff16815260200190815260200160002060006101000a81548160ff02191690831515021790555060019050919050565b60065481565b60008073ffffffffffffffffffffffffffffffffffffffff166008600084815260200190815260200160002060000160009054906101000a900473ffffffffffffffffffffffffffffffffffffffff1673ffffffffffffffffffffffffffffffffffffffff16141515612a925760019050612a97565b600090505b919050565b60008073ffffffffffffffffffffffffffffffffffffffff168273ffffffffffffffffffffffffffffffffffffffff1614151515612ad957600080fd5b6000600960008473ffffffffffffffffffffffffffffffffffffffff1673ffffffffffffffffffffffffffffffffffffffff16815260200190815260200160002054905060008114158015612b5f575043600860008381526020019081526020016000206002015460065460086000858152602001908152602001600020600101540103115b15612b6e576001915050612b74565b60009150505b919050565b606060006008600084815260200190815260200160002060010154111515612ba057600080fd5b600860008381526020019081526020016000206004018054600181600116156101000203166002900480601f016020809104026020016040519081016040528092919081815260200182805460018160011615610100020316600290048015612c4a5780601f10612c1f57610100808354040283529160200191612c4a565b820191906000526020600020905b815481529060010190602001808311612c2d57829003601f168201915b50505050509050919050565b600060011515600a60003373ffffffffffffffffffffffffffffffffffffffff1673ffffffffffffffffffffffffffffffffffffffff16815260200190815260200160002060009054906101000a900460ff161515141515612cb757600080fd5b60006008600085815260200190815260200160002060010154111515612cdc57600080fd5b60065482101515612cec57600080fd5b43826008600086815260200190815260200160002060020154011115612d2f57600143036008600085815260200190815260200160002060020181905550612d54565b8160086000858152602001908152602001600020600201600082825401925050819055505b6008600084815260200190815260200160002060020154905092915050565b60008260016000600381101515612d8657fe5b0160009054906101000a900473ffffffffffffffffffffffffffffffffffffffff1673ffffffffffffffffffffffffffffffffffffffff163373ffffffffffffffffffffffffffffffffffffffff161480612e3c5750600180600381101515612deb57fe5b0160009054906101000a900473ffffffffffffffffffffffffffffffffffffffff1673ffffffffffffffffffffffffffffffffffffffff163373ffffffffffffffffffffffffffffffffffffffff16145b80612ea3575060016002600381101515612e5257fe5b0160009054906101000a900473ffffffffffffffffffffffffffffffffffffffff1673ffffffffffffffffffffffffffffffffffffffff163373ffffffffffffffffffffffffffffffffffffffff16145b80612ed9575060007f111111111111111111111111111111111111111111111111111111111111111182811515612ed657fe5b06145b1515612ee457600080fd5b60006008600086815260200190815260200160002060010154118015612f6d5750600073ffffffffffffffffffffffffffffffffffffffff166008600086815260200190815260200160002060000160009054906101000a900473ffffffffffffffffffffffffffffffffffffffff1673ffffffffffffffffffffffffffffffffffffffff1614155b1515612f7857600080fd5b826008600086815260200190815260200160002060030181905550600191505092915050565b600181600381101515612fad57fe5b016000915054906101000a900473ffffffffffffffffffffffffffffffffffffffff1681565b8260016000600381101515612fe457fe5b0160009054906101000a900473ffffffffffffffffffffffffffffffffffffffff1673ffffffffffffffffffffffffffffffffffffffff163373ffffffffffffffffffffffffffffffffffffffff16148061309a575060018060038110151561304957fe5b0160009054906101000a900473ffffffffffffffffffffffffffffffffffffffff1673ffffffffffffffffffffffffffffffffffffffff163373ffffffffffffffffffffffffffffffffffffffff16145b806131015750600160026003811015156130b057fe5b0160009054906101000a900473ffffffffffffffffffffffffffffffffffffffff1673ffffffffffffffffffffffffffffffffffffffff163373ffffffffffffffffffffffffffffffffffffffff16145b80613137575060007f11111111111111111111111111111111111111111111111111111111111111118281151561313457fe5b06145b151561314257600080fd5b6000600860008681526020019081526020016000206001015411151561316757600080fd5b828260086000878152602001908152602001600020600401919061318c9291906132d8565b5050505050565b60055481565b600a6020528060005260406000206000915054906101000a900460ff1681565b6000809054906101000a900473ffffffffffffffffffffffffffffffffffffffff1673ffffffffffffffffffffffffffffffffffffffff163373ffffffffffffffffffffffffffffffffffffffff1614151561321457600080fd5b80600460006101000a81548173ffffffffffffffffffffffffffffffffffffffff021916908373ffffffffffffffffffffffffffffffffffffffff16021790555050565b828054600181600116156101000203166002900490600052602060002090601f016020900481019282601f1061329957805160ff19168380011785556132c7565b828001600101855582156132c7579182015b828111156132c65782518255916020019190600101906132ab565b5b5090506132d49190613358565b5090565b828054600181600116156101000203166002900490600052602060002090601f016020900481019282601f1061331957803560ff1916838001178555613347565b82800160010185558215613347579182015b8281111561334657823582559160200191906001019061332b565b5b5090506133549190613358565b5090565b61337a91905b8082111561337657600081600090555060010161335e565b5090565b9056fea165627a7a723058201abeccf6d5c019758050f6523f1444aea8a76ef447c754d82985f460370d66a60029",
  "source": "pragma solidity ^0.5.2;\n\n// import \"./RNTInterface.sol\";\nimport \"./ELEMInterface.sol\";\n\n\ncontract MemberShip {\n    address public owner;\n    address[3] public coreManagers;\n    address public ELEMAddr;\n    uint public fee = 10000000000000000;\n    uint public memberPeriod = 40000;  // 40000 blocks ~ a week in rinkeby, for test only\n    bool public paused = false;\n    bool public canTradeToken = true;  // before \"trade\" implementation\n\n    struct MemberInfo {\n        address addr;\n        uint since;  // beginning blockNo of previous membership\n        // addPenalty() make sure \"penalty\" is always less than block.number\n        uint penalty;  // the membership is valid until: since + memberPeriod - penalty;\n        bytes32 kycid;  // know your customer id, leave it for future\n        string notes;\n    }\n\n    mapping (uint => MemberInfo) internal memberDB;  // NFT to MemberInfo\n    mapping (address => uint) internal addressToId;  // address to membership\n\n    mapping (address => bool) public appWhitelist;\n\n    constructor(address _ELEMAddr) public {\n        owner = msg.sender;\n        coreManagers = [0xB440ea2780614b3c6a00e512f432785E7dfAFA3E,\n                        0x4AD56641C569C91C64C28a904cda50AE5326Da41,\n                        0x362ea687b8a372a0235466a097e578d55491d37f];\n        ELEMAddr = _ELEMAddr;\n        // RNTAddr  = _RNTAddr;\n        // allocate membership here?\n    }\n\n    modifier ownerOnly() {\n        require(msg.sender == owner);\n        _;\n    }\n\n    modifier coreManagerOnly() {\n        require(msg.sender == coreManagers[0] || msg.sender == coreManagers[1] || msg.sender == coreManagers[2]);\n        _;\n    }\n\n    modifier managerOnly(uint _tokenId) {\n        require(msg.sender == coreManagers[0] || msg.sender == coreManagers[1] || msg.sender == coreManagers[2]\n                || _tokenId % 7719472615821079694904732333912527190217998977709370935963838933860875309329 == 0);\n        // uint256(0x1111111111111111111111111111111111111111111111111111111111111111 = 7.71947....e72\n        _;\n    }\n\n    modifier feePaid() {\n        require(msg.value >= fee);  // or \"==\"?\n        _;\n    }\n\n    modifier isMember(uint _tokenId) {\n        require(memberDB[_tokenId].addr == msg.sender && msg.sender != address(0));\n        require(memberDB[_tokenId].since > 0);\n        // require(addressToId[msg.sender] == _tokenId);\n        _;\n    }\n\n    modifier isActiveMember(uint _tokenId) {\n        require(memberDB[_tokenId].addr == msg.sender && msg.sender != address(0));\n        require(memberDB[_tokenId].since + memberPeriod - memberDB[_tokenId].penalty > block.number);\n        // is it possible that penalty >= since or block.number?\n        _;\n    }\n\n    modifier isNFTOwner(uint _tokenId) {\n        require(iELEM(ELEMAddr).ownerOf(_tokenId) == msg.sender);\n        _;\n    }\n\n    modifier validNFT(uint256 _tokenId) {\n        require(iELEM(ELEMAddr).ownerOf(_tokenId) != address(0));\n        _;\n    }\n\n    // modifier isSynced(uint _tokenId){ // where/when to use it? What if somethings' wrong?\n    //     require(ERC721(ELEMAddr).idToOwner[_tokenId] == memberDB[_tokenId].addr);\n    // }\n\n    modifier isNotSpecialToken(uint _tokenId) {\n        // require(_tokenId > uint256(0x0000ffffffffffffffffffffffffffffffffffffffffffffffffffffffffffff));\n        // require(_tokenId > 1766847064778384329583297500742918515827483896875618958121606201292619775);\n        // require(_tokenId % uint256(0x1111111111111111111111111111111111111111111111111111111111111111 != 0));\n        require(_tokenId % 7719472615821079694904732333912527190217998977709370935963838933860875309329 != 0);\n        _;\n    }\n\n    modifier isNotManagerToken(uint _tokenId) {\n        // require(_tokenId % uint256(0x1111111111111111111111111111111111111111111111111111111111111111 != 0));\n        require(_tokenId % 7719472615821079694904732333912527190217998977709370935963838933860875309329 != 0);\n        _;\n    }\n\n    modifier whenNotPaused() {\n        require(!paused);\n        _;\n    }\n\n    modifier whenPaused {\n        require(paused);\n        _;\n    }\n\n    function allocateCoreManagersNFT() internal ownerOnly {\n        // allocate NFT to coreManagers, only run it in constructor\n        iELEM(ELEMAddr).mint(coreManagers[0],\n                             uint(0x1111111111111111111111111111111111111111111111111111111111111111),\n                             \"1111111111111111111111111111111111111111111111111111111111111111\");\n        iELEM(ELEMAddr).mint(coreManagers[1],\n                             uint(0x2222222222222222222222222222222222222222222222222222222222222222),\n                             \"2222222222222222222222222222222222222222222222222222222222222222\");\n        iELEM(ELEMAddr).mint(coreManagers[2],\n                             uint(0x3333333333333333333333333333333333333333333333333333333333333333),\n                             \"3333333333333333333333333333333333333333333333333333333333333333\");\n    }\n\n    // use \"putNFTForSale()\", \"canTradeToken=true\", \"buyToken\", and \"transferToken\" before the \"trading\"\n    // contract and the corresponding state channel are implemented\n    function putNFTForSale(uint _tokenId) public coreManagerOnly isNFTOwner(_tokenId) isNotSpecialToken(_tokenId) {\n        iELEM(ELEMAddr).safeTransferFrom(msg.sender, address(this), _tokenId);\n    }\n\n    function tradeTokenToggle() public coreManagerOnly returns (bool) {\n        canTradeToken = !canTradeToken;\n        return canTradeToken;\n    }\n\n    function buyToken() public payable feePaid returns (bool) {\n        require(canTradeToken == true);\n        require(iELEM(ELEMAddr).tokenOfOwnerByIndex(address(this), 0) != 0);  // there are NFT for sale\n        require(iELEM(ELEMAddr).balanceOf(msg.sender) == 0);  // buyer has no NFT\n        require(addressToId[msg.sender] == 0);  // buyer is not a member\n        uint _tokenId = iELEM(ELEMAddr).tokenOfOwnerByIndex(address(this), 0);\n        iELEM(ELEMAddr).safeTransferFrom(address(this), msg.sender, _tokenId);\n        return true;\n    }\n\n    function transferToken(\n        uint _tokenToTransfer,\n        uint _tokenId,\n        address _receiver\n    ) public isMember(_tokenId) isNFTOwner(_tokenId) whenNotPaused returns (bool) {\n        require(canTradeToken == true);\n        require(memberDB[_tokenToTransfer].since == 0 && memberDB[_tokenToTransfer].addr == address(0));\n        require(iELEM(ELEMAddr).balanceOf(msg.sender) == 0);  // receiver has no NFT\n        require(addressToId[_receiver] == 0);  // receiver is not a member\n        iELEM(ELEMAddr).safeTransferFrom(msg.sender, _receiver, _tokenToTransfer);\n        return true;\n    }\n\n    // membership\n    function bindMembership(uint _tokenId) public isNFTOwner(_tokenId) isNotManagerToken(_tokenId) whenNotPaused returns (bool) {\n        require(memberDB[_tokenId].since == 0 && memberDB[_tokenId].addr == address(0));\n        require(addressToId[msg.sender] == 0);  // the address is not yet bind to any NFT id\n        // require ...\n        memberDB[_tokenId] = MemberInfo(msg.sender, block.number, 0, bytes32(0), \"\");\n        addressToId[msg.sender] = _tokenId;\n        return true;\n    }\n\n    function unbindMembership(uint _tokenId) public isNFTOwner(_tokenId) isMember(_tokenId) whenNotPaused returns (bool) {\n        // active member cannot unbind and thus cannot trasnfer membership/Token\n        require(memberDB[_tokenId].since + memberPeriod - memberDB[_tokenId].penalty < block.number);\n        memberDB[_tokenId] = MemberInfo(address(0), 0, 0, bytes32(0), \"\");\n        addressToId[msg.sender] = 0;\n        return true;\n    }\n\n    function renewMembership(uint _tokenId) public payable isMember(_tokenId) isNFTOwner(_tokenId) whenNotPaused returns (uint) {\n        require(block.number > memberDB[_tokenId].since + memberPeriod - 10000); // 10000 rinkeby blocks ~1.7 days\n        memberDB[_tokenId].since = block.number;\n        return block.number;\n    }\n\n    function assginKYCid(uint _tokenId, bytes32 _kycid) external managerOnly(_tokenId) returns (bool) {\n        // instead of \"managerOnly\", probably add another group to do that\n        require(memberDB[_tokenId].since > 0 && memberDB[_tokenId].addr != address(0));\n        memberDB[_tokenId].kycid = _kycid;\n        return true;\n    }\n\n    function addWhitelistApps(address _addr) public coreManagerOnly returns (bool) {\n        appWhitelist[_addr] = true;\n        return true;\n    }\n\n    function rmWhitelistApps(address _addr) public coreManagerOnly returns (bool) {\n        appWhitelist[_addr] = false;\n        return true;\n    }\n\n    function addPenalty(uint _tokenId, uint _penalty) external returns (uint) {\n        require(appWhitelist[msg.sender] == true);  // the msg.sender (usually a contract) is in appWhitelist\n        require(memberDB[_tokenId].since > 0);  // is a member\n        require(_penalty < memberPeriod);  // prevent too much penalty\n\n        // extreme case which is unlike to happen\n        if (memberDB[_tokenId].penalty + _penalty > block.number) {\n            memberDB[_tokenId].penalty = block.number - 1;  // if 0 then not a member\n        } else {\n            memberDB[_tokenId].penalty += _penalty;\n        }\n        return memberDB[_tokenId].penalty;\n    }\n\n    function readNotes(uint _tokenId) external view returns (string memory) {\n        require(memberDB[_tokenId].since > 0);\n        return memberDB[_tokenId].notes;\n    }\n\n    function addNotes(uint _tokenId, string calldata _notes) external managerOnly(_tokenId) {\n        require(memberDB[_tokenId].since > 0);\n        memberDB[_tokenId].notes = _notes;\n    }\n\n    // function membershipGiveaway(address _addr, uint _tokenId) public coreManagerOnly(_tokenId) isNFTOwner(_tokenId) returns (bool){\n    //     // assume the token is valid and owned by manager\n    //     require(memberDB[_tokenId].addr == address(0));  // no one use the token as member\n    //     require(addressToId[_addr] == 0);  // the addr is not yet a member\n    //     // require ...\n    //     memberDB[_tokenId] = MemberInfo(_addr, block.number, 0, bytes32(0), '');\n    //     addressToId[_addr] = _tokenId;\n    //     string memory uri = '';\n    //     require(iELEM(ELEMAddr).mint(_addr, _tokenId, uri) == true);\n    //     return true;\n    // }\n\n    // some query functions\n    function addrIsMember(address _addr) public view returns (bool) {\n        require(_addr != address(0));\n        if (addressToId[_addr] != 0) {\n            return true;\n        } else {\n            return false;\n        }\n    }\n\n    function addrIsActiveMember(address _addr) public view returns (bool) {\n        require(_addr != address(0));\n        uint _tokenId = addressToId[_addr];\n        if (_tokenId != 0 && memberDB[_tokenId].since + memberPeriod - memberDB[_tokenId].penalty > block.number) {\n            return true;\n        }\n        return false;\n    }\n\n    function tokenIsMember(uint _tokenId) public view returns (bool) {\n        if (memberDB[_tokenId].addr != address(0)) {\n            return true;\n        } else {\n            return false;\n        }\n    }\n\n    function tokenIsActiveMember(uint _tokenId) public view returns (bool) {\n        if (memberDB[_tokenId].since + memberPeriod - memberDB[_tokenId].penalty > block.number) {\n            return true;\n        } else {\n            return false;\n        }\n    }\n\n    function addrToTokenId(address _addr) external view returns (uint) {\n        return addressToId[_addr];\n    }\n\n    // upgradable\n    function pause() external coreManagerOnly whenNotPaused {\n        paused = true;\n    }\n\n    function unpause() public ownerOnly whenPaused {\n        // set to ownerOnly in case accounts of other managers are compromised\n        paused = false;\n    }\n\n    function updateELEMAddr(address _addr) external ownerOnly {\n        //require(ELEMAddr == address(0)); // comment to allow this to be changed many times\n        ELEMAddr = _addr;\n    }\n\n}\n",
  "sourcePath": "/home/kai/Work/project/GameEth/contracts/MemberShip.sol",
  "compiler": {
    "name": "solc",
    "version": "0.5.2+commit.1df8f40c.Linux.g++"
  },
  "schemaVersion": "3.0.1",
  "updatedAt": "2019-02-13T22:15:38.677Z",
  "devdoc": {
    "methods": {}
  },
  "userdoc": {
    "methods": {}
  }
}