{
  "contractName": "MemberShip",
  "abi": [
    {
      "constant": true,
      "inputs": [
        {
          "name": "",
          "type": "uint256"
        }
      ],
      "name": "coreManager",
      "outputs": [
        {
          "name": "",
          "type": "address"
        }
      ],
      "payable": false,
      "stateMutability": "view",
      "type": "function",
      "signature": "0x0d0d80ad"
    },
    {
      "constant": true,
      "inputs": [],
      "name": "canTradeToken",
      "outputs": [
        {
          "name": "",
          "type": "bool"
        }
      ],
      "payable": false,
      "stateMutability": "view",
      "type": "function",
      "signature": "0x351f9501"
    },
    {
      "constant": true,
      "inputs": [],
      "name": "paused",
      "outputs": [
        {
          "name": "",
          "type": "bool"
        }
      ],
      "payable": false,
      "stateMutability": "view",
      "type": "function",
      "signature": "0x5c975abb"
    },
    {
      "constant": true,
      "inputs": [],
      "name": "ELEMAddr",
      "outputs": [
        {
          "name": "",
          "type": "address"
        }
      ],
      "payable": false,
      "stateMutability": "view",
      "type": "function",
      "signature": "0x885869dc"
    },
    {
      "constant": true,
      "inputs": [],
      "name": "owner",
      "outputs": [
        {
          "name": "",
          "type": "address"
        }
      ],
      "payable": false,
      "stateMutability": "view",
      "type": "function",
      "signature": "0x8da5cb5b"
    },
    {
      "constant": true,
      "inputs": [],
      "name": "memberPeriod",
      "outputs": [
        {
          "name": "",
          "type": "uint256"
        }
      ],
      "payable": false,
      "stateMutability": "view",
      "type": "function",
      "signature": "0xaba35b72"
    },
    {
      "constant": true,
      "inputs": [],
      "name": "fee",
      "outputs": [
        {
          "name": "",
          "type": "uint256"
        }
      ],
      "payable": false,
      "stateMutability": "view",
      "type": "function",
      "signature": "0xddca3f43"
    },
    {
      "constant": true,
      "inputs": [
        {
          "name": "",
          "type": "address"
        }
      ],
      "name": "appWhitelist",
      "outputs": [
        {
          "name": "",
          "type": "bool"
        }
      ],
      "payable": false,
      "stateMutability": "view",
      "type": "function",
      "signature": "0xfe2b5de1"
    },
    {
      "inputs": [
        {
          "name": "_ELEMAddr",
          "type": "address"
        }
      ],
      "payable": false,
      "stateMutability": "nonpayable",
      "type": "constructor",
      "signature": "constructor"
    },
    {
      "constant": false,
      "inputs": [],
      "name": "allocateCoreManagersNFT",
      "outputs": [],
      "payable": false,
      "stateMutability": "nonpayable",
      "type": "function",
      "signature": "0xe7682200"
    },
    {
      "constant": false,
      "inputs": [
        {
          "name": "_tokenId",
          "type": "uint256"
        }
      ],
      "name": "putNFTForSale",
      "outputs": [],
      "payable": false,
      "stateMutability": "nonpayable",
      "type": "function",
      "signature": "0x557d21fc"
    },
    {
      "constant": false,
      "inputs": [],
      "name": "tradeTokenToggle",
      "outputs": [
        {
          "name": "",
          "type": "bool"
        }
      ],
      "payable": false,
      "stateMutability": "nonpayable",
      "type": "function",
      "signature": "0x91e842af"
    },
    {
      "constant": false,
      "inputs": [],
      "name": "buyToken",
      "outputs": [
        {
          "name": "",
          "type": "bool"
        }
      ],
      "payable": true,
      "stateMutability": "payable",
      "type": "function",
      "signature": "0xa4821719"
    },
    {
      "constant": false,
      "inputs": [
        {
          "name": "_tokenToTransfer",
          "type": "uint256"
        },
        {
          "name": "_tokenId",
          "type": "uint256"
        },
        {
          "name": "_receiver",
          "type": "address"
        }
      ],
      "name": "transferToken",
      "outputs": [
        {
          "name": "",
          "type": "bool"
        }
      ],
      "payable": false,
      "stateMutability": "nonpayable",
      "type": "function",
      "signature": "0x6823e680"
    },
    {
      "constant": false,
      "inputs": [
        {
          "name": "_tokenId",
          "type": "uint256"
        }
      ],
      "name": "bindMembership",
      "outputs": [
        {
          "name": "",
          "type": "bool"
        }
      ],
      "payable": false,
      "stateMutability": "nonpayable",
      "type": "function",
      "signature": "0x9b8bb779"
    },
    {
      "constant": false,
      "inputs": [
        {
          "name": "_tokenId",
          "type": "uint256"
        }
      ],
      "name": "unbindMembership",
      "outputs": [
        {
          "name": "",
          "type": "bool"
        }
      ],
      "payable": false,
      "stateMutability": "nonpayable",
      "type": "function",
      "signature": "0x329ae6f2"
    },
    {
      "constant": false,
      "inputs": [
        {
          "name": "_tokenId",
          "type": "uint256"
        }
      ],
      "name": "renewMembership",
      "outputs": [
        {
          "name": "",
          "type": "uint256"
        }
      ],
      "payable": true,
      "stateMutability": "payable",
      "type": "function",
      "signature": "0x7c9669ac"
    },
    {
      "constant": false,
      "inputs": [
        {
          "name": "_tokenId",
          "type": "uint256"
        },
        {
          "name": "_kycid",
          "type": "bytes32"
        }
      ],
      "name": "assginKYCid",
      "outputs": [
        {
          "name": "",
          "type": "bool"
        }
      ],
      "payable": false,
      "stateMutability": "nonpayable",
      "type": "function",
      "signature": "0xc9a69336"
    },
    {
      "constant": false,
      "inputs": [
        {
          "name": "_addr",
          "type": "address"
        }
      ],
      "name": "addWhitelistApps",
      "outputs": [
        {
          "name": "",
          "type": "bool"
        }
      ],
      "payable": false,
      "stateMutability": "nonpayable",
      "type": "function",
      "signature": "0x0d2da680"
    },
    {
      "constant": false,
      "inputs": [
        {
          "name": "_addr",
          "type": "address"
        }
      ],
      "name": "rmWhitelistApps",
      "outputs": [
        {
          "name": "",
          "type": "bool"
        }
      ],
      "payable": false,
      "stateMutability": "nonpayable",
      "type": "function",
      "signature": "0xa7f70e73"
    },
    {
      "constant": false,
      "inputs": [
        {
          "name": "_tokenId",
          "type": "uint256"
        },
        {
          "name": "_penalty",
          "type": "uint256"
        }
      ],
      "name": "addPenalty",
      "outputs": [
        {
          "name": "",
          "type": "uint256"
        }
      ],
      "payable": false,
      "stateMutability": "nonpayable",
      "type": "function",
      "signature": "0xc6906749"
    },
    {
      "constant": true,
      "inputs": [
        {
          "name": "_tokenId",
          "type": "uint256"
        }
      ],
      "name": "readNotes",
      "outputs": [
        {
          "name": "",
          "type": "string"
        }
      ],
      "payable": false,
      "stateMutability": "view",
      "type": "function",
      "signature": "0xc449b262"
    },
    {
      "constant": false,
      "inputs": [
        {
          "name": "_tokenId",
          "type": "uint256"
        },
        {
          "name": "_notes",
          "type": "string"
        }
      ],
      "name": "addNotes",
      "outputs": [],
      "payable": false,
      "stateMutability": "nonpayable",
      "type": "function",
      "signature": "0xd9ed28b7"
    },
    {
      "constant": true,
      "inputs": [
        {
          "name": "_addr",
          "type": "address"
        }
      ],
      "name": "addrIsMember",
      "outputs": [
        {
          "name": "",
          "type": "bool"
        }
      ],
      "payable": false,
      "stateMutability": "view",
      "type": "function",
      "signature": "0x7a7d32e5"
    },
    {
      "constant": true,
      "inputs": [
        {
          "name": "_addr",
          "type": "address"
        }
      ],
      "name": "addrIsActiveMember",
      "outputs": [
        {
          "name": "",
          "type": "bool"
        }
      ],
      "payable": false,
      "stateMutability": "view",
      "type": "function",
      "signature": "0xc41a32ec"
    },
    {
      "constant": true,
      "inputs": [
        {
          "name": "_tokenId",
          "type": "uint256"
        }
      ],
      "name": "tokenIsMember",
      "outputs": [
        {
          "name": "",
          "type": "bool"
        }
      ],
      "payable": false,
      "stateMutability": "view",
      "type": "function",
      "signature": "0xbeb04204"
    },
    {
      "constant": true,
      "inputs": [
        {
          "name": "_tokenId",
          "type": "uint256"
        }
      ],
      "name": "tokenIsActiveMember",
      "outputs": [
        {
          "name": "",
          "type": "bool"
        }
      ],
      "payable": false,
      "stateMutability": "view",
      "type": "function",
      "signature": "0x2f8c4a59"
    },
    {
      "constant": true,
      "inputs": [
        {
          "name": "_addr",
          "type": "address"
        }
      ],
      "name": "addrToTokenId",
      "outputs": [
        {
          "name": "",
          "type": "uint256"
        }
      ],
      "payable": false,
      "stateMutability": "view",
      "type": "function",
      "signature": "0x43ddfd57"
    },
    {
      "constant": true,
      "inputs": [
        {
          "name": "_tokenId",
          "type": "uint256"
        }
      ],
      "name": "getMemberInfo",
      "outputs": [
        {
          "name": "",
          "type": "address"
        },
        {
          "name": "",
          "type": "uint256"
        },
        {
          "name": "",
          "type": "uint256"
        },
        {
          "name": "",
          "type": "bytes32"
        }
      ],
      "payable": false,
      "stateMutability": "view",
      "type": "function",
      "signature": "0xae99aa3c"
    },
    {
      "constant": false,
      "inputs": [],
      "name": "pause",
      "outputs": [],
      "payable": false,
      "stateMutability": "nonpayable",
      "type": "function",
      "signature": "0x8456cb59"
    },
    {
      "constant": false,
      "inputs": [],
      "name": "unpause",
      "outputs": [],
      "payable": false,
      "stateMutability": "nonpayable",
      "type": "function",
      "signature": "0x3f4ba83a"
    },
    {
      "constant": false,
      "inputs": [
        {
          "name": "_addr",
          "type": "address"
        }
      ],
      "name": "updateELEMAddr",
      "outputs": [],
      "payable": false,
      "stateMutability": "nonpayable",
      "type": "function",
      "signature": "0xffdcc980"
    }
  ],
  "bytecode": "0x6080604052662386f26fc10000600555619c406006556000600760006101000a81548160ff0219169083151502179055506001600760016101000a81548160ff0219169083151502179055503480156200005857600080fd5b506040516020806200427d833981018060405260208110156200007a57600080fd5b8101908080519060200190929190505050336000806101000a81548173ffffffffffffffffffffffffffffffffffffffff021916908373ffffffffffffffffffffffffffffffffffffffff16021790555060606040519081016040528073b440ea2780614b3c6a00e512f432785e7dfafa3e73ffffffffffffffffffffffffffffffffffffffff1673ffffffffffffffffffffffffffffffffffffffff168152602001734ad56641c569c91c64c28a904cda50ae5326da4173ffffffffffffffffffffffffffffffffffffffff1673ffffffffffffffffffffffffffffffffffffffff16815260200173362ea687b8a372a0235466a097e578d55491d37f73ffffffffffffffffffffffffffffffffffffffff1673ffffffffffffffffffffffffffffffffffffffff168152506001906003620001b992919062000202565b5080600460006101000a81548173ffffffffffffffffffffffffffffffffffffffff021916908373ffffffffffffffffffffffffffffffffffffffff16021790555050620002ca565b826003810192821562000271579160200282015b82811115620002705782518260006101000a81548173ffffffffffffffffffffffffffffffffffffffff021916908373ffffffffffffffffffffffffffffffffffffffff1602179055509160200191906001019062000216565b5b50905062000280919062000284565b5090565b620002c791905b80821115620002c357600081816101000a81549073ffffffffffffffffffffffffffffffffffffffff0219169055506001016200028b565b5090565b90565b613fa380620002da6000396000f3fe6080604052600436106101f5576000357c01000000000000000000000000000000000000000000000000000000009004806391e842af1161011f578063c449b262116100b2578063ddca3f4311610081578063ddca3f4314610b04578063e768220014610b2f578063fe2b5de114610b46578063ffdcc98014610baf576101f5565b8063c449b2621461090a578063c6906749146109be578063c9a6933614610a17578063d9ed28b714610a74576101f5565b8063aba35b72116100ee578063aba35b7214610793578063ae99aa3c146107be578063beb042041461084e578063c41a32ec146108a1576101f5565b806391e842af146106865780639b8bb779146106b5578063a482171914610708578063a7f70e731461072a576101f5565b8063557d21fc116101975780637c9669ac116101665780637c9669ac1461057f5780638456cb59146105c1578063885869dc146105d85780638da5cb5b1461062f576101f5565b8063557d21fc1461042f5780635c975abb1461046a5780636823e680146104995780637a7d32e514610516576101f5565b8063329ae6f2116101d3578063329ae6f214610331578063351f9501146103845780633f4ba83a146103b357806343ddfd57146103ca576101f5565b80630d0d80ad146101fa5780630d2da680146102755780632f8c4a59146102de575b600080fd5b34801561020657600080fd5b506102336004803603602081101561021d57600080fd5b8101908080359060200190929190505050610c00565b604051808273ffffffffffffffffffffffffffffffffffffffff1673ffffffffffffffffffffffffffffffffffffffff16815260200191505060405180910390f35b34801561028157600080fd5b506102c46004803603602081101561029857600080fd5b81019080803573ffffffffffffffffffffffffffffffffffffffff169060200190929190505050610c35565b604051808215151515815260200191505060405180910390f35b3480156102ea57600080fd5b506103176004803603602081101561030157600080fd5b8101908080359060200190929190505050610dd0565b604051808215151515815260200191505060405180910390f35b34801561033d57600080fd5b5061036a6004803603602081101561035457600080fd5b8101908080359060200190929190505050610f89565b604051808215151515815260200191505060405180910390f35b34801561039057600080fd5b506103996112f7565b604051808215151515815260200191505060405180910390f35b3480156103bf57600080fd5b506103c861130a565b005b3480156103d657600080fd5b50610419600480360360208110156103ed57600080fd5b81019080803573ffffffffffffffffffffffffffffffffffffffff16906020019092919050505061139d565b6040518082815260200191505060405180910390f35b34801561043b57600080fd5b506104686004803603602081101561045257600080fd5b81019080803590602001909291905050506113e6565b005b34801561047657600080fd5b5061047f611774565b604051808215151515815260200191505060405180910390f35b3480156104a557600080fd5b506104fc600480360360608110156104bc57600080fd5b810190808035906020019092919080359060200190929190803573ffffffffffffffffffffffffffffffffffffffff169060200190929190505050611787565b604051808215151515815260200191505060405180910390f35b34801561052257600080fd5b506105656004803603602081101561053957600080fd5b81019080803573ffffffffffffffffffffffffffffffffffffffff169060200190929190505050611b4b565b604051808215151515815260200191505060405180910390f35b6105ab6004803603602081101561059557600080fd5b8101908080359060200190929190505050611db1565b6040518082815260200191505060405180910390f35b3480156105cd57600080fd5b506105d6611ff3565b005b3480156105e457600080fd5b506105ed612164565b604051808273ffffffffffffffffffffffffffffffffffffffff1673ffffffffffffffffffffffffffffffffffffffff16815260200191505060405180910390f35b34801561063b57600080fd5b5061064461218a565b604051808273ffffffffffffffffffffffffffffffffffffffff1673ffffffffffffffffffffffffffffffffffffffff16815260200191505060405180910390f35b34801561069257600080fd5b5061069b6121af565b604051808215151515815260200191505060405180910390f35b3480156106c157600080fd5b506106ee600480360360208110156106d857600080fd5b8101908080359060200190929190505050612328565b604051808215151515815260200191505060405180910390f35b610710612664565b604051808215151515815260200191505060405180910390f35b34801561073657600080fd5b506107796004803603602081101561074d57600080fd5b81019080803573ffffffffffffffffffffffffffffffffffffffff169060200190929190505050612b15565b604051808215151515815260200191505060405180910390f35b34801561079f57600080fd5b506107a8612cb0565b6040518082815260200191505060405180910390f35b3480156107ca57600080fd5b506107f7600480360360208110156107e157600080fd5b8101908080359060200190929190505050612cb6565b604051808573ffffffffffffffffffffffffffffffffffffffff1673ffffffffffffffffffffffffffffffffffffffff16815260200184815260200183815260200182815260200194505050505060405180910390f35b34801561085a57600080fd5b506108876004803603602081101561087157600080fd5b8101908080359060200190929190505050612db9565b604051808215151515815260200191505060405180910390f35b3480156108ad57600080fd5b506108f0600480360360208110156108c457600080fd5b81019080803573ffffffffffffffffffffffffffffffffffffffff169060200190929190505050612e39565b604051808215151515815260200191505060405180910390f35b34801561091657600080fd5b506109436004803603602081101561092d57600080fd5b8101908080359060200190929190505050613090565b6040518080602001828103825283818151815260200191508051906020019080838360005b83811015610983578082015181840152602081019050610968565b50505050905090810190601f1680156109b05780820380516001836020036101000a031916815260200191505b509250505060405180910390f35b3480156109ca57600080fd5b50610a01600480360360408110156109e157600080fd5b81019080803590602001909291908035906020019092919050505061316d565b6040518082815260200191505060405180910390f35b348015610a2357600080fd5b50610a5a60048036036040811015610a3a57600080fd5b81019080803590602001909291908035906020019092919050505061328a565b604051808215151515815260200191505060405180910390f35b348015610a8057600080fd5b50610b0260048036036040811015610a9757600080fd5b810190808035906020019092919080359060200190640100000000811115610abe57600080fd5b820183602082011115610ad057600080fd5b80359060200191846001830284011164010000000083111715610af257600080fd5b90919293919293905050506134c2565b005b348015610b1057600080fd5b50610b1961368f565b6040518082815260200191505060405180910390f35b348015610b3b57600080fd5b50610b44613695565b005b348015610b5257600080fd5b50610b9560048036036020811015610b6957600080fd5b81019080803573ffffffffffffffffffffffffffffffffffffffff169060200190929190505050613c88565b604051808215151515815260200191505060405180910390f35b348015610bbb57600080fd5b50610bfe60048036036020811015610bd257600080fd5b81019080803573ffffffffffffffffffffffffffffffffffffffff169060200190929190505050613ca8565b005b600181600381101515610c0f57fe5b016000915054906101000a900473ffffffffffffffffffffffffffffffffffffffff1681565b600060016000600381101515610c4757fe5b0160009054906101000a900473ffffffffffffffffffffffffffffffffffffffff1673ffffffffffffffffffffffffffffffffffffffff163373ffffffffffffffffffffffffffffffffffffffff161480610cfd5750600180600381101515610cac57fe5b0160009054906101000a900473ffffffffffffffffffffffffffffffffffffffff1673ffffffffffffffffffffffffffffffffffffffff163373ffffffffffffffffffffffffffffffffffffffff16145b80610d64575060016002600381101515610d1357fe5b0160009054906101000a900473ffffffffffffffffffffffffffffffffffffffff1673ffffffffffffffffffffffffffffffffffffffff163373ffffffffffffffffffffffffffffffffffffffff16145b1515610d6f57600080fd5b6001600a60008473ffffffffffffffffffffffffffffffffffffffff1673ffffffffffffffffffffffffffffffffffffffff16815260200190815260200160002060006101000a81548160ff02191690831515021790555060019050919050565b6000436008600084815260200190815260200160002060020154600654600860008681526020019081526020016000206001015401031180610e6e575060016000600381101515610e1d57fe5b0160009054906101000a900473ffffffffffffffffffffffffffffffffffffffff1673ffffffffffffffffffffffffffffffffffffffff163373ffffffffffffffffffffffffffffffffffffffff16145b80610ed45750600180600381101515610e8357fe5b0160009054906101000a900473ffffffffffffffffffffffffffffffffffffffff1673ffffffffffffffffffffffffffffffffffffffff163373ffffffffffffffffffffffffffffffffffffffff16145b80610f3b575060016002600381101515610eea57fe5b0160009054906101000a900473ffffffffffffffffffffffffffffffffffffffff1673ffffffffffffffffffffffffffffffffffffffff163373ffffffffffffffffffffffffffffffffffffffff16145b80610f71575060007f111111111111111111111111111111111111111111111111111111111111111183811515610f6e57fe5b06145b15610f7f5760019050610f84565b600090505b919050565b6000813373ffffffffffffffffffffffffffffffffffffffff16600460009054906101000a900473ffffffffffffffffffffffffffffffffffffffff1673ffffffffffffffffffffffffffffffffffffffff16636352211e836040518263ffffffff167c01000000000000000000000000000000000000000000000000000000000281526004018082815260200191505060206040518083038186803b15801561103257600080fd5b505afa158015611046573d6000803e3d6000fd5b505050506040513d602081101561105c57600080fd5b810190808051906020019092919050505073ffffffffffffffffffffffffffffffffffffffff1614151561108f57600080fd5b823373ffffffffffffffffffffffffffffffffffffffff166008600083815260200190815260200160002060000160009054906101000a900473ffffffffffffffffffffffffffffffffffffffff1673ffffffffffffffffffffffffffffffffffffffff1614801561112e5750600073ffffffffffffffffffffffffffffffffffffffff163373ffffffffffffffffffffffffffffffffffffffff1614155b151561113957600080fd5b6000600860008381526020019081526020016000206001015411151561115e57600080fd5b600760009054906101000a900460ff1615151561117a57600080fd5b436008600086815260200190815260200160002060020154600654600860008881526020019081526020016000206001015401031015156111ba57600080fd5b60a060405190810160405280600073ffffffffffffffffffffffffffffffffffffffff16815260200160008152602001600081526020016000600102815260200160206040519081016040528060008152508152506008600086815260200190815260200160002060008201518160000160006101000a81548173ffffffffffffffffffffffffffffffffffffffff021916908373ffffffffffffffffffffffffffffffffffffffff16021790555060208201518160010155604082015181600201556060820151816003015560808201518160040190805190602001906112a3929190613d47565b509050506000600960003373ffffffffffffffffffffffffffffffffffffffff1673ffffffffffffffffffffffffffffffffffffffff16815260200190815260200160002081905550600192505050919050565b600760019054906101000a900460ff1681565b6000809054906101000a900473ffffffffffffffffffffffffffffffffffffffff1673ffffffffffffffffffffffffffffffffffffffff163373ffffffffffffffffffffffffffffffffffffffff1614151561136557600080fd5b600760009054906101000a900460ff16151561138057600080fd5b6000600760006101000a81548160ff021916908315150217905550565b6000600960008373ffffffffffffffffffffffffffffffffffffffff1673ffffffffffffffffffffffffffffffffffffffff168152602001908152602001600020549050919050565b600160006003811015156113f657fe5b0160009054906101000a900473ffffffffffffffffffffffffffffffffffffffff1673ffffffffffffffffffffffffffffffffffffffff163373ffffffffffffffffffffffffffffffffffffffff1614806114ac575060018060038110151561145b57fe5b0160009054906101000a900473ffffffffffffffffffffffffffffffffffffffff1673ffffffffffffffffffffffffffffffffffffffff163373ffffffffffffffffffffffffffffffffffffffff16145b806115135750600160026003811015156114c257fe5b0160009054906101000a900473ffffffffffffffffffffffffffffffffffffffff1673ffffffffffffffffffffffffffffffffffffffff163373ffffffffffffffffffffffffffffffffffffffff16145b151561151e57600080fd5b803373ffffffffffffffffffffffffffffffffffffffff16600460009054906101000a900473ffffffffffffffffffffffffffffffffffffffff1673ffffffffffffffffffffffffffffffffffffffff16636352211e836040518263ffffffff167c01000000000000000000000000000000000000000000000000000000000281526004018082815260200191505060206040518083038186803b1580156115c557600080fd5b505afa1580156115d9573d6000803e3d6000fd5b505050506040513d60208110156115ef57600080fd5b810190808051906020019092919050505073ffffffffffffffffffffffffffffffffffffffff1614151561162257600080fd5b8160007f11111111111111111111111111111111111111111111111111111111111111118281151561165057fe5b061415151561165e57600080fd5b600460009054906101000a900473ffffffffffffffffffffffffffffffffffffffff1673ffffffffffffffffffffffffffffffffffffffff166323b872dd3330866040518463ffffffff167c0100000000000000000000000000000000000000000000000000000000028152600401808473ffffffffffffffffffffffffffffffffffffffff1673ffffffffffffffffffffffffffffffffffffffff1681526020018373ffffffffffffffffffffffffffffffffffffffff1673ffffffffffffffffffffffffffffffffffffffff1681526020018281526020019350505050600060405180830381600087803b15801561175757600080fd5b505af115801561176b573d6000803e3d6000fd5b50505050505050565b600760009054906101000a900460ff1681565b6000823373ffffffffffffffffffffffffffffffffffffffff166008600083815260200190815260200160002060000160009054906101000a900473ffffffffffffffffffffffffffffffffffffffff1673ffffffffffffffffffffffffffffffffffffffff161480156118285750600073ffffffffffffffffffffffffffffffffffffffff163373ffffffffffffffffffffffffffffffffffffffff1614155b151561183357600080fd5b6000600860008381526020019081526020016000206001015411151561185857600080fd5b833373ffffffffffffffffffffffffffffffffffffffff16600460009054906101000a900473ffffffffffffffffffffffffffffffffffffffff1673ffffffffffffffffffffffffffffffffffffffff16636352211e836040518263ffffffff167c01000000000000000000000000000000000000000000000000000000000281526004018082815260200191505060206040518083038186803b1580156118ff57600080fd5b505afa158015611913573d6000803e3d6000fd5b505050506040513d602081101561192957600080fd5b810190808051906020019092919050505073ffffffffffffffffffffffffffffffffffffffff1614151561195c57600080fd5b600760009054906101000a900460ff1615151561197857600080fd5b60011515600760019054906101000a900460ff16151514151561199a57600080fd5b60006008600088815260200190815260200160002060010154148015611a225750600073ffffffffffffffffffffffffffffffffffffffff166008600088815260200190815260200160002060000160009054906101000a900473ffffffffffffffffffffffffffffffffffffffff1673ffffffffffffffffffffffffffffffffffffffff16145b1515611a2d57600080fd5b600460009054906101000a900473ffffffffffffffffffffffffffffffffffffffff1673ffffffffffffffffffffffffffffffffffffffff166323b872dd3386896040518463ffffffff167c0100000000000000000000000000000000000000000000000000000000028152600401808473ffffffffffffffffffffffffffffffffffffffff1673ffffffffffffffffffffffffffffffffffffffff1681526020018373ffffffffffffffffffffffffffffffffffffffff1673ffffffffffffffffffffffffffffffffffffffff1681526020018281526020019350505050600060405180830381600087803b158015611b2657600080fd5b505af1158015611b3a573d6000803e3d6000fd5b505050506001925050509392505050565b60008073ffffffffffffffffffffffffffffffffffffffff168273ffffffffffffffffffffffffffffffffffffffff1614151515611b8857600080fd5b6000600960008473ffffffffffffffffffffffffffffffffffffffff1673ffffffffffffffffffffffffffffffffffffffff16815260200190815260200160002054905060016000600381101515611bdc57fe5b0160009054906101000a900473ffffffffffffffffffffffffffffffffffffffff1673ffffffffffffffffffffffffffffffffffffffff163373ffffffffffffffffffffffffffffffffffffffff161480611c925750600180600381101515611c4157fe5b0160009054906101000a900473ffffffffffffffffffffffffffffffffffffffff1673ffffffffffffffffffffffffffffffffffffffff163373ffffffffffffffffffffffffffffffffffffffff16145b80611cf9575060016002600381101515611ca857fe5b0160009054906101000a900473ffffffffffffffffffffffffffffffffffffffff1673ffffffffffffffffffffffffffffffffffffffff163373ffffffffffffffffffffffffffffffffffffffff16145b15611d08576001915050611dac565b60008114158015611d44575060007f111111111111111111111111111111111111111111111111111111111111111182811515611d4157fe5b06145b15611d53576001915050611dac565b6000600960008573ffffffffffffffffffffffffffffffffffffffff1673ffffffffffffffffffffffffffffffffffffffff16815260200190815260200160002054141515611da6576001915050611dac565b60009150505b919050565b6000813373ffffffffffffffffffffffffffffffffffffffff166008600083815260200190815260200160002060000160009054906101000a900473ffffffffffffffffffffffffffffffffffffffff1673ffffffffffffffffffffffffffffffffffffffff16148015611e525750600073ffffffffffffffffffffffffffffffffffffffff163373ffffffffffffffffffffffffffffffffffffffff1614155b1515611e5d57600080fd5b60006008600083815260200190815260200160002060010154111515611e8257600080fd5b823373ffffffffffffffffffffffffffffffffffffffff16600460009054906101000a900473ffffffffffffffffffffffffffffffffffffffff1673ffffffffffffffffffffffffffffffffffffffff16636352211e836040518263ffffffff167c01000000000000000000000000000000000000000000000000000000000281526004018082815260200191505060206040518083038186803b158015611f2957600080fd5b505afa158015611f3d573d6000803e3d6000fd5b505050506040513d6020811015611f5357600080fd5b810190808051906020019092919050505073ffffffffffffffffffffffffffffffffffffffff16141515611f8657600080fd5b600760009054906101000a900460ff16151515611fa257600080fd5b6127106006546008600087815260200190815260200160002060010154010343111515611fce57600080fd5b4360086000868152602001908152602001600020600101819055504392505050919050565b6001600060038110151561200357fe5b0160009054906101000a900473ffffffffffffffffffffffffffffffffffffffff1673ffffffffffffffffffffffffffffffffffffffff163373ffffffffffffffffffffffffffffffffffffffff1614806120b9575060018060038110151561206857fe5b0160009054906101000a900473ffffffffffffffffffffffffffffffffffffffff1673ffffffffffffffffffffffffffffffffffffffff163373ffffffffffffffffffffffffffffffffffffffff16145b806121205750600160026003811015156120cf57fe5b0160009054906101000a900473ffffffffffffffffffffffffffffffffffffffff1673ffffffffffffffffffffffffffffffffffffffff163373ffffffffffffffffffffffffffffffffffffffff16145b151561212b57600080fd5b600760009054906101000a900460ff1615151561214757600080fd5b6001600760006101000a81548160ff021916908315150217905550565b600460009054906101000a900473ffffffffffffffffffffffffffffffffffffffff1681565b6000809054906101000a900473ffffffffffffffffffffffffffffffffffffffff1681565b6000600160006003811015156121c157fe5b0160009054906101000a900473ffffffffffffffffffffffffffffffffffffffff1673ffffffffffffffffffffffffffffffffffffffff163373ffffffffffffffffffffffffffffffffffffffff161480612277575060018060038110151561222657fe5b0160009054906101000a900473ffffffffffffffffffffffffffffffffffffffff1673ffffffffffffffffffffffffffffffffffffffff163373ffffffffffffffffffffffffffffffffffffffff16145b806122de57506001600260038110151561228d57fe5b0160009054906101000a900473ffffffffffffffffffffffffffffffffffffffff1673ffffffffffffffffffffffffffffffffffffffff163373ffffffffffffffffffffffffffffffffffffffff16145b15156122e957600080fd5b600760019054906101000a900460ff1615600760016101000a81548160ff021916908315150217905550600760019054906101000a900460ff16905090565b6000813373ffffffffffffffffffffffffffffffffffffffff16600460009054906101000a900473ffffffffffffffffffffffffffffffffffffffff1673ffffffffffffffffffffffffffffffffffffffff16636352211e836040518263ffffffff167c01000000000000000000000000000000000000000000000000000000000281526004018082815260200191505060206040518083038186803b1580156123d157600080fd5b505afa1580156123e5573d6000803e3d6000fd5b505050506040513d60208110156123fb57600080fd5b810190808051906020019092919050505073ffffffffffffffffffffffffffffffffffffffff1614151561242e57600080fd5b600760009054906101000a900460ff1615151561244a57600080fd5b600060086000858152602001908152602001600020600101541480156124d25750600073ffffffffffffffffffffffffffffffffffffffff166008600085815260200190815260200160002060000160009054906101000a900473ffffffffffffffffffffffffffffffffffffffff1673ffffffffffffffffffffffffffffffffffffffff16145b15156124dd57600080fd5b6000600960003373ffffffffffffffffffffffffffffffffffffffff1673ffffffffffffffffffffffffffffffffffffffff1681526020019081526020016000205414151561252b57600080fd5b60a0604051908101604052803373ffffffffffffffffffffffffffffffffffffffff168152602001438152602001600081526020016000600102815260200160206040519081016040528060008152508152506008600085815260200190815260200160002060008201518160000160006101000a81548173ffffffffffffffffffffffffffffffffffffffff021916908373ffffffffffffffffffffffffffffffffffffffff1602179055506020820151816001015560408201518160020155606082015181600301556080820151816004019080519060200190612612929190613d47565b5090505082600960003373ffffffffffffffffffffffffffffffffffffffff1673ffffffffffffffffffffffffffffffffffffffff168152602001908152602001600020819055506001915050919050565b6000600554341015151561267757600080fd5b60011515600760019054906101000a900460ff16151514151561269957600080fd5b6000600460009054906101000a900473ffffffffffffffffffffffffffffffffffffffff1673ffffffffffffffffffffffffffffffffffffffff16632f745c593060006040518363ffffffff167c0100000000000000000000000000000000000000000000000000000000028152600401808373ffffffffffffffffffffffffffffffffffffffff1673ffffffffffffffffffffffffffffffffffffffff1681526020018281526020019250505060206040518083038186803b15801561275f57600080fd5b505afa158015612773573d6000803e3d6000fd5b505050506040513d602081101561278957600080fd5b8101908080519060200190929190505050141515156127a757600080fd5b6000600460009054906101000a900473ffffffffffffffffffffffffffffffffffffffff1673ffffffffffffffffffffffffffffffffffffffff166370a08231336040518263ffffffff167c0100000000000000000000000000000000000000000000000000000000028152600401808273ffffffffffffffffffffffffffffffffffffffff1673ffffffffffffffffffffffffffffffffffffffff16815260200191505060206040518083038186803b15801561286457600080fd5b505afa158015612878573d6000803e3d6000fd5b505050506040513d602081101561288e57600080fd5b81019080805190602001909291905050501415156128ab57600080fd5b6000600960003373ffffffffffffffffffffffffffffffffffffffff1673ffffffffffffffffffffffffffffffffffffffff168152602001908152602001600020541415156128f957600080fd5b6000600460009054906101000a900473ffffffffffffffffffffffffffffffffffffffff1673ffffffffffffffffffffffffffffffffffffffff16632f745c593060006040518363ffffffff167c0100000000000000000000000000000000000000000000000000000000028152600401808373ffffffffffffffffffffffffffffffffffffffff1673ffffffffffffffffffffffffffffffffffffffff1681526020018281526020019250505060206040518083038186803b1580156129bf57600080fd5b505afa1580156129d3573d6000803e3d6000fd5b505050506040513d60208110156129e957600080fd5b81019080805190602001909291905050509050600460009054906101000a900473ffffffffffffffffffffffffffffffffffffffff1673ffffffffffffffffffffffffffffffffffffffff166323b872dd3033846040518463ffffffff167c0100000000000000000000000000000000000000000000000000000000028152600401808473ffffffffffffffffffffffffffffffffffffffff1673ffffffffffffffffffffffffffffffffffffffff1681526020018373ffffffffffffffffffffffffffffffffffffffff1673ffffffffffffffffffffffffffffffffffffffff1681526020018281526020019350505050600060405180830381600087803b158015612af557600080fd5b505af1158015612b09573d6000803e3d6000fd5b50505050600191505090565b600060016000600381101515612b2757fe5b0160009054906101000a900473ffffffffffffffffffffffffffffffffffffffff1673ffffffffffffffffffffffffffffffffffffffff163373ffffffffffffffffffffffffffffffffffffffff161480612bdd5750600180600381101515612b8c57fe5b0160009054906101000a900473ffffffffffffffffffffffffffffffffffffffff1673ffffffffffffffffffffffffffffffffffffffff163373ffffffffffffffffffffffffffffffffffffffff16145b80612c44575060016002600381101515612bf357fe5b0160009054906101000a900473ffffffffffffffffffffffffffffffffffffffff1673ffffffffffffffffffffffffffffffffffffffff163373ffffffffffffffffffffffffffffffffffffffff16145b1515612c4f57600080fd5b6000600a60008473ffffffffffffffffffffffffffffffffffffffff1673ffffffffffffffffffffffffffffffffffffffff16815260200190815260200160002060006101000a81548160ff02191690831515021790555060019050919050565b60065481565b600080600080600073ffffffffffffffffffffffffffffffffffffffff166008600087815260200190815260200160002060000160009054906101000a900473ffffffffffffffffffffffffffffffffffffffff1673ffffffffffffffffffffffffffffffffffffffff1614151515612d2e57600080fd5b6008600086815260200190815260200160002060000160009054906101000a900473ffffffffffffffffffffffffffffffffffffffff1660086000878152602001908152602001600020600101546008600088815260200190815260200160002060020154600860008981526020019081526020016000206003015493509350935093509193509193565b60008073ffffffffffffffffffffffffffffffffffffffff166008600084815260200190815260200160002060000160009054906101000a900473ffffffffffffffffffffffffffffffffffffffff1673ffffffffffffffffffffffffffffffffffffffff16141515612e2f5760019050612e34565b600090505b919050565b60008073ffffffffffffffffffffffffffffffffffffffff168273ffffffffffffffffffffffffffffffffffffffff1614151515612e7657600080fd5b6000600960008473ffffffffffffffffffffffffffffffffffffffff1673ffffffffffffffffffffffffffffffffffffffff16815260200190815260200160002054905060016000600381101515612eca57fe5b0160009054906101000a900473ffffffffffffffffffffffffffffffffffffffff1673ffffffffffffffffffffffffffffffffffffffff163373ffffffffffffffffffffffffffffffffffffffff161480612f805750600180600381101515612f2f57fe5b0160009054906101000a900473ffffffffffffffffffffffffffffffffffffffff1673ffffffffffffffffffffffffffffffffffffffff163373ffffffffffffffffffffffffffffffffffffffff16145b80612fe7575060016002600381101515612f9657fe5b0160009054906101000a900473ffffffffffffffffffffffffffffffffffffffff1673ffffffffffffffffffffffffffffffffffffffff163373ffffffffffffffffffffffffffffffffffffffff16145b15612ff657600191505061308b565b60008114158015613032575060007f11111111111111111111111111111111111111111111111111111111111111118281151561302f57fe5b06145b1561304157600191505061308b565b43600860008381526020019081526020016000206002015460065460086000858152602001908152602001600020600101540103111561308557600191505061308b565b60009150505b919050565b6060600060086000848152602001908152602001600020600101541115156130b757600080fd5b600860008381526020019081526020016000206004018054600181600116156101000203166002900480601f0160208091040260200160405190810160405280929190818152602001828054600181600116156101000203166002900480156131615780601f1061313657610100808354040283529160200191613161565b820191906000526020600020905b81548152906001019060200180831161314457829003601f168201915b50505050509050919050565b600060011515600a60003373ffffffffffffffffffffffffffffffffffffffff1673ffffffffffffffffffffffffffffffffffffffff16815260200190815260200160002060009054906101000a900460ff1615151415156131ce57600080fd5b600060086000858152602001908152602001600020600101541115156131f357600080fd5b6006548210151561320357600080fd5b438260086000868152602001908152602001600020600201540111156132465760014303600860008581526020019081526020016000206002018190555061326b565b8160086000858152602001908152602001600020600201600082825401925050819055505b6008600084815260200190815260200160002060020154905092915050565b600082600081141580156133fd5750600160006003811015156132a957fe5b0160009054906101000a900473ffffffffffffffffffffffffffffffffffffffff1673ffffffffffffffffffffffffffffffffffffffff163373ffffffffffffffffffffffffffffffffffffffff16148061335f575060018060038110151561330e57fe5b0160009054906101000a900473ffffffffffffffffffffffffffffffffffffffff1673ffffffffffffffffffffffffffffffffffffffff163373ffffffffffffffffffffffffffffffffffffffff16145b806133c657506001600260038110151561337557fe5b0160009054906101000a900473ffffffffffffffffffffffffffffffffffffffff1673ffffffffffffffffffffffffffffffffffffffff163373ffffffffffffffffffffffffffffffffffffffff16145b806133fc575060007f1111111111111111111111111111111111111111111111111111111111111111828115156133f957fe5b06145b5b151561340857600080fd5b600060086000868152602001908152602001600020600101541180156134915750600073ffffffffffffffffffffffffffffffffffffffff166008600086815260200190815260200160002060000160009054906101000a900473ffffffffffffffffffffffffffffffffffffffff1673ffffffffffffffffffffffffffffffffffffffff1614155b151561349c57600080fd5b826008600086815260200190815260200160002060030181905550600191505092915050565b82600081141580156136335750600160006003811015156134df57fe5b0160009054906101000a900473ffffffffffffffffffffffffffffffffffffffff1673ffffffffffffffffffffffffffffffffffffffff163373ffffffffffffffffffffffffffffffffffffffff161480613595575060018060038110151561354457fe5b0160009054906101000a900473ffffffffffffffffffffffffffffffffffffffff1673ffffffffffffffffffffffffffffffffffffffff163373ffffffffffffffffffffffffffffffffffffffff16145b806135fc5750600160026003811015156135ab57fe5b0160009054906101000a900473ffffffffffffffffffffffffffffffffffffffff1673ffffffffffffffffffffffffffffffffffffffff163373ffffffffffffffffffffffffffffffffffffffff16145b80613632575060007f11111111111111111111111111111111111111111111111111111111111111118281151561362f57fe5b06145b5b151561363e57600080fd5b6000600860008681526020019081526020016000206001015411151561366357600080fd5b8282600860008781526020019081526020016000206004019190613688929190613dc7565b5050505050565b60055481565b6000809054906101000a900473ffffffffffffffffffffffffffffffffffffffff1673ffffffffffffffffffffffffffffffffffffffff163373ffffffffffffffffffffffffffffffffffffffff161415156136f057600080fd5b6136f8613e47565b6060604051908101604052807f111111111111111111111111111111111111111111111111111111111111111181526020017f222222222222222222222222222222222222222222222222222222222222222281526020017f3333333333333333333333333333333333333333333333333333333333333333815250905061377e613e6a565b60606040519081016040528060606040519081016040528060408152602001613eb860409139815260200160606040519081016040528060408152602001613ef860409139815260200160606040519081016040528060408152602001613f3860409139815250905060008090505b6003811015613c83576000600460009054906101000a900473ffffffffffffffffffffffffffffffffffffffff1673ffffffffffffffffffffffffffffffffffffffff166370a0823160018460038110151561384557fe5b0160009054906101000a900473ffffffffffffffffffffffffffffffffffffffff166040518263ffffffff167c0100000000000000000000000000000000000000000000000000000000028152600401808273ffffffffffffffffffffffffffffffffffffffff1673ffffffffffffffffffffffffffffffffffffffff16815260200191505060206040518083038186803b1580156138e357600080fd5b505afa1580156138f7573d6000803e3d6000fd5b505050506040513d602081101561390d57600080fd5b81019080805190602001909291905050501415613c7657600460009054906101000a900473ffffffffffffffffffffffffffffffffffffffff1673ffffffffffffffffffffffffffffffffffffffff1663d3fc986460018360038110151561397157fe5b0160009054906101000a900473ffffffffffffffffffffffffffffffffffffffff1685846003811015156139a157fe5b602002015185856003811015156139b457fe5b60200201516040518463ffffffff167c0100000000000000000000000000000000000000000000000000000000028152600401808473ffffffffffffffffffffffffffffffffffffffff1673ffffffffffffffffffffffffffffffffffffffff16815260200183815260200180602001828103825283818151815260200191508051906020019080838360005b83811015613a5c578082015181840152602081019050613a41565b50505050905090810190601f168015613a895780820380516001836020036101000a031916815260200191505b50945050505050600060405180830381600087803b158015613aaa57600080fd5b505af1158015613abe573d6000803e3d6000fd5b5050505060a060405190810160405280600183600381101515613add57fe5b0160009054906101000a900473ffffffffffffffffffffffffffffffffffffffff1673ffffffffffffffffffffffffffffffffffffffff16815260200143815260200160008152602001600060010281526020016020604051908101604052806000815250815250600860008584600381101515613b5757fe5b6020020151815260200190815260200160002060008201518160000160006101000a81548173ffffffffffffffffffffffffffffffffffffffff021916908373ffffffffffffffffffffffffffffffffffffffff1602179055506020820151816001015560408201518160020155606082015181600301556080820151816004019080519060200190613beb929190613d47565b509050508281600381101515613bfd57fe5b602002015160096000600184600381101515613c1557fe5b0160009054906101000a900473ffffffffffffffffffffffffffffffffffffffff1673ffffffffffffffffffffffffffffffffffffffff1673ffffffffffffffffffffffffffffffffffffffff168152602001908152602001600020819055505b80806001019150506137ed565b505050565b600a6020528060005260406000206000915054906101000a900460ff1681565b6000809054906101000a900473ffffffffffffffffffffffffffffffffffffffff1673ffffffffffffffffffffffffffffffffffffffff163373ffffffffffffffffffffffffffffffffffffffff16141515613d0357600080fd5b80600460006101000a81548173ffffffffffffffffffffffffffffffffffffffff021916908373ffffffffffffffffffffffffffffffffffffffff16021790555050565b828054600181600116156101000203166002900490600052602060002090601f016020900481019282601f10613d8857805160ff1916838001178555613db6565b82800160010185558215613db6579182015b82811115613db5578251825591602001919060010190613d9a565b5b509050613dc39190613e92565b5090565b828054600181600116156101000203166002900490600052602060002090601f016020900481019282601f10613e0857803560ff1916838001178555613e36565b82800160010185558215613e36579182015b82811115613e35578235825591602001919060010190613e1a565b5b509050613e439190613e92565b5090565b606060405190810160405280600390602082028038833980820191505090505090565b6060604051908101604052806003905b6060815260200190600190039081613e7a5790505090565b613eb491905b80821115613eb0576000816000905550600101613e98565b5090565b9056fe313131313131313131313131313131313131313131313131313131313131313131313131313131313131313131313131313131313131313131313131313131313232323232323232323232323232323232323232323232323232323232323232323232323232323232323232323232323232323232323232323232323232323233333333333333333333333333333333333333333333333333333333333333333333333333333333333333333333333333333333333333333333333333333333a165627a7a72305820ebddd86b0988cbda62c0f213a31d162d45e968fdec7e3a9d1b3911a38ab0bfd90029",
  "source": "pragma solidity ^0.5.2;\n\n// import \"./RNTInterface.sol\";\nimport \"./ELEMInterface.sol\";\n\n\ncontract MemberShip {\n    address public owner;\n    address[3] public coreManager;\n    address public ELEMAddr;\n    uint public fee = 10000000000000000;\n    uint public memberPeriod = 40000;  // 40000 blocks ~ a week in rinkeby, for test only\n    bool public paused = false;\n    bool public canTradeToken = true;  // before \"trade\" implementation\n\n    struct MemberInfo {\n        address addr;\n        uint since;  // beginning blockNo of previous membership\n        // addPenalty() make sure \"penalty\" is always less than block.number\n        uint penalty;  // the membership is valid until: since + memberPeriod - penalty;\n        bytes32 kycid;  // know your customer id, leave it for future\n        string notes;\n    }\n\n    mapping (uint => MemberInfo) internal memberDB;  // NFT to MemberInfo\n    mapping (address => uint) internal addressToId;  // address to membership\n\n    mapping (address => bool) public appWhitelist;\n\n    constructor(address _ELEMAddr) public {\n        owner = msg.sender;\n        coreManager = [0xB440ea2780614b3c6a00e512f432785E7dfAFA3E,\n                        0x4AD56641C569C91C64C28a904cda50AE5326Da41,\n                        0x362ea687b8a372a0235466a097e578d55491d37f];\n        ELEMAddr = _ELEMAddr;\n        // RNTAddr  = _RNTAddr;\n        // allocate membership in migration file\n    }\n\n    modifier ownerOnly() {\n        require(msg.sender == owner);\n        _;\n    }\n\n    modifier coreManagerOnly() {\n        require(msg.sender == coreManager[0] || msg.sender == coreManager[1] || msg.sender == coreManager[2]);\n        _;\n    }\n\n    modifier managerOnly(uint _tokenId) {\n        require(_tokenId != 0 && (msg.sender == coreManager[0] || msg.sender == coreManager[1] || msg.sender == coreManager[2]\n                || _tokenId % 7719472615821079694904732333912527190217998977709370935963838933860875309329 == 0));\n        // uint256(0x1111111111111111111111111111111111111111111111111111111111111111 = 7.71947....e72\n        _;\n    }\n\n    modifier feePaid() {\n        require(msg.value >= fee);  // or \"==\"?\n        _;\n    }\n\n    modifier isMember(uint _tokenId) {\n        require(memberDB[_tokenId].addr == msg.sender && msg.sender != address(0));\n        require(memberDB[_tokenId].since > 0);\n        // require(addressToId[msg.sender] == _tokenId);\n        _;\n    }\n\n    modifier isActiveMember(uint _tokenId) {\n        require(memberDB[_tokenId].addr == msg.sender && msg.sender != address(0));\n        require(memberDB[_tokenId].since + memberPeriod - memberDB[_tokenId].penalty > block.number\n                || msg.sender == coreManager[0] || msg.sender == coreManager[1] || msg.sender == coreManager[2]\n                || _tokenId % 7719472615821079694904732333912527190217998977709370935963838933860875309329 == 0);\n        // require(_tokenId != 0);  // already excluded by first condition\n        // is it possible that penalty >= since or block.number?\n        _;\n    }\n\n    modifier isNFTOwner(uint _tokenId) {\n        require(iELEM(ELEMAddr).ownerOf(_tokenId) == msg.sender);\n        _;\n    }\n\n    modifier validNFT(uint256 _tokenId) {\n        require(iELEM(ELEMAddr).ownerOf(_tokenId) != address(0));\n        _;\n    }\n\n    // modifier isSynced(uint _tokenId){ // where/when to use it? What if somethings' wrong?\n    //     require(ERC721(ELEMAddr).idToOwner[_tokenId] == memberDB[_tokenId].addr);\n    // }\n\n    modifier isNotSpecialToken(uint _tokenId) {\n        // require(_tokenId > uint256(0x0000ffffffffffffffffffffffffffffffffffffffffffffffffffffffffffff));\n        // require(_tokenId > 1766847064778384329583297500742918515827483896875618958121606201292619775);\n        // require(_tokenId % uint256(0x1111111111111111111111111111111111111111111111111111111111111111 != 0));\n        require(_tokenId % 7719472615821079694904732333912527190217998977709370935963838933860875309329 != 0);\n        _;\n    }\n\n    modifier isNotManagerToken(uint _tokenId) {\n        // require(_tokenId % uint256(0x1111111111111111111111111111111111111111111111111111111111111111 != 0));\n        require(_tokenId % 7719472615821079694904732333912527190217998977709370935963838933860875309329 != 0);\n        _;\n    }\n\n    modifier whenNotPaused() {\n        require(!paused);\n        _;\n    }\n\n    modifier whenPaused {\n        require(paused);\n        _;\n    }\n\n    function allocateCoreManagersNFT() public ownerOnly {\n        // allocate NFT to coreManager, only run it in constructor\n        uint[3] memory _tickets = [ uint(0x1111111111111111111111111111111111111111111111111111111111111111),\n                                    uint(0x2222222222222222222222222222222222222222222222222222222222222222),\n                                    uint(0x3333333333333333333333333333333333333333333333333333333333333333)];\n        string[3] memory _uris = [ \"1111111111111111111111111111111111111111111111111111111111111111\",\n                                   \"2222222222222222222222222222222222222222222222222222222222222222\",\n                                   \"3333333333333333333333333333333333333333333333333333333333333333\"];\n        // This contract may be updated while the token contract is not;\n        // assume coreManager never transfer their first token (the _tickets)\n        for (uint i=0; i<3; i++){\n            if (iELEM(ELEMAddr).balanceOf(coreManager[i]) == 0) {\n                iELEM(ELEMAddr).mint(coreManager[i], _tickets[i], _uris[i]);\n                memberDB[_tickets[i]] = MemberInfo(coreManager[i], block.number, 0, bytes32(0), \"\");\n                addressToId[coreManager[i]] = _tickets[i];\n            }\n        }\n    }\n\n    // use \"putNFTForSale()\", \"canTradeToken=true\", \"buyToken\", and \"transferToken\" before the \"trading\"\n    // contract and the corresponding state channel are implemented\n    function putNFTForSale(uint _tokenId) public coreManagerOnly isNFTOwner(_tokenId) isNotSpecialToken(_tokenId) {\n        iELEM(ELEMAddr).transferFrom(msg.sender, address(this), _tokenId);\n    }\n\n    function tradeTokenToggle() public coreManagerOnly returns (bool) {\n        canTradeToken = !canTradeToken;\n        return canTradeToken;\n    }\n\n    function buyToken() public payable feePaid returns (bool) {\n        require(canTradeToken == true);\n        require(iELEM(ELEMAddr).tokenOfOwnerByIndex(address(this), 0) != 0);  // there are NFT for sale\n        require(iELEM(ELEMAddr).balanceOf(msg.sender) == 0);  // buyer has no NFT\n        require(addressToId[msg.sender] == 0);  // buyer is not a member\n        uint _tokenId = iELEM(ELEMAddr).tokenOfOwnerByIndex(address(this), 0);\n        iELEM(ELEMAddr).transferFrom(address(this), msg.sender, _tokenId);\n        return true;\n    }\n\n    function transferToken(\n        uint _tokenToTransfer,\n        uint _tokenId,\n        address _receiver\n    ) public isMember(_tokenId) isNFTOwner(_tokenId) whenNotPaused returns (bool) {\n        require(canTradeToken == true);\n        require(memberDB[_tokenToTransfer].since == 0 && memberDB[_tokenToTransfer].addr == address(0));\n        // comment below 2 lines for debug purpose\n        // require(iELEM(ELEMAddr).balanceOf(_receiver) == 0);  // receiver has no NFT\n        // require(addressToId[_receiver] == 0);  // receiver is not a member\n        iELEM(ELEMAddr).transferFrom(msg.sender, _receiver, _tokenToTransfer);\n        return true;\n    }\n\n    // membership\n    function bindMembership(uint _tokenId) public isNFTOwner(_tokenId) whenNotPaused returns (bool) {\n        require(memberDB[_tokenId].since == 0 && memberDB[_tokenId].addr == address(0));\n        require(addressToId[msg.sender] == 0);  // the address is not yet bind to any NFT id\n        // note: for now, if one obtain and bind a special token, then he or she become a \"manager\",\n        //       i.e., always a active member, can write kycid/notes of other member and so on\n        // note: coreManager are always activeMember, whether bind or not\n        memberDB[_tokenId] = MemberInfo(msg.sender, block.number, 0, bytes32(0), \"\");\n        addressToId[msg.sender] = _tokenId;\n        return true;\n    }\n\n    function unbindMembership(uint _tokenId) public isNFTOwner(_tokenId) isMember(_tokenId) whenNotPaused returns (bool) {\n        // active member cannot unbind and thus cannot trasnfer membership/Token\n        require(memberDB[_tokenId].since + memberPeriod - memberDB[_tokenId].penalty < block.number);\n        memberDB[_tokenId] = MemberInfo(address(0), 0, 0, bytes32(0), \"\");\n        addressToId[msg.sender] = 0;\n        return true;\n    }\n\n    function renewMembership(uint _tokenId) public payable isMember(_tokenId) isNFTOwner(_tokenId) whenNotPaused returns (uint) {\n        require(block.number > memberDB[_tokenId].since + memberPeriod - 10000); // 10000 rinkeby blocks ~1.7 days\n        memberDB[_tokenId].since = block.number;\n        return block.number;\n    }\n\n    function assginKYCid(uint _tokenId, bytes32 _kycid) external managerOnly(_tokenId) returns (bool) {\n        // instead of \"managerOnly\", probably add another group to do that\n        require(memberDB[_tokenId].since > 0 && memberDB[_tokenId].addr != address(0));\n        memberDB[_tokenId].kycid = _kycid;\n        return true;\n    }\n\n    function addWhitelistApps(address _addr) public coreManagerOnly returns (bool) {\n        appWhitelist[_addr] = true;\n        return true;\n    }\n\n    function rmWhitelistApps(address _addr) public coreManagerOnly returns (bool) {\n        appWhitelist[_addr] = false;\n        return true;\n    }\n\n    function addPenalty(uint _tokenId, uint _penalty) external returns (uint) {\n        require(appWhitelist[msg.sender] == true);  // the msg.sender (usually a contract) is in appWhitelist\n        require(memberDB[_tokenId].since > 0);  // is a member\n        require(_penalty < memberPeriod);  // prevent too much penalty\n\n        // extreme case which is unlike to happen\n        if (memberDB[_tokenId].penalty + _penalty > block.number) {\n            memberDB[_tokenId].penalty = block.number - 1;  // if 0 then not a member\n        } else {\n            memberDB[_tokenId].penalty += _penalty;\n        }\n        return memberDB[_tokenId].penalty;\n    }\n\n    function readNotes(uint _tokenId) external view returns (string memory) {\n        require(memberDB[_tokenId].since > 0);\n        return memberDB[_tokenId].notes;\n    }\n\n    function addNotes(uint _tokenId, string calldata _notes) external managerOnly(_tokenId) {\n        require(memberDB[_tokenId].since > 0);\n        memberDB[_tokenId].notes = _notes;\n    }\n\n    // function membershipGiveaway(address _addr, uint _tokenId) public coreManagerOnly(_tokenId) isNFTOwner(_tokenId) returns (bool){\n    //     // assume the token is valid and owned by manager\n    //     require(memberDB[_tokenId].addr == address(0));  // no one use the token as member\n    //     require(addressToId[_addr] == 0);  // the addr is not yet a member\n    //     // require ...\n    //     memberDB[_tokenId] = MemberInfo(_addr, block.number, 0, bytes32(0), '');\n    //     addressToId[_addr] = _tokenId;\n    //     string memory uri = '';\n    //     require(iELEM(ELEMAddr).mint(_addr, _tokenId, uri) == true);\n    //     return true;\n    // }\n\n    // some query functions\n    function addrIsMember(address _addr) public view returns (bool) {\n        require(_addr != address(0));\n        uint _tokenId = addressToId[_addr];\n        if (msg.sender == coreManager[0] || msg.sender == coreManager[1] || msg.sender == coreManager[2]){\n            return true;  // core managers\n        } else if (_tokenId != 0 && (_tokenId % 7719472615821079694904732333912527190217998977709370935963838933860875309329 == 0)) {\n            return true;  // other managers\n        } else if (addressToId[_addr] != 0) {\n            return true;\n        } else {\n            return false;\n        }\n    }\n\n    function addrIsActiveMember(address _addr) public view returns (bool) {\n        require(_addr != address(0));\n        uint _tokenId = addressToId[_addr];\n        if (msg.sender == coreManager[0] || msg.sender == coreManager[1] || msg.sender == coreManager[2]){\n            return true;  // core managers\n        } else if (_tokenId != 0 && (_tokenId % 7719472615821079694904732333912527190217998977709370935963838933860875309329 == 0)) {\n            return true;  // other managers\n        } else if (memberDB[_tokenId].since + memberPeriod - memberDB[_tokenId].penalty > block.number) {\n            return true;  // not yet expire\n        } else {\n            return false;\n        }\n    }\n\n    function tokenIsMember(uint _tokenId) public view returns (bool) {\n        if (memberDB[_tokenId].addr != address(0)) {\n            return true;\n        } else {\n            return false;\n        }\n    }\n\n    function tokenIsActiveMember(uint _tokenId) public view returns (bool) {\n        if (memberDB[_tokenId].since + memberPeriod - memberDB[_tokenId].penalty > block.number\n            || msg.sender == coreManager[0] || msg.sender == coreManager[1] || msg.sender == coreManager[2]\n            || _tokenId % 7719472615821079694904732333912527190217998977709370935963838933860875309329 == 0)\n        {\n            return true;\n        } else {\n            return false;\n        }\n    }\n\n    function addrToTokenId(address _addr) external view returns (uint) {\n        return addressToId[_addr];\n    }\n\n    function getMemberInfo(uint _tokenId) external view returns (address, uint, uint, bytes32) {\n        require(memberDB[_tokenId].addr != address(0));\n        return (memberDB[_tokenId].addr, memberDB[_tokenId].since, memberDB[_tokenId].penalty, memberDB[_tokenId].kycid);\n    }\n\n    // upgradable\n    function pause() external coreManagerOnly whenNotPaused {\n        paused = true;\n    }\n\n    function unpause() public ownerOnly whenPaused {\n        // set to ownerOnly in case accounts of other managers are compromised\n        paused = false;\n    }\n\n    function updateELEMAddr(address _addr) external ownerOnly {\n        //require(ELEMAddr == address(0)); // comment to allow this to be changed many times\n        ELEMAddr = _addr;\n    }\n\n}\n",
  "sourcePath": "/home/kai/Work/project/GameEth/contracts/MemberShip.sol",
  "compiler": {
    "name": "solc",
    "version": "0.5.2+commit.1df8f40c.Linux.g++"
  },
  "schemaVersion": "3.0.1",
  "updatedAt": "2019-02-15T05:55:37.434Z",
  "devdoc": {
    "methods": {}
  },
  "userdoc": {
    "methods": {}
  }
}