{
  "contractName": "BattleShip",
  "abi": [
    {
      "constant": true,
      "inputs": [],
      "name": "validator",
      "outputs": [
        {
          "name": "",
          "type": "address"
        }
      ],
      "payable": false,
      "stateMutability": "view",
      "type": "function"
    },
    {
      "constant": true,
      "inputs": [],
      "name": "maxPlayer",
      "outputs": [
        {
          "name": "",
          "type": "uint256"
        }
      ],
      "payable": false,
      "stateMutability": "view",
      "type": "function"
    },
    {
      "constant": true,
      "inputs": [],
      "name": "playercount",
      "outputs": [
        {
          "name": "",
          "type": "uint256"
        }
      ],
      "payable": false,
      "stateMutability": "view",
      "type": "function"
    },
    {
      "constant": true,
      "inputs": [],
      "name": "board",
      "outputs": [
        {
          "name": "",
          "type": "bytes32"
        }
      ],
      "payable": false,
      "stateMutability": "view",
      "type": "function"
    },
    {
      "constant": true,
      "inputs": [],
      "name": "defender",
      "outputs": [
        {
          "name": "",
          "type": "address"
        }
      ],
      "payable": false,
      "stateMutability": "view",
      "type": "function"
    },
    {
      "constant": true,
      "inputs": [],
      "name": "period_all",
      "outputs": [
        {
          "name": "",
          "type": "uint256"
        }
      ],
      "payable": false,
      "stateMutability": "view",
      "type": "function"
    },
    {
      "constant": true,
      "inputs": [],
      "name": "initHeight",
      "outputs": [
        {
          "name": "",
          "type": "uint256"
        }
      ],
      "payable": false,
      "stateMutability": "view",
      "type": "function"
    },
    {
      "constant": true,
      "inputs": [],
      "name": "MerkleTreeAddr",
      "outputs": [
        {
          "name": "",
          "type": "address"
        }
      ],
      "payable": false,
      "stateMutability": "view",
      "type": "function"
    },
    {
      "constant": true,
      "inputs": [],
      "name": "setup",
      "outputs": [
        {
          "name": "",
          "type": "bool"
        }
      ],
      "payable": false,
      "stateMutability": "view",
      "type": "function"
    },
    {
      "constant": true,
      "inputs": [],
      "name": "prevboard",
      "outputs": [
        {
          "name": "",
          "type": "bytes32"
        }
      ],
      "payable": false,
      "stateMutability": "view",
      "type": "function"
    },
    {
      "constant": true,
      "inputs": [],
      "name": "fee",
      "outputs": [
        {
          "name": "",
          "type": "uint256"
        }
      ],
      "payable": false,
      "stateMutability": "view",
      "type": "function"
    },
    {
      "constant": true,
      "inputs": [],
      "name": "winner",
      "outputs": [
        {
          "name": "",
          "type": "address"
        }
      ],
      "payable": false,
      "stateMutability": "view",
      "type": "function"
    },
    {
      "inputs": [
        {
          "name": "_init",
          "type": "bytes32"
        }
      ],
      "payable": true,
      "stateMutability": "payable",
      "type": "constructor"
    },
    {
      "payable": false,
      "stateMutability": "nonpayable",
      "type": "fallback"
    },
    {
      "constant": false,
      "inputs": [],
      "name": "withdraw",
      "outputs": [
        {
          "name": "",
          "type": "bool"
        }
      ],
      "payable": false,
      "stateMutability": "nonpayable",
      "type": "function"
    },
    {
      "constant": false,
      "inputs": [
        {
          "name": "secret",
          "type": "bytes32"
        },
        {
          "name": "slots",
          "type": "string"
        },
        {
          "name": "blockNo",
          "type": "uint256"
        },
        {
          "name": "submitBlocks",
          "type": "uint256[]"
        },
        {
          "name": "winningTickets",
          "type": "uint256[]"
        },
        {
          "name": "proof",
          "type": "bytes32[]"
        },
        {
          "name": "isLeft",
          "type": "bool[]"
        }
      ],
      "name": "claimLotteReward",
      "outputs": [
        {
          "name": "",
          "type": "bool"
        }
      ],
      "payable": false,
      "stateMutability": "nonpayable",
      "type": "function"
    },
    {
      "constant": true,
      "inputs": [
        {
          "name": "score",
          "type": "bytes32"
        }
      ],
      "name": "generateTickets",
      "outputs": [
        {
          "name": "",
          "type": "bytes32[5]"
        }
      ],
      "payable": false,
      "stateMutability": "view",
      "type": "function"
    },
    {
      "constant": true,
      "inputs": [
        {
          "name": "score",
          "type": "bytes32"
        }
      ],
      "name": "getNumOfTickets",
      "outputs": [
        {
          "name": "",
          "type": "uint256"
        }
      ],
      "payable": false,
      "stateMutability": "pure",
      "type": "function"
    },
    {
      "constant": true,
      "inputs": [
        {
          "name": "_addr",
          "type": "address"
        }
      ],
      "name": "getPlayerInfo",
      "outputs": [
        {
          "name": "",
          "type": "uint256"
        },
        {
          "name": "",
          "type": "bytes32"
        }
      ],
      "payable": false,
      "stateMutability": "view",
      "type": "function"
    },
    {
      "constant": false,
      "inputs": [
        {
          "name": "defense",
          "type": "bytes32"
        }
      ],
      "name": "fortify",
      "outputs": [
        {
          "name": "",
          "type": "bool"
        }
      ],
      "payable": true,
      "stateMutability": "payable",
      "type": "function"
    },
    {
      "constant": false,
      "inputs": [
        {
          "name": "scoreHash",
          "type": "bytes32"
        }
      ],
      "name": "challenge",
      "outputs": [
        {
          "name": "",
          "type": "bool"
        }
      ],
      "payable": true,
      "stateMutability": "payable",
      "type": "function"
    },
    {
      "constant": true,
      "inputs": [
        {
          "name": "secret",
          "type": "bytes32"
        },
        {
          "name": "blockNo",
          "type": "uint256"
        }
      ],
      "name": "testOutcome",
      "outputs": [
        {
          "name": "_board",
          "type": "bytes32"
        },
        {
          "name": "_slots",
          "type": "bool[32]"
        }
      ],
      "payable": false,
      "stateMutability": "view",
      "type": "function"
    },
    {
      "constant": true,
      "inputs": [
        {
          "name": "blockNo",
          "type": "uint256"
        }
      ],
      "name": "winningNumber",
      "outputs": [
        {
          "name": "",
          "type": "bytes32"
        }
      ],
      "payable": false,
      "stateMutability": "view",
      "type": "function"
    },
    {
      "constant": true,
      "inputs": [
        {
          "name": "proof",
          "type": "bytes32[]"
        },
        {
          "name": "isLeft",
          "type": "bool[]"
        },
        {
          "name": "targetLeaf",
          "type": "bytes32"
        },
        {
          "name": "_merkleRoot",
          "type": "bytes32"
        }
      ],
      "name": "merkleTreeValidator",
      "outputs": [
        {
          "name": "",
          "type": "bool"
        }
      ],
      "payable": false,
      "stateMutability": "pure",
      "type": "function"
    },
    {
      "constant": false,
      "inputs": [
        {
          "name": "_initHeight",
          "type": "uint256"
        },
        {
          "name": "_merkleRoot",
          "type": "bytes32"
        },
        {
          "name": "_ipfsAddr",
          "type": "string"
        }
      ],
      "name": "submitMerkleRoot",
      "outputs": [
        {
          "name": "",
          "type": "bool"
        }
      ],
      "payable": false,
      "stateMutability": "nonpayable",
      "type": "function"
    },
    {
      "constant": true,
      "inputs": [
        {
          "name": "_initHeight",
          "type": "uint256"
        }
      ],
      "name": "getBlockInfo",
      "outputs": [
        {
          "name": "",
          "type": "bytes32"
        },
        {
          "name": "",
          "type": "string"
        }
      ],
      "payable": false,
      "stateMutability": "view",
      "type": "function"
    },
    {
      "constant": true,
      "inputs": [
        {
          "name": "blockNo",
          "type": "uint256"
        }
      ],
      "name": "getBlockhash",
      "outputs": [
        {
          "name": "",
          "type": "bytes32"
        }
      ],
      "payable": false,
      "stateMutability": "view",
      "type": "function"
    },
    {
      "constant": false,
      "inputs": [
        {
          "name": "_newValidator",
          "type": "address"
        }
      ],
      "name": "newValidator",
      "outputs": [
        {
          "name": "",
          "type": "bool"
        }
      ],
      "payable": false,
      "stateMutability": "nonpayable",
      "type": "function"
    }
  ],
  "bytecode": "0x6080604052662386f26fc100006004556000600560006101000a81548160ff0219169083151502179055506000600655604051602080620034118339810180604052810190808051906020019092919050505060045434101515156200006457600080fd5b336000806101000a81548173ffffffffffffffffffffffffffffffffffffffff021916908373ffffffffffffffffffffffffffffffffffffffff16021790555033600260006101000a81548173ffffffffffffffffffffffffffffffffffffffff021916908373ffffffffffffffffffffffffffffffffffffffff16021790555060011515620001038262000119640100000000026401000000009004565b15151415156200011257600080fd5b506200028b565b600060045434101515156200012d57600080fd5b6000809054906101000a900473ffffffffffffffffffffffffffffffffffffffff1673ffffffffffffffffffffffffffffffffffffffff163373ffffffffffffffffffffffffffffffffffffffff161415156200018957600080fd5b60001515600560009054906101000a900460ff161515141515620001ac57600080fd5b6000600160006101000a81548173ffffffffffffffffffffffffffffffffffffffff021916908373ffffffffffffffffffffffffffffffffffffffff16021790555043600381905550600354600960003373ffffffffffffffffffffffffffffffffffffffff1673ffffffffffffffffffffffffffffffffffffffff1681526020019081526020016000206000018190555060016006600082825401925050819055506001600560006101000a81548160ff02191690831515021790555060075460088160001916905550816007816000191690555060019050919050565b613176806200029b6000396000f300608060405260043610610154576000357c0100000000000000000000000000000000000000000000000000000000900463ffffffff168063065c11cc1461033c5780631cb9409f146103975780633a5381b51461041c5780633ccfd60b146104735780633f4ec20a146104a2578063585336121461064757806359328401146106835780635c0effb2146106e95780636426b1e41461072e5780636b180b59146107595780637cd3229a146107845780637f4c91c5146107b7578063a4dd1d7d1461080e578063a78eacdb14610839578063a7ca2e2014610864578063b04cd588146108bb578063b8b81e4014610954578063b8f69e371461099d578063b99b11dc14610a7a578063ba0bba4014610ae7578063bb141cf414610b16578063cff483b914610bcb578063cffd46dc14610bfe578063ddca3f4314610c3a578063dfbf53ae14610c65578063e9413d3814610cbc575b34801561016057600080fd5b506000809054906101000a900473ffffffffffffffffffffffffffffffffffffffff1673ffffffffffffffffffffffffffffffffffffffff163373ffffffffffffffffffffffffffffffffffffffff161415156101bc57600080fd5b60011515600560009054906101000a900460ff1615151480156101e35750600a6003540143115b801561023d5750600073ffffffffffffffffffffffffffffffffffffffff16600160009054906101000a900473ffffffffffffffffffffffffffffffffffffffff1673ffffffffffffffffffffffffffffffffffffffff16145b151561024857600080fd5b6000809054906101000a900473ffffffffffffffffffffffffffffffffffffffff16600160006101000a81548173ffffffffffffffffffffffffffffffffffffffff021916908373ffffffffffffffffffffffffffffffffffffffff1602179055506000600560006101000a81548160ff0219169083151502179055506000600102600781600019169055506000600681905550600115153373ffffffffffffffffffffffffffffffffffffffff166108fc3073ffffffffffffffffffffffffffffffffffffffff16319081150290604051600060405180830381858888f19350505050151514151561033a57600080fd5b005b34801561034857600080fd5b5061037d600480360381019080803573ffffffffffffffffffffffffffffffffffffffff169060200190929190505050610d05565b604051808215151515815260200191505060405180910390f35b3480156103a357600080fd5b506103d0600480360381019080803560001916906020019092919080359060200190929190505050610de8565b604051808360001916600019168152602001826020800280838360005b838110156104085780820151818401526020810190506103ed565b505050509050019250505060405180910390f35b34801561042857600080fd5b50610431611191565b604051808273ffffffffffffffffffffffffffffffffffffffff1673ffffffffffffffffffffffffffffffffffffffff16815260200191505060405180910390f35b34801561047f57600080fd5b506104886111b7565b604051808215151515815260200191505060405180910390f35b3480156104ae57600080fd5b5061062d6004803603810190808035600019169060200190929190803590602001908201803590602001908080601f016020809104026020016040519081016040528093929190818152602001838380828437820191505050505050919291929080359060200190929190803590602001908201803590602001908080602002602001604051908101604052809392919081815260200183836020028082843782019150505050505091929192908035906020019082018035906020019080806020026020016040519081016040528093929190818152602001838360200280828437820191505050505050919291929080359060200190820180359060200190808060200260200160405190810160405280939291908181526020018383602002808284378201915050505050509192919290803590602001908201803590602001908080602002602001604051908101604052809392919081815260200183836020028082843782019150505050505091929192905050506113c0565b604051808215151515815260200191505060405180910390f35b610669600480360381019080803560001916906020019092919050505061223e565b604051808215151515815260200191505060405180910390f35b34801561068f57600080fd5b506106c4600480360381019080803573ffffffffffffffffffffffffffffffffffffffff1690602001909291905050506123ad565b6040518083815260200182600019166000191681526020019250505060405180910390f35b3480156106f557600080fd5b50610718600480360381019080803560001916906020019092919050505061243f565b6040518082815260200191505060405180910390f35b34801561073a57600080fd5b50610743612525565b6040518082815260200191505060405180910390f35b34801561076557600080fd5b5061076e61252b565b6040518082815260200191505060405180910390f35b34801561079057600080fd5b50610799612531565b60405180826000191660001916815260200191505060405180910390f35b3480156107c357600080fd5b506107cc612537565b604051808273ffffffffffffffffffffffffffffffffffffffff1673ffffffffffffffffffffffffffffffffffffffff16815260200191505060405180910390f35b34801561081a57600080fd5b5061082361255c565b6040518082815260200191505060405180910390f35b34801561084557600080fd5b5061084e612561565b6040518082815260200191505060405180910390f35b34801561087057600080fd5b50610879612567565b604051808273ffffffffffffffffffffffffffffffffffffffff1673ffffffffffffffffffffffffffffffffffffffff16815260200191505060405180910390f35b3480156108c757600080fd5b5061093a600480360381019080803590602001909291908035600019169060200190929190803590602001908201803590602001908080601f016020809104026020016040519081016040528093929190818152602001838380828437820191505050505050919291929050505061257f565b604051808215151515815260200191505060405180910390f35b34801561096057600080fd5b5061097f600480360381019080803590602001909291905050506126b0565b60405180826000191660001916815260200191505060405180910390f35b3480156109a957600080fd5b50610a60600480360381019080803590602001908201803590602001908080602002602001604051908101604052809392919081815260200183836020028082843782019150505050505091929192908035906020019082018035906020019080806020026020016040519081016040528093929190818152602001838360200280828437820191505050505050919291929080356000191690602001909291908035600019169060200190929190505050612768565b604051808215151515815260200191505060405180910390f35b348015610a8657600080fd5b50610aa960048036038101908080356000191690602001909291905050506128fc565b6040518082600560200280838360005b83811015610ad4578082015181840152602081019050610ab9565b5050505090500191505060405180910390f35b348015610af357600080fd5b50610afc612a7e565b604051808215151515815260200191505060405180910390f35b348015610b2257600080fd5b50610b4160048036038101908080359060200190929190505050612a91565b60405180836000191660001916815260200180602001828103825283818151815260200191508051906020019080838360005b83811015610b8f578082015181840152602081019050610b74565b50505050905090810190601f168015610bbc5780820380516001836020036101000a031916815260200191505b50935050505060405180910390f35b348015610bd757600080fd5b50610be0612b67565b60405180826000191660001916815260200191505060405180910390f35b610c206004803603810190808035600019169060200190929190505050612b6d565b604051808215151515815260200191505060405180910390f35b348015610c4657600080fd5b50610c4f612ec6565b6040518082815260200191505060405180910390f35b348015610c7157600080fd5b50610c7a612ecc565b604051808273ffffffffffffffffffffffffffffffffffffffff1673ffffffffffffffffffffffffffffffffffffffff16815260200191505060405180910390f35b348015610cc857600080fd5b50610ce760048036038101908080359060200190929190505050612ef2565b60405180826000191660001916815260200191505060405180910390f35b60008060009054906101000a900473ffffffffffffffffffffffffffffffffffffffff1673ffffffffffffffffffffffffffffffffffffffff163373ffffffffffffffffffffffffffffffffffffffff16141515610d6257600080fd5b600073ffffffffffffffffffffffffffffffffffffffff168273ffffffffffffffffffffffffffffffffffffffff1614151515610d9e57600080fd5b81600260006101000a81548173ffffffffffffffffffffffffffffffffffffffff021916908373ffffffffffffffffffffffffffffffffffffffff16021790555060019050919050565b6000610df261305e565b600060011515600560009054906101000a900460ff161515141515610e1657600080fd5b60076003540143118015610e2f5750600a600354014311155b1515610ea3576040517f08c379a000000000000000000000000000000000000000000000000000000000815260040180806020018281038252600e8152602001807f746573746f7574636f6d653a203100000000000000000000000000000000000081525060200191505060405180910390fd5b6007844303101515610f1d576040517f08c379a000000000000000000000000000000000000000000000000000000000815260040180806020018281038252600e8152602001807f746573746f7574636f6d653a203200000000000000000000000000000000000081525060200191505060405180910390fd5b600143038411158015610f3557506007600354018410155b8015610f455750600a6003540184105b1515610fb9576040517f08c379a000000000000000000000000000000000000000000000000000000000815260040180806020018281038252600e8152602001807f746573746f7574636f6d653a203300000000000000000000000000000000000081525060200191505060405180910390fd5b33858540604051602001808473ffffffffffffffffffffffffffffffffffffffff1673ffffffffffffffffffffffffffffffffffffffff166c010000000000000000000000000281526014018360001916600019168152602001826000191660001916815260200193505050506040516020818303038152906040526040518082805190602001908083835b60208310151561106a5780518252602082019150602081019050602083039250611045565b6001836020036101000a03801982511681845116808217855250505050505090500191505060405180910390209250600090505b601f8111151561118357600754816020811015156110b857fe5b1a7f0100000000000000000000000000000000000000000000000000000000000000027effffffffffffffffffffffffffffffffffffffffffffffffffffffffffffff1916838260208110151561110b57fe5b1a7f0100000000000000000000000000000000000000000000000000000000000000027effffffffffffffffffffffffffffffffffffffffffffffffffffffffffffff19161015611176576001828260208110151561116657fe5b6020020190151590811515815250505b808060010191505061109e565b828292509250509250929050565b600260009054906101000a900473ffffffffffffffffffffffffffffffffffffffff1681565b600080600073ffffffffffffffffffffffffffffffffffffffff16600160009054906101000a900473ffffffffffffffffffffffffffffffffffffffff1673ffffffffffffffffffffffffffffffffffffffff16141580156112665750600160009054906101000a900473ffffffffffffffffffffffffffffffffffffffff1673ffffffffffffffffffffffffffffffffffffffff163373ffffffffffffffffffffffffffffffffffffffff16145b151561127157600080fd5b601e600960003373ffffffffffffffffffffffffffffffffffffffff1673ffffffffffffffffffffffffffffffffffffffff1681526020019081526020016000206000015401431115156112c457600080fd5b6000600560006101000a81548160ff0219169083151502179055506000600160006101000a81548173ffffffffffffffffffffffffffffffffffffffff021916908373ffffffffffffffffffffffffffffffffffffffff1602179055506000600102600781600019169055506000600681905550600a61136560063073ffffffffffffffffffffffffffffffffffffffff1631612efd90919063ffffffff16565b81151561136e57fe5b049050600115153373ffffffffffffffffffffffffffffffffffffffff166108fc839081150290604051600060405180830381858888f1935050505015151415156113b857600080fd5b600191505090565b6000806000806113ce61305e565b6113d6613082565b60606000801515600960003373ffffffffffffffffffffffffffffffffffffffff1673ffffffffffffffffffffffffffffffffffffffff16815260200190815260200160002060020160009054906101000a900460ff1615151415156114a4576040517f08c379a000000000000000000000000000000000000000000000000000000000815260040180806020018281038252600f8152602001807f616c726561647920636c61696d6564000000000000000000000000000000000081525060200191505060405180910390fd5b600a8b511115151561151e576040517f08c379a000000000000000000000000000000000000000000000000000000000815260040180806020018281038252601d8152602001807f796f752063616e6e6f7420636c61696d206d6f7265207469636b65747300000081525060200191505060405180910390fd5b88518a51141515611597576040517f08c379a000000000000000000000000000000000000000000000000000000000815260040180806020018281038252601c8152602001807f6c656e206f662070726f6f662f69734c656674206d69736d617463680000000081525060200191505060405180910390fd5b8b518b51141515611636576040517f08c379a00000000000000000000000000000000000000000000000000000000081526004018080602001828103825260288152602001807f7375626d6974426c6f636b7320616e642077696e6e696e675469636b6574732081526020017f6d69736d6174636800000000000000000000000000000000000000000000000081525060400191505060405180910390fd5b6000600102600a6000600960003373ffffffffffffffffffffffffffffffffffffffff1673ffffffffffffffffffffffffffffffffffffffff16815260200190815260200160002060000154815260200190815260200160002060000154600019161415151561170e576040517f08c379a00000000000000000000000000000000000000000000000000000000081526004018080602001828103825260128152602001807f6e6f206d65726b6c6520726f6f7420796574000000000000000000000000000081525060200191505060405180910390fd5b601e600960003373ffffffffffffffffffffffffffffffffffffffff1673ffffffffffffffffffffffffffffffffffffffff1681526020019081526020016000206000015401431115156117ca576040517f08c379a00000000000000000000000000000000000000000000000000000000081526004018080602001828103825260098152602001807f746f6f206561726c79000000000000000000000000000000000000000000000081525060200191505060405180910390fd5b6007601e600960003373ffffffffffffffffffffffffffffffffffffffff1673ffffffffffffffffffffffffffffffffffffffff16815260200190815260200160002060000154010143101515611889576040517f08c379a00000000000000000000000000000000000000000000000000000000081526004018080602001828103825260088152602001807f746f6f206c61746500000000000000000000000000000000000000000000000081525060200191505060405180910390fd5b600354600960003373ffffffffffffffffffffffffffffffffffffffff1673ffffffffffffffffffffffffffffffffffffffff1681526020019081526020016000206000015414806119215750601e600960003373ffffffffffffffffffffffffffffffffffffffff1673ffffffffffffffffffffffffffffffffffffffff1681526020019081526020016000206000015460035403115b1515611995576040517f08c379a000000000000000000000000000000000000000000000000000000000815260040180806020018281038252600a8152602001807f77726f6e672067616d650000000000000000000000000000000000000000000081525060200191505060405180910390fd5b6001600960003373ffffffffffffffffffffffffffffffffffffffff1673ffffffffffffffffffffffffffffffffffffffff16815260200190815260200160002060020160006101000a81548160ff021916908315150217905550338f8e40604051602001808473ffffffffffffffffffffffffffffffffffffffff1673ffffffffffffffffffffffffffffffffffffffff166c010000000000000000000000000281526014018360001916600019168152602001826000191660001916815260200193505050506040516020818303038152906040526040518082805190602001908083835b602083101515611aa15780518252602082019150602081019050602083039250611a7c565b6001836020036101000a03801982511681845116808217855250505050505090500191505060405180910390209450611ad98e612f3b565b9350600096505b601f87111515611c7c57600015158488602081101515611afc57fe5b602002015115151415611bbf5760075487602081101515611b1957fe5b1a7f0100000000000000000000000000000000000000000000000000000000000000027effffffffffffffffffffffffffffffffffffffffffffffffffffffffffffff19168688602081101515611b6c57fe5b1a7f0100000000000000000000000000000000000000000000000000000000000000027effffffffffffffffffffffffffffffffffffffffffffffffffffffffffffff1916141515611bba57fe5b611c6f565b8487602081101515611bcd57fe5b1a7f0100000000000000000000000000000000000000000000000000000000000000027effffffffffffffffffffffffffffffffffffffffffffffffffffffffffffff19168688602081101515611c2057fe5b1a7f0100000000000000000000000000000000000000000000000000000000000000027effffffffffffffffffffffffffffffffffffffffffffffffffffffffffffff1916141515611c6e57fe5b5b8680600101975050611ae0565b600960003373ffffffffffffffffffffffffffffffffffffffff1673ffffffffffffffffffffffffffffffffffffffff1681526020019081526020016000206001015460001916866040516020018082600019166000191681526020019150506040516020818303038152906040526040518082805190602001908083835b602083101515611d205780518252602082019150602081019050602083039250611cfb565b6001836020036101000a038019825116818451168082178552505050505050905001915050604051809103902060001916141515611dec576040517f08c379a000000000000000000000000000000000000000000000000000000000815260040180806020018281038252602c8152602001807f77726f6e672073636f72652062617365206f6e2074686520676976656e20736581526020017f637265742f626c6f636b4e6f000000000000000000000000000000000000000081525060400191505060405180910390fd5b611df5866128fc565b9250336c01000000000000000000000000026bffffffffffffffffffffffff1916826000815181101515611e2557fe5b906020019060200201906000191690816000191681525050600096505b8a51871015611ef4578b87815181101515611e5957fe5b9060200190602002015160010282600160028a0201815181101515611e7a57fe5b906020019060200201906000191690816000191681525050828b88815181101515611ea157fe5b90602001906020020151600581101515611eb757fe5b6020020151826002808a0201815181101515611ecf57fe5b9060200190602002019060001916908160001916815250508680600101975050611e42565b6120068a8a8460405160200180828051906020019060200280838360005b83811015611f2d578082015181840152602081019050611f12565b505050509050019150506040516020818303038152906040526040518082805190602001908083835b602083101515611f7b5780518252602082019150602081019050602083039250611f56565b6001836020036101000a0380198251168184511680821785525050505050509050019150506040518091039020600a6000600960003373ffffffffffffffffffffffffffffffffffffffff1673ffffffffffffffffffffffffffffffffffffffff16815260200190815260200160002060000154815260200190815260200160002060000154612768565b151561201157600080fd5b600096505b8b51871015612228576008548c8881518110151561203057fe5b90602001906020020151406040516020018083600019166000191681526020018260001916600019168152602001925050506040516020818303038152906040526040518082805190602001908083835b6020831015156120a65780518252602082019150602081019050602083039250612081565b6001836020036101000a03801982511681845116808217855250505050505090500191505060405180910390209050828b888151811015156120e457fe5b906020019060200201516005811015156120fa57fe5b6020020151601f60208110151561210d57fe5b1a7f0100000000000000000000000000000000000000000000000000000000000000027effffffffffffffffffffffffffffffffffffffffffffffffffffffffffffff191681601f60208110151561216157fe5b1a7f0100000000000000000000000000000000000000000000000000000000000000027effffffffffffffffffffffffffffffffffffffffffffffffffffffffffffff191614151561221b576040517f08c379a00000000000000000000000000000000000000000000000000000000081526004018080602001828103825260148152602001807f666f756e6420612077726f6e67207469636b657400000000000000000000000081525060200191505060405180910390fd5b8680600101975050612016565b6001975050505050505050979650505050505050565b6000600454341015151561225157600080fd5b6000809054906101000a900473ffffffffffffffffffffffffffffffffffffffff1673ffffffffffffffffffffffffffffffffffffffff163373ffffffffffffffffffffffffffffffffffffffff161415156122ac57600080fd5b60001515600560009054906101000a900460ff1615151415156122ce57600080fd5b6000600160006101000a81548173ffffffffffffffffffffffffffffffffffffffff021916908373ffffffffffffffffffffffffffffffffffffffff16021790555043600381905550600354600960003373ffffffffffffffffffffffffffffffffffffffff1673ffffffffffffffffffffffffffffffffffffffff1681526020019081526020016000206000018190555060016006600082825401925050819055506001600560006101000a81548160ff02191690831515021790555060075460088160001916905550816007816000191690555060019050919050565b600080600960008473ffffffffffffffffffffffffffffffffffffffff1673ffffffffffffffffffffffffffffffffffffffff16815260200190815260200160002060000154600960008573ffffffffffffffffffffffffffffffffffffffff1673ffffffffffffffffffffffffffffffffffffffff1681526020019081526020016000206001015491509150915091565b60007effffffffffffffffffffffffffffffffffffffffffffffffffffffffffffff600102826000191611156124785760019050612520565b7e0fffffffffffffffffffffffffffffffffffffffffffffffffffffffffffff600102826000191611156124af5760029050612520565b7dffffffffffffffffffffffffffffffffffffffffffffffffffffffffffff600102826000191611156124e55760039050612520565b7d0fffffffffffffffffffffffffffffffffffffffffffffffffffffffffff6001028260001916111561251b5760049050612520565b600590505b919050565b6103e881565b60065481565b60075481565b6000809054906101000a900473ffffffffffffffffffffffffffffffffffffffff1681565b601e81565b60035481565b73127bfc8affdcaeee6043e7ec79239542e5a470b781565b60008073ffffffffffffffffffffffffffffffffffffffff16600260009054906101000a900473ffffffffffffffffffffffffffffffffffffffff1673ffffffffffffffffffffffffffffffffffffffff161415801561262c5750600260009054906101000a900473ffffffffffffffffffffffffffffffffffffffff1673ffffffffffffffffffffffffffffffffffffffff163373ffffffffffffffffffffffffffffffffffffffff16145b151561263757600080fd5b601e8401431015801561265057506003601e8501014311155b151561265b57600080fd5b82600a6000868152602001908152602001600020600001816000191690555081600a600086815260200190815260200160002060010190805190602001906126a49291906130a5565b50600190509392505050565b60006001430382111515156126c457600080fd5b60075482406040516020018083600019166000191681526020018260001916600019168152602001925050506040516020818303038152906040526040518082805190602001908083835b602083101515612734578051825260208201915060208101905060208303925061270f565b6001836020036101000a03801982511681845116808217855250505050505090500191505060405180910390209050919050565b60006010855110151561277a57600080fd5b8351855114151561278a57600080fd5b73127bfc8affdcaeee6043e7ec79239542e5a470b773ffffffffffffffffffffffffffffffffffffffff166398ecbb6f868686866040518563ffffffff167c010000000000000000000000000000000000000000000000000000000002815260040180806020018060200185600019166000191681526020018460001916600019168152602001838103835287818151815260200191508051906020019060200280838360005b8381101561284c578082015181840152602081019050612831565b50505050905001838103825286818151815260200191508051906020019060200280838360005b8381101561288e578082015181840152602081019050612873565b505050509050019650505050505050602060405180830381600087803b1580156128b757600080fd5b505af11580156128cb573d6000803e3d6000fd5b505050506040513d60208110156128e157600080fd5b81019080805190602001909291905050509050949350505050565b612904613082565b61290c613082565b6000807f307830000000000000000000000000000000000000000000000000000000000085600019161415151561294257600080fd5b6008600960003373ffffffffffffffffffffffffffffffffffffffff1673ffffffffffffffffffffffffffffffffffffffff16815260200190815260200160002060000154019150600090505b6129988561243f565b811015612a735784824060018301604051602001808460001916600019168152602001836000191660001916815260200182815260200193505050506040516020818303038152906040526040518082805190602001908083835b602083101515612a1857805182526020820191506020810190506020830392506129f3565b6001836020036101000a03801982511681845116808217855250505050505090500191505060405180910390208382600581101515612a5357fe5b60200201906000191690816000191681525050808060010191505061298f565b829350505050919050565b600560009054906101000a900460ff1681565b60006060600a600084815260200190815260200160002060000154600a6000858152602001908152602001600020600101808054600181600116156101000203166002900480601f016020809104026020016040519081016040528092919081815260200182805460018160011615610100020316600290048015612b575780601f10612b2c57610100808354040283529160200191612b57565b820191906000526020600020905b815481529060010190602001808311612b3a57829003601f168201915b5050505050905091509150915091565b60085481565b60006004543410151515612b8057600080fd5b6000809054906101000a900473ffffffffffffffffffffffffffffffffffffffff1673ffffffffffffffffffffffffffffffffffffffff163373ffffffffffffffffffffffffffffffffffffffff1614151515612bdc57600080fd5b60011515600560009054906101000a900460ff161515141515612bfe57600080fd5b600354600960003373ffffffffffffffffffffffffffffffffffffffff1673ffffffffffffffffffffffffffffffffffffffff16815260200190815260200160002060000154101515612cb9576040517f08c379a000000000000000000000000000000000000000000000000000000000815260040180806020018281038252600c8152602001807f6368616c6c616e67653a2031000000000000000000000000000000000000000081525060200191505060405180910390fd5b60076003540143118015612cd25750600a600354014311155b1515612d46576040517f08c379a000000000000000000000000000000000000000000000000000000000815260040180806020018281038252600c8152602001807f6368616c6c616e67653a2032000000000000000000000000000000000000000081525060200191505060405180910390fd5b6103e860016006540111151515612dc5576040517f08c379a000000000000000000000000000000000000000000000000000000000815260040180806020018281038252600c8152602001807f6368616c6c616e67653a2033000000000000000000000000000000000000000081525060200191505060405180910390fd5b60001515600960003373ffffffffffffffffffffffffffffffffffffffff1673ffffffffffffffffffffffffffffffffffffffff16815260200190815260200160002060020160009054906101000a90505050600354600960003373ffffffffffffffffffffffffffffffffffffffff1673ffffffffffffffffffffffffffffffffffffffff1681526020019081526020016000206000018190555081600960003373ffffffffffffffffffffffffffffffffffffffff1673ffffffffffffffffffffffffffffffffffffffff1681526020019081526020016000206001018160001916905550600160066000828254019250508190555060019050919050565b60045481565b600160009054906101000a900473ffffffffffffffffffffffffffffffffffffffff1681565b600081409050919050565b6000806000841415612f125760009150612f34565b8284029050828482811515612f2357fe5b04141515612f3057600080fd5b8091505b5092915050565b612f4361305e565b6060612f4d61305e565b6000849250600090505b8251811015613053577f31000000000000000000000000000000000000000000000000000000000000008382815181101515612f8f57fe5b9060200101517f010000000000000000000000000000000000000000000000000000000000000090047f0100000000000000000000000000000000000000000000000000000000000000027effffffffffffffffffffffffffffffffffffffffffffffffffffffffffffff19161415613026576001828260208110151561301257fe5b602002019015159081151581525050613046565b6000828260208110151561303657fe5b6020020190151590811515815250505b8080600101915050612f57565b819350505050919050565b61040060405190810160405280602090602082028038833980820191505090505090565b60a060405190810160405280600590602082028038833980820191505090505090565b828054600181600116156101000203166002900490600052602060002090601f016020900481019282601f106130e657805160ff1916838001178555613114565b82800160010185558215613114579182015b828111156131135782518255916020019190600101906130f8565b5b5090506131219190613125565b5090565b61314791905b8082111561314357600081600090555060010161312b565b5090565b905600a165627a7a723058208cc1da969b8de151ac77704dcaeeb416fab0d08700f9ab317b2b274ffa3cf6090029",
  "source": "pragma solidity ^0.4.24;\n\n// import \"./ERC20.sol\";\nimport \"./SafeMath.sol\";\n// import \"./RNTInterface.sol\";\nimport \"./MerkleTreeValidatorInterface.sol\";\n\n// About the game\n// # Roles\n//  * defender : setup the game (only the fee)\n//  * player : join the game, max 1000 players, pay 0.01 eth and may win some RNT\n//  * validator: provide merkle proof at `end` block\n//\n// # time line of a game:\n//    start ------------ n ------- m -------------------------------- end --------\n//          calc           reg to    lottery, each round: 0-n winners     mr submit to chain;\n//                         sc        (only on sc)                         withdraw eth/claim reward\n//          (period1)      (period2) (period3)                            could start next round\n//\n//  * sc: state channel; mr: merkle root\n//  * period_all = period1 + period2 + period3\n//  * during period2 (btw. `n` and `m`) players get tickets on sc\n//  * player obtain ticket in the form `ticket[i] = hash(score + bn[m-1] + i)` where 0<=i<5, depend on score\n// todo: add an upper limit for the contract to give to players? Such as (the order of) 1000*0.01 eth = 10 eth = 1e5 RNT\n\ncontract BattleShip {\n\tusing SafeMath for uint256;\n\t// Variables\n\taddress public defender;\n\taddress public winner;\n\taddress public validator;\n\t// address public RNTAddr;\n\tuint constant public maxPlayer = 1000;\n\tuint constant public period_all = 30;  // 7 + 3 + 20\n\tuint public initHeight;\n\t// uint public lastActivity;\n\t// bytes32 public difficulty = 0x000000000000000000000000000000ffffffffffffffffffffffffffffffffff;\n\tuint public fee = 10000000000000000;\n\tbool public setup = false;\n\tuint public playercount = 0;\n        address constant public MerkleTreeAddr = 0x127bfc8AFfdCaeee6043e7eC79239542e5A470B7;\n\n\tstruct playerInfo {\n\t\t// address wallet; // msg.sender\n\t\t// uint since;     // block height when joined\n\t\tuint initHeightJoined;\n\t\tbytes32 scoreHash;\n\t\tbool claimed;\n\t}\n\n        struct battleStat{\n            bytes32 merkleRoot;\n            string ipfsAddr;\n        }\n\n        bytes32 public board;\n        bytes32 public prevboard;\n        // address ethWinnerAddr;  // only one winner take eth\n        // uint ethWinnerReward;\n\n\tmapping (address => playerInfo) playerDB;\n\t// mapping (uint => mapping (address => battleStat)) battleHistory;\n\tmapping (uint => battleStat) battleHistory;\n\n\t// Modifiers\n\tmodifier defenderOnly() {\n\t\trequire(msg.sender == defender);\n\t\t_;\n\t}\n\n\tmodifier WinnerOnly() {\n\t\trequire(winner != address(0) && msg.sender == winner);\n\t\t_;\n\t}\n\n\tmodifier ValidatorOnly() {\n\t        require(validator != address(0) && msg.sender == validator);\n\t        _;\n        }\n\n\tmodifier NewGameOnly() {\n\t\trequire(setup == false);\n\t\t_;\n\t}\n\n\tmodifier feePaid() {\n\t\trequire(msg.value >= fee);\n\t\t_;\n\t}\n\n\tmodifier gameStarted() {\n\t\trequire(setup == true);\n\t\t_;\n\t}\n\n\tmodifier gameStalled() {\n\t\t// require(setup == true && block.number > initHeight + period_all && winner == address(0));\n\t\trequire(setup == true && block.number > initHeight + 10 && winner == address(0));\n\t\t_;\n\t}\n\n\tmodifier notDefender() {\n\t\trequire(msg.sender != defender);\n\t\t_;\n\t}\n\n\t// Contract constructor\n\tconstructor(bytes32 _init) public payable {\n\t\trequire(msg.value >= fee);\n\t\tdefender = msg.sender;\n\t\tvalidator = msg.sender;\n\t\t// RNTAddr  = _RNTAddr;\n\n\t\trequire(fortify(_init) == true);\n\t}\n\n\t// WinnerOnly\n\tfunction withdraw() public WinnerOnly returns (bool) {\n\t        // only one player win eth; make sure winner can claim the reward after next game started\n\t\trequire(block.number > playerDB[msg.sender].initHeightJoined + period_all);\n\t\t// require(block.number < playerDB[msg.sender].initHeightJoined + period_all + 7);\n\t\tsetup = false;\n\t\twinner = address(0);\n\t\tboard = bytes32(0);\n\t\tplayercount = 0;\n\n\t\tuint256 reward = uint256(address(this).balance).mul(uint256(6)) / uint256(10);\n\t\t// require(RNTInterface(RNTAddr).mint(msg.sender) == true);\n\t\trequire(msg.sender.send(reward) == true);\n\t\treturn true;\n\t}\n\n\tfunction claimLotteReward( // this happens after end of a game, next round may started\n\t    bytes32 secret,\n\t    string memory slots,\n\t    uint blockNo,\n\t    uint256[] memory submitBlocks,  // the winning blocks the player claimed\n\t    uint[] memory winningTickets, // the idx of generateTickets. same order as submitBlocks\n\t    bytes32[] memory proof,\n\t    bool[] memory isLeft\n\t) public returns (bool) {\n\t\trequire(playerDB[msg.sender].claimed == false, \"already claimed\");\n\t\trequire(winningTickets.length <= 10, \"you cannot claim more tickets\");\n\t        require(proof.length == isLeft.length, \"len of proof/isLeft mismatch\");\n\t        require(winningTickets.length == submitBlocks.length, \"submitBlocks and winningTickets mismatch\");\n\t\trequire(battleHistory[playerDB[msg.sender].initHeightJoined].merkleRoot != 0x0, \"no merkle root yet\");\n\t\trequire(block.number > playerDB[msg.sender].initHeightJoined + period_all, \"too early\");\n\t\trequire(block.number < playerDB[msg.sender].initHeightJoined + period_all + 7, \"too late\");\n\t\trequire(playerDB[msg.sender].initHeightJoined == initHeight || \n\t\t        initHeight - playerDB[msg.sender].initHeightJoined > period_all, \"wrong game\");  // how to more precise?\n\t\t// require(ecrecover(keccak256(abi.encodePacked(\"\\x19Ethereum Signed Message:\\n32\", keccak256(abi.encodePacked(score)))), v, r, s) == msg.sender);\n\n                // No second chance: if one of the following verification failed, the player cannot call this function again.\n                playerDB[msg.sender].claimed = true;\n                uint i;\n\n\t        // verification: the secret belongs to the player\n\t\tbytes32 score;\n\t\tbytes32 newscore = keccak256(abi.encodePacked(msg.sender, secret, blockhash(blockNo))); // initialize for the loop below\n\t\tbool[32] memory _slots = convertString32ToBool(slots); \n                for (i = 0; i <= 31; i++) {\n\t\t\tif(_slots[i] == false) {\n\t\t\t\tassert(score[i] == board[i]);\n\t\t\t} else {\n\t\t\t\tassert(score[i] == newscore[i]);\n\t\t\t}\n\t\t}\n\n\t\trequire(keccak256(abi.encodePacked(score)) == playerDB[msg.sender].scoreHash,\n\t\t        \"wrong score base on the given secret/blockNo\");\n\n                // generate \"claimhash\", which is hash(msg.sender, submitBlocks[i], winningTickets[i], ...) where i=0,1,2,...\n\t\tbytes32[5] memory genTickets = generateTickets(score);\n                bytes32[] memory claimHashElements;\n                claimHashElements[0] = bytes20(msg.sender);\n                for (i=0; i<winningTickets.length; i++){\n                        claimHashElements[i*2+1] = bytes32(submitBlocks[i]);\n                        claimHashElements[i*2+2] = bytes32(genTickets[winningTickets[i]]);\n                }\n                // bytes32 claimHash = keccak256(abi.encodePacked(claimHashElements));\n                require(merkleTreeValidator(proof, isLeft, keccak256(abi.encodePacked(claimHashElements)),\n                                            battleHistory[playerDB[msg.sender].initHeightJoined].merkleRoot));\n\n                // count number of winning tickets\n                bytes32 winNumber;\n                for (i=0; i<submitBlocks.length; i++){\n\t                winNumber = keccak256(abi.encodePacked(prevboard, blockhash(submitBlocks[i])));\n                        // require(winNumber[30] == genTickets[winningTickets[i]][30] && winNumber[31] == genTickets[winningTickets[i]][31])\n                        require(winNumber[31] == genTickets[winningTickets[i]][31], \"found a wrong ticket\");  // for debug only\n\t\t        // require(RNTInterface(RNTAddr).mint(msg.sender) == true);\n                }\n\t\treturn true;\n        }\n\n        function generateTickets(bytes32 score) public view returns (bytes32[5] memory){\n                require(score != '0x0');\n                bytes32[5] memory tickets;\n                uint ticketSeedBlockNo = playerDB[msg.sender].initHeightJoined + 8;\n\t\tfor (uint i = 0; i < getNumOfTickets(score); i++) {\n\t\t        tickets[i] = keccak256(abi.encodePacked(score, blockhash(ticketSeedBlockNo), i+1));  // idx of ticket start from 1\n                }\n                return tickets;\n        }\n\n        function getNumOfTickets(bytes32 score) public pure returns(uint){\n                if (score > 0x00ffffffffffffffffffffffffffffffffffffffffffffffffffffffffffffff) {\n                        return 1;  // min: 1 ticket\n                } else if (score > 0x000fffffffffffffffffffffffffffffffffffffffffffffffffffffffffffff) {\n                        return 2;\n                } else if (score > 0x0000ffffffffffffffffffffffffffffffffffffffffffffffffffffffffffff) {\n                        return 3;\n                } else if (score > 0x00000fffffffffffffffffffffffffffffffffffffffffffffffffffffffffff) {\n                        return 4;\n                } else {\n                        return 5;  // max: 5 tickets\n                }\n        }\n\n\n\t// function randomNumber() public view returns (bytes32) {\n\t// \trequire(lastRevived != samGroup[3] && samGroup[3] != bytes32(0));\n\t// \trequire(block.number - lastActivity <= 5);\n\t// \treturn keccak256(abi.encodePacked(samGroup[0], samGroup[1], samGroup[2], samGroup[3], blockhash(block.number - 1)));\n\t// }\n\n\tfunction getPlayerInfo(address _addr) public view returns (uint, bytes32) {\n\t\treturn (playerDB[_addr].initHeightJoined, playerDB[_addr].scoreHash);\n\t}\n\n\tfunction fortify(bytes32 defense) public payable feePaid defenderOnly NewGameOnly returns (bool) {\n\t\t// require(defense > difficulty);\n\n\t\twinner = address(0);\n\n\t\tinitHeight = block.number;\n\n\t\tplayerDB[msg.sender].initHeightJoined = initHeight;\n\t\tplayercount += 1;\n\t\tsetup = true;\n\n\t        prevboard = board;\n\t        board = defense;\n\n\t\treturn true;\n\t}\n\n\t// Join game\n\tfunction challenge(bytes32 scoreHash) public payable feePaid notDefender gameStarted returns (bool) {\n\t\trequire(playerDB[msg.sender].initHeightJoined < initHeight, \"challange: 1\");\n\t\trequire(block.number > initHeight + 7 && block.number <= initHeight + 10, \"challange: 2\");\n\t\trequire(playercount + 1 <= maxPlayer, \"challange: 3\");\n\n\t\tplayerDB[msg.sender].claimed == false;\n\t\tplayerDB[msg.sender].initHeightJoined = initHeight;\n\t\tplayerDB[msg.sender].scoreHash = scoreHash;\n\n\t\tplayercount += 1;\n\n\t\treturn true;\n\t}\n\n\tfunction testOutcome(bytes32 secret, uint blockNo) public gameStarted view returns (bytes32 _board, bool[32] memory _slots) {\n\t\trequire(block.number > initHeight + 7 && block.number <= initHeight + 10, 'testoutcome: 1');\n\t\trequire(block.number - blockNo < 7, 'testoutcome: 2');\n\t\trequire(blockNo <= block.number - 1 && blockNo >= initHeight + 7 && blockNo < initHeight + 10, 'testoutcome: 3');\n\n\t\t_board = keccak256(abi.encodePacked(msg.sender, secret, blockhash(blockNo)));\n\n\t\tfor (uint i = 0; i <= 31; i++) {\n\t\t\tif(_board[i] < board[i]) {\n\t\t\t\t_slots[i] = true;\n\t\t\t}\n\t\t}\n\n\t\treturn (_board, _slots);\n\t}\n\n\tfunction winningNumber(uint blockNo) public view returns (bytes32) {\n\t        require(blockNo <= block.number - 1);\n\t        return keccak256(abi.encodePacked(board, blockhash(blockNo)));\n        }\n\n        function merkleTreeValidator(bytes32[] memory proof, bool[] memory isLeft, bytes32 targetLeaf, bytes32 _merkleRoot) public pure returns (bool) {\n                require(proof.length < 16);  // 16 is an arbitrary number, 2**16=65536 shoud be large enough\n                require(proof.length == isLeft.length);\n                return MerkleTreeValidatorInterface(MerkleTreeAddr).validate(proof, isLeft, targetLeaf, _merkleRoot);\n        }\n\n\tfunction submitMerkleRoot(uint _initHeight, bytes32 _merkleRoot, string memory _ipfsAddr) public ValidatorOnly returns (bool) {\n\t\trequire(block.number >= _initHeight + period_all && block.number <= _initHeight + period_all + 3);\n\t        battleHistory[_initHeight].merkleRoot = _merkleRoot;\n\t        battleHistory[_initHeight].ipfsAddr = _ipfsAddr;\n\t        return true;\n        }\n\n        function getBlockInfo(uint _initHeight) public view returns(bytes32, string){\n\t        return (battleHistory[_initHeight].merkleRoot, battleHistory[_initHeight].ipfsAddr);\n        }\n\n        function getBlockhash(uint blockNo) external view returns (bytes32) {\n                return blockhash(blockNo);\n        }\n\n        function convertString32ToBool(string memory s32) internal pure returns (bool[32] memory) {\n                // i.g., convert string \"01001....\" to bool[32]: [false, true, false, false, true, ...]\n                bytes memory s32Bytes = bytes(s32);\n                bool[32] memory result;\n                for (uint i = 0; i < s32Bytes.length; i++) {\n                        if(s32Bytes[i] == '1') {\n                            result[i] = true;\n                        } else {\n                            result[i] = false;\n                        }\n                }\n                return result;\n        }\n\n        function newValidator(address _newValidator) public defenderOnly returns (bool){\n                require(_newValidator != address(0));\n                validator = _newValidator;\n                return true;\n        }\n\n        // fallback\n        function () defenderOnly gameStalled external { \n            winner = defender; \n            // require(withdraw());\n            setup = false;\n            board = bytes32(0);\n            playercount = 0;\n\t    require(msg.sender.send(address(this).balance) == true);\n        }\n}\n",
  "sourcePath": "/home/kai/Work/project/BattleShip/contracts/BattleShip.sol",
  "compiler": {
    "name": "solc",
    "version": "0.4.25+commit.59dbf8f1.Emscripten.clang"
  },
  "schemaVersion": "2.0.2",
  "updatedAt": "2019-01-18T00:01:02.225Z"
}