{
  "contractName": "BattleShip",
  "abi": [
    {
      "constant": true,
      "inputs": [],
      "name": "difficulty",
      "outputs": [
        {
          "name": "",
          "type": "bytes32"
        }
      ],
      "payable": false,
      "stateMutability": "view",
      "type": "function",
      "signature": "0x19cae462"
    },
    {
      "constant": true,
      "inputs": [],
      "name": "debug6",
      "outputs": [
        {
          "name": "",
          "type": "bool"
        }
      ],
      "payable": false,
      "stateMutability": "view",
      "type": "function",
      "signature": "0x26593be7"
    },
    {
      "constant": true,
      "inputs": [],
      "name": "validator",
      "outputs": [
        {
          "name": "",
          "type": "address"
        }
      ],
      "payable": false,
      "stateMutability": "view",
      "type": "function",
      "signature": "0x3a5381b5"
    },
    {
      "constant": true,
      "inputs": [],
      "name": "debug2",
      "outputs": [
        {
          "name": "",
          "type": "bool"
        }
      ],
      "payable": false,
      "stateMutability": "view",
      "type": "function",
      "signature": "0x5ba88c28"
    },
    {
      "constant": true,
      "inputs": [],
      "name": "debug3",
      "outputs": [
        {
          "name": "",
          "type": "bool"
        }
      ],
      "payable": false,
      "stateMutability": "view",
      "type": "function",
      "signature": "0x610da891"
    },
    {
      "constant": true,
      "inputs": [],
      "name": "maxPlayer",
      "outputs": [
        {
          "name": "",
          "type": "uint256"
        }
      ],
      "payable": false,
      "stateMutability": "view",
      "type": "function",
      "signature": "0x6426b1e4"
    },
    {
      "constant": true,
      "inputs": [],
      "name": "playercount",
      "outputs": [
        {
          "name": "",
          "type": "uint256"
        }
      ],
      "payable": false,
      "stateMutability": "view",
      "type": "function",
      "signature": "0x6b180b59"
    },
    {
      "constant": true,
      "inputs": [],
      "name": "board",
      "outputs": [
        {
          "name": "",
          "type": "bytes32"
        }
      ],
      "payable": false,
      "stateMutability": "view",
      "type": "function",
      "signature": "0x7cd3229a"
    },
    {
      "constant": true,
      "inputs": [],
      "name": "debug1",
      "outputs": [
        {
          "name": "",
          "type": "bool"
        }
      ],
      "payable": false,
      "stateMutability": "view",
      "type": "function",
      "signature": "0x7dc7c5a5"
    },
    {
      "constant": true,
      "inputs": [],
      "name": "defender",
      "outputs": [
        {
          "name": "",
          "type": "address"
        }
      ],
      "payable": false,
      "stateMutability": "view",
      "type": "function",
      "signature": "0x7f4c91c5"
    },
    {
      "constant": true,
      "inputs": [],
      "name": "ticketSeed",
      "outputs": [
        {
          "name": "",
          "type": "bytes32"
        }
      ],
      "payable": false,
      "stateMutability": "view",
      "type": "function",
      "signature": "0x8186a8f9"
    },
    {
      "constant": true,
      "inputs": [],
      "name": "debug5",
      "outputs": [
        {
          "name": "",
          "type": "bool"
        }
      ],
      "payable": false,
      "stateMutability": "view",
      "type": "function",
      "signature": "0x9b76d3f9"
    },
    {
      "constant": true,
      "inputs": [],
      "name": "period_all",
      "outputs": [
        {
          "name": "",
          "type": "uint256"
        }
      ],
      "payable": false,
      "stateMutability": "view",
      "type": "function",
      "signature": "0xa4dd1d7d"
    },
    {
      "constant": true,
      "inputs": [],
      "name": "initHeight",
      "outputs": [
        {
          "name": "",
          "type": "uint256"
        }
      ],
      "payable": false,
      "stateMutability": "view",
      "type": "function",
      "signature": "0xa78eacdb"
    },
    {
      "constant": true,
      "inputs": [],
      "name": "debug4",
      "outputs": [
        {
          "name": "",
          "type": "bool"
        }
      ],
      "payable": false,
      "stateMutability": "view",
      "type": "function",
      "signature": "0xb70902bc"
    },
    {
      "constant": true,
      "inputs": [],
      "name": "setup",
      "outputs": [
        {
          "name": "",
          "type": "bool"
        }
      ],
      "payable": false,
      "stateMutability": "view",
      "type": "function",
      "signature": "0xba0bba40"
    },
    {
      "constant": true,
      "inputs": [],
      "name": "prevboard",
      "outputs": [
        {
          "name": "",
          "type": "bytes32"
        }
      ],
      "payable": false,
      "stateMutability": "view",
      "type": "function",
      "signature": "0xcff483b9"
    },
    {
      "constant": true,
      "inputs": [],
      "name": "fee",
      "outputs": [
        {
          "name": "",
          "type": "uint256"
        }
      ],
      "payable": false,
      "stateMutability": "view",
      "type": "function",
      "signature": "0xddca3f43"
    },
    {
      "constant": true,
      "inputs": [],
      "name": "winner",
      "outputs": [
        {
          "name": "",
          "type": "address"
        }
      ],
      "payable": false,
      "stateMutability": "view",
      "type": "function",
      "signature": "0xdfbf53ae"
    },
    {
      "inputs": [
        {
          "name": "_init",
          "type": "bytes32"
        }
      ],
      "payable": true,
      "stateMutability": "payable",
      "type": "constructor",
      "signature": "constructor"
    },
    {
      "payable": false,
      "stateMutability": "nonpayable",
      "type": "fallback"
    },
    {
      "constant": false,
      "inputs": [],
      "name": "withdraw",
      "outputs": [
        {
          "name": "",
          "type": "bool"
        }
      ],
      "payable": false,
      "stateMutability": "nonpayable",
      "type": "function",
      "signature": "0x3ccfd60b"
    },
    {
      "constant": false,
      "inputs": [
        {
          "name": "_debug1",
          "type": "bool"
        },
        {
          "name": "_debug2",
          "type": "bool"
        },
        {
          "name": "_debug3",
          "type": "bool"
        },
        {
          "name": "_debug4",
          "type": "bool"
        },
        {
          "name": "_debug5",
          "type": "bool"
        },
        {
          "name": "_debug6",
          "type": "bool"
        }
      ],
      "name": "debugParams",
      "outputs": [
        {
          "name": "",
          "type": "bool"
        }
      ],
      "payable": false,
      "stateMutability": "nonpayable",
      "type": "function",
      "signature": "0x42c270e7"
    },
    {
      "constant": false,
      "inputs": [
        {
          "name": "secret",
          "type": "bytes32"
        },
        {
          "name": "slots",
          "type": "string"
        },
        {
          "name": "blockNo",
          "type": "uint256"
        },
        {
          "name": "submitBlocks",
          "type": "uint256[]"
        },
        {
          "name": "winningTickets",
          "type": "uint256[]"
        },
        {
          "name": "proof",
          "type": "bytes32[]"
        },
        {
          "name": "isLeft",
          "type": "bool[]"
        },
        {
          "name": "score",
          "type": "bytes32"
        },
        {
          "name": "claimHash",
          "type": "bytes32"
        }
      ],
      "name": "claimLotteReward",
      "outputs": [
        {
          "name": "",
          "type": "bool"
        }
      ],
      "payable": false,
      "stateMutability": "nonpayable",
      "type": "function",
      "signature": "0xbabb3b13"
    },
    {
      "constant": true,
      "inputs": [
        {
          "name": "_board",
          "type": "bytes32"
        },
        {
          "name": "submitBlocks",
          "type": "uint256[]"
        },
        {
          "name": "winningTickets",
          "type": "uint256[]"
        },
        {
          "name": "genTickets",
          "type": "bytes32[]"
        }
      ],
      "name": "verifyWinnumber",
      "outputs": [
        {
          "name": "",
          "type": "bool"
        }
      ],
      "payable": false,
      "stateMutability": "view",
      "type": "function",
      "signature": "0x113097ad"
    },
    {
      "constant": true,
      "inputs": [
        {
          "name": "score",
          "type": "bytes32"
        },
        {
          "name": "numTickets",
          "type": "uint256"
        }
      ],
      "name": "generateTickets",
      "outputs": [
        {
          "name": "",
          "type": "bytes32[]"
        }
      ],
      "payable": false,
      "stateMutability": "view",
      "type": "function",
      "signature": "0xc13375db"
    },
    {
      "constant": true,
      "inputs": [
        {
          "name": "score",
          "type": "bytes32"
        }
      ],
      "name": "getNumOfTickets",
      "outputs": [
        {
          "name": "",
          "type": "uint256"
        }
      ],
      "payable": false,
      "stateMutability": "pure",
      "type": "function",
      "signature": "0x5c0effb2"
    },
    {
      "constant": true,
      "inputs": [
        {
          "name": "_addr",
          "type": "address"
        }
      ],
      "name": "getPlayerInfo",
      "outputs": [
        {
          "name": "",
          "type": "uint256"
        },
        {
          "name": "",
          "type": "bytes32"
        },
        {
          "name": "",
          "type": "bool"
        }
      ],
      "payable": false,
      "stateMutability": "view",
      "type": "function",
      "signature": "0x59328401"
    },
    {
      "constant": false,
      "inputs": [
        {
          "name": "defense",
          "type": "bytes32"
        }
      ],
      "name": "fortify",
      "outputs": [
        {
          "name": "",
          "type": "bool"
        }
      ],
      "payable": true,
      "stateMutability": "payable",
      "type": "function",
      "signature": "0x58533612"
    },
    {
      "constant": false,
      "inputs": [
        {
          "name": "scoreHash",
          "type": "bytes32"
        }
      ],
      "name": "challenge",
      "outputs": [
        {
          "name": "",
          "type": "bool"
        }
      ],
      "payable": true,
      "stateMutability": "payable",
      "type": "function",
      "signature": "0xcffd46dc"
    },
    {
      "constant": true,
      "inputs": [
        {
          "name": "secret",
          "type": "bytes32"
        },
        {
          "name": "blockNo",
          "type": "uint256"
        }
      ],
      "name": "testOutcome",
      "outputs": [
        {
          "name": "_board",
          "type": "bytes32"
        },
        {
          "name": "_slots",
          "type": "bool[32]"
        }
      ],
      "payable": false,
      "stateMutability": "view",
      "type": "function",
      "signature": "0x1cb9409f"
    },
    {
      "constant": true,
      "inputs": [
        {
          "name": "blockNo",
          "type": "uint256"
        },
        {
          "name": "_board",
          "type": "bytes32"
        }
      ],
      "name": "winningNumber",
      "outputs": [
        {
          "name": "",
          "type": "bytes32"
        }
      ],
      "payable": false,
      "stateMutability": "view",
      "type": "function",
      "signature": "0xafde797c"
    },
    {
      "constant": true,
      "inputs": [
        {
          "name": "proof",
          "type": "bytes32[]"
        },
        {
          "name": "isLeft",
          "type": "bool[]"
        },
        {
          "name": "targetLeaf",
          "type": "bytes32"
        },
        {
          "name": "_merkleRoot",
          "type": "bytes32"
        }
      ],
      "name": "merkleTreeValidator",
      "outputs": [
        {
          "name": "",
          "type": "bool"
        }
      ],
      "payable": false,
      "stateMutability": "pure",
      "type": "function",
      "signature": "0xb8f69e37"
    },
    {
      "constant": false,
      "inputs": [
        {
          "name": "_initHeight",
          "type": "uint256"
        },
        {
          "name": "_merkleRoot",
          "type": "bytes32"
        },
        {
          "name": "_ipfsAddr",
          "type": "string"
        }
      ],
      "name": "submitMerkleRoot",
      "outputs": [
        {
          "name": "",
          "type": "bool"
        }
      ],
      "payable": false,
      "stateMutability": "nonpayable",
      "type": "function",
      "signature": "0xb04cd588"
    },
    {
      "constant": true,
      "inputs": [
        {
          "name": "_initHeight",
          "type": "uint256"
        }
      ],
      "name": "getBlockInfo",
      "outputs": [
        {
          "name": "",
          "type": "bytes32"
        },
        {
          "name": "",
          "type": "string"
        }
      ],
      "payable": false,
      "stateMutability": "view",
      "type": "function",
      "signature": "0xbb141cf4"
    },
    {
      "constant": true,
      "inputs": [
        {
          "name": "blockNo",
          "type": "uint256"
        }
      ],
      "name": "getBlockhash",
      "outputs": [
        {
          "name": "",
          "type": "bytes32"
        }
      ],
      "payable": false,
      "stateMutability": "view",
      "type": "function",
      "signature": "0xe9413d38"
    },
    {
      "constant": true,
      "inputs": [
        {
          "name": "secret",
          "type": "bytes32"
        },
        {
          "name": "slotString",
          "type": "string"
        },
        {
          "name": "blockNo",
          "type": "uint256"
        },
        {
          "name": "_board",
          "type": "bytes32"
        },
        {
          "name": "score",
          "type": "bytes32"
        }
      ],
      "name": "compareScore",
      "outputs": [
        {
          "name": "",
          "type": "bool"
        }
      ],
      "payable": false,
      "stateMutability": "view",
      "type": "function",
      "signature": "0x81787864"
    },
    {
      "constant": true,
      "inputs": [
        {
          "name": "secret",
          "type": "bytes32"
        },
        {
          "name": "slotString",
          "type": "string"
        },
        {
          "name": "blockNo",
          "type": "uint256"
        },
        {
          "name": "_board",
          "type": "bytes32"
        }
      ],
      "name": "computeScore",
      "outputs": [
        {
          "name": "out",
          "type": "bytes32"
        }
      ],
      "payable": false,
      "stateMutability": "view",
      "type": "function",
      "signature": "0xa1ef91d8"
    },
    {
      "constant": false,
      "inputs": [
        {
          "name": "_newValidator",
          "type": "address"
        }
      ],
      "name": "newValidator",
      "outputs": [
        {
          "name": "",
          "type": "bool"
        }
      ],
      "payable": false,
      "stateMutability": "nonpayable",
      "type": "function",
      "signature": "0x065c11cc"
    },
    {
      "constant": false,
      "inputs": [
        {
          "name": "_newDefender",
          "type": "address"
        }
      ],
      "name": "newDefender",
      "outputs": [
        {
          "name": "",
          "type": "bool"
        }
      ],
      "payable": false,
      "stateMutability": "nonpayable",
      "type": "function",
      "signature": "0xed958671"
    }
  ],
  "bytecode": "0x60806040527dffffffffffffffffffffffffffffffffffffffffffffffffffffffffffff600102600455662386f26fc100006005556000600660006101000a81548160ff02191690831515021790555060006007556000600d60006101000a81548160ff0219169083151502179055506001600d60016101000a81548160ff0219169083151502179055506001600d60026101000a81548160ff0219169083151502179055506001600d60036101000a81548160ff0219169083151502179055506001600d60046101000a81548160ff0219169083151502179055506001600d60056101000a81548160ff021916908315150217905550604051602080620040dc833981018060405260208110156200011757600080fd5b810190808051906020019092919050505060055434101515156200013a57600080fd5b336000806101000a81548173ffffffffffffffffffffffffffffffffffffffff021916908373ffffffffffffffffffffffffffffffffffffffff16021790555033600260006101000a81548173ffffffffffffffffffffffffffffffffffffffff021916908373ffffffffffffffffffffffffffffffffffffffff16021790555060011515620001d982620001ef640100000000026401000000009004565b1515141515620001e857600080fd5b50620003bc565b600060055434101515156200020357600080fd5b6000809054906101000a900473ffffffffffffffffffffffffffffffffffffffff1673ffffffffffffffffffffffffffffffffffffffff163373ffffffffffffffffffffffffffffffffffffffff161415156200025f57600080fd5b60001515600660009054906101000a900460ff1615151415156200028257600080fd5b600454821115156200029357600080fd5b6000600160006101000a81548173ffffffffffffffffffffffffffffffffffffffff021916908373ffffffffffffffffffffffffffffffffffffffff1602179055504360038190555060606040519081016040528060035481526020016000600102815260200160001515815250600b60003373ffffffffffffffffffffffffffffffffffffffff1673ffffffffffffffffffffffffffffffffffffffff168152602001908152602001600020600082015181600001556020820151816001015560408201518160020160006101000a81548160ff02191690831515021790555090505060016007600082825401925050819055506001600660006101000a81548160ff021916908315150217905550600954600a819055508160098190555060019050919050565b613d1080620003cc6000396000f3fe608060405260043610610242576000357c0100000000000000000000000000000000000000000000000000000000900480638186a8f911610140578063ba0bba40116100c8578063cffd46dc1161008c578063cffd46dc146115b7578063ddca3f43146115fd578063dfbf53ae14611628578063e9413d381461167f578063ed958671146116ce57610242565b8063ba0bba40146110af578063babb3b13146110de578063bb141cf414611437578063c13375db146114f2578063cff483b91461158c57610242565b8063a78eacdb1161010f578063a78eacdb14610d83578063afde797c14610dae578063b04cd58814610e07578063b70902bc14610efb578063b8f69e3714610f2a57610242565b80638186a8f914610c045780639b76d3f914610c2f578063a1ef91d814610c5e578063a4dd1d7d14610d5857610242565b806359328401116101ce5780636b180b59116101925780636b180b5914610a205780637cd3229a14610a4b5780637dc7c5a514610a765780637f4c91c514610aa55780638178786414610afc57610242565b806359328401146108d15780635ba88c28146109485780635c0effb214610977578063610da891146109c65780636426b1e4146109f557610242565b806326593be71161021557806326593be7146107455780633a5381b5146107745780633ccfd60b146107cb57806342c270e7146107fa578063585336121461088b57610242565b8063065c11cc1461041b578063113097ad1461048457806319cae462146106935780631cb9409f146106be575b34801561024e57600080fd5b506000809054906101000a900473ffffffffffffffffffffffffffffffffffffffff1673ffffffffffffffffffffffffffffffffffffffff163373ffffffffffffffffffffffffffffffffffffffff161415156102aa57600080fd5b60011515600660009054906101000a900460ff1615151480156102d15750600a6003540143115b801561032b5750600073ffffffffffffffffffffffffffffffffffffffff16600160009054906101000a900473ffffffffffffffffffffffffffffffffffffffff1673ffffffffffffffffffffffffffffffffffffffff16145b151561033657600080fd5b6000809054906101000a900473ffffffffffffffffffffffffffffffffffffffff16600160006101000a81548173ffffffffffffffffffffffffffffffffffffffff021916908373ffffffffffffffffffffffffffffffffffffffff1602179055506000600660006101000a81548160ff0219169083151502179055506000600781905550600115153373ffffffffffffffffffffffffffffffffffffffff166108fc3073ffffffffffffffffffffffffffffffffffffffff16319081150290604051600060405180830381858888f19350505050151514151561041957600080fd5b005b34801561042757600080fd5b5061046a6004803603602081101561043e57600080fd5b81019080803573ffffffffffffffffffffffffffffffffffffffff169060200190929190505050611737565b604051808215151515815260200191505060405180910390f35b34801561049057600080fd5b50610679600480360360808110156104a757600080fd5b8101908080359060200190929190803590602001906401000000008111156104ce57600080fd5b8201836020820111156104e057600080fd5b8035906020019184602083028401116401000000008311171561050257600080fd5b919080806020026020016040519081016040528093929190818152602001838360200280828437600081840152601f19601f8201169050808301925050505050505091929192908035906020019064010000000081111561056257600080fd5b82018360208201111561057457600080fd5b8035906020019184602083028401116401000000008311171561059657600080fd5b919080806020026020016040519081016040528093929190818152602001838360200280828437600081840152601f19601f820116905080830192505050505050509192919290803590602001906401000000008111156105f657600080fd5b82018360208201111561060857600080fd5b8035906020019184602083028401116401000000008311171561062a57600080fd5b919080806020026020016040519081016040528093929190818152602001838360200280828437600081840152601f19601f82011690508083019250505050505050919291929050505061181a565b604051808215151515815260200191505060405180910390f35b34801561069f57600080fd5b506106a861199f565b6040518082815260200191505060405180910390f35b3480156106ca57600080fd5b50610701600480360360408110156106e157600080fd5b8101908080359060200190929190803590602001909291905050506119a5565b60405180838152602001826020800280838360005b83811015610731578082015181840152602081019050610716565b505050509050019250505060405180910390f35b34801561075157600080fd5b5061075a611ce2565b604051808215151515815260200191505060405180910390f35b34801561078057600080fd5b50610789611cf5565b604051808273ffffffffffffffffffffffffffffffffffffffff1673ffffffffffffffffffffffffffffffffffffffff16815260200191505060405180910390f35b3480156107d757600080fd5b506107e0611d1b565b604051808215151515815260200191505060405180910390f35b34801561080657600080fd5b50610871600480360360c081101561081d57600080fd5b81019080803515159060200190929190803515159060200190929190803515159060200190929190803515159060200190929190803515159060200190929190803515159060200190929190505050611f48565b604051808215151515815260200191505060405180910390f35b6108b7600480360360208110156108a157600080fd5b8101908080359060200190929190505050611ff4565b604051808215151515815260200191505060405180910390f35b3480156108dd57600080fd5b50610920600480360360208110156108f457600080fd5b81019080803573ffffffffffffffffffffffffffffffffffffffff1690602001909291905050506121bd565b6040518084815260200183815260200182151515158152602001935050505060405180910390f35b34801561095457600080fd5b5061095d6122a5565b604051808215151515815260200191505060405180910390f35b34801561098357600080fd5b506109b06004803603602081101561099a57600080fd5b81019080803590602001909291905050506122b8565b6040518082815260200191505060405180910390f35b3480156109d257600080fd5b506109db61238e565b604051808215151515815260200191505060405180910390f35b348015610a0157600080fd5b50610a0a6123a1565b6040518082815260200191505060405180910390f35b348015610a2c57600080fd5b50610a356123a7565b6040518082815260200191505060405180910390f35b348015610a5757600080fd5b50610a606123ad565b6040518082815260200191505060405180910390f35b348015610a8257600080fd5b50610a8b6123b3565b604051808215151515815260200191505060405180910390f35b348015610ab157600080fd5b50610aba6123c6565b604051808273ffffffffffffffffffffffffffffffffffffffff1673ffffffffffffffffffffffffffffffffffffffff16815260200191505060405180910390f35b348015610b0857600080fd5b50610bea600480360360a0811015610b1f57600080fd5b810190808035906020019092919080359060200190640100000000811115610b4657600080fd5b820183602082011115610b5857600080fd5b80359060200191846001830284011164010000000083111715610b7a57600080fd5b91908080601f016020809104026020016040519081016040528093929190818152602001838380828437600081840152601f19601f8201169050808301925050505050505091929192908035906020019092919080359060200190929190803590602001909291905050506123eb565b604051808215151515815260200191505060405180910390f35b348015610c1057600080fd5b50610c196126fd565b6040518082815260200191505060405180910390f35b348015610c3b57600080fd5b50610c44612703565b604051808215151515815260200191505060405180910390f35b348015610c6a57600080fd5b50610d4260048036036080811015610c8157600080fd5b810190808035906020019092919080359060200190640100000000811115610ca857600080fd5b820183602082011115610cba57600080fd5b80359060200191846001830284011164010000000083111715610cdc57600080fd5b91908080601f016020809104026020016040519081016040528093929190818152602001838380828437600081840152601f19601f8201169050808301925050505050505091929192908035906020019092919080359060200190929190505050612716565b6040518082815260200191505060405180910390f35b348015610d6457600080fd5b50610d6d612af5565b6040518082815260200191505060405180910390f35b348015610d8f57600080fd5b50610d98612afa565b6040518082815260200191505060405180910390f35b348015610dba57600080fd5b50610df160048036036040811015610dd157600080fd5b810190808035906020019092919080359060200190929190505050612b00565b6040518082815260200191505060405180910390f35b348015610e1357600080fd5b50610ee160048036036060811015610e2a57600080fd5b81019080803590602001909291908035906020019092919080359060200190640100000000811115610e5b57600080fd5b820183602082011115610e6d57600080fd5b80359060200191846001830284011164010000000083111715610e8f57600080fd5b91908080601f016020809104026020016040519081016040528093929190818152602001838380828437600081840152601f19601f820116905080830192505050505050509192919290505050612b4c565b604051808215151515815260200191505060405180910390f35b348015610f0757600080fd5b50610f10612c90565b604051808215151515815260200191505060405180910390f35b348015610f3657600080fd5b5061109560048036036080811015610f4d57600080fd5b8101908080359060200190640100000000811115610f6a57600080fd5b820183602082011115610f7c57600080fd5b80359060200191846020830284011164010000000083111715610f9e57600080fd5b919080806020026020016040519081016040528093929190818152602001838360200280828437600081840152601f19601f82011690508083019250505050505050919291929080359060200190640100000000811115610ffe57600080fd5b82018360208201111561101057600080fd5b8035906020019184602083028401116401000000008311171561103257600080fd5b919080806020026020016040519081016040528093929190818152602001838360200280828437600081840152601f19601f8201169050808301925050505050505091929192908035906020019092919080359060200190929190505050612ca3565b604051808215151515815260200191505060405180910390f35b3480156110bb57600080fd5b506110c4612dc7565b604051808215151515815260200191505060405180910390f35b3480156110ea57600080fd5b5061141d600480360361012081101561110257600080fd5b81019080803590602001909291908035906020019064010000000081111561112957600080fd5b82018360208201111561113b57600080fd5b8035906020019184600183028401116401000000008311171561115d57600080fd5b91908080601f016020809104026020016040519081016040528093929190818152602001838380828437600081840152601f19601f82011690508083019250505050505050919291929080359060200190929190803590602001906401000000008111156111ca57600080fd5b8201836020820111156111dc57600080fd5b803590602001918460208302840111640100000000831117156111fe57600080fd5b919080806020026020016040519081016040528093929190818152602001838360200280828437600081840152601f19601f8201169050808301925050505050505091929192908035906020019064010000000081111561125e57600080fd5b82018360208201111561127057600080fd5b8035906020019184602083028401116401000000008311171561129257600080fd5b919080806020026020016040519081016040528093929190818152602001838360200280828437600081840152601f19601f820116905080830192505050505050509192919290803590602001906401000000008111156112f257600080fd5b82018360208201111561130457600080fd5b8035906020019184602083028401116401000000008311171561132657600080fd5b919080806020026020016040519081016040528093929190818152602001838360200280828437600081840152601f19601f8201169050808301925050505050505091929192908035906020019064010000000081111561138657600080fd5b82018360208201111561139857600080fd5b803590602001918460208302840111640100000000831117156113ba57600080fd5b919080806020026020016040519081016040528093929190818152602001838360200280828437600081840152601f19601f8201169050808301925050505050505091929192908035906020019092919080359060200190929190505050612dda565b604051808215151515815260200191505060405180910390f35b34801561144357600080fd5b506114706004803603602081101561145a57600080fd5b81019080803590602001909291905050506135b6565b6040518083815260200180602001828103825283818151815260200191508051906020019080838360005b838110156114b657808201518184015260208101905061149b565b50505050905090810190601f1680156114e35780820380516001836020036101000a031916815260200191505b50935050505060405180910390f35b3480156114fe57600080fd5b506115356004803603604081101561151557600080fd5b81019080803590602001909291908035906020019092919050505061368c565b6040518080602001828103825283818151815260200191508051906020019060200280838360005b8381101561157857808201518184015260208101905061155d565b505050509050019250505060405180910390f35b34801561159857600080fd5b506115a161373f565b6040518082815260200191505060405180910390f35b6115e3600480360360208110156115cd57600080fd5b8101908080359060200190929190505050613745565b604051808215151515815260200191505060405180910390f35b34801561160957600080fd5b50611612613a4e565b6040518082815260200191505060405180910390f35b34801561163457600080fd5b5061163d613a54565b604051808273ffffffffffffffffffffffffffffffffffffffff1673ffffffffffffffffffffffffffffffffffffffff16815260200191505060405180910390f35b34801561168b57600080fd5b506116b8600480360360208110156116a257600080fd5b8101908080359060200190929190505050613a7a565b6040518082815260200191505060405180910390f35b3480156116da57600080fd5b5061171d600480360360208110156116f157600080fd5b81019080803573ffffffffffffffffffffffffffffffffffffffff169060200190929190505050613a85565b604051808215151515815260200191505060405180910390f35b60008060009054906101000a900473ffffffffffffffffffffffffffffffffffffffff1673ffffffffffffffffffffffffffffffffffffffff163373ffffffffffffffffffffffffffffffffffffffff1614151561179457600080fd5b600073ffffffffffffffffffffffffffffffffffffffff168273ffffffffffffffffffffffffffffffffffffffff16141515156117d057600080fd5b81600260006101000a81548173ffffffffffffffffffffffffffffffffffffffff021916908373ffffffffffffffffffffffffffffffffffffffff16021790555060019050919050565b60008060008090505b85518110156119905786868281518110151561183b57fe5b90602001906020020151406040516020018083815260200182815260200192505050604051602081830303815290604052805190602001209150601084868381518110151561188657fe5b9060200190602002015181518110151561189c57fe5b90602001906020020151601f6020811015156118b457fe5b1a7f0100000000000000000000000000000000000000000000000000000000000000027f0100000000000000000000000000000000000000000000000000000000000000900460ff1681151561190657fe5b0660ff16601083601f60208110151561191b57fe5b1a7f0100000000000000000000000000000000000000000000000000000000000000027f0100000000000000000000000000000000000000000000000000000000000000900460ff1681151561196d57fe5b0660ff1614151561198357600092505050611997565b8080600101915050611823565b5060019150505b949350505050565b60045481565b60006119af613bc7565b60011515600660009054906101000a900460ff1615151415156119d157600080fd5b600760035401431180156119ea5750600a600354014311155b1515611a5e576040517f08c379a000000000000000000000000000000000000000000000000000000000815260040180806020018281038252600e8152602001807f746573746f7574636f6d653a203100000000000000000000000000000000000081525060200191505060405180910390fd5b6007834303101515611ad8576040517f08c379a000000000000000000000000000000000000000000000000000000000815260040180806020018281038252600e8152602001807f746573746f7574636f6d653a203200000000000000000000000000000000000081525060200191505060405180910390fd5b600143038311158015611af057506007600354018310155b8015611b005750600a6003540183105b1515611b74576040517f08c379a000000000000000000000000000000000000000000000000000000000815260040180806020018281038252600e8152602001807f746573746f7574636f6d653a203300000000000000000000000000000000000081525060200191505060405180910390fd5b33848440604051602001808473ffffffffffffffffffffffffffffffffffffffff1673ffffffffffffffffffffffffffffffffffffffff166c01000000000000000000000000028152601401838152602001828152602001935050505060405160208183030381529060405280519060200120915060008090505b601f81111515611cd45760095481602081101515611c0957fe5b1a7f0100000000000000000000000000000000000000000000000000000000000000027effffffffffffffffffffffffffffffffffffffffffffffffffffffffffffff19168382602081101515611c5c57fe5b1a7f0100000000000000000000000000000000000000000000000000000000000000027effffffffffffffffffffffffffffffffffffffffffffffffffffffffffffff19161015611cc75760018282602081101515611cb757fe5b6020020190151590811515815250505b8080600101915050611bef565b508181915091509250929050565b600d60059054906101000a900460ff1681565b600260009054906101000a900473ffffffffffffffffffffffffffffffffffffffff1681565b60008073ffffffffffffffffffffffffffffffffffffffff16600160009054906101000a900473ffffffffffffffffffffffffffffffffffffffff1673ffffffffffffffffffffffffffffffffffffffff1614158015611dc85750600160009054906101000a900473ffffffffffffffffffffffffffffffffffffffff1673ffffffffffffffffffffffffffffffffffffffff163373ffffffffffffffffffffffffffffffffffffffff16145b1515611dd357600080fd5b601e600b60003373ffffffffffffffffffffffffffffffffffffffff1673ffffffffffffffffffffffffffffffffffffffff168152602001908152602001600020600001540143111515611e2657600080fd5b6007601e600b60003373ffffffffffffffffffffffffffffffffffffffff1673ffffffffffffffffffffffffffffffffffffffff16815260200190815260200160002060000154010143101515611e7c57600080fd5b6000600160006101000a81548173ffffffffffffffffffffffffffffffffffffffff021916908373ffffffffffffffffffffffffffffffffffffffff1602179055506000600a611eed60063073ffffffffffffffffffffffffffffffffffffffff1631613b8990919063ffffffff16565b811515611ef657fe5b049050600115153373ffffffffffffffffffffffffffffffffffffffff166108fc839081150290604051600060405180830381858888f193505050501515141515611f4057600080fd5b600191505090565b600086600d60006101000a81548160ff02191690831515021790555085600d60016101000a81548160ff02191690831515021790555084600d60026101000a81548160ff02191690831515021790555083600d60036101000a81548160ff02191690831515021790555082600d60046101000a81548160ff02191690831515021790555081600d60056101000a81548160ff021916908315150217905550600190509695505050505050565b6000600554341015151561200757600080fd5b6000809054906101000a900473ffffffffffffffffffffffffffffffffffffffff1673ffffffffffffffffffffffffffffffffffffffff163373ffffffffffffffffffffffffffffffffffffffff1614151561206257600080fd5b60001515600660009054906101000a900460ff16151514151561208457600080fd5b6004548211151561209457600080fd5b6000600160006101000a81548173ffffffffffffffffffffffffffffffffffffffff021916908373ffffffffffffffffffffffffffffffffffffffff1602179055504360038190555060606040519081016040528060035481526020016000600102815260200160001515815250600b60003373ffffffffffffffffffffffffffffffffffffffff1673ffffffffffffffffffffffffffffffffffffffff168152602001908152602001600020600082015181600001556020820151816001015560408201518160020160006101000a81548160ff02191690831515021790555090505060016007600082825401925050819055506001600660006101000a81548160ff021916908315150217905550600954600a819055508160098190555060019050919050565b6000806000600b60008573ffffffffffffffffffffffffffffffffffffffff1673ffffffffffffffffffffffffffffffffffffffff16815260200190815260200160002060000154600b60008673ffffffffffffffffffffffffffffffffffffffff1673ffffffffffffffffffffffffffffffffffffffff16815260200190815260200160002060010154600b60008773ffffffffffffffffffffffffffffffffffffffff1673ffffffffffffffffffffffffffffffffffffffff16815260200190815260200160002060020160009054906101000a900460ff169250925092509193909250565b600d60019054906101000a900460ff1681565b60007effffffffffffffffffffffffffffffffffffffffffffffffffffffffffffff6001028211156122ed5760019050612389565b7e0fffffffffffffffffffffffffffffffffffffffffffffffffffffffffffff6001028211156123205760029050612389565b7dffffffffffffffffffffffffffffffffffffffffffffffffffffffffffff6001028211156123525760039050612389565b7d0fffffffffffffffffffffffffffffffffffffffffffffffffffffffffff6001028211156123845760049050612389565b600590505b919050565b600d60029054906101000a900460ff1681565b6103e881565b60075481565b60095481565b600d60009054906101000a900460ff1681565b6000809054906101000a900473ffffffffffffffffffffffffffffffffffffffff1681565b60008033878640604051602001808473ffffffffffffffffffffffffffffffffffffffff1673ffffffffffffffffffffffffffffffffffffffff166c0100000000000000000000000002815260140183815260200182815260200193505050506040516020818303038152906040528051906020012090506060869050600080600090505b60208110156126eb5760307f01000000000000000000000000000000000000000000000000000000000000000283828151811015156124ab57fe5b9060200101517f010000000000000000000000000000000000000000000000000000000000000090047f0100000000000000000000000000000000000000000000000000000000000000027effffffffffffffffffffffffffffffffffffffffffffffffffffffffffffff191614156125ad576008810260ff7f010000000000000000000000000000000000000000000000000000000000000002888360208110151561255457fe5b1a7f010000000000000000000000000000000000000000000000000000000000000002167effffffffffffffffffffffffffffffffffffffffffffffffffffffffffffff1916908060020a8204915050821791506126de565b60317f01000000000000000000000000000000000000000000000000000000000000000283828151811015156125df57fe5b9060200101517f010000000000000000000000000000000000000000000000000000000000000090047f0100000000000000000000000000000000000000000000000000000000000000027effffffffffffffffffffffffffffffffffffffffffffffffffffffffffffff191614156126dd576008810260ff7f010000000000000000000000000000000000000000000000000000000000000002858360208110151561268857fe5b1a7f010000000000000000000000000000000000000000000000000000000000000002167effffffffffffffffffffffffffffffffffffffffffffffffffffffffffffff1916908060020a8204915050821791505b5b8080600101915050612470565b50848114935050505095945050505050565b60085481565b600d60049054906101000a900460ff1681565b60008033868540604051602001808473ffffffffffffffffffffffffffffffffffffffff1673ffffffffffffffffffffffffffffffffffffffff166c0100000000000000000000000002815260140183815260200182815260200193505050506040516020818303038152906040528051906020012090506060859050606060206040519080825280601f01601f1916602001820160405280156127c95781602001600182028038833980820191505090505b50905060008090505b6020811015612a175760307f010000000000000000000000000000000000000000000000000000000000000002838281518110151561280d57fe5b9060200101517f010000000000000000000000000000000000000000000000000000000000000090047f0100000000000000000000000000000000000000000000000000000000000000027effffffffffffffffffffffffffffffffffffffffffffffffffffffffffffff191614156128f457858160208110151561288e57fe5b1a7f01000000000000000000000000000000000000000000000000000000000000000282828151811015156128bf57fe5b9060200101907effffffffffffffffffffffffffffffffffffffffffffffffffffffffffffff1916908160001a905350612a0a565b60317f010000000000000000000000000000000000000000000000000000000000000002838281518110151561292657fe5b9060200101517f010000000000000000000000000000000000000000000000000000000000000090047f0100000000000000000000000000000000000000000000000000000000000000027effffffffffffffffffffffffffffffffffffffffffffffffffffffffffffff19161415612a095783816020811015156129a757fe5b1a7f01000000000000000000000000000000000000000000000000000000000000000282828151811015156129d857fe5b9060200101907effffffffffffffffffffffffffffffffffffffffffffffffffffffffffffff1916908160001a9053505b5b80806001019150506127d2565b5060008090505b6020811015612ae6576008810260ff7f0100000000000000000000000000000000000000000000000000000000000000028383815181101515612a5d57fe5b9060200101517f010000000000000000000000000000000000000000000000000000000000000090047f010000000000000000000000000000000000000000000000000000000000000002167effffffffffffffffffffffffffffffffffffffffffffffffffffffffffffff1916908060020a8204915050851794508080600101915050612a1e565b50839350505050949350505050565b601e81565b60035481565b6000600143038311151515612b1457600080fd5b818340604051602001808381526020018281526020019250505060405160208183030381529060405280519060200120905092915050565b60008073ffffffffffffffffffffffffffffffffffffffff16600260009054906101000a900473ffffffffffffffffffffffffffffffffffffffff1673ffffffffffffffffffffffffffffffffffffffff1614158015612bf95750600260009054906101000a900473ffffffffffffffffffffffffffffffffffffffff1673ffffffffffffffffffffffffffffffffffffffff163373ffffffffffffffffffffffffffffffffffffffff16145b1515612c0457600080fd5b601e84014310158015612c1d57506003601e8501014311155b1515612c2857600080fd5b604080519081016040528084815260200183815250600c6000868152602001908152602001600020600082015181600001556020820151816001019080519060200190612c76929190613beb565b509050506008840140600881905550600190509392505050565b600d60039054906101000a900460ff1681565b600060208551101515612cb557600080fd5b83518551141515612cc557600080fd5b600083905060008090505b8651811015612db75760008782815181101515612ce957fe5b9060200190602002015190508682815181101515612d0357fe5b9060200190602002015115612d485780836040516020018083815260200182815260200192505050604051602081830303815290604052805190602001209250612da9565b8682815181101515612d5657fe5b906020019060200201511515612d9c5782816040516020018083815260200182815260200192505050604051602081830303815290604052805190602001209250612da8565b60009350505050612dbf565b5b508080600101915050612cd0565b508281149150505b949350505050565b600660009054906101000a900460ff1681565b6000600a865111151515612e56576040517f08c379a000000000000000000000000000000000000000000000000000000000815260040180806020018281038252601d8152602001807f796f752063616e6e6f7420636c61696d206d6f7265207469636b65747300000081525060200191505060405180910390fd5b83518551141515612ecf576040517f08c379a000000000000000000000000000000000000000000000000000000000815260040180806020018281038252601c8152602001807f6c656e206f662070726f6f662f69734c656674206d69736d617463680000000081525060200191505060405180910390fd5b86518651141515612f2b576040517f08c379a0000000000000000000000000000000000000000000000000000000008152600401808060200182810382526028815260200180613cbd6028913960400191505060405180910390fd5b600d60009054906101000a900460ff1615613190576000600102600c6000600b60003373ffffffffffffffffffffffffffffffffffffffff1673ffffffffffffffffffffffffffffffffffffffff1681526020019081526020016000206000015481526020019081526020016000206000015414151515613014576040517f08c379a00000000000000000000000000000000000000000000000000000000081526004018080602001828103825260128152602001807f6e6f206d65726b6c6520726f6f7420796574000000000000000000000000000081525060200191505060405180910390fd5b601e600b60003373ffffffffffffffffffffffffffffffffffffffff1673ffffffffffffffffffffffffffffffffffffffff1681526020019081526020016000206000015401431115156130d0576040517f08c379a00000000000000000000000000000000000000000000000000000000081526004018080602001828103825260098152602001807f746f6f206561726c79000000000000000000000000000000000000000000000081525060200191505060405180910390fd5b6007601e600b60003373ffffffffffffffffffffffffffffffffffffffff1673ffffffffffffffffffffffffffffffffffffffff1681526020019081526020016000206000015401014310151561318f576040517f08c379a00000000000000000000000000000000000000000000000000000000081526004018080602001828103825260088152602001807f746f6f206c61746500000000000000000000000000000000000000000000000081525060200191505060405180910390fd5b5b6000600d60019054906101000a900460ff161561326157600354600b60003373ffffffffffffffffffffffffffffffffffffffff1673ffffffffffffffffffffffffffffffffffffffff1681526020019081526020016000206000015414156131fd57600954905061325c565b601e600b60003373ffffffffffffffffffffffffffffffffffffffff1673ffffffffffffffffffffffffffffffffffffffff1681526020019081526020016000206000015460035403111561325657600a54905061325b565b600080fd5b5b613267565b60095490505b6001600b60003373ffffffffffffffffffffffffffffffffffffffff1673ffffffffffffffffffffffffffffffffffffffff16815260200190815260200160002060020160006101000a81548160ff021916908315150217905550600d60029054906101000a900460ff16156132f0576132e48b8b8b84886123eb565b15156132ef57600080fd5b5b600d60039054906101000a900460ff16156133c857600b60003373ffffffffffffffffffffffffffffffffffffffff1673ffffffffffffffffffffffffffffffffffffffff168152602001908152602001600020600101548460405160200180828152602001915050604051602081830303815290604052805190602001201415156133c7576040517f08c379a000000000000000000000000000000000000000000000000000000000815260040180806020018281038252602c815260200180613c91602c913960400191505060405180910390fd5b5b60606133d3856122b8565b6040519080825280602002602001820160405280156134015781602001602082028038833980820191505090505b50905061341685613411876122b8565b61368c565b9050600d60049054906101000a900460ff161561350657613491878786600c6000600b60003373ffffffffffffffffffffffffffffffffffffffff1673ffffffffffffffffffffffffffffffffffffffff16815260200190815260200160002060000154815260200190815260200160002060000154612ca3565b1515613505576040517f08c379a00000000000000000000000000000000000000000000000000000000081526004018080602001828103825260138152602001807f6d65726b6c652070726f6f66206661696c65640000000000000000000000000081525060200191505060405180910390fd5b5b600d60059054906101000a900460ff16156135a3576001151561352b838b8b8561181a565b15151415156135a2576040517f08c379a00000000000000000000000000000000000000000000000000000000081526004018080602001828103825260148152602001807f666f756e6420612077726f6e67207469636b657400000000000000000000000081525060200191505060405180910390fd5b5b6001925050509998505050505050505050565b60006060600c600084815260200190815260200160002060000154600c6000858152602001908152602001600020600101808054600181600116156101000203166002900480601f01602080910402602001604051908101604052809291908181526020018280546001816001161561010002031660029004801561367c5780601f106136515761010080835404028352916020019161367c565b820191906000526020600020905b81548152906001019060200180831161365f57829003601f168201915b5050505050905091509150915091565b606080826040519080825280602002602001820160405280156136be5781602001602082028038833980820191505090505b50905060008090505b8381101561373457846008546001830160405160200180848152602001838152602001828152602001935050505060405160208183030381529060405280519060200120828281518110151561371957fe5b906020019060200201818152505080806001019150506136c7565b508091505092915050565b600a5481565b6000600554341015151561375857600080fd5b6000809054906101000a900473ffffffffffffffffffffffffffffffffffffffff1673ffffffffffffffffffffffffffffffffffffffff163373ffffffffffffffffffffffffffffffffffffffff16141515156137b457600080fd5b60011515600660009054906101000a900460ff1615151415156137d657600080fd5b600354600b60003373ffffffffffffffffffffffffffffffffffffffff1673ffffffffffffffffffffffffffffffffffffffff16815260200190815260200160002060000154101515613891576040517f08c379a000000000000000000000000000000000000000000000000000000000815260040180806020018281038252600c8152602001807f6368616c6c616e67653a2031000000000000000000000000000000000000000081525060200191505060405180910390fd5b600760035401431180156138aa5750600a600354014311155b151561391e576040517f08c379a000000000000000000000000000000000000000000000000000000000815260040180806020018281038252600c8152602001807f6368616c6c616e67653a2032000000000000000000000000000000000000000081525060200191505060405180910390fd5b6103e86001600754011115151561399d576040517f08c379a000000000000000000000000000000000000000000000000000000000815260040180806020018281038252600c8152602001807f6368616c6c616e67653a2033000000000000000000000000000000000000000081525060200191505060405180910390fd5b606060405190810160405280600354815260200183815260200160001515815250600b60003373ffffffffffffffffffffffffffffffffffffffff1673ffffffffffffffffffffffffffffffffffffffff168152602001908152602001600020600082015181600001556020820151816001015560408201518160020160006101000a81548160ff021916908315150217905550905050600160076000828254019250508190555060019050919050565b60055481565b600160009054906101000a900473ffffffffffffffffffffffffffffffffffffffff1681565b600081409050919050565b60008060009054906101000a900473ffffffffffffffffffffffffffffffffffffffff1673ffffffffffffffffffffffffffffffffffffffff163373ffffffffffffffffffffffffffffffffffffffff16141515613ae257600080fd5b600073ffffffffffffffffffffffffffffffffffffffff168273ffffffffffffffffffffffffffffffffffffffff1614151515613b1e57600080fd5b60001515600660009054906101000a900460ff161515141515613b4057600080fd5b816000806101000a81548173ffffffffffffffffffffffffffffffffffffffff021916908373ffffffffffffffffffffffffffffffffffffffff16021790555060019050919050565b600080831415613b9c5760009050613bc1565b60008284029050828482811515613baf57fe5b04141515613bbc57600080fd5b809150505b92915050565b61040060405190810160405280602090602082028038833980820191505090505090565b828054600181600116156101000203166002900490600052602060002090601f016020900481019282601f10613c2c57805160ff1916838001178555613c5a565b82800160010185558215613c5a579182015b82811115613c59578251825591602001919060010190613c3e565b5b509050613c679190613c6b565b5090565b613c8d91905b80821115613c89576000816000905550600101613c71565b5090565b9056fe77726f6e672073636f72652062617365206f6e2074686520676976656e207365637265742f626c6f636b4e6f7375626d6974426c6f636b7320616e642077696e6e696e675469636b657473206d69736d61746368a165627a7a72305820d7e21b75d3fb7cc403295dd620d63c63fe0871a59911ed815ed2cd16e63781320029",
  "source": "pragma solidity ^0.5.2;\n\n// import \"./ERC20.sol\";\nimport \"./SafeMath.sol\";\n// import \"./RNTInterface.sol\";\n\n// About the game\n// # Roles\n//  * defender : setup the game (only the fee)\n//  * player : join the game, max 1000 players, pay 0.01 eth and may win some RNT\n//  * validator: provide merkle proof at `end` block\n//\n// # time line of a game:\n//    start ------------ n ------- m -------------------------------- end --------\n//          calc           reg to    lottery, each round: 0-n winners     mr submit to chain;\n//                         sc        (only on sc)                         withdraw eth/claim RNT in several blks\n//          (period1)      (period2) (period3)                            could start next round\n//\n//  * sc: state channel; mr: merkle root\n//  * period_all = period1 + period2 + period3\n//  * during period2 (btw. `n` and `m`) players get tickets on sc\n//  * player obtain ticket in the form `ticket[i] = hash(score + bn[m-1] + i)` where 0<=i<5, depend on score\n// todo: add an upper limit for the contract to give to players? Such as (the order of) 1000*0.01 eth = 10 eth = 1e5 RNT\n\ncontract BattleShip {\n\tusing SafeMath for uint256;\n\t// Variables\n\taddress public defender;\n\taddress public winner;\n\taddress public validator;\n\t// address public RNTAddr;\n\tuint constant public maxPlayer = 1000;\n\tuint constant public period_all = 30;  // 7 + 3 + 20\n\tuint public initHeight;\n\t// uint public lastActivity;\n\tbytes32 public difficulty = 0x0000ffffffffffffffffffffffffffffffffffffffffffffffffffffffffffff;\n\tuint public fee = 10000000000000000;\n\tbool public setup = false;\n\tuint public playercount = 0;\n\n\tstruct playerInfo {\n\t\t// uint since;     // block height when joined\n\t\tuint initHeightJoined;\n\t\tbytes32 scoreHash;\n\t\tbool claimed;\n\t}\n\n        struct battleStat{\n            bytes32 merkleRoot;\n            string ipfsAddr;\n        }\n\n        bytes32 public ticketSeed;  // blockhash(initHeight+8) of each game\n        bytes32 public board;\n        bytes32 public prevboard;\n        // address ethWinnerAddr;  // only one winner take eth\n        // uint ethWinnerReward;\n\n\tmapping (address => playerInfo) playerDB;\n\tmapping (uint => battleStat) battleHistory;\n\n\t// Modifiers\n\tmodifier defenderOnly() {\n\t\trequire(msg.sender == defender);\n\t\t_;\n\t}\n\n\tmodifier WinnerOnly() {\n\t\trequire(winner != address(0) && msg.sender == winner);\n\t\t_;\n\t}\n\n\tmodifier ValidatorOnly() {\n\t        require(validator != address(0) && msg.sender == validator);\n\t        _;\n        }\n\n\tmodifier NewGameOnly() {\n\t\trequire(setup == false);\n\t\t_;\n\t}\n\n\tmodifier feePaid() {\n\t\trequire(msg.value >= fee);\n\t\t_;\n\t}\n\n\tmodifier gameStarted() {\n\t\trequire(setup == true);\n\t\t_;\n\t}\n\n\tmodifier gameStalled() {\n\t\t// require(setup == true && block.number > initHeight + period_all && winner == address(0));\n\t\trequire(setup == true && block.number > initHeight + 10 && winner == address(0));  // for debug\n\t\t_;\n\t}\n\n\tmodifier notDefender() {\n\t\trequire(msg.sender != defender);\n\t\t_;\n\t}\n\n\t// Contract constructor\n\tconstructor(bytes32 _init) public payable {\n\t\trequire(msg.value >= fee);\n\t\tdefender = msg.sender;\n\t\tvalidator = msg.sender;\n\t\t// RNTAddr  = _RNTAddr;\n\n\t\trequire(fortify(_init) == true);\n\t}\n\n\t// WinnerOnly\n\tfunction withdraw() public WinnerOnly returns (bool) {\n\t        // only one player win eth; make sure winner can claim the reward after next game started\n\t\trequire(block.number > playerDB[msg.sender].initHeightJoined + period_all);\n\t\trequire(block.number < playerDB[msg.sender].initHeightJoined + period_all + 7);\n\t\twinner = address(0);\n\n\t\tuint256 reward = uint256(address(this).balance).mul(uint256(6)) / uint256(10);\n\t\t// require(RNTInterface(RNTAddr).mint(msg.sender) == true);\n\t\trequire(msg.sender.send(reward) == true);\n\t\treturn true;\n\t}\n\n\tbool public debug1 = false;\n\tbool public debug2 = true;\n\tbool public debug3 = true;\n\tbool public debug4 = true;\n\tbool public debug5 = true;\n\tbool public debug6 = true;\n\tfunction debugParams(bool _debug1, bool _debug2, bool _debug3, bool _debug4, bool _debug5, bool _debug6) public returns (bool){\n                debug1 = _debug1;\n                debug2 = _debug2;\n                debug3 = _debug3;\n                debug4 = _debug4;\n                debug5 = _debug5;\n                debug6 = _debug6;\n                return true;\n        }\n\n\tfunction claimLotteReward( // this happens after end of a game, next round may started\n\t    bytes32 secret,\n\t    string memory slots,\n\t    uint blockNo,\n\t    uint[] memory submitBlocks,  // the winning blocks the player claimed\n\t    uint[] memory winningTickets, // the idx of generateTickets. same order as submitBlocks\n\t    bytes32[] memory proof,\n\t    bool[] memory isLeft,\n\t    bytes32 score,\n\t    bytes32 claimHash\n\t) public returns (bool) {\n\t\t// require(playerDB[msg.sender].claimed == false, \"already claimed\");  // for debug\n\t\trequire(winningTickets.length <= 10, \"you cannot claim more tickets\");\n\t        require(proof.length == isLeft.length, \"len of proof/isLeft mismatch\");\n\t        require(winningTickets.length == submitBlocks.length, \"submitBlocks and winningTickets mismatch\");\n\n\t\tif (debug1){\n                        require(battleHistory[playerDB[msg.sender].initHeightJoined].merkleRoot != bytes32(0), \"no merkle root yet\");\n                        require(block.number > playerDB[msg.sender].initHeightJoined + period_all, \"too early\");\n                        require(block.number < playerDB[msg.sender].initHeightJoined + period_all + 7, \"too late\");\n                }\n\n                bytes32 _board;\n                if (debug2){\n                        if (playerDB[msg.sender].initHeightJoined == initHeight) {\n                                _board = board;\n                        } else if (initHeight - playerDB[msg.sender].initHeightJoined > period_all) {\n                                _board = prevboard;\n                        } else {\n                                revert();\n                        }\n                } else {\n                        _board = board;\n                }\n\n                // No second chance: if one of the following verification failed, the player cannot call this function again.\n                playerDB[msg.sender].claimed = true;\n\n                // verify score\n                if (debug3){\n                        // if getScore() return a bytes of length 32, somehow following 2 lines fails in at least one machine:\n                        // bytes memory _score = getScore(secret, slots, blockNo, _board);\n                        // require(keccak256(abi.encodePacked(_score))) == keccak256(abi.encodePacked(score)));\n                        require(compareScore(secret, slots, blockNo, _board, score));\n                }\n                if (debug4){\n                        require(keccak256(abi.encodePacked(score)) == playerDB[msg.sender].scoreHash,\n                                \"wrong score base on the given secret/blockNo\");\n                }\n\n                // generate \"claimhash\", which is hash(msg.sender, submitBlocks[i], winningTickets[i], ...) where i=0,1,2,...\n\t\t// bytes32[5] memory genTickets = generateTickets(score);\n\t\tbytes32[] memory genTickets = new bytes32[](getNumOfTickets(score));\n\t\tgenTickets = generateTickets(score, getNumOfTickets(score));\n                // bytes32[] memory claimHashElements;\n                // claimHashElements[0] = bytes20(msg.sender);\n                // for (uint i=0; i<winningTickets.length; i++){\n                //         claimHashElements[i*2+1] = bytes32(submitBlocks[i]);\n                //         claimHashElements[i*2+2] = bytes32(genTickets[winningTickets[i]]);\n                // }\n                // bytes32 claimHash = keccak256(abi.encodePacked(claimHashElements));\n                // require(merkleTreeValidator(proof, isLeft, keccak256(abi.encodePacked(claimHashElements)),\n                if (debug5){\n                        require(merkleTreeValidator(proof, isLeft, claimHash,\n                                                    battleHistory[playerDB[msg.sender].initHeightJoined].merkleRoot),\n                                \"merkle proof failed\");\n                }\n\n                // count number of winning tickets\n                if (debug6){\n                        require(verifyWinnumber(_board, submitBlocks, winningTickets, genTickets) == true, \"found a wrong ticket\");\n                }\n\t\treturn true;\n        }\n\n        function verifyWinnumber(bytes32 _board, uint[] memory submitBlocks, uint[] memory winningTickets, bytes32[] memory genTickets) public view returns(bool){\n                bytes32 winNumber;\n                for (uint i=0; i<submitBlocks.length; i++){\n                            winNumber = keccak256(abi.encodePacked(_board, blockhash(submitBlocks[i])));\n                            if (uint8(winNumber[31])%16 != uint8(genTickets[winningTickets[i]][31])%16 ){\n                                    return false;\n                            }\n                            // require(winNumber[31] == genTickets[winningTickets[i]][31]);  // last 1 byte = 2 digits of hex\n                            // require(winNumber[31] == genTickets[winningTickets[i]][31] && \n                            //         uint(winNumber[30])%16 == uint(genTickets[winningTickets[i]][30])%16 );  // last 3 digits of hex\n                            // require(winNumber[31] == genTickets[winningTickets[i]][31] && \n                            //         winNumber[30] == genTickets[winningTickets[i]][30]);  // last 4 digits of hex\n\n                            // require(RNTInterface(RNTAddr).mint(msg.sender) == true);\n                }\n                return true;\n        }\n\n        function generateTickets(bytes32 score, uint numTickets) public view returns (bytes32[] memory){\n                // require(score != bytes32(0));\n                bytes32[] memory tickets = new bytes32[](numTickets);\n\t\tfor (uint i = 0; i < numTickets; i++) {\n\t\t        tickets[i] = keccak256(abi.encodePacked(score, ticketSeed, i+1));  // idx of ticket start from 1\n                }\n                return tickets;\n        }\n\n        function getNumOfTickets(bytes32 score) public pure returns(uint){\n                if (score > 0x00ffffffffffffffffffffffffffffffffffffffffffffffffffffffffffffff) {\n                        return 1;  // min: 1 ticket\n                } else if (score > 0x000fffffffffffffffffffffffffffffffffffffffffffffffffffffffffffff) {\n                        return 2;\n                } else if (score > 0x0000ffffffffffffffffffffffffffffffffffffffffffffffffffffffffffff) {\n                        return 3;\n                } else if (score > 0x00000fffffffffffffffffffffffffffffffffffffffffffffffffffffffffff) {\n                        return 4;\n                } else {\n                        return 5;  // max: 5 tickets\n                }\n        }\n\n\n\t// function randomNumber() public view returns (bytes32) {\n\t// \trequire(lastRevived != samGroup[3] && samGroup[3] != bytes32(0));\n\t// \trequire(block.number - lastActivity <= 5);\n\t// \treturn keccak256(abi.encodePacked(samGroup[0], samGroup[1], samGroup[2], samGroup[3], blockhash(block.number - 1)));\n\t// }\n\n\tfunction getPlayerInfo(address _addr) public view returns (uint, bytes32, bool) {\n\t\treturn (playerDB[_addr].initHeightJoined, playerDB[_addr].scoreHash, playerDB[_addr].claimed);\n\t}\n\n\tfunction fortify(bytes32 defense) public payable feePaid defenderOnly NewGameOnly returns (bool) {\n\t\trequire(defense > difficulty);\n\n\t\twinner = address(0);\n\n\t\tinitHeight = block.number;\n\n                playerDB[msg.sender] = playerInfo(initHeight, bytes32(0), false);\n\t\tplayercount += 1;\n\t\tsetup = true;\n\n\t        prevboard = board;\n\t        board = defense;\n\n\t\treturn true;\n\t}\n\n\t// Join game\n\tfunction challenge(bytes32 scoreHash) public payable feePaid notDefender gameStarted returns (bool) {\n\t\trequire(playerDB[msg.sender].initHeightJoined < initHeight, \"challange: 1\");\n\t\trequire(block.number > initHeight + 7 && block.number <= initHeight + 10, \"challange: 2\");\n\t\trequire(playercount + 1 <= maxPlayer, \"challange: 3\");\n\n\t\tplayerDB[msg.sender] = playerInfo(initHeight, scoreHash, false);\n\n\t\tplayercount += 1;\n\n\t\treturn true;\n\t}\n\n\tfunction testOutcome(bytes32 secret, uint blockNo) public gameStarted view returns (bytes32 _board, bool[32] memory _slots) {\n\t\trequire(block.number > initHeight + 7 && block.number <= initHeight + 10, 'testoutcome: 1');\n\t\trequire(block.number - blockNo < 7, 'testoutcome: 2');\n\t\trequire(blockNo <= block.number - 1 && blockNo >= initHeight + 7 && blockNo < initHeight + 10, 'testoutcome: 3');\n\n\t\t_board = keccak256(abi.encodePacked(msg.sender, secret, blockhash(blockNo)));\n\n\t\tfor (uint i = 0; i <= 31; i++) {\n\t\t\tif(_board[i] < board[i]) {\n\t\t\t\t_slots[i] = true;\n\t\t\t}\n\t\t}\n\n\t\treturn (_board, _slots);\n\t}\n\n\tfunction winningNumber(uint blockNo, bytes32 _board) public view returns (bytes32) {\n\t        require(blockNo <= block.number - 1);\n\t        return keccak256(abi.encodePacked(_board, blockhash(blockNo)));\n        }\n\n        function merkleTreeValidator(bytes32[] memory proof, bool[] memory isLeft, bytes32 targetLeaf, bytes32 _merkleRoot) public pure returns (bool) {\n                require(proof.length < 32);  // 2**32 ~ 4.3e9 leaves!\n                require(proof.length == isLeft.length);\n\n                bytes32 targetHash = targetLeaf;\n                for (uint256 i = 0; i < proof.length; i++) {\n                        bytes32 proofEle = proof[i]; \n                        if (isLeft[i]) {\n                                targetHash = keccak256(abi.encodePacked(proofEle, targetHash));\n                        } else if (!isLeft[i]) {\n                                targetHash = keccak256(abi.encodePacked(targetHash, proofEle));\n                        } else {\n                                return false;\n                        }\n                }\n                return targetHash == _merkleRoot;\n        }\n\n\tfunction submitMerkleRoot(uint _initHeight, bytes32 _merkleRoot, string memory _ipfsAddr) public ValidatorOnly returns (bool) {\n\t\trequire(block.number >= _initHeight + period_all && block.number <= _initHeight + period_all + 3);\n\t        battleHistory[_initHeight]= battleStat(_merkleRoot, _ipfsAddr);\n\t        ticketSeed = blockhash(_initHeight+8);\n\t        return true;\n        }\n\n        function getBlockInfo(uint _initHeight) public view returns(bytes32, string memory){\n\t        return (battleHistory[_initHeight].merkleRoot, battleHistory[_initHeight].ipfsAddr);\n        }\n\n        function getBlockhash(uint blockNo) external view returns (bytes32) {\n                return blockhash(blockNo);\n        }\n\n        function compareScore(bytes32 secret, string memory slotString, uint blockNo, bytes32 _board, bytes32 score) public view returns (bool){\n\t        // verification: the secret belongs to the player\n\t\tbytes32 myboard = keccak256(abi.encodePacked(msg.sender, secret, blockhash(blockNo))); // initialize for the loop below\n                bytes memory slots = bytes(slotString);\n                bytes32 out;\n                for (uint i = 0; i < 32; i++) {\n\t\t        if(slots[i] == 0x30) {  // see decimal ascii chart, '0' = 48 (decimal) = 0x30 (hex)\n\t\t                out |= bytes32(_board[i] & 0xff ) >> (i*8);\n                        } else if (slots[i] == 0x31) {\n\t\t                out |= bytes32(myboard[i] & 0xff ) >> (i*8);\n\t\t\t}\n                }\n\n\t\treturn out == score;\n\t}\n\n        function computeScore(bytes32 secret, string memory slotString, uint blockNo, bytes32 _board) public view returns (bytes32 out){\n\t\tbytes32 myboard = keccak256(abi.encodePacked(msg.sender, secret, blockhash(blockNo))); // initialize for the loop below\n                bytes memory slots = bytes(slotString);\n                bytes memory outscore = new bytes(32);\n                for (uint i = 0; i < 32; i++) {\n\t\t        if(slots[i] == 0x30) {  // see decimal ascii chart, '0' = 48 (decimal) = 0x30 (hex)\n\t\t                outscore[i] = _board[i];\n                        } else if (slots[i] == 0x31) {\n                                outscore[i] = myboard[i];\n\t\t\t}\n                }\n\n                // bytes to bytes32\n                for (uint i=0; i<32; i++){\n                        out |= bytes32( outscore[i] & 0xff ) >> (i * 8);\n                }\n\t\treturn out;\n\t}\n\n        function newValidator(address _newValidator) public defenderOnly returns (bool){\n                require(_newValidator != address(0));\n                validator = _newValidator;\n                return true;\n        }\n\n        function newDefender(address _newDefender) public defenderOnly returns (bool){\n                require(_newDefender != address(0));\n                require(setup == false);\n\t\tdefender = _newDefender;\n                return true;\n        }\n\n        // fallback\n        function () defenderOnly gameStalled external { \n            winner = defender; \n            setup = false;\n            // board = bytes32(0);\n            playercount = 0;\n            // require(withdraw());\n\t    require(msg.sender.send(address(this).balance) == true);  // for debug\n        }\n}\n",
  "sourcePath": "/home/kai/Work/project/BattleShip/contracts/BattleShip.sol",
  "compiler": {
    "name": "solc",
    "version": "0.5.2+commit.1df8f40c.Linux.g++"
  },
  "schemaVersion": "3.0.1",
  "updatedAt": "2019-01-24T22:38:14.065Z",
  "devdoc": {
    "methods": {}
  },
  "userdoc": {
    "methods": {}
  }
}