{
  "contractName": "BattleShip",
  "abi": [
    {
      "constant": true,
      "inputs": [],
      "name": "ipfsAddr",
      "outputs": [
        {
          "name": "",
          "type": "string"
        }
      ],
      "payable": false,
      "stateMutability": "view",
      "type": "function"
    },
    {
      "constant": true,
      "inputs": [],
      "name": "merkleRoot",
      "outputs": [
        {
          "name": "",
          "type": "bytes32"
        }
      ],
      "payable": false,
      "stateMutability": "view",
      "type": "function"
    },
    {
      "constant": true,
      "inputs": [],
      "name": "validator",
      "outputs": [
        {
          "name": "",
          "type": "address"
        }
      ],
      "payable": false,
      "stateMutability": "view",
      "type": "function"
    },
    {
      "constant": true,
      "inputs": [],
      "name": "maxPlayer",
      "outputs": [
        {
          "name": "",
          "type": "uint256"
        }
      ],
      "payable": false,
      "stateMutability": "view",
      "type": "function"
    },
    {
      "constant": true,
      "inputs": [],
      "name": "playercount",
      "outputs": [
        {
          "name": "",
          "type": "uint256"
        }
      ],
      "payable": false,
      "stateMutability": "view",
      "type": "function"
    },
    {
      "constant": true,
      "inputs": [],
      "name": "board",
      "outputs": [
        {
          "name": "",
          "type": "bytes32"
        }
      ],
      "payable": false,
      "stateMutability": "view",
      "type": "function"
    },
    {
      "constant": true,
      "inputs": [],
      "name": "defender",
      "outputs": [
        {
          "name": "",
          "type": "address"
        }
      ],
      "payable": false,
      "stateMutability": "view",
      "type": "function"
    },
    {
      "constant": true,
      "inputs": [],
      "name": "period_all",
      "outputs": [
        {
          "name": "",
          "type": "uint256"
        }
      ],
      "payable": false,
      "stateMutability": "view",
      "type": "function"
    },
    {
      "constant": true,
      "inputs": [],
      "name": "initHeight",
      "outputs": [
        {
          "name": "",
          "type": "uint256"
        }
      ],
      "payable": false,
      "stateMutability": "view",
      "type": "function"
    },
    {
      "constant": true,
      "inputs": [],
      "name": "MerkleTreeAddr",
      "outputs": [
        {
          "name": "",
          "type": "address"
        }
      ],
      "payable": false,
      "stateMutability": "view",
      "type": "function"
    },
    {
      "constant": true,
      "inputs": [],
      "name": "setup",
      "outputs": [
        {
          "name": "",
          "type": "bool"
        }
      ],
      "payable": false,
      "stateMutability": "view",
      "type": "function"
    },
    {
      "constant": true,
      "inputs": [],
      "name": "prevboard",
      "outputs": [
        {
          "name": "",
          "type": "bytes32"
        }
      ],
      "payable": false,
      "stateMutability": "view",
      "type": "function"
    },
    {
      "constant": true,
      "inputs": [],
      "name": "fee",
      "outputs": [
        {
          "name": "",
          "type": "uint256"
        }
      ],
      "payable": false,
      "stateMutability": "view",
      "type": "function"
    },
    {
      "constant": true,
      "inputs": [],
      "name": "winner",
      "outputs": [
        {
          "name": "",
          "type": "address"
        }
      ],
      "payable": false,
      "stateMutability": "view",
      "type": "function"
    },
    {
      "inputs": [
        {
          "name": "_init",
          "type": "bytes32"
        }
      ],
      "payable": true,
      "stateMutability": "payable",
      "type": "constructor"
    },
    {
      "payable": false,
      "stateMutability": "nonpayable",
      "type": "fallback"
    },
    {
      "constant": false,
      "inputs": [],
      "name": "withdraw",
      "outputs": [
        {
          "name": "",
          "type": "bool"
        }
      ],
      "payable": false,
      "stateMutability": "nonpayable",
      "type": "function"
    },
    {
      "constant": false,
      "inputs": [
        {
          "name": "secret",
          "type": "bytes32"
        },
        {
          "name": "slots",
          "type": "string"
        },
        {
          "name": "blockNo",
          "type": "uint256"
        },
        {
          "name": "submitBlocks",
          "type": "uint256[]"
        },
        {
          "name": "winningTickets",
          "type": "uint256[]"
        },
        {
          "name": "proof",
          "type": "bytes32[]"
        },
        {
          "name": "isLeft",
          "type": "bool[]"
        }
      ],
      "name": "claimLotteReward",
      "outputs": [
        {
          "name": "",
          "type": "bool"
        }
      ],
      "payable": false,
      "stateMutability": "nonpayable",
      "type": "function"
    },
    {
      "constant": true,
      "inputs": [
        {
          "name": "score",
          "type": "bytes32"
        }
      ],
      "name": "generateTickets",
      "outputs": [
        {
          "name": "",
          "type": "bytes32[10]"
        }
      ],
      "payable": false,
      "stateMutability": "view",
      "type": "function"
    },
    {
      "constant": true,
      "inputs": [
        {
          "name": "score",
          "type": "bytes32"
        }
      ],
      "name": "getNumOfTickets",
      "outputs": [
        {
          "name": "",
          "type": "uint256"
        }
      ],
      "payable": false,
      "stateMutability": "pure",
      "type": "function"
    },
    {
      "constant": true,
      "inputs": [
        {
          "name": "_addr",
          "type": "address"
        }
      ],
      "name": "getPlayerInfo",
      "outputs": [
        {
          "name": "",
          "type": "uint256"
        },
        {
          "name": "",
          "type": "bytes32"
        }
      ],
      "payable": false,
      "stateMutability": "view",
      "type": "function"
    },
    {
      "constant": false,
      "inputs": [
        {
          "name": "defense",
          "type": "bytes32"
        }
      ],
      "name": "fortify",
      "outputs": [
        {
          "name": "",
          "type": "bool"
        }
      ],
      "payable": true,
      "stateMutability": "payable",
      "type": "function"
    },
    {
      "constant": false,
      "inputs": [
        {
          "name": "scoreHash",
          "type": "bytes32"
        }
      ],
      "name": "challenge",
      "outputs": [
        {
          "name": "",
          "type": "bool"
        }
      ],
      "payable": true,
      "stateMutability": "payable",
      "type": "function"
    },
    {
      "constant": true,
      "inputs": [
        {
          "name": "secret",
          "type": "bytes32"
        },
        {
          "name": "blockNo",
          "type": "uint256"
        }
      ],
      "name": "testOutcome",
      "outputs": [
        {
          "name": "_board",
          "type": "bytes32"
        },
        {
          "name": "_slots",
          "type": "bool[32]"
        }
      ],
      "payable": false,
      "stateMutability": "view",
      "type": "function"
    },
    {
      "constant": true,
      "inputs": [
        {
          "name": "blockNo",
          "type": "uint256"
        }
      ],
      "name": "winningNumber",
      "outputs": [
        {
          "name": "",
          "type": "bytes32"
        }
      ],
      "payable": false,
      "stateMutability": "view",
      "type": "function"
    },
    {
      "constant": true,
      "inputs": [
        {
          "name": "proof",
          "type": "bytes32[]"
        },
        {
          "name": "isLeft",
          "type": "bool[]"
        },
        {
          "name": "targetLeaf",
          "type": "bytes32"
        },
        {
          "name": "_merkleRoot",
          "type": "bytes32"
        }
      ],
      "name": "merkleTreeValidator",
      "outputs": [
        {
          "name": "",
          "type": "bool"
        }
      ],
      "payable": false,
      "stateMutability": "pure",
      "type": "function"
    },
    {
      "constant": false,
      "inputs": [
        {
          "name": "_initHeight",
          "type": "uint256"
        },
        {
          "name": "_merkleRoot",
          "type": "bytes32"
        },
        {
          "name": "_ipfsAddr",
          "type": "string"
        }
      ],
      "name": "submitMerkleRoot",
      "outputs": [
        {
          "name": "",
          "type": "bool"
        }
      ],
      "payable": false,
      "stateMutability": "nonpayable",
      "type": "function"
    },
    {
      "constant": true,
      "inputs": [
        {
          "name": "blockNo",
          "type": "uint256"
        }
      ],
      "name": "getBlockhash",
      "outputs": [
        {
          "name": "",
          "type": "bytes32"
        }
      ],
      "payable": false,
      "stateMutability": "view",
      "type": "function"
    }
  ],
  "bytecode": "0x6080604052662386f26fc100006004556000600560006101000a81548160ff0219169083151502179055506000600655604051602080620030948339810180604052810190808051906020019092919050505060045434101515156200006457600080fd5b336000806101000a81548173ffffffffffffffffffffffffffffffffffffffff021916908373ffffffffffffffffffffffffffffffffffffffff16021790555033600260006101000a81548173ffffffffffffffffffffffffffffffffffffffff021916908373ffffffffffffffffffffffffffffffffffffffff16021790555060011515620001038262000119640100000000026401000000009004565b15151415156200011257600080fd5b50620003d5565b600062000125620002ff565b60045434101515156200013757600080fd5b6000809054906101000a900473ffffffffffffffffffffffffffffffffffffffff1673ffffffffffffffffffffffffffffffffffffffff163373ffffffffffffffffffffffffffffffffffffffff161415156200019357600080fd5b60001515600560009054906101000a900460ff161515141515620001b657600080fd5b6000600160006101000a81548173ffffffffffffffffffffffffffffffffffffffff021916908373ffffffffffffffffffffffffffffffffffffffff1602179055506020604051908101604052806000815250600a90805190602001906200022092919062000326565b504360038190555060035481600001818152505080600b60003373ffffffffffffffffffffffffffffffffffffffff1673ffffffffffffffffffffffffffffffffffffffff168152602001908152602001600020600082015181600001556020820151816001019060001916905560408201518160020160006101000a81548160ff02191690831515021790555090505060016006600082825401925050819055506001600560006101000a81548160ff0219169083151502179055506008546009816000191690555082600881600019169055506001915050919050565b60606040519081016040528060008152602001600080191681526020016000151581525090565b828054600181600116156101000203166002900490600052602060002090601f016020900481019282601f106200036957805160ff19168380011785556200039a565b828001600101855582156200039a579182015b82811115620003995782518255916020019190600101906200037c565b5b509050620003a99190620003ad565b5090565b620003d291905b80821115620003ce576000816000905550600101620003b4565b5090565b90565b612caf80620003e56000396000f300608060405260043610610154576000357c0100000000000000000000000000000000000000000000000000000000900463ffffffff16806305df721e146102bf5780631cb9409f1461034f5780632eb4a7ab146103d45780633a5381b5146104075780633ccfd60b1461045e5780633f4ec20a1461048d5780635853361214610632578063593284011461066e5780635c0effb2146106d45780636426b1e4146107195780636b180b59146107445780637cd3229a1461076f5780637f4c91c5146107a2578063a4dd1d7d146107f9578063a78eacdb14610824578063a7ca2e201461084f578063b04cd588146108a6578063b8b81e401461093f578063b8f69e3714610988578063b99b11dc14610a65578063ba0bba4014610ad2578063cff483b914610b01578063cffd46dc14610b34578063ddca3f4314610b70578063dfbf53ae14610b9b578063e9413d3814610bf2575b34801561016057600080fd5b506000809054906101000a900473ffffffffffffffffffffffffffffffffffffffff1673ffffffffffffffffffffffffffffffffffffffff163373ffffffffffffffffffffffffffffffffffffffff161415156101bc57600080fd5b60011515600560009054906101000a900460ff1615151480156101e35750601e6003540143115b801561023d5750600073ffffffffffffffffffffffffffffffffffffffff16600160009054906101000a900473ffffffffffffffffffffffffffffffffffffffff1673ffffffffffffffffffffffffffffffffffffffff16145b151561024857600080fd5b6000809054906101000a900473ffffffffffffffffffffffffffffffffffffffff16600160006101000a81548173ffffffffffffffffffffffffffffffffffffffff021916908373ffffffffffffffffffffffffffffffffffffffff1602179055506102b2610c3b565b15156102bd57600080fd5b005b3480156102cb57600080fd5b506102d4610e6b565b6040518080602001828103825283818151815260200191508051906020019080838360005b838110156103145780820151818401526020810190506102f9565b50505050905090810190601f1680156103415780820380516001836020036101000a031916815260200191505b509250505060405180910390f35b34801561035b57600080fd5b50610388600480360381019080803560001916906020019092919080359060200190929190505050610f09565b604051808360001916600019168152602001826020800280838360005b838110156103c05780820151818401526020810190506103a5565b505050509050019250505060405180910390f35b3480156103e057600080fd5b506103e9611171565b60405180826000191660001916815260200191505060405180910390f35b34801561041357600080fd5b5061041c611177565b604051808273ffffffffffffffffffffffffffffffffffffffff1673ffffffffffffffffffffffffffffffffffffffff16815260200191505060405180910390f35b34801561046a57600080fd5b50610473610c3b565b604051808215151515815260200191505060405180910390f35b34801561049957600080fd5b506106186004803603810190808035600019169060200190929190803590602001908201803590602001908080601f0160208091040260200160405190810160405280939291908181526020018383808284378201915050505050509192919290803590602001909291908035906020019082018035906020019080806020026020016040519081016040528093929190818152602001838360200280828437820191505050505050919291929080359060200190820180359060200190808060200260200160405190810160405280939291908181526020018383602002808284378201915050505050509192919290803590602001908201803590602001908080602002602001604051908101604052809392919081815260200183836020028082843782019150505050505091929192908035906020019082018035906020019080806020026020016040519081016040528093929190818152602001838360200280828437820191505050505050919291929050505061119d565b604051808215151515815260200191505060405180910390f35b6106546004803603810190808035600019169060200190929190505050611f06565b604051808215151515815260200191505060405180910390f35b34801561067a57600080fd5b506106af600480360381019080803573ffffffffffffffffffffffffffffffffffffffff1690602001909291905050506120e5565b6040518083815260200182600019166000191681526020019250505060405180910390f35b3480156106e057600080fd5b506107036004803603810190808035600019169060200190929190505050612177565b6040518082815260200191505060405180910390f35b34801561072557600080fd5b5061072e61225d565b6040518082815260200191505060405180910390f35b34801561075057600080fd5b50610759612263565b6040518082815260200191505060405180910390f35b34801561077b57600080fd5b50610784612269565b60405180826000191660001916815260200191505060405180910390f35b3480156107ae57600080fd5b506107b761226f565b604051808273ffffffffffffffffffffffffffffffffffffffff1673ffffffffffffffffffffffffffffffffffffffff16815260200191505060405180910390f35b34801561080557600080fd5b5061080e612294565b6040518082815260200191505060405180910390f35b34801561083057600080fd5b50610839612299565b6040518082815260200191505060405180910390f35b34801561085b57600080fd5b5061086461229f565b604051808273ffffffffffffffffffffffffffffffffffffffff1673ffffffffffffffffffffffffffffffffffffffff16815260200191505060405180910390f35b3480156108b257600080fd5b50610925600480360381019080803590602001909291908035600019169060200190929190803590602001908201803590602001908080601f01602080910402602001604051908101604052809392919081815260200183838082843782019150505050505091929192905050506122b7565b604051808215151515815260200191505060405180910390f35b34801561094b57600080fd5b5061096a600480360381019080803590602001909291905050506123bf565b60405180826000191660001916815260200191505060405180910390f35b34801561099457600080fd5b50610a4b600480360381019080803590602001908201803590602001908080602002602001604051908101604052809392919081815260200183836020028082843782019150505050505091929192908035906020019082018035906020019080806020026020016040519081016040528093929190818152602001838360200280828437820191505050505050919291929080356000191690602001909291908035600019169060200190929190505050612477565b604051808215151515815260200191505060405180910390f35b348015610a7157600080fd5b50610a94600480360381019080803560001916906020019092919050505061260b565b6040518082600a60200280838360005b83811015610abf578082015181840152602081019050610aa4565b5050505090500191505060405180910390f35b348015610ade57600080fd5b50610ae7612751565b604051808215151515815260200191505060405180910390f35b348015610b0d57600080fd5b50610b16612764565b60405180826000191660001916815260200191505060405180910390f35b610b56600480360381019080803560001916906020019092919050505061276a565b604051808215151515815260200191505060405180910390f35b348015610b7c57600080fd5b50610b856129d7565b6040518082815260200191505060405180910390f35b348015610ba757600080fd5b50610bb06129dd565b604051808273ffffffffffffffffffffffffffffffffffffffff1673ffffffffffffffffffffffffffffffffffffffff16815260200191505060405180910390f35b348015610bfe57600080fd5b50610c1d60048036038101908080359060200190929190505050612a03565b60405180826000191660001916815260200191505060405180910390f35b600080600073ffffffffffffffffffffffffffffffffffffffff16600160009054906101000a900473ffffffffffffffffffffffffffffffffffffffff1673ffffffffffffffffffffffffffffffffffffffff1614158015610cea5750600160009054906101000a900473ffffffffffffffffffffffffffffffffffffffff1673ffffffffffffffffffffffffffffffffffffffff163373ffffffffffffffffffffffffffffffffffffffff16145b1515610cf557600080fd5b601e600b60003373ffffffffffffffffffffffffffffffffffffffff1673ffffffffffffffffffffffffffffffffffffffff168152602001908152602001600020600001540143111515610d4857600080fd5b6000600560006101000a81548160ff0219169083151502179055506000600160006101000a81548173ffffffffffffffffffffffffffffffffffffffff021916908373ffffffffffffffffffffffffffffffffffffffff16021790555060006001026008816000191690555060006006819055506020604051908101604052806000815250600a9080519060200190610de2929190612b6f565b50600a610e1060063073ffffffffffffffffffffffffffffffffffffffff1631612a0e90919063ffffffff16565b811515610e1957fe5b049050600115153373ffffffffffffffffffffffffffffffffffffffff166108fc839081150290604051600060405180830381858888f193505050501515141515610e6357600080fd5b600191505090565b600a8054600181600116156101000203166002900480601f016020809104026020016040519081016040528092919081815260200182805460018160011615610100020316600290048015610f015780601f10610ed657610100808354040283529160200191610f01565b820191906000526020600020905b815481529060010190602001808311610ee457829003601f168201915b505050505081565b6000610f13612bef565b600060011515600560009054906101000a900460ff161515141515610f3757600080fd5b60076003540143108015610f4d57506003544310155b1515610f5857600080fd5b6007844303101515610f6957600080fd5b600143038411158015610f80575060076003540184105b8015610f8e57506003548410155b1515610f9957600080fd5b33858540604051602001808473ffffffffffffffffffffffffffffffffffffffff1673ffffffffffffffffffffffffffffffffffffffff166c010000000000000000000000000281526014018360001916600019168152602001826000191660001916815260200193505050506040516020818303038152906040526040518082805190602001908083835b60208310151561104a5780518252602082019150602081019050602083039250611025565b6001836020036101000a03801982511681845116808217855250505050505090500191505060405180910390209250600090505b601f81111515611163576008548160208110151561109857fe5b1a7f0100000000000000000000000000000000000000000000000000000000000000027effffffffffffffffffffffffffffffffffffffffffffffffffffffffffffff191683826020811015156110eb57fe5b1a7f0100000000000000000000000000000000000000000000000000000000000000027effffffffffffffffffffffffffffffffffffffffffffffffffffffffffffff19161015611156576001828260208110151561114657fe5b6020020190151590811515815250505b808060010191505061107e565b828292509250509250929050565b60075481565b600260009054906101000a900473ffffffffffffffffffffffffffffffffffffffff1681565b6000806000806111ab612bef565b6111b3612c13565b60606000801515600b60003373ffffffffffffffffffffffffffffffffffffffff1673ffffffffffffffffffffffffffffffffffffffff16815260200190815260200160002060020160009054906101000a900460ff161515141515611281576040517f08c379a000000000000000000000000000000000000000000000000000000000815260040180806020018281038252600f8152602001807f616c726561647920636c61696d6564000000000000000000000000000000000081525060200191505060405180910390fd5b600a8b51111515156112fb576040517f08c379a000000000000000000000000000000000000000000000000000000000815260040180806020018281038252601d8152602001807f796f752063616e6e6f7420636c61696d206d6f7265207469636b65747300000081525060200191505060405180910390fd5b88518a51141515611374576040517f08c379a000000000000000000000000000000000000000000000000000000000815260040180806020018281038252601c8152602001807f6c656e206f662070726f6f662f69734c656674206d69736d617463680000000081525060200191505060405180910390fd5b8b518b51141515611413576040517f08c379a00000000000000000000000000000000000000000000000000000000081526004018080602001828103825260288152602001807f7375626d6974426c6f636b7320616e642077696e6e696e675469636b6574732081526020017f6d69736d6174636800000000000000000000000000000000000000000000000081525060400191505060405180910390fd5b60006001026007546000191614151515611495576040517f08c379a00000000000000000000000000000000000000000000000000000000081526004018080602001828103825260128152602001807f6e6f206d65726b6c6520726f6f7420796574000000000000000000000000000081525060200191505060405180910390fd5b601e600b60003373ffffffffffffffffffffffffffffffffffffffff1673ffffffffffffffffffffffffffffffffffffffff168152602001908152602001600020600001540143111515611551576040517f08c379a00000000000000000000000000000000000000000000000000000000081526004018080602001828103825260098152602001807f746f6f206561726c79000000000000000000000000000000000000000000000081525060200191505060405180910390fd5b6007601e600b60003373ffffffffffffffffffffffffffffffffffffffff1673ffffffffffffffffffffffffffffffffffffffff16815260200190815260200160002060000154010143101515611610576040517f08c379a00000000000000000000000000000000000000000000000000000000081526004018080602001828103825260088152602001807f746f6f206c61746500000000000000000000000000000000000000000000000081525060200191505060405180910390fd5b600354600b60003373ffffffffffffffffffffffffffffffffffffffff1673ffffffffffffffffffffffffffffffffffffffff1681526020019081526020016000206000015414806116a85750601e600b60003373ffffffffffffffffffffffffffffffffffffffff1673ffffffffffffffffffffffffffffffffffffffff1681526020019081526020016000206000015460035403115b15156116b357600080fd5b6001600b60003373ffffffffffffffffffffffffffffffffffffffff1673ffffffffffffffffffffffffffffffffffffffff16815260200190815260200160002060020160006101000a81548160ff021916908315150217905550338f8e40604051602001808473ffffffffffffffffffffffffffffffffffffffff1673ffffffffffffffffffffffffffffffffffffffff166c010000000000000000000000000281526014018360001916600019168152602001826000191660001916815260200193505050506040516020818303038152906040526040518082805190602001908083835b6020831015156117bf578051825260208201915060208101905060208303925061179a565b6001836020036101000a038019825116818451168082178552505050505050905001915050604051809103902094506117f78e612a4c565b9350600096505b601f8711151561199a5760001515848860208110151561181a57fe5b6020020151151514156118dd576008548760208110151561183757fe5b1a7f0100000000000000000000000000000000000000000000000000000000000000027effffffffffffffffffffffffffffffffffffffffffffffffffffffffffffff1916868860208110151561188a57fe5b1a7f0100000000000000000000000000000000000000000000000000000000000000027effffffffffffffffffffffffffffffffffffffffffffffffffffffffffffff19161415156118d857fe5b61198d565b84876020811015156118eb57fe5b1a7f0100000000000000000000000000000000000000000000000000000000000000027effffffffffffffffffffffffffffffffffffffffffffffffffffffffffffff1916868860208110151561193e57fe5b1a7f0100000000000000000000000000000000000000000000000000000000000000027effffffffffffffffffffffffffffffffffffffffffffffffffffffffffffff191614151561198c57fe5b5b86806001019750506117fe565b600b60003373ffffffffffffffffffffffffffffffffffffffff1673ffffffffffffffffffffffffffffffffffffffff1681526020019081526020016000206001015460001916866040516020018082600019166000191681526020019150506040516020818303038152906040526040518082805190602001908083835b602083101515611a3e5780518252602082019150602081019050602083039250611a19565b6001836020036101000a038019825116818451168082178552505050505050905001915050604051809103902060001916141515611b0a576040517f08c379a000000000000000000000000000000000000000000000000000000000815260040180806020018281038252602c8152602001807f77726f6e672073636f72652062617365206f6e2074686520676976656e20736581526020017f637265742f626c6f636b4e6f000000000000000000000000000000000000000081525060400191505060405180910390fd5b611b138661260b565b9250336c01000000000000000000000000026bffffffffffffffffffffffff1916826000815181101515611b4357fe5b906020019060200201906000191690816000191681525050600096505b8a51871015611c12578b87815181101515611b7757fe5b9060200190602002015160010282600160028a0201815181101515611b9857fe5b906020019060200201906000191690816000191681525050828b88815181101515611bbf57fe5b90602001906020020151600a81101515611bd557fe5b6020020151826002808a0201815181101515611bed57fe5b9060200190602002019060001916908160001916815250508680600101975050611b60565b611cce8a8a8460405160200180828051906020019060200280838360005b83811015611c4b578082015181840152602081019050611c30565b505050509050019150506040516020818303038152906040526040518082805190602001908083835b602083101515611c995780518252602082019150602081019050602083039250611c74565b6001836020036101000a0380198251168184511680821785525050505050509050019150506040518091039020600754612477565b1515611cd957600080fd5b600096505b8b51871015611ef0576009548c88815181101515611cf857fe5b90602001906020020151406040516020018083600019166000191681526020018260001916600019168152602001925050506040516020818303038152906040526040518082805190602001908083835b602083101515611d6e5780518252602082019150602081019050602083039250611d49565b6001836020036101000a03801982511681845116808217855250505050505090500191505060405180910390209050828b88815181101515611dac57fe5b90602001906020020151600a81101515611dc257fe5b6020020151601f602081101515611dd557fe5b1a7f0100000000000000000000000000000000000000000000000000000000000000027effffffffffffffffffffffffffffffffffffffffffffffffffffffffffffff191681601f602081101515611e2957fe5b1a7f0100000000000000000000000000000000000000000000000000000000000000027effffffffffffffffffffffffffffffffffffffffffffffffffffffffffffff1916141515611ee3576040517f08c379a00000000000000000000000000000000000000000000000000000000081526004018080602001828103825260148152602001807f666f756e6420612077726f6e67207469636b657400000000000000000000000081525060200191505060405180910390fd5b8680600101975050611cde565b6001975050505050505050979650505050505050565b6000611f10612c37565b6004543410151515611f2157600080fd5b6000809054906101000a900473ffffffffffffffffffffffffffffffffffffffff1673ffffffffffffffffffffffffffffffffffffffff163373ffffffffffffffffffffffffffffffffffffffff16141515611f7c57600080fd5b60001515600560009054906101000a900460ff161515141515611f9e57600080fd5b6000600160006101000a81548173ffffffffffffffffffffffffffffffffffffffff021916908373ffffffffffffffffffffffffffffffffffffffff1602179055506020604051908101604052806000815250600a9080519060200190612006929190612b6f565b504360038190555060035481600001818152505080600b60003373ffffffffffffffffffffffffffffffffffffffff1673ffffffffffffffffffffffffffffffffffffffff168152602001908152602001600020600082015181600001556020820151816001019060001916905560408201518160020160006101000a81548160ff02191690831515021790555090505060016006600082825401925050819055506001600560006101000a81548160ff0219169083151502179055506008546009816000191690555082600881600019169055506001915050919050565b600080600b60008473ffffffffffffffffffffffffffffffffffffffff1673ffffffffffffffffffffffffffffffffffffffff16815260200190815260200160002060000154600b60008573ffffffffffffffffffffffffffffffffffffffff1673ffffffffffffffffffffffffffffffffffffffff1681526020019081526020016000206001015491509150915091565b60007effffffffffffffffffffffffffffffffffffffffffffffffffffffffffffff600102826000191611156121b05760019050612258565b7e0fffffffffffffffffffffffffffffffffffffffffffffffffffffffffffff600102826000191611156121e75760029050612258565b7dffffffffffffffffffffffffffffffffffffffffffffffffffffffffffff6001028260001916111561221d5760039050612258565b7d0fffffffffffffffffffffffffffffffffffffffffffffffffffffffffff600102826000191611156122535760049050612258565b600590505b919050565b6103e881565b60065481565b60085481565b6000809054906101000a900473ffffffffffffffffffffffffffffffffffffffff1681565b601e81565b60035481565b73127bfc8affdcaeee6043e7ec79239542e5a470b781565b60008073ffffffffffffffffffffffffffffffffffffffff16600260009054906101000a900473ffffffffffffffffffffffffffffffffffffffff1673ffffffffffffffffffffffffffffffffffffffff16141580156123645750600260009054906101000a900473ffffffffffffffffffffffffffffffffffffffff1673ffffffffffffffffffffffffffffffffffffffff163373ffffffffffffffffffffffffffffffffffffffff16145b151561236f57600080fd5b601e8401431015801561238757506003601e85010143105b151561239257600080fd5b826007816000191690555081600a90805190602001906123b3929190612b6f565b50600190509392505050565b60006001430382111515156123d357600080fd5b60085482406040516020018083600019166000191681526020018260001916600019168152602001925050506040516020818303038152906040526040518082805190602001908083835b602083101515612443578051825260208201915060208101905060208303925061241e565b6001836020036101000a03801982511681845116808217855250505050505090500191505060405180910390209050919050565b60006010855110151561248957600080fd5b8351855114151561249957600080fd5b73127bfc8affdcaeee6043e7ec79239542e5a470b773ffffffffffffffffffffffffffffffffffffffff166398ecbb6f868686866040518563ffffffff167c010000000000000000000000000000000000000000000000000000000002815260040180806020018060200185600019166000191681526020018460001916600019168152602001838103835287818151815260200191508051906020019060200280838360005b8381101561255b578082015181840152602081019050612540565b50505050905001838103825286818151815260200191508051906020019060200280838360005b8381101561259d578082015181840152602081019050612582565b505050509050019650505050505050602060405180830381600087803b1580156125c657600080fd5b505af11580156125da573d6000803e3d6000fd5b505050506040513d60208110156125f057600080fd5b81019080805190602001909291905050509050949350505050565b612613612c13565b61261b612c13565b600080600a600b60003373ffffffffffffffffffffffffffffffffffffffff1673ffffffffffffffffffffffffffffffffffffffff16815260200190815260200160002060000154019150600090505b61267485612177565b8110156127465784826001830160405160200180846000191660001916815260200183815260200182815260200193505050506040516020818303038152906040526040518082805190602001908083835b6020831015156126eb57805182526020820191506020810190506020830392506126c6565b6001836020036101000a03801982511681845116808217855250505050505090500191505060405180910390208382600a8110151561272657fe5b60200201906000191690816000191681525050808060010191505061266b565b829350505050919050565b600560009054906101000a900460ff1681565b60095481565b6000612774612c37565b600454341015151561278557600080fd5b6000809054906101000a900473ffffffffffffffffffffffffffffffffffffffff1673ffffffffffffffffffffffffffffffffffffffff163373ffffffffffffffffffffffffffffffffffffffff16141515156127e157600080fd5b60011515600560009054906101000a900460ff16151514151561280357600080fd5b600354600b60003373ffffffffffffffffffffffffffffffffffffffff1673ffffffffffffffffffffffffffffffffffffffff1681526020019081526020016000206000015410151561285557600080fd5b600760035401431015801561286e5750600a6003540143105b151561287957600080fd5b6103e86001600654011115151561288f57600080fd5b60001515600b60003373ffffffffffffffffffffffffffffffffffffffff1673ffffffffffffffffffffffffffffffffffffffff16815260200190815260200160002060020160009054906101000a90505050600354600b60003373ffffffffffffffffffffffffffffffffffffffff1673ffffffffffffffffffffffffffffffffffffffff16815260200190815260200160002060000181905550828160200190600019169081600019168152505080600b60003373ffffffffffffffffffffffffffffffffffffffff1673ffffffffffffffffffffffffffffffffffffffff168152602001908152602001600020600082015181600001556020820151816001019060001916905560408201518160020160006101000a81548160ff02191690831515021790555090505060016006600082825401925050819055506001915050919050565b60045481565b600160009054906101000a900473ffffffffffffffffffffffffffffffffffffffff1681565b600081409050919050565b6000806000841415612a235760009150612a45565b8284029050828482811515612a3457fe5b04141515612a4157600080fd5b8091505b5092915050565b612a54612bef565b6060612a5e612bef565b6000849250600090505b8251811015612b64577f31000000000000000000000000000000000000000000000000000000000000008382815181101515612aa057fe5b9060200101517f010000000000000000000000000000000000000000000000000000000000000090047f0100000000000000000000000000000000000000000000000000000000000000027effffffffffffffffffffffffffffffffffffffffffffffffffffffffffffff19161415612b375760018282602081101515612b2357fe5b602002019015159081151581525050612b57565b60008282602081101515612b4757fe5b6020020190151590811515815250505b8080600101915050612a68565b819350505050919050565b828054600181600116156101000203166002900490600052602060002090601f016020900481019282601f10612bb057805160ff1916838001178555612bde565b82800160010185558215612bde579182015b82811115612bdd578251825591602001919060010190612bc2565b5b509050612beb9190612c5e565b5090565b61040060405190810160405280602090602082028038833980820191505090505090565b61014060405190810160405280600a90602082028038833980820191505090505090565b60606040519081016040528060008152602001600080191681526020016000151581525090565b612c8091905b80821115612c7c576000816000905550600101612c64565b5090565b905600a165627a7a72305820b85c990f21d68007a923fac5479ebf297691c661cbc90b02e9e226efda8e034d0029",
  "source": "pragma solidity ^0.4.24;\n\n// import \"./ERC20.sol\";\nimport \"./SafeMath.sol\";\n// import \"./RNTInterface.sol\";\nimport \"./MerkleTreeValidatorInterface.sol\";\n\n// About the game\n// # Roles\n//  * defender : setup the game (only the fee)\n//  * player : join the game, max 1000 players, pay 0.01 eth and may win some RNT\n//  * validator: provide merkle proof at `end` block\n//\n// # time line of a game:\n//    start ------------ n ------- m -------------------------------- end --------\n//          calc           reg to    lottery, each round: 0-n winners     mr submit to chain;\n//                         sc        (only on sc)                         withdraw eth/claim reward\n//          (period1)      (period2) (period3)                            could start next round\n//\n//  * sc: state channel; mr: merkle root\n//  * period_all = period1 + period2 + period3\n//  * during period2 (btw. `n` and `m`) players get tickets on sc\n//  * player obtain ticket in the form `ticket[i] = hash(score + bn[m-1] + i)` where 0<=i<5, depend on score\n// todo: add an upper limit for the contract to give to players? Such as (the order of) 1000*0.01 eth = 10 eth = 1e5 RNT\n\ncontract BattleShip {\n\tusing SafeMath for uint256;\n\t// Variables\n\taddress public defender;\n\taddress public winner;\n\taddress public validator;\n\t// address public RNTAddr;\n\tuint constant public maxPlayer = 1000;\n\tuint constant public period_all = 30;  // 7 + 3 + 20\n\tuint public initHeight;\n\t// uint public lastActivity;\n\t// bytes32 public difficulty = 0x000000000000000000000000000000ffffffffffffffffffffffffffffffffff;\n\tuint public fee = 10000000000000000;\n\tbool public setup = false;\n\tuint public playercount = 0;\n        address constant public MerkleTreeAddr = 0x127bfc8AFfdCaeee6043e7eC79239542e5A470B7;\n\n\tstruct playerInfo {\n\t\t// address wallet; // msg.sender\n\t\t// uint since;     // block height when joined\n\t\tuint initHeightJoined;\n\t\tbytes32 scoreHash;\n\t\tbool claimed;\n\t}\n\n        bytes32 public merkleRoot;\n        bytes32 public board;\n        bytes32 public prevboard;\n        // address ethWinnerAddr;  // only one winner take eth\n        // uint ethWinnerReward;\n        string public ipfsAddr;\n\n\tmapping (address => playerInfo) playerDB;\n\t// mapping (uint => mapping (address => battleStat)) battleHistory;\n\t// mapping (uint => battleStat) battleHistory;\n\n\t// Modifiers\n\tmodifier defenderOnly() {\n\t\trequire(msg.sender == defender);\n\t\t_;\n\t}\n\n\tmodifier WinnerOnly() {\n\t\trequire(winner != address(0) && msg.sender == winner);\n\t\t_;\n\t}\n\n\tmodifier ValidatorOnly() {\n\t        require(validator != address(0) && msg.sender == validator);\n\t        _;\n        }\n\n\tmodifier NewGameOnly() {\n\t\trequire(setup == false);\n\t\t_;\n\t}\n\n\tmodifier feePaid() {\n\t\trequire(msg.value >= fee);\n\t\t_;\n\t}\n\n\tmodifier gameStarted() {\n\t\trequire(setup == true);\n\t\t_;\n\t}\n\n\tmodifier gameStalled() {\n\t\trequire(setup == true && block.number > initHeight + period_all && winner == address(0));\n\t\t_;\n\t}\n\n\tmodifier notDefender() {\n\t\trequire(msg.sender != defender);\n\t\t_;\n\t}\n\n\t// Contract constructor\n\tconstructor(bytes32 _init) public payable {\n\t\trequire(msg.value >= fee);\n\t\tdefender = msg.sender;\n\t\tvalidator = msg.sender;\n\t\t// RNTAddr  = _RNTAddr;\n\n\t\trequire(fortify(_init) == true);\n\t}\n\n\t// WinnerOnly\n\tfunction withdraw() public WinnerOnly returns (bool) {\n\t        // only one player win eth; make sure winner can claim the reward after next game started\n\t\trequire(block.number > playerDB[msg.sender].initHeightJoined + period_all);\n\t\t// require(block.number < playerDB[msg.sender].initHeightJoined + period_all + 7);\n\t\tsetup = false;\n\t\twinner = address(0);\n\t\tboard = bytes32(0);\n\t\tplayercount = 0;\n\t\tipfsAddr = '';\n\n\t\tuint256 reward = uint256(address(this).balance).mul(uint256(6)) / uint256(10);\n\t\t// require(RNTInterface(RNTAddr).mint(msg.sender) == true);\n\t\trequire(msg.sender.send(reward) == true);\n\t\treturn true;\n\t}\n\n\tfunction claimLotteReward( // this happens after end of a game, next round may started\n\t    bytes32 secret,\n\t    string memory slots,\n\t    uint blockNo,\n\t    uint256[] memory submitBlocks,  // the winning blocks the player claimed\n\t    uint[] memory winningTickets, // the idx of generateTickets. same order as submitBlocks\n\t    bytes32[] memory proof,\n\t    bool[] memory isLeft\n\t) public returns (bool) {\n\t\trequire(playerDB[msg.sender].claimed == false, \"already claimed\");\n\t\trequire(winningTickets.length <= 10, \"you cannot claim more tickets\");\n\t        require(proof.length == isLeft.length, \"len of proof/isLeft mismatch\");\n\t        require(winningTickets.length == submitBlocks.length, \"submitBlocks and winningTickets mismatch\");\n\t\trequire(merkleRoot != 0x0, \"no merkle root yet\");\n\t\trequire(block.number > playerDB[msg.sender].initHeightJoined + period_all, \"too early\");\n\t\trequire(block.number < playerDB[msg.sender].initHeightJoined + period_all + 7, \"too late\");\n\t\trequire(playerDB[msg.sender].initHeightJoined == initHeight || \n\t\t        initHeight - playerDB[msg.sender].initHeightJoined > period_all);  // how to more precise?\n\t\t// require(ecrecover(keccak256(abi.encodePacked(\"\\x19Ethereum Signed Message:\\n32\", keccak256(abi.encodePacked(score)))), v, r, s) == msg.sender);\n\n                // No second chance: if one of the following verification failed, the player cannot call this function again.\n                playerDB[msg.sender].claimed = true;\n                uint i;\n\n\t        // verification: the secret belongs to the player\n\t\tbytes32 score;\n\t\tbytes32 newscore = keccak256(abi.encodePacked(msg.sender, secret, blockhash(blockNo))); // initialize for the loop below\n\t\tbool[32] memory _slots = convertString32ToBool(slots); \n                for (i = 0; i <= 31; i++) {\n\t\t\tif(_slots[i] == false) {\n\t\t\t\tassert(score[i] == board[i]);\n\t\t\t} else {\n\t\t\t\tassert(score[i] == newscore[i]);\n\t\t\t}\n\t\t}\n\n\t\trequire(keccak256(abi.encodePacked(score)) == playerDB[msg.sender].scoreHash,\n\t\t        \"wrong score base on the given secret/blockNo\");\n\n                // generate \"claimhash\", which is hash(msg.sender, submitBlocks[i], winningTickets[i], ...) where i=0,1,2,...\n\t\tbytes32[10] memory genTickets = generateTickets(score);\n                bytes32[] memory claimHashElements;\n                claimHashElements[0] = bytes20(msg.sender);\n                for (i=0; i<winningTickets.length; i++){\n                        claimHashElements[i*2+1] = bytes32(submitBlocks[i]);\n                        claimHashElements[i*2+2] = bytes32(genTickets[winningTickets[i]]);\n                }\n                // bytes32 claimHash = keccak256(abi.encodePacked(claimHashElements));\n                require(merkleTreeValidator(proof, isLeft, keccak256(abi.encodePacked(claimHashElements)), merkleRoot));\n\n                // count number of winning tickets\n                bytes32 winNumber;\n                for (i=0; i<submitBlocks.length; i++){\n\t                winNumber = keccak256(abi.encodePacked(prevboard, blockhash(submitBlocks[i])));\n                        // require(winNumber[30] == genTickets[winningTickets[i]][30] && winNumber[31] == genTickets[winningTickets[i]][31])\n                        require(winNumber[31] == genTickets[winningTickets[i]][31], \"found a wrong ticket\");  // for debug only\n\t\t        // require(RNTInterface(RNTAddr).mint(msg.sender) == true);\n                }\n\t\treturn true;\n        }\n\n        function generateTickets(bytes32 score) public view returns (bytes32[10] memory){\n                bytes32[10] memory tickets;\n                uint ticketSeedBlockNo = playerDB[msg.sender].initHeightJoined + 10;\n\t\tfor (uint i = 0; i < getNumOfTickets(score); i++) {\n\t\t        tickets[i] = keccak256(abi.encodePacked(score, ticketSeedBlockNo, i+1));  // idx of ticket start from 1\n                }\n                return tickets;\n        }\n\n        function getNumOfTickets(bytes32 score) public pure returns(uint){\n                if (score > 0x00ffffffffffffffffffffffffffffffffffffffffffffffffffffffffffffff) {\n                        return 1;  // min: 1 ticket\n                } else if (score > 0x000fffffffffffffffffffffffffffffffffffffffffffffffffffffffffffff) {\n                        return 2;\n                } else if (score > 0x0000ffffffffffffffffffffffffffffffffffffffffffffffffffffffffffff) {\n                        return 3;\n                } else if (score > 0x00000fffffffffffffffffffffffffffffffffffffffffffffffffffffffffff) {\n                        return 4;\n                } else {\n                        return 5;  // max: 5 tickets\n                }\n        }\n\n\n\t// function randomNumber() public view returns (bytes32) {\n\t// \trequire(lastRevived != samGroup[3] && samGroup[3] != bytes32(0));\n\t// \trequire(block.number - lastActivity <= 5);\n\t// \treturn keccak256(abi.encodePacked(samGroup[0], samGroup[1], samGroup[2], samGroup[3], blockhash(block.number - 1)));\n\t// }\n\n\tfunction getPlayerInfo(address _addr) public view returns (uint, bytes32) {\n\t\treturn (playerDB[_addr].initHeightJoined, playerDB[_addr].scoreHash);\n\t}\n\n\tfunction fortify(bytes32 defense) public payable feePaid defenderOnly NewGameOnly returns (bool) {\n\t\t// require(defense > difficulty);\n\n\t\twinner = address(0);\n\t\tipfsAddr = '';\n\n\t\tinitHeight = block.number;\n\t\tplayerInfo memory newone;\n\n\t\tnewone.initHeightJoined = initHeight;\n\t\tplayerDB[msg.sender] = newone;\n\t\tplayercount += 1;\n\t\tsetup = true;\n\n\t        prevboard = board;\n\t        board = defense;\n\n\t\treturn true;\n\t}\n\n\t// Join game\n\tfunction challenge(bytes32 scoreHash) public payable feePaid notDefender gameStarted returns (bool) {\n\t\trequire(playerDB[msg.sender].initHeightJoined < initHeight);\n\t\trequire(block.number >= initHeight + 7 && block.number < initHeight + 10);\n\t\trequire(playercount + 1 <= maxPlayer);\n\n\t\tplayerInfo memory newone;\n\t\tplayerDB[msg.sender].claimed == false;\n\t\tplayerDB[msg.sender].initHeightJoined = initHeight;\n\n\t\tnewone.scoreHash = scoreHash;\n\n\t\tplayerDB[msg.sender] = newone;\n\t\tplayercount += 1;\n\n\t\treturn true;\n\t}\n\n\tfunction testOutcome(bytes32 secret, uint blockNo) public gameStarted view returns (bytes32 _board, bool[32] memory _slots) {\n\t\trequire(block.number < initHeight + 7 && block.number >= initHeight);\n\t\trequire(block.number - blockNo < 7);\n\t\trequire(blockNo <= block.number - 1 && blockNo < initHeight + 7 && blockNo >= initHeight);\n\n\t\t_board = keccak256(abi.encodePacked(msg.sender, secret, blockhash(blockNo)));\n\n\t\tfor (uint i = 0; i <= 31; i++) {\n\t\t\tif(_board[i] < board[i]) {\n\t\t\t\t_slots[i] = true;\n\t\t\t}\n\t\t}\n\n\t\treturn (_board, _slots);\n\t}\n\n\t// function reviveReward() public gameStarted notDefender returns (bool) {\n\t// \trequire(battleHistory[initHeight][msg.sender].battle == initHeight);\n\t// \trequire(block.number > initHeight + period1 + period2);\n\n\t// \tbytes32 _board = keccak256(abi.encodePacked(battleHistory[initHeight][msg.sender].score, blockhash(block.number - 1)));\n\n\t// \tassert(_board != samGroup[3]);\n\t\t\t\n\t// \tif (_board[30] == board[30] && _board[31] == board[31]) {\n\t// \t\tbattleHistory[initHeight][msg.sender].battle = 0;\n\t// \t\tlastRevived = samGroup[3];\n\t// \t\tsamGroup[3] = _board;\n\t// \t\tlastActivity = block.number;\n\t// \t\trequire(RNTInterface(RNTAddr).mint(msg.sender) == true);\n\t// \t\treturn true;\n\t// \t} else {\n\t// \t\trevert();\n\t// \t}\n\t// }\n\n\t// function revealSecret(bytes32 secret, bytes32 score, bool[32] memory slots, uint blockNo, uint8 v, bytes32 r, bytes32 s) public gameStarted notDefender returns (bool) {\n\t// \trequire(score != board);\n\t// \trequire(score != battleHistory[initHeight][msg.sender].score);\n\t// \trequire(playerDB[msg.sender].since > initHeight);\n\t// \trequire(battleHistory[initHeight][msg.sender].battle == 0);\n\t// \trequire(block.number <= initHeight + period1 + period2);\n\t// \trequire(block.number - blockNo < period1);\n\t// \trequire(blockNo <= block.number - 1 && blockNo < initHeight + period1 && blockNo > initHeight);\n\t// \t// require(merkleRoot[0] != 0x0);\n\t// \t// todo: require(merkleTreeValidator(proofs, keccak256(score), merkleRoot[0]);\n\t// \trequire(ecrecover(keccak256(abi.encodePacked(\"\\x19Ethereum Signed Message:\\n32\", keccak256(abi.encodePacked(score)))), v, r, s) == msg.sender);\n\n\t// \tbattleStat memory newbat;\n\t// \tnewbat.battle = initHeight;\n\t// \tnewbat.secret = secret;\n\t// \t// newbat.bhash = blockhash(blockNo);\n\t// \tnewbat.score = keccak256(abi.encodePacked(secret, blockhash(blockNo))); // initialize for the loop below\n\n\t// \tfor (uint i = 0; i <= 31; i++) {\n\t// \t\tif(slots[i] == false) {\n\t// \t\t\tassert(score[i] == board[i]);\n\t// \t\t} else {\n\t// \t\t\tassert(score[i] == newbat.score[i]);\n\t// \t\t}\n\t// \t}\n\n\t// \tnewbat.score = score;\n\t// \tbattleHistory[initHeight][msg.sender] = newbat;\n\n\t// \t// winner and sample group\n\t// \t// if (winner == address(0) && newbat.score < board) {\n\t// \t// \twinner = msg.sender;\n\t// \t// \tsamGroup[0] = newbat.score;\n\t// \t// } else if (newbat.score < battleHistory[initHeight][winner].score) {\n\t// \t// \twinner = msg.sender;\n\t// \t// \tsamGroup[1] = samGroup[0];\n\t// \t// \tsamGroup[0] = newbat.score;\n\t// \t// } else {\n\t// \t// \tsamGroup[2] = newbat.score;\n\t// \t// }\n\n\t// \tlastActivity = block.number;\n\t// \treturn true;\n\t// \t// state channel has to send out ticket after block 'm', i.e., end of revealSecret()\n\t// }\n\n\n\t// function lottery(bytes32[] tickets) public gameStarted notDefender returns (bool) {\n\t// \trequire(battleHistory[initHeight][msg.sender].battle == initHeight);\n\t// \trequire(block.number > initHeight + period1 + period2 && block.number <= initHeight + period_all);\n\t// \trequire(tickets.length <= 5);\n\t// \t// todo:\n\t// \t// require(merkleTreeValidator(proofs, tickets[0], merkleRoot[1]);  // verify existence of ticket\n\t// \t// require(merkleTreeValidator(proofs, tickets[1], merkleRoot[1]);  // can one loop in 'require'?\n\t// \t// require(merkleTreeValidator(proofs, tickets[2], merkleRoot[1]);  // or deal with array in the function\n\t// \t// require(merkleTreeValidator(proofs, tickets[3], merkleRoot[1]);\n\t// \t// require(merkleTreeValidator(proofs, tickets[4], merkleRoot[1]);\n\n\t// \tbytes32 memory _board = keccak256(board, blockhash(block.number - 1)));\n\n                // for (i=0; i<tickets.length; i++) {\n                        // _ticket = tickets[i];\n                        // if (_board[30] == _ticket[30] && _board[31] == _ticket[31]) {\n                                // battleHistory[initHeight][msg.sender].battle = 0;\n                                // sampleGroup[2] = _board;\n                                // // require(RNTInterface(RNTAddr).mint(msg.sender) == true);\n                                // return true;\n                        // } else {\n                                // revert();\n                        // }\n                // }\n\t// }\n\n\tfunction winningNumber(uint blockNo) public view returns (bytes32) {\n\t        require(blockNo <= block.number - 1);\n\t        return keccak256(abi.encodePacked(board, blockhash(blockNo)));\n        }\n\n        function merkleTreeValidator(bytes32[] memory proof, bool[] memory isLeft, bytes32 targetLeaf, bytes32 _merkleRoot) public pure returns (bool) {\n                require(proof.length < 16);  // 16 is an arbitrary number, 2**16=65536 shoud be large enough\n                require(proof.length == isLeft.length);\n                return MerkleTreeValidatorInterface(MerkleTreeAddr).validate(proof, isLeft, targetLeaf, _merkleRoot);\n        }\n\n\tfunction submitMerkleRoot(uint _initHeight, bytes32 _merkleRoot, string memory _ipfsAddr) public ValidatorOnly returns (bool) {\n\t\trequire(block.number >= _initHeight + period_all && block.number < _initHeight + period_all + 3);\n\t        merkleRoot = _merkleRoot;\n\t        ipfsAddr = _ipfsAddr;\n\n\t        return true;\n        }\n\n        function getBlockhash(uint blockNo) external view returns (bytes32) {\n                return blockhash(blockNo);\n        }\n\n        function convertString32ToBool(string memory s32) internal pure returns (bool[32] memory) {\n                // i.g., convert string \"01001....\" to bool[32]: [false, true, false, false, true, ...]\n                bytes memory s32Bytes = bytes(s32);\n                bool[32] memory result;\n                for (uint i = 0; i < s32Bytes.length; i++) {\n                        if(s32Bytes[i] == '1') {\n                            result[i] = true;\n                        } else {\n                            result[i] = false;\n                        }\n                }\n                return result;\n        }\n\n        // fallback\n        function () defenderOnly gameStalled external { \n            winner = defender; \n            require(withdraw());\n        }\n}\n",
  "sourcePath": "/home/kai/Work/project/11be/dapps/BattleShip/contracts/BattleShip.sol",
  "compiler": {
    "name": "solc",
    "version": "0.4.25+commit.59dbf8f1.Emscripten.clang"
  },
  "schemaVersion": "2.0.2",
  "updatedAt": "2019-01-16T16:11:22.755Z"
}