{
  "contractName": "BattleShip",
  "abi": [
    {
      "constant": true,
      "inputs": [],
      "name": "RNTAddr",
      "outputs": [
        {
          "name": "",
          "type": "address"
        }
      ],
      "payable": false,
      "stateMutability": "view",
      "type": "function"
    },
    {
      "constant": true,
      "inputs": [],
      "name": "difficulty",
      "outputs": [
        {
          "name": "",
          "type": "bytes32"
        }
      ],
      "payable": false,
      "stateMutability": "view",
      "type": "function"
    },
    {
      "constant": true,
      "inputs": [],
      "name": "maxPlayer",
      "outputs": [
        {
          "name": "",
          "type": "uint256"
        }
      ],
      "payable": false,
      "stateMutability": "view",
      "type": "function"
    },
    {
      "constant": true,
      "inputs": [],
      "name": "playercount",
      "outputs": [
        {
          "name": "",
          "type": "uint256"
        }
      ],
      "payable": false,
      "stateMutability": "view",
      "type": "function"
    },
    {
      "constant": true,
      "inputs": [],
      "name": "board",
      "outputs": [
        {
          "name": "",
          "type": "bytes32"
        }
      ],
      "payable": false,
      "stateMutability": "view",
      "type": "function"
    },
    {
      "constant": true,
      "inputs": [],
      "name": "defender",
      "outputs": [
        {
          "name": "",
          "type": "address"
        }
      ],
      "payable": false,
      "stateMutability": "view",
      "type": "function"
    },
    {
      "constant": true,
      "inputs": [],
      "name": "initHeight",
      "outputs": [
        {
          "name": "",
          "type": "uint256"
        }
      ],
      "payable": false,
      "stateMutability": "view",
      "type": "function"
    },
    {
      "constant": true,
      "inputs": [],
      "name": "setup",
      "outputs": [
        {
          "name": "",
          "type": "bool"
        }
      ],
      "payable": false,
      "stateMutability": "view",
      "type": "function"
    },
    {
      "constant": true,
      "inputs": [],
      "name": "fee",
      "outputs": [
        {
          "name": "",
          "type": "uint256"
        }
      ],
      "payable": false,
      "stateMutability": "view",
      "type": "function"
    },
    {
      "constant": true,
      "inputs": [],
      "name": "winner",
      "outputs": [
        {
          "name": "",
          "type": "address"
        }
      ],
      "payable": false,
      "stateMutability": "view",
      "type": "function"
    },
    {
      "constant": true,
      "inputs": [],
      "name": "period",
      "outputs": [
        {
          "name": "",
          "type": "uint256"
        }
      ],
      "payable": false,
      "stateMutability": "view",
      "type": "function"
    },
    {
      "inputs": [
        {
          "name": "_init",
          "type": "bytes32"
        },
        {
          "name": "_RNTAddr",
          "type": "address"
        }
      ],
      "payable": true,
      "stateMutability": "payable",
      "type": "constructor"
    },
    {
      "payable": false,
      "stateMutability": "nonpayable",
      "type": "fallback"
    },
    {
      "constant": false,
      "inputs": [],
      "name": "withdraw",
      "outputs": [
        {
          "name": "",
          "type": "bool"
        }
      ],
      "payable": false,
      "stateMutability": "nonpayable",
      "type": "function"
    },
    {
      "constant": true,
      "inputs": [],
      "name": "randomNumber",
      "outputs": [
        {
          "name": "",
          "type": "bytes32"
        }
      ],
      "payable": false,
      "stateMutability": "view",
      "type": "function"
    },
    {
      "constant": true,
      "inputs": [],
      "name": "myInfo",
      "outputs": [
        {
          "name": "",
          "type": "uint256"
        },
        {
          "name": "",
          "type": "uint8"
        },
        {
          "name": "",
          "type": "bytes32"
        },
        {
          "name": "",
          "type": "bytes32"
        },
        {
          "name": "",
          "type": "uint256"
        }
      ],
      "payable": false,
      "stateMutability": "view",
      "type": "function"
    },
    {
      "constant": false,
      "inputs": [
        {
          "name": "defense",
          "type": "bytes32"
        }
      ],
      "name": "fortify",
      "outputs": [
        {
          "name": "",
          "type": "bool"
        }
      ],
      "payable": true,
      "stateMutability": "payable",
      "type": "function"
    },
    {
      "constant": false,
      "inputs": [
        {
          "name": "v",
          "type": "uint8"
        },
        {
          "name": "r",
          "type": "bytes32"
        },
        {
          "name": "s",
          "type": "bytes32"
        }
      ],
      "name": "challenge",
      "outputs": [
        {
          "name": "",
          "type": "bool"
        }
      ],
      "payable": true,
      "stateMutability": "payable",
      "type": "function"
    },
    {
      "constant": true,
      "inputs": [
        {
          "name": "secret",
          "type": "bytes32"
        },
        {
          "name": "blockNo",
          "type": "uint256"
        }
      ],
      "name": "testOutcome",
      "outputs": [
        {
          "name": "_board",
          "type": "bytes32"
        },
        {
          "name": "_slots",
          "type": "bool[32]"
        }
      ],
      "payable": false,
      "stateMutability": "view",
      "type": "function"
    },
    {
      "constant": false,
      "inputs": [],
      "name": "reviveReward",
      "outputs": [
        {
          "name": "",
          "type": "bool"
        }
      ],
      "payable": false,
      "stateMutability": "nonpayable",
      "type": "function"
    },
    {
      "constant": false,
      "inputs": [
        {
          "name": "secret",
          "type": "bytes32"
        },
        {
          "name": "score",
          "type": "bytes32"
        },
        {
          "name": "slots",
          "type": "bool[32]"
        },
        {
          "name": "blockNo",
          "type": "uint256"
        }
      ],
      "name": "revealSecret",
      "outputs": [
        {
          "name": "",
          "type": "bool"
        }
      ],
      "payable": false,
      "stateMutability": "nonpayable",
      "type": "function"
    }
  ],
  "bytecode": "0x608060405270ffffffffffffffffffffffffffffffffff600102600490600019169055662386f26fc100006006556000600760006101000a81548160ff02191690831515021790555060006008556040516040806200270f833981018060405281019080805190602001909291908051906020019092919050505060065434101515156200008c57600080fd5b336000806101000a81548173ffffffffffffffffffffffffffffffffffffffff021916908373ffffffffffffffffffffffffffffffffffffffff16021790555080600260006101000a81548173ffffffffffffffffffffffffffffffffffffffff021916908373ffffffffffffffffffffffffffffffffffffffff160217905550600115156200012b8362000142640100000000026401000000009004565b15151415156200013a57600080fd5b5050620003a6565b60006200014e62000357565b60065434101515156200016057600080fd5b6000809054906101000a900473ffffffffffffffffffffffffffffffffffffffff1673ffffffffffffffffffffffffffffffffffffffff163373ffffffffffffffffffffffffffffffffffffffff16141515620001bc57600080fd5b60001515600760009054906101000a900460ff161515141515620001df57600080fd5b600454600019168360001916111515620001f857600080fd5b33816000019073ffffffffffffffffffffffffffffffffffffffff16908173ffffffffffffffffffffffffffffffffffffffff16815250504381602001818152505082600581600019169055504360038190555080600c60003373ffffffffffffffffffffffffffffffffffffffff1673ffffffffffffffffffffffffffffffffffffffff16815260200190815260200160002060008201518160000160006101000a81548173ffffffffffffffffffffffffffffffffffffffff021916908373ffffffffffffffffffffffffffffffffffffffff1602179055506020820151816001015560408201518160020160006101000a81548160ff021916908360ff160217905550606082015181600301906000191690556080820151816004019060001916905590505060016008600082825401925050819055506001600760006101000a81548160ff0219169083151502179055506001915050919050565b60a060405190810160405280600073ffffffffffffffffffffffffffffffffffffffff16815260200160008152602001600060ff16815260200160008019168152602001600080191681525090565b61235980620003b66000396000f300608060405260043610610107576000357c0100000000000000000000000000000000000000000000000000000000900463ffffffff16806306491eff1461027257806319cae462146102c95780631cb9409f146102fc57806334fdd273146103815780633ccfd60b1461041157806358533612146104405780636426b1e41461047c5780636b180b59146104a75780637cd3229a146104d25780637f4c91c514610505578063805604fd1461055c57806385b31d7b146105b3578063a78eacdb14610610578063ba0bba401461063b578063ccbac9f51461066a578063dae1b1151461069d578063ddca3f43146106cc578063dfbf53ae146106f7578063ef78d4fd1461074e575b34801561011357600080fd5b506000809054906101000a900473ffffffffffffffffffffffffffffffffffffffff1673ffffffffffffffffffffffffffffffffffffffff163373ffffffffffffffffffffffffffffffffffffffff1614151561016f57600080fd5b60011515600760009054906101000a900460ff1615151480156101965750600b6003540143115b80156101f05750600073ffffffffffffffffffffffffffffffffffffffff16600160009054906101000a900473ffffffffffffffffffffffffffffffffffffffff1673ffffffffffffffffffffffffffffffffffffffff16145b15156101fb57600080fd5b6000809054906101000a900473ffffffffffffffffffffffffffffffffffffffff16600160006101000a81548173ffffffffffffffffffffffffffffffffffffffff021916908373ffffffffffffffffffffffffffffffffffffffff160217905550610265610779565b151561027057600080fd5b005b34801561027e57600080fd5b50610287610a4c565b604051808273ffffffffffffffffffffffffffffffffffffffff1673ffffffffffffffffffffffffffffffffffffffff16815260200191505060405180910390f35b3480156102d557600080fd5b506102de610a72565b60405180826000191660001916815260200191505060405180910390f35b34801561030857600080fd5b50610335600480360381019080803560001916906020019092919080359060200190929190505050610a78565b604051808360001916600019168152602001826020800280838360005b8381101561036d578082015181840152602081019050610352565b505050509050019250505060405180910390f35b34801561038d57600080fd5b506103f760048036038101908080356000191690602001909291908035600019169060200190929190806104000190602080602002604051908101604052809291908260208002808284378201915050505050919291929080359060200190929190505050610ca4565b604051808215151515815260200191505060405180910390f35b34801561041d57600080fd5b50610426610779565b604051808215151515815260200191505060405180910390f35b610462600480360381019080803560001916906020019092919050505061162b565b604051808215151515815260200191505060405180910390f35b34801561048857600080fd5b5061049161183a565b6040518082815260200191505060405180910390f35b3480156104b357600080fd5b506104bc611840565b6040518082815260200191505060405180910390f35b3480156104de57600080fd5b506104e7611846565b60405180826000191660001916815260200191505060405180910390f35b34801561051157600080fd5b5061051a61184c565b604051808273ffffffffffffffffffffffffffffffffffffffff1673ffffffffffffffffffffffffffffffffffffffff16815260200191505060405180910390f35b610599600480360381019080803560ff16906020019092919080356000191690602001909291908035600019169060200190929190505050611871565b604051808215151515815260200191505060405180910390f35b3480156105bf57600080fd5b506105c8611ae0565b604051808681526020018560ff1660ff168152602001846000191660001916815260200183600019166000191681526020018281526020019550505050505060405180910390f35b34801561061c57600080fd5b50610625611c15565b6040518082815260200191505060405180910390f35b34801561064757600080fd5b50610650611c1b565b604051808215151515815260200191505060405180910390f35b34801561067657600080fd5b5061067f611c2e565b60405180826000191660001916815260200191505060405180910390f35b3480156106a957600080fd5b506106b2611d26565b604051808215151515815260200191505060405180910390f35b3480156106d857600080fd5b506106e1612208565b6040518082815260200191505060405180910390f35b34801561070357600080fd5b5061070c61220e565b604051808273ffffffffffffffffffffffffffffffffffffffff1673ffffffffffffffffffffffffffffffffffffffff16815260200191505060405180910390f35b34801561075a57600080fd5b50610763612234565b6040518082815260200191505060405180910390f35b600080600073ffffffffffffffffffffffffffffffffffffffff16600160009054906101000a900473ffffffffffffffffffffffffffffffffffffffff1673ffffffffffffffffffffffffffffffffffffffff16141580156108285750600160009054906101000a900473ffffffffffffffffffffffffffffffffffffffff1673ffffffffffffffffffffffffffffffffffffffff163373ffffffffffffffffffffffffffffffffffffffff16145b151561083357600080fd5b600b600354014311151561084657600080fd5b6000600760006101000a81548160ff0219169083151502179055506000600160006101000a81548173ffffffffffffffffffffffffffffffffffffffff021916908373ffffffffffffffffffffffffffffffffffffffff1602179055506000600102600581600019169055506000600881905550600a6108e760063073ffffffffffffffffffffffffffffffffffffffff163161223990919063ffffffff16565b8115156108f057fe5b04905060011515600260009054906101000a900473ffffffffffffffffffffffffffffffffffffffff1673ffffffffffffffffffffffffffffffffffffffff16636a627842336040518263ffffffff167c0100000000000000000000000000000000000000000000000000000000028152600401808273ffffffffffffffffffffffffffffffffffffffff1673ffffffffffffffffffffffffffffffffffffffff168152602001915050602060405180830381600087803b1580156109b457600080fd5b505af11580156109c8573d6000803e3d6000fd5b505050506040513d60208110156109de57600080fd5b810190808051906020019092919050505015151415156109fd57600080fd5b600115153373ffffffffffffffffffffffffffffffffffffffff166108fc839081150290604051600060405180830381858888f193505050501515141515610a4457600080fd5b600191505090565b600260009054906101000a900473ffffffffffffffffffffffffffffffffffffffff1681565b60045481565b6000610a82612277565b600060011515600760009054906101000a900460ff161515141515610aa657600080fd5b600b600354014311158015610abd57506003544310155b1515610ac857600080fd5b6005600b03844303101515610adc57600080fd5b600143038411158015610af35750600b6003540184105b8015610b0457506005600354018410155b1515610b0f57600080fd5b8484406040516020018083600019166000191681526020018260001916600019168152602001925050506040516020818303038152906040526040518082805190602001908083835b602083101515610b7d5780518252602082019150602081019050602083039250610b58565b6001836020036101000a03801982511681845116808217855250505050505090500191505060405180910390209250600090505b601f81111515610c965760055481602081101515610bcb57fe5b1a7f0100000000000000000000000000000000000000000000000000000000000000027effffffffffffffffffffffffffffffffffffffffffffffffffffffffffffff19168382602081101515610c1e57fe5b1a7f0100000000000000000000000000000000000000000000000000000000000000027effffffffffffffffffffffffffffffffffffffffffffffffffffffffffffff19161015610c895760018282602081101515610c7957fe5b6020020190151590811515815250505b8080600101915050610bb1565b828292509250509250929050565b6000610cae61229b565b600060011515600760009054906101000a900460ff161515141515610cd257600080fd5b6000809054906101000a900473ffffffffffffffffffffffffffffffffffffffff1673ffffffffffffffffffffffffffffffffffffffff163373ffffffffffffffffffffffffffffffffffffffff1614151515610d2e57600080fd5b600354600c60003373ffffffffffffffffffffffffffffffffffffffff1673ffffffffffffffffffffffffffffffffffffffff16815260200190815260200160002060010154111515610d8057600080fd5b6000600d6000600354815260200190815260200160002060003373ffffffffffffffffffffffffffffffffffffffff1673ffffffffffffffffffffffffffffffffffffffff16815260200190815260200160002060000154141515610de457600080fd5b600b600354014311158015610e3e57506005600c60003373ffffffffffffffffffffffffffffffffffffffff1673ffffffffffffffffffffffffffffffffffffffff16815260200190815260200160002060010154014310155b1515610e4957600080fd5b6005600b03844303101515610e5d57600080fd5b600143038411158015610e745750600b6003540184105b8015610e8557506005600354018410155b1515610e9057600080fd5b3373ffffffffffffffffffffffffffffffffffffffff1660018860405160200180807f19457468657265756d205369676e6564204d6573736167653a0a333200000000815250601c0182600019166000191681526020019150506040516020818303038152906040526040518082805190602001908083835b602083101515610f2e5780518252602082019150602081019050602083039250610f09565b6001836020036101000a0380198251168184511680821785525050505050509050019150506040518091039020600c60003373ffffffffffffffffffffffffffffffffffffffff1673ffffffffffffffffffffffffffffffffffffffff16815260200190815260200160002060020160009054906101000a900460ff16600c60003373ffffffffffffffffffffffffffffffffffffffff1673ffffffffffffffffffffffffffffffffffffffff16815260200190815260200160002060030154600c60003373ffffffffffffffffffffffffffffffffffffffff1673ffffffffffffffffffffffffffffffffffffffff16815260200190815260200160002060040154604051600081526020016040526040518085600019166000191681526020018460ff1660ff1681526020018360001916600019168152602001826000191660001916815260200194505050505060206040516020810390808403906000865af11580156110a2573d6000803e3d6000fd5b5050506020604051035173ffffffffffffffffffffffffffffffffffffffff161415156110ce57600080fd5b600354826000018181525050868260600190600019169081600019168152505083408260a0019060001916908160001916815250508684406040516020018083600019166000191681526020018260001916600019168152602001925050506040516020818303038152906040526040518082805190602001908083835b602083101515611171578051825260208201915060208101905060208303925061114c565b6001836020036101000a038019825116818451168082178552505050505050905001915050604051809103902082608001906000191690816000191681525050600090505b601f81111515611356576000151585826020811015156111d257fe5b60200201511515141561129557600554816020811015156111ef57fe5b1a7f0100000000000000000000000000000000000000000000000000000000000000027effffffffffffffffffffffffffffffffffffffffffffffffffffffffffffff1916868260208110151561124257fe5b1a7f0100000000000000000000000000000000000000000000000000000000000000027effffffffffffffffffffffffffffffffffffffffffffffffffffffffffffff191614151561129057fe5b611349565b8160800151816020811015156112a757fe5b1a7f0100000000000000000000000000000000000000000000000000000000000000027effffffffffffffffffffffffffffffffffffffffffffffffffffffffffffff191686826020811015156112fa57fe5b1a7f0100000000000000000000000000000000000000000000000000000000000000027effffffffffffffffffffffffffffffffffffffffffffffffffffffffffffff191614151561134857fe5b5b80806001019150506111b6565b858260800190600019169081600019168152505081600d6000600354815260200190815260200160002060003373ffffffffffffffffffffffffffffffffffffffff1673ffffffffffffffffffffffffffffffffffffffff168152602001908152602001600020600082015181600001556020820151816001015560408201518160020190600019169055606082015181600301906000191690556080820151816004019060001916905560a08201518160050190600019169055905050600073ffffffffffffffffffffffffffffffffffffffff16600160009054906101000a900473ffffffffffffffffffffffffffffffffffffffff1673ffffffffffffffffffffffffffffffffffffffff1614801561147f575060055460001916826080015160001916105b156114e85733600160006101000a81548173ffffffffffffffffffffffffffffffffffffffff021916908373ffffffffffffffffffffffffffffffffffffffff1602179055508160800151600960006003811015156114da57fe5b0181600019169055506115ff565b600d600060035481526020019081526020016000206000600160009054906101000a900473ffffffffffffffffffffffffffffffffffffffff1673ffffffffffffffffffffffffffffffffffffffff1673ffffffffffffffffffffffffffffffffffffffff168152602001908152602001600020600401546000191682608001516000191610156115fe5733600160006101000a81548173ffffffffffffffffffffffffffffffffffffffff021916908373ffffffffffffffffffffffffffffffffffffffff160217905550600960006003811015156115c457fe5b0154600960016003811015156115d657fe5b0181600019169055508160800151600960006003811015156115f457fe5b0181600019169055505b5b81608001516009600260038110151561161457fe5b018160001916905550600192505050949350505050565b60006116356122de565b600654341015151561164657600080fd5b6000809054906101000a900473ffffffffffffffffffffffffffffffffffffffff1673ffffffffffffffffffffffffffffffffffffffff163373ffffffffffffffffffffffffffffffffffffffff161415156116a157600080fd5b60001515600760009054906101000a900460ff1615151415156116c357600080fd5b6004546000191683600019161115156116db57600080fd5b33816000019073ffffffffffffffffffffffffffffffffffffffff16908173ffffffffffffffffffffffffffffffffffffffff16815250504381602001818152505082600581600019169055504360038190555080600c60003373ffffffffffffffffffffffffffffffffffffffff1673ffffffffffffffffffffffffffffffffffffffff16815260200190815260200160002060008201518160000160006101000a81548173ffffffffffffffffffffffffffffffffffffffff021916908373ffffffffffffffffffffffffffffffffffffffff1602179055506020820151816001015560408201518160020160006101000a81548160ff021916908360ff160217905550606082015181600301906000191690556080820151816004019060001916905590505060016008600082825401925050819055506001600760006101000a81548160ff0219169083151502179055506001915050919050565b6103e881565b60085481565b60055481565b6000809054906101000a900473ffffffffffffffffffffffffffffffffffffffff1681565b600061187b6122de565b600654341015151561188c57600080fd5b6000809054906101000a900473ffffffffffffffffffffffffffffffffffffffff1673ffffffffffffffffffffffffffffffffffffffff163373ffffffffffffffffffffffffffffffffffffffff16141515156118e857600080fd5b60011515600760009054906101000a900460ff16151514151561190a57600080fd5b600354600c60003373ffffffffffffffffffffffffffffffffffffffff1673ffffffffffffffffffffffffffffffffffffffff1681526020019081526020016000206001015410151561195c57600080fd5b6103e86001600854011115151561197257600080fd5b33816000019073ffffffffffffffffffffffffffffffffffffffff16908173ffffffffffffffffffffffffffffffffffffffff16815250504381602001818152505084816040019060ff16908160ff16815250508381606001906000191690816000191681525050828160800190600019169081600019168152505080600c60003373ffffffffffffffffffffffffffffffffffffffff1673ffffffffffffffffffffffffffffffffffffffff16815260200190815260200160002060008201518160000160006101000a81548173ffffffffffffffffffffffffffffffffffffffff021916908373ffffffffffffffffffffffffffffffffffffffff1602179055506020820151816001015560408201518160020160006101000a81548160ff021916908360ff1602179055506060820151816003019060001916905560808201518160040190600019169055905050600160086000828254019250508190555060019150509392505050565b6000806000806000600c60003373ffffffffffffffffffffffffffffffffffffffff1673ffffffffffffffffffffffffffffffffffffffff16815260200190815260200160002060010154600c60003373ffffffffffffffffffffffffffffffffffffffff1673ffffffffffffffffffffffffffffffffffffffff16815260200190815260200160002060020160009054906101000a900460ff16600c60003373ffffffffffffffffffffffffffffffffffffffff1673ffffffffffffffffffffffffffffffffffffffff16815260200190815260200160002060030154600c60003373ffffffffffffffffffffffffffffffffffffffff1673ffffffffffffffffffffffffffffffffffffffff16815260200190815260200160002060040154600354945094509450945094509091929394565b60035481565b600760009054906101000a900460ff1681565b600060096000600381101515611c4057fe5b015460096001600381101515611c5257fe5b015460096002600381101515611c6457fe5b015460014303406040516020018085600019166000191681526020018460001916600019168152602001836000191660001916815260200182600019166000191681526020019450505050506040516020818303038152906040526040518082805190602001908083835b602083101515611cf45780518252602082019150602081019050602083039250611ccf565b6001836020036101000a0380198251168184511680821785525050505050509050019150506040518091039020905090565b60008060011515600760009054906101000a900460ff161515141515611d4b57600080fd5b6000809054906101000a900473ffffffffffffffffffffffffffffffffffffffff1673ffffffffffffffffffffffffffffffffffffffff163373ffffffffffffffffffffffffffffffffffffffff1614151515611da757600080fd5b600354600d6000600354815260200190815260200160002060003373ffffffffffffffffffffffffffffffffffffffff1673ffffffffffffffffffffffffffffffffffffffff16815260200190815260200160002060000154141515611e0c57600080fd5b600b6003540143141515611e1f57600080fd5b600d6000600354815260200190815260200160002060003373ffffffffffffffffffffffffffffffffffffffff1673ffffffffffffffffffffffffffffffffffffffff1681526020019081526020016000206004015460014303406040516020018083600019166000191681526020018260001916600019168152602001925050506040516020818303038152906040526040518082805190602001908083835b602083101515611ee55780518252602082019150602081019050602083039250611ec0565b6001836020036101000a03801982511681845116808217855250505050505090500191505060405180910390209050600554601e602081101515611f2557fe5b1a7f0100000000000000000000000000000000000000000000000000000000000000027effffffffffffffffffffffffffffffffffffffffffffffffffffffffffffff191681601e602081101515611f7957fe5b1a7f0100000000000000000000000000000000000000000000000000000000000000027effffffffffffffffffffffffffffffffffffffffffffffffffffffffffffff19161480156120725750600554601f602081101515611fd757fe5b1a7f0100000000000000000000000000000000000000000000000000000000000000027effffffffffffffffffffffffffffffffffffffffffffffffffffffffffffff191681601f60208110151561202b57fe5b1a7f0100000000000000000000000000000000000000000000000000000000000000027effffffffffffffffffffffffffffffffffffffffffffffffffffffffffffff1916145b156121ff576000600d6000600354815260200190815260200160002060003373ffffffffffffffffffffffffffffffffffffffff1673ffffffffffffffffffffffffffffffffffffffff1681526020019081526020016000206000018190555080600960026003811015156120e357fe5b01816000191690555060011515600260009054906101000a900473ffffffffffffffffffffffffffffffffffffffff1673ffffffffffffffffffffffffffffffffffffffff16636a627842336040518263ffffffff167c0100000000000000000000000000000000000000000000000000000000028152600401808273ffffffffffffffffffffffffffffffffffffffff1673ffffffffffffffffffffffffffffffffffffffff168152602001915050602060405180830381600087803b1580156121ad57600080fd5b505af11580156121c1573d6000803e3d6000fd5b505050506040513d60208110156121d757600080fd5b810190808051906020019092919050505015151415156121f657600080fd5b60019150612204565b600080fd5b5090565b60065481565b600160009054906101000a900473ffffffffffffffffffffffffffffffffffffffff1681565b600b81565b600080600084141561224e5760009150612270565b828402905082848281151561225f57fe5b0414151561226c57600080fd5b8091505b5092915050565b61040060405190810160405280602090602082028038833980820191505090505090565b60c0604051908101604052806000815260200160008152602001600080191681526020016000801916815260200160008019168152602001600080191681525090565b60a060405190810160405280600073ffffffffffffffffffffffffffffffffffffffff16815260200160008152602001600060ff168152602001600080191681526020016000801916815250905600a165627a7a72305820e12abd5cb99fe5e03b1bb6ceaa344dfa049a6b89e2803b180115ae7a3880bffe0029",
  "source": "pragma solidity ^0.4.24;\n\nimport \"./ERC20.sol\";\nimport \"./SafeMath.sol\";\nimport \"./RNTInterface.sol\";\n\ncontract BattleShip {\n\tusing SafeMath for uint256;\n\t// Variables\n\taddress public defender;\n\taddress public winner;\n\taddress public RNTAddr;\n\tuint constant public maxPlayer = 1000;\n\tuint constant public period = 11;\n\tuint public initHeight;\n\tbytes32 public difficulty = 0x000000000000000000000000000000ffffffffffffffffffffffffffffffffff;\n\tbytes32 public board;\n\tuint public fee = 10000000000000000;\n\tbool public setup = false;\n\tuint public playercount = 0;\n\tbytes32[3] private samGroup;\n\n\tstruct playerInfo {\n\t\taddress wallet; // msg.sender\n\t\tuint since;     // block height when joined\n\t\tuint8 v;\n\t\tbytes32 r;\n\t\tbytes32 s; \n\t}\n\n\tstruct battleStat {\n\t\tuint battle;\n\t\tuint height;\n\t\tbytes32 merkleRoot;\n\t\tbytes32 secret;\n\t\tbytes32 score;\n\t\tbytes32 bhash;\n\t}\n\n\tmapping (address => playerInfo) playerDB;\n\tmapping (uint => mapping (address => battleStat)) battleHistory;\n\n\t// Modifiers\n\tmodifier defenderOnly() {\n\t\trequire(msg.sender == defender);\n\t\t_;\n\t}\n\n\tmodifier WinnerOnly() {\n\t\trequire(winner != address(0) && msg.sender == winner);\n\t\t_;\n\t}\n\n\tmodifier NewGameOnly() {\n\t\trequire(setup == false);\n\t\t_;\n\t}\n\n\tmodifier feePaid() {\n\t\trequire(msg.value >= fee);\n\t\t_;\n\t}\n\n\tmodifier gameStarted() {\n\t\trequire(setup == true);\n\t\t_;\n\t}\n\n\tmodifier gameStalled() {\n\t\trequire(setup == true && block.number > initHeight + period && winner == address(0));\n\t\t_;\n\t}\n\n\tmodifier notDefender() {\n\t\trequire(msg.sender != defender);\n\t\t_;\n\t}\n\n\t// Contract constructor\n\tconstructor(bytes32 _init, address _RNTAddr) public payable {\n\t\trequire(msg.value >= fee);\n\t\tdefender = msg.sender;\n\t\tRNTAddr  = _RNTAddr;\n\n\t\trequire(fortify(_init) == true);\n\t}\n\n\t// WinnerOnly\n\tfunction withdraw() public WinnerOnly returns (bool) {\n\t\trequire(block.number > initHeight + period);\n\t\tsetup = false;\n\t\twinner = address(0);\n\t\tboard = bytes32(0);\n\t\tplayercount = 0;\n\n\t\tuint256 reward = uint256(address(this).balance).mul(uint256(6)) / uint256(10);\n\t\trequire(RNTInterface(RNTAddr).mint(msg.sender) == true);\n\t\trequire(msg.sender.send(reward) == true);\n\n\t\treturn true;\n\t}\n\n\tfunction randomNumber() public view returns (bytes32) {\n\t\treturn keccak256(abi.encodePacked(samGroup[0], samGroup[1], samGroup[2], blockhash(block.number - 1)));\n\t}\n\n\tfunction myInfo() public view returns (uint, uint8, bytes32, bytes32, uint) {\n\t\treturn (playerDB[msg.sender].since, playerDB[msg.sender].v, playerDB[msg.sender].r, playerDB[msg.sender].s, initHeight);\n\t}\n\n\tfunction fortify(bytes32 defense) public payable feePaid defenderOnly NewGameOnly returns (bool) {\n\t\trequire(defense > difficulty);\n\t\tplayerInfo memory newone;\n\n\t\tnewone.wallet = msg.sender;\n\t\tnewone.since  = block.number;\n\t\tboard = defense;\n\n\t\tinitHeight = block.number;\n\t\tplayerDB[msg.sender] = newone;\n\t\tplayercount += 1;\n\t\tsetup = true;\n\n\t\treturn true;\n\t}\n\n\t// Join game\n\tfunction challenge(uint8 v, bytes32 r, bytes32 s) public payable feePaid notDefender gameStarted returns (bool) {\n\t\trequire(playerDB[msg.sender].since < initHeight);\n\t\trequire(playercount + 1 <= maxPlayer);\n\n\t\tplayerInfo memory newone;\n\n\t\tnewone.wallet = msg.sender;\n\t\tnewone.since  = block.number;\n\t\tnewone.v = v; newone.r = r; newone.s = s;\n\n\t\tplayerDB[msg.sender] = newone;\n\t\tplayercount += 1;\n\n\t\treturn true;\n\t}\n\n\tfunction testOutcome(bytes32 secret, uint blockNo) public gameStarted view returns (bytes32 _board, bool[32] memory _slots) {\n\t\trequire(block.number <= initHeight + period && block.number >= initHeight);\n\t\trequire(block.number - blockNo < period - 5);\n\t\trequire(blockNo <= block.number - 1 && blockNo < initHeight + period && blockNo >= initHeight + 5);\n\n\t\t_board = keccak256(abi.encodePacked(secret, blockhash(blockNo)));\n\n\t\tfor (uint i = 0; i <= 31; i++) {\n\t\t\tif(_board[i] < board[i]) {\n\t\t\t\t_slots[i] = true;\n\t\t\t}\n\t\t}\n\n\t\treturn (_board, _slots);\n\t}\n\n\tfunction reviveReward() public gameStarted notDefender returns (bool) {\n\t\trequire(battleHistory[initHeight][msg.sender].battle == initHeight);\n\t\trequire(block.number == initHeight + period);\n\n\t\tbytes32 _board = keccak256(abi.encodePacked(battleHistory[initHeight][msg.sender].score, blockhash(block.number - 1)));\n\n\t\tif (_board[30] == board[30] && _board[31] == board[31]) {\n\t\t\tbattleHistory[initHeight][msg.sender].battle = 0;\n\t\t\tsamGroup[2] = _board;\n\t\t\trequire(RNTInterface(RNTAddr).mint(msg.sender) == true);\n\t\t\treturn true;\n\t\t} else {\n\t\t\trevert();\n\t\t}\n\t}\n\n\tfunction revealSecret(bytes32 secret, bytes32 score, bool[32] memory slots, uint blockNo) public gameStarted notDefender returns (bool) {\n\t\trequire(playerDB[msg.sender].since > initHeight);\n\t\trequire(battleHistory[initHeight][msg.sender].battle == 0);\n\t\trequire(block.number <= initHeight + period && block.number >= playerDB[msg.sender].since + 5);\n\t\trequire(block.number - blockNo < period - 5);\n\t\trequire(blockNo <= block.number - 1 && blockNo < initHeight + period && blockNo >= initHeight + 5);\n\t\trequire(ecrecover(keccak256(abi.encodePacked(\"\\x19Ethereum Signed Message:\\n32\", secret)), playerDB[msg.sender].v, playerDB[msg.sender].r, playerDB[msg.sender].s) == msg.sender);\n\n\t\tbattleStat memory newbat;\n\t\tnewbat.battle = initHeight;\n\t\tnewbat.secret = secret;\n\t\tnewbat.bhash = blockhash(blockNo);\n\t\tnewbat.score = keccak256(abi.encodePacked(secret, blockhash(blockNo))); // initialize for the loop below\n\n\t\tfor (uint i = 0; i <= 31; i++) {\n\t\t\tif(slots[i] == false) {\n\t\t\t\tassert(score[i] == board[i]);\n\t\t\t} else {\n\t\t\t\tassert(score[i] == newbat.score[i]);\n\t\t\t}\n\t\t}\n\n\t\tnewbat.score = score;\n\t\tbattleHistory[initHeight][msg.sender] = newbat;\n\n\t\t// ToDo: majority merkle root voting and checking of each submission \n\t\tif (winner == address(0) && newbat.score < board) {\n\t\t\twinner = msg.sender;\n\t\t\tsamGroup[0] = newbat.score;\n\t\t} else if (newbat.score < battleHistory[initHeight][winner].score) {\n\t\t\twinner = msg.sender;\n\t\t\tsamGroup[1] = samGroup[0];\n\t\t\tsamGroup[0] = newbat.score;\n\t\t}\n\n\t\tsamGroup[2] = newbat.score;\n\n\t\treturn true;\n\t}\n\n\t// fallback\n  \tfunction () defenderOnly gameStalled external { \n  \t    winner = defender; \n  \t    require(withdraw()); \n  \t}\n}\n",
  "sourcePath": "/workspace/GameEth/contracts/BattleShip.sol",
  "compiler": {
    "name": "solc",
    "version": "0.4.24+commit.e67f0147.Emscripten.clang"
  },
  "schemaVersion": "2.0.1",
  "updatedAt": "2019-01-08T04:36:35.284Z"
}