{
  "contractName": "BattleShip",
  "abi": [
    {
      "constant": true,
      "inputs": [],
      "name": "difficulty",
      "outputs": [
        {
          "name": "",
          "type": "bytes32"
        }
      ],
      "payable": false,
      "stateMutability": "view",
      "type": "function"
    },
    {
      "constant": true,
      "inputs": [],
      "name": "maxPlayer",
      "outputs": [
        {
          "name": "",
          "type": "uint256"
        }
      ],
      "payable": false,
      "stateMutability": "view",
      "type": "function"
    },
    {
      "constant": true,
      "inputs": [],
      "name": "playercount",
      "outputs": [
        {
          "name": "",
          "type": "uint256"
        }
      ],
      "payable": false,
      "stateMutability": "view",
      "type": "function"
    },
    {
      "constant": true,
      "inputs": [],
      "name": "board",
      "outputs": [
        {
          "name": "",
          "type": "bytes32"
        }
      ],
      "payable": false,
      "stateMutability": "view",
      "type": "function"
    },
    {
      "constant": true,
      "inputs": [],
      "name": "defender",
      "outputs": [
        {
          "name": "",
          "type": "address"
        }
      ],
      "payable": false,
      "stateMutability": "view",
      "type": "function"
    },
    {
      "constant": true,
      "inputs": [],
      "name": "initHeight",
      "outputs": [
        {
          "name": "",
          "type": "uint256"
        }
      ],
      "payable": false,
      "stateMutability": "view",
      "type": "function"
    },
    {
      "constant": true,
      "inputs": [],
      "name": "setup",
      "outputs": [
        {
          "name": "",
          "type": "bool"
        }
      ],
      "payable": false,
      "stateMutability": "view",
      "type": "function"
    },
    {
      "constant": true,
      "inputs": [],
      "name": "fee",
      "outputs": [
        {
          "name": "",
          "type": "uint256"
        }
      ],
      "payable": false,
      "stateMutability": "view",
      "type": "function"
    },
    {
      "constant": true,
      "inputs": [],
      "name": "winner",
      "outputs": [
        {
          "name": "",
          "type": "address"
        }
      ],
      "payable": false,
      "stateMutability": "view",
      "type": "function"
    },
    {
      "constant": true,
      "inputs": [],
      "name": "period",
      "outputs": [
        {
          "name": "",
          "type": "uint256"
        }
      ],
      "payable": false,
      "stateMutability": "view",
      "type": "function"
    },
    {
      "inputs": [
        {
          "name": "_init",
          "type": "bytes32"
        }
      ],
      "payable": true,
      "stateMutability": "payable",
      "type": "constructor"
    },
    {
      "payable": false,
      "stateMutability": "nonpayable",
      "type": "fallback"
    },
    {
      "constant": false,
      "inputs": [],
      "name": "withdraw",
      "outputs": [
        {
          "name": "",
          "type": "bool"
        }
      ],
      "payable": false,
      "stateMutability": "nonpayable",
      "type": "function"
    },
    {
      "constant": true,
      "inputs": [
        {
          "name": "a",
          "type": "bytes32"
        },
        {
          "name": "b",
          "type": "bytes32"
        },
        {
          "name": "slot",
          "type": "uint256"
        }
      ],
      "name": "equalTest",
      "outputs": [
        {
          "name": "",
          "type": "bytes1"
        },
        {
          "name": "",
          "type": "bytes1"
        }
      ],
      "payable": false,
      "stateMutability": "pure",
      "type": "function"
    },
    {
      "constant": true,
      "inputs": [],
      "name": "myInfo",
      "outputs": [
        {
          "name": "",
          "type": "uint256"
        },
        {
          "name": "",
          "type": "uint8"
        },
        {
          "name": "",
          "type": "bytes32"
        },
        {
          "name": "",
          "type": "bytes32"
        },
        {
          "name": "",
          "type": "uint256"
        }
      ],
      "payable": false,
      "stateMutability": "view",
      "type": "function"
    },
    {
      "constant": false,
      "inputs": [
        {
          "name": "defense",
          "type": "bytes32"
        }
      ],
      "name": "fortify",
      "outputs": [
        {
          "name": "",
          "type": "bool"
        }
      ],
      "payable": true,
      "stateMutability": "payable",
      "type": "function"
    },
    {
      "constant": false,
      "inputs": [
        {
          "name": "v",
          "type": "uint8"
        },
        {
          "name": "r",
          "type": "bytes32"
        },
        {
          "name": "s",
          "type": "bytes32"
        }
      ],
      "name": "challenge",
      "outputs": [
        {
          "name": "",
          "type": "bool"
        }
      ],
      "payable": true,
      "stateMutability": "payable",
      "type": "function"
    },
    {
      "constant": true,
      "inputs": [
        {
          "name": "secret",
          "type": "bytes32"
        },
        {
          "name": "blockNo",
          "type": "uint256"
        }
      ],
      "name": "testOutcome",
      "outputs": [
        {
          "name": "_board",
          "type": "bytes32"
        },
        {
          "name": "_slots",
          "type": "bool[32]"
        }
      ],
      "payable": false,
      "stateMutability": "view",
      "type": "function"
    },
    {
      "constant": false,
      "inputs": [
        {
          "name": "secret",
          "type": "bytes32"
        },
        {
          "name": "score",
          "type": "bytes32"
        },
        {
          "name": "slots",
          "type": "bool[32]"
        },
        {
          "name": "blockNo",
          "type": "uint256"
        }
      ],
      "name": "revealSecret",
      "outputs": [
        {
          "name": "",
          "type": "bool"
        }
      ],
      "payable": false,
      "stateMutability": "nonpayable",
      "type": "function"
    }
  ],
  "bytecode": "0x608060405270ffffffffffffffffffffffffffffffffff600102600390600019169055662386f26fc100006005556000600660006101000a81548160ff021916908315150217905550600060075560405160208062001efb8339810180604052810190808051906020019092919050505060055434101515156200008257600080fd5b336000806101000a81548173ffffffffffffffffffffffffffffffffffffffff021916908373ffffffffffffffffffffffffffffffffffffffff16021790555060011515620000e082620000f6640100000000026401000000009004565b1515141515620000ef57600080fd5b506200035a565b6000620001026200030b565b60055434101515156200011457600080fd5b6000809054906101000a900473ffffffffffffffffffffffffffffffffffffffff1673ffffffffffffffffffffffffffffffffffffffff163373ffffffffffffffffffffffffffffffffffffffff161415156200017057600080fd5b60001515600660009054906101000a900460ff1615151415156200019357600080fd5b600354600019168360001916111515620001ac57600080fd5b33816000019073ffffffffffffffffffffffffffffffffffffffff16908173ffffffffffffffffffffffffffffffffffffffff16815250504381602001818152505082600481600019169055504360028190555080600860003373ffffffffffffffffffffffffffffffffffffffff1673ffffffffffffffffffffffffffffffffffffffff16815260200190815260200160002060008201518160000160006101000a81548173ffffffffffffffffffffffffffffffffffffffff021916908373ffffffffffffffffffffffffffffffffffffffff1602179055506020820151816001015560408201518160020160006101000a81548160ff021916908360ff160217905550606082015181600301906000191690556080820151816004019060001916905590505060016007600082825401925050819055506001600660006101000a81548160ff0219169083151502179055506001915050919050565b60a060405190810160405280600073ffffffffffffffffffffffffffffffffffffffff16815260200160008152602001600060ff16815260200160008019168152602001600080191681525090565b611b91806200036a6000396000f3006080604052600436106100f1576000357c0100000000000000000000000000000000000000000000000000000000900463ffffffff16806319cae4621461025c5780631cb9409f1461028f57806334fdd273146103145780633ccfd60b146103a457806358533612146103d35780636426b1e41461040f5780636526845c1461043a5780636b180b59146105265780637cd3229a146105515780637f4c91c514610584578063805604fd146105db57806385b31d7b14610632578063a78eacdb1461068f578063ba0bba40146106ba578063ddca3f43146106e9578063dfbf53ae14610714578063ef78d4fd1461076b575b3480156100fd57600080fd5b506000809054906101000a900473ffffffffffffffffffffffffffffffffffffffff1673ffffffffffffffffffffffffffffffffffffffff163373ffffffffffffffffffffffffffffffffffffffff1614151561015957600080fd5b60011515600660009054906101000a900460ff161515148015610180575060196002540143115b80156101da5750600073ffffffffffffffffffffffffffffffffffffffff16600160009054906101000a900473ffffffffffffffffffffffffffffffffffffffff1673ffffffffffffffffffffffffffffffffffffffff16145b15156101e557600080fd5b6000809054906101000a900473ffffffffffffffffffffffffffffffffffffffff16600160006101000a81548173ffffffffffffffffffffffffffffffffffffffff021916908373ffffffffffffffffffffffffffffffffffffffff16021790555061024f610796565b151561025a57600080fd5b005b34801561026857600080fd5b5061027161093a565b60405180826000191660001916815260200191505060405180910390f35b34801561029b57600080fd5b506102c8600480360381019080803560001916906020019092919080359060200190929190505050610940565b604051808360001916600019168152602001826020800280838360005b838110156103005780820151818401526020810190506102e5565b505050509050019250505060405180910390f35b34801561032057600080fd5b5061038a60048036038101908080356000191690602001909291908035600019169060200190929190806104000190602080602002604051908101604052809291908260208002808284378201915050505050919291929080359060200190929190505050610b6c565b604051808215151515815260200191505060405180910390f35b3480156103b057600080fd5b506103b9610796565b604051808215151515815260200191505060405180910390f35b6103f5600480360381019080803560001916906020019092919050505061140a565b604051808215151515815260200191505060405180910390f35b34801561041b57600080fd5b50610424611619565b6040518082815260200191505060405180910390f35b34801561044657600080fd5b50610481600480360381019080803560001916906020019092919080356000191690602001909291908035906020019092919050505061161f565b60405180837effffffffffffffffffffffffffffffffffffffffffffffffffffffffffffff19167effffffffffffffffffffffffffffffffffffffffffffffffffffffffffffff19168152602001827effffffffffffffffffffffffffffffffffffffffffffffffffffffffffffff19167effffffffffffffffffffffffffffffffffffffffffffffffffffffffffffff191681526020019250505060405180910390f35b34801561053257600080fd5b5061053b611690565b6040518082815260200191505060405180910390f35b34801561055d57600080fd5b50610566611696565b60405180826000191660001916815260200191505060405180910390f35b34801561059057600080fd5b5061059961169c565b604051808273ffffffffffffffffffffffffffffffffffffffff1673ffffffffffffffffffffffffffffffffffffffff16815260200191505060405180910390f35b610618600480360381019080803560ff169060200190929190803560001916906020019092919080356000191690602001909291905050506116c1565b604051808215151515815260200191505060405180910390f35b34801561063e57600080fd5b50610647611930565b604051808681526020018560ff1660ff168152602001846000191660001916815260200183600019166000191681526020018281526020019550505050505060405180910390f35b34801561069b57600080fd5b506106a4611a65565b6040518082815260200191505060405180910390f35b3480156106c657600080fd5b506106cf611a6b565b604051808215151515815260200191505060405180910390f35b3480156106f557600080fd5b506106fe611a7e565b6040518082815260200191505060405180910390f35b34801561072057600080fd5b50610729611a84565b604051808273ffffffffffffffffffffffffffffffffffffffff1673ffffffffffffffffffffffffffffffffffffffff16815260200191505060405180910390f35b34801561077757600080fd5b50610780611aaa565b6040518082815260200191505060405180910390f35b60008073ffffffffffffffffffffffffffffffffffffffff16600160009054906101000a900473ffffffffffffffffffffffffffffffffffffffff1673ffffffffffffffffffffffffffffffffffffffff16141580156108435750600160009054906101000a900473ffffffffffffffffffffffffffffffffffffffff1673ffffffffffffffffffffffffffffffffffffffff163373ffffffffffffffffffffffffffffffffffffffff16145b151561084e57600080fd5b6019600254014311151561086157600080fd5b6000600660006101000a81548160ff0219169083151502179055506000600160006101000a81548173ffffffffffffffffffffffffffffffffffffffff021916908373ffffffffffffffffffffffffffffffffffffffff1602179055506000600102600481600019169055506000600781905550600115153373ffffffffffffffffffffffffffffffffffffffff166108fc3073ffffffffffffffffffffffffffffffffffffffff16319081150290604051600060405180830381858888f19350505050151514151561093357600080fd5b6001905090565b60035481565b600061094a611aaf565b600060011515600660009054906101000a900460ff16151514151561096e57600080fd5b601960025401431115801561098557506002544310155b151561099057600080fd5b60056019038443031015156109a457600080fd5b6001430384111580156109bb575060196002540184105b80156109cc57506005600254018410155b15156109d757600080fd5b8484406040516020018083600019166000191681526020018260001916600019168152602001925050506040516020818303038152906040526040518082805190602001908083835b602083101515610a455780518252602082019150602081019050602083039250610a20565b6001836020036101000a03801982511681845116808217855250505050505090500191505060405180910390209250600090505b601f81111515610b5e5760045481602081101515610a9357fe5b1a7f0100000000000000000000000000000000000000000000000000000000000000027effffffffffffffffffffffffffffffffffffffffffffffffffffffffffffff19168382602081101515610ae657fe5b1a7f0100000000000000000000000000000000000000000000000000000000000000027effffffffffffffffffffffffffffffffffffffffffffffffffffffffffffff19161015610b515760018282602081101515610b4157fe5b6020020190151590811515815250505b8080600101915050610a79565b828292509250509250929050565b6000610b76611ad3565b600060011515600660009054906101000a900460ff161515141515610b9a57600080fd5b6000809054906101000a900473ffffffffffffffffffffffffffffffffffffffff1673ffffffffffffffffffffffffffffffffffffffff163373ffffffffffffffffffffffffffffffffffffffff1614151515610bf657600080fd5b600254600860003373ffffffffffffffffffffffffffffffffffffffff1673ffffffffffffffffffffffffffffffffffffffff16815260200190815260200160002060010154111515610c4857600080fd5b6019600254014311158015610ca257506005600860003373ffffffffffffffffffffffffffffffffffffffff1673ffffffffffffffffffffffffffffffffffffffff16815260200190815260200160002060010154014310155b1515610cad57600080fd5b6005601903844303101515610cc157600080fd5b600143038411158015610cd8575060196002540184105b8015610ce957506005600254018410155b1515610cf457600080fd5b3373ffffffffffffffffffffffffffffffffffffffff1660018860405160200180807f19457468657265756d205369676e6564204d6573736167653a0a333200000000815250601c0182600019166000191681526020019150506040516020818303038152906040526040518082805190602001908083835b602083101515610d925780518252602082019150602081019050602083039250610d6d565b6001836020036101000a0380198251168184511680821785525050505050509050019150506040518091039020600860003373ffffffffffffffffffffffffffffffffffffffff1673ffffffffffffffffffffffffffffffffffffffff16815260200190815260200160002060020160009054906101000a900460ff16600860003373ffffffffffffffffffffffffffffffffffffffff1673ffffffffffffffffffffffffffffffffffffffff16815260200190815260200160002060030154600860003373ffffffffffffffffffffffffffffffffffffffff1673ffffffffffffffffffffffffffffffffffffffff16815260200190815260200160002060040154604051600081526020016040526040518085600019166000191681526020018460ff1660ff1681526020018360001916600019168152602001826000191660001916815260200194505050505060206040516020810390808403906000865af1158015610f06573d6000803e3d6000fd5b5050506020604051035173ffffffffffffffffffffffffffffffffffffffff16141515610f3257600080fd5b600254826000018181525050868260600190600019169081600019168152505083408260a0019060001916908160001916815250508684406040516020018083600019166000191681526020018260001916600019168152602001925050506040516020818303038152906040526040518082805190602001908083835b602083101515610fd55780518252602082019150602081019050602083039250610fb0565b6001836020036101000a038019825116818451168082178552505050505050905001915050604051809103902082608001906000191690816000191681525050600090505b601f811115156111ba5760001515858260208110151561103657fe5b6020020151151514156110f9576004548160208110151561105357fe5b1a7f0100000000000000000000000000000000000000000000000000000000000000027effffffffffffffffffffffffffffffffffffffffffffffffffffffffffffff191686826020811015156110a657fe5b1a7f0100000000000000000000000000000000000000000000000000000000000000027effffffffffffffffffffffffffffffffffffffffffffffffffffffffffffff19161415156110f457fe5b6111ad565b81608001518160208110151561110b57fe5b1a7f0100000000000000000000000000000000000000000000000000000000000000027effffffffffffffffffffffffffffffffffffffffffffffffffffffffffffff1916868260208110151561115e57fe5b1a7f0100000000000000000000000000000000000000000000000000000000000000027effffffffffffffffffffffffffffffffffffffffffffffffffffffffffffff19161415156111ac57fe5b5b808060010191505061101a565b85826080019060001916908160001916815250508160096000600254815260200190815260200160002060003373ffffffffffffffffffffffffffffffffffffffff1673ffffffffffffffffffffffffffffffffffffffff168152602001908152602001600020600082015181600001556020820151816001015560408201518160020190600019169055606082015181600301906000191690556080820151816004019060001916905560a08201518160050190600019169055905050600073ffffffffffffffffffffffffffffffffffffffff16600160009054906101000a900473ffffffffffffffffffffffffffffffffffffffff1673ffffffffffffffffffffffffffffffffffffffff161480156112e3575060045460001916826080015160001916105b1561132e5733600160006101000a81548173ffffffffffffffffffffffffffffffffffffffff021916908373ffffffffffffffffffffffffffffffffffffffff1602179055506113fc565b6009600060025481526020019081526020016000206000600160009054906101000a900473ffffffffffffffffffffffffffffffffffffffff1673ffffffffffffffffffffffffffffffffffffffff1673ffffffffffffffffffffffffffffffffffffffff168152602001908152602001600020600401546000191682608001516000191610156113fb5733600160006101000a81548173ffffffffffffffffffffffffffffffffffffffff021916908373ffffffffffffffffffffffffffffffffffffffff1602179055505b5b600192505050949350505050565b6000611414611b16565b600554341015151561142557600080fd5b6000809054906101000a900473ffffffffffffffffffffffffffffffffffffffff1673ffffffffffffffffffffffffffffffffffffffff163373ffffffffffffffffffffffffffffffffffffffff1614151561148057600080fd5b60001515600660009054906101000a900460ff1615151415156114a257600080fd5b6003546000191683600019161115156114ba57600080fd5b33816000019073ffffffffffffffffffffffffffffffffffffffff16908173ffffffffffffffffffffffffffffffffffffffff16815250504381602001818152505082600481600019169055504360028190555080600860003373ffffffffffffffffffffffffffffffffffffffff1673ffffffffffffffffffffffffffffffffffffffff16815260200190815260200160002060008201518160000160006101000a81548173ffffffffffffffffffffffffffffffffffffffff021916908373ffffffffffffffffffffffffffffffffffffffff1602179055506020820151816001015560408201518160020160006101000a81548160ff021916908360ff160217905550606082015181600301906000191690556080820151816004019060001916905590505060016007600082825401925050819055506001600660006101000a81548160ff0219169083151502179055506001915050919050565b6103e881565b600080848360208110151561163057fe5b1a7f010000000000000000000000000000000000000000000000000000000000000002848460208110151561166157fe5b1a7f01000000000000000000000000000000000000000000000000000000000000000291509150935093915050565b60075481565b60045481565b6000809054906101000a900473ffffffffffffffffffffffffffffffffffffffff1681565b60006116cb611b16565b60055434101515156116dc57600080fd5b6000809054906101000a900473ffffffffffffffffffffffffffffffffffffffff1673ffffffffffffffffffffffffffffffffffffffff163373ffffffffffffffffffffffffffffffffffffffff161415151561173857600080fd5b60011515600660009054906101000a900460ff16151514151561175a57600080fd5b600254600860003373ffffffffffffffffffffffffffffffffffffffff1673ffffffffffffffffffffffffffffffffffffffff168152602001908152602001600020600101541015156117ac57600080fd5b6103e8600160075401111515156117c257600080fd5b33816000019073ffffffffffffffffffffffffffffffffffffffff16908173ffffffffffffffffffffffffffffffffffffffff16815250504381602001818152505084816040019060ff16908160ff16815250508381606001906000191690816000191681525050828160800190600019169081600019168152505080600860003373ffffffffffffffffffffffffffffffffffffffff1673ffffffffffffffffffffffffffffffffffffffff16815260200190815260200160002060008201518160000160006101000a81548173ffffffffffffffffffffffffffffffffffffffff021916908373ffffffffffffffffffffffffffffffffffffffff1602179055506020820151816001015560408201518160020160006101000a81548160ff021916908360ff1602179055506060820151816003019060001916905560808201518160040190600019169055905050600160076000828254019250508190555060019150509392505050565b6000806000806000600860003373ffffffffffffffffffffffffffffffffffffffff1673ffffffffffffffffffffffffffffffffffffffff16815260200190815260200160002060010154600860003373ffffffffffffffffffffffffffffffffffffffff1673ffffffffffffffffffffffffffffffffffffffff16815260200190815260200160002060020160009054906101000a900460ff16600860003373ffffffffffffffffffffffffffffffffffffffff1673ffffffffffffffffffffffffffffffffffffffff16815260200190815260200160002060030154600860003373ffffffffffffffffffffffffffffffffffffffff1673ffffffffffffffffffffffffffffffffffffffff16815260200190815260200160002060040154600254945094509450945094509091929394565b60025481565b600660009054906101000a900460ff1681565b60055481565b600160009054906101000a900473ffffffffffffffffffffffffffffffffffffffff1681565b601981565b61040060405190810160405280602090602082028038833980820191505090505090565b60c0604051908101604052806000815260200160008152602001600080191681526020016000801916815260200160008019168152602001600080191681525090565b60a060405190810160405280600073ffffffffffffffffffffffffffffffffffffffff16815260200160008152602001600060ff168152602001600080191681526020016000801916815250905600a165627a7a72305820809e44e0543e3e99c33d890cfafcaa164494fa4aa54b407d03f883b8c24ed7440029",
  "source": "pragma solidity ^0.4.24;\n\nimport \"./ERC20.sol\";\n\ncontract BattleShip {\n\t// Variables\n\taddress public defender;\n\taddress public winner;\n\tuint constant public maxPlayer = 1000;\n\tuint constant public period = 25;\n\tuint public initHeight;\n\tbytes32 public difficulty = 0x000000000000000000000000000000ffffffffffffffffffffffffffffffffff;\n\tbytes32 public board;\n\tuint public fee = 10000000000000000;\n\tbool public setup = false;\n\tuint public playercount = 0;\n\n\tstruct playerInfo {\n\t\taddress wallet; // msg.sender\n\t\tuint since;     // block height when joined\n\t\tuint8 v;\n\t\tbytes32 r;\n\t\tbytes32 s; \n\t}\n\n\tstruct battleStat {\n\t\tuint battle;\n\t\tuint height;\n\t\tbytes32 merkleRoot;\n\t\tbytes32 secret;\n\t\tbytes32 score;\n\t\tbytes32 bhash;\n\t}\n\n\tmapping (address => playerInfo) playerDB;\n\tmapping (uint => mapping (address => battleStat)) battleHistory;\n\n\t// Modifiers\n\tmodifier defenderOnly() {\n\t\trequire(msg.sender == defender);\n\t\t_;\n\t}\n\n\tmodifier WinnerOnly() {\n\t\trequire(winner != address(0) && msg.sender == winner);\n\t\t_;\n\t}\n\n\tmodifier NewGameOnly() {\n\t\trequire(setup == false);\n\t\t_;\n\t}\n\n\tmodifier feePaid() {\n\t\trequire(msg.value >= fee);\n\t\t_;\n\t}\n\n\tmodifier gameStarted() {\n\t\trequire(setup == true);\n\t\t_;\n\t}\n\n\tmodifier gameStalled() {\n\t\trequire(setup == true && block.number > initHeight + period && winner == address(0));\n\t\t_;\n\t}\n\n\tmodifier notDefender() {\n\t\trequire(msg.sender != defender);\n\t\t_;\n\t}\n\n\t// Contract constructor\n\tconstructor(bytes32 _init) public payable {\n\t\trequire(msg.value >= fee);\n\t\tdefender = msg.sender;\n\n\t\trequire(fortify(_init) == true);\n\t}\n\n\t// WinnerOnly\n\tfunction withdraw() public WinnerOnly returns (bool) {\n\t\trequire(block.number > initHeight + period);\n\t\tsetup = false;\n\t\twinner = address(0);\n\t\tboard = bytes32(0);\n\t\tplayercount = 0;\n\t\trequire(msg.sender.send(address(this).balance) == true);\n\n\t\treturn true;\n\t}\n\n\t// Constant functions\n\tfunction equalTest(bytes32 a, bytes32 b, uint slot) public pure returns (byte, byte) {\n\t\treturn (a[slot], b[slot]);\n\t}\n\n\tfunction myInfo() public view returns (uint, uint8, bytes32, bytes32, uint) {\n\t\treturn (playerDB[msg.sender].since, playerDB[msg.sender].v, playerDB[msg.sender].r, playerDB[msg.sender].s, initHeight);\n\t}\n\n\tfunction fortify(bytes32 defense) public payable feePaid defenderOnly NewGameOnly returns (bool) {\n\t\trequire(defense > difficulty);\n\t\tplayerInfo memory newone;\n\n\t\tnewone.wallet = msg.sender;\n\t\tnewone.since  = block.number;\n\t\tboard = defense;\n\n\t\tinitHeight = block.number;\n\t\tplayerDB[msg.sender] = newone;\n\t\tplayercount += 1;\n\t\tsetup = true;\n\n\t\treturn true;\n\t}\n\n\t// Join game\n\tfunction challenge(uint8 v, bytes32 r, bytes32 s) public payable feePaid notDefender gameStarted returns (bool) {\n\t\trequire(playerDB[msg.sender].since < initHeight);\n\t\trequire(playercount + 1 <= maxPlayer);\n\n\t\tplayerInfo memory newone;\n\n\t\tnewone.wallet = msg.sender;\n\t\tnewone.since  = block.number;\n\t\tnewone.v = v; newone.r = r; newone.s = s;\n\n\t\tplayerDB[msg.sender] = newone;\n\t\tplayercount += 1;\n\n\t\treturn true;\n\t}\n\n\tfunction testOutcome(bytes32 secret, uint blockNo) public gameStarted view returns (bytes32 _board, bool[32] memory _slots) {\n\t\trequire(block.number <= initHeight + period && block.number >= initHeight);\n\t\trequire(block.number - blockNo < period - 5);\n\t\trequire(blockNo <= block.number - 1 && blockNo < initHeight + period && blockNo >= initHeight + 5);\n\n\t\t_board = keccak256(abi.encodePacked(secret, blockhash(blockNo)));\n\n\t\tfor (uint i = 0; i <= 31; i++) {\n\t\t\tif(_board[i] < board[i]) {\n\t\t\t\t_slots[i] = true;\n\t\t\t}\n\t\t}\n\n\t\treturn (_board, _slots);\n\t}\n\n\tfunction revealSecret(bytes32 secret, bytes32 score, bool[32] memory slots, uint blockNo) public gameStarted notDefender returns (bool) {\n\t\trequire(playerDB[msg.sender].since > initHeight);\n\t\trequire(block.number <= initHeight + period && block.number >= playerDB[msg.sender].since + 5);\n\t\trequire(block.number - blockNo < period - 5);\n\t\trequire(blockNo <= block.number - 1 && blockNo < initHeight + period && blockNo >= initHeight + 5);\n\t\trequire(ecrecover(keccak256(abi.encodePacked(\"\\x19Ethereum Signed Message:\\n32\", secret)), playerDB[msg.sender].v, playerDB[msg.sender].r, playerDB[msg.sender].s) == msg.sender);\n\n\t\tbattleStat memory newbat;\n\t\tnewbat.battle = initHeight;\n\t\tnewbat.secret = secret;\n\t\tnewbat.bhash = blockhash(blockNo);\n\t\tnewbat.score = keccak256(abi.encodePacked(secret, blockhash(blockNo))); // initialize for the loop below\n\n\t\tfor (uint i = 0; i <= 31; i++) {\n\t\t\tif(slots[i] == false) {\n\t\t\t\tassert(score[i] == board[i]);\n\t\t\t} else {\n\t\t\t\tassert(score[i] == newbat.score[i]);\n\t\t\t}\n\t\t}\n\n\t\tnewbat.score = score;\n\t\tbattleHistory[initHeight][msg.sender] = newbat;\n\n\t\t// ToDo: majority merkle root voting and checking of each submission \n\t\tif (winner == address(0) && newbat.score < board) {\n\t\t\twinner = msg.sender;\n\t\t} else if (newbat.score < battleHistory[initHeight][winner].score) {\n\t\t\twinner = msg.sender;\n\t\t}\n\n\t\treturn true;\n\t}\n\n\t// fallback\n  \tfunction () defenderOnly gameStalled external { \n  \t    winner = defender; \n  \t    require(withdraw()); \n  \t}\n}\n",
  "sourcePath": "/workspace/GameEth/contracts/BattleShip.sol",
  "compiler": {
    "name": "solc",
    "version": "0.4.24+commit.e67f0147.Emscripten.clang"
  },
  "schemaVersion": "2.0.1",
  "updatedAt": "2018-12-27T19:55:34.959Z"
}