{
  "contractName": "BattleShip",
  "abi": [
    {
      "constant": true,
      "inputs": [],
      "name": "difficulty",
      "outputs": [
        {
          "name": "",
          "type": "bytes32"
        }
      ],
      "payable": false,
      "stateMutability": "view",
      "type": "function"
    },
    {
      "constant": true,
      "inputs": [],
      "name": "validator",
      "outputs": [
        {
          "name": "",
          "type": "address"
        }
      ],
      "payable": false,
      "stateMutability": "view",
      "type": "function"
    },
    {
      "constant": true,
      "inputs": [],
      "name": "debug2",
      "outputs": [
        {
          "name": "",
          "type": "bool"
        }
      ],
      "payable": false,
      "stateMutability": "view",
      "type": "function"
    },
    {
      "constant": true,
      "inputs": [],
      "name": "debug3",
      "outputs": [
        {
          "name": "",
          "type": "bool"
        }
      ],
      "payable": false,
      "stateMutability": "view",
      "type": "function"
    },
    {
      "constant": true,
      "inputs": [],
      "name": "maxPlayer",
      "outputs": [
        {
          "name": "",
          "type": "uint256"
        }
      ],
      "payable": false,
      "stateMutability": "view",
      "type": "function"
    },
    {
      "constant": true,
      "inputs": [],
      "name": "playercount",
      "outputs": [
        {
          "name": "",
          "type": "uint256"
        }
      ],
      "payable": false,
      "stateMutability": "view",
      "type": "function"
    },
    {
      "constant": true,
      "inputs": [],
      "name": "board",
      "outputs": [
        {
          "name": "",
          "type": "bytes32"
        }
      ],
      "payable": false,
      "stateMutability": "view",
      "type": "function"
    },
    {
      "constant": true,
      "inputs": [],
      "name": "debug1",
      "outputs": [
        {
          "name": "",
          "type": "bool"
        }
      ],
      "payable": false,
      "stateMutability": "view",
      "type": "function"
    },
    {
      "constant": true,
      "inputs": [],
      "name": "defender",
      "outputs": [
        {
          "name": "",
          "type": "address"
        }
      ],
      "payable": false,
      "stateMutability": "view",
      "type": "function"
    },
    {
      "constant": true,
      "inputs": [],
      "name": "ticketSeed",
      "outputs": [
        {
          "name": "",
          "type": "bytes32"
        }
      ],
      "payable": false,
      "stateMutability": "view",
      "type": "function"
    },
    {
      "constant": true,
      "inputs": [],
      "name": "debug5",
      "outputs": [
        {
          "name": "",
          "type": "bool"
        }
      ],
      "payable": false,
      "stateMutability": "view",
      "type": "function"
    },
    {
      "constant": true,
      "inputs": [],
      "name": "period_all",
      "outputs": [
        {
          "name": "",
          "type": "uint256"
        }
      ],
      "payable": false,
      "stateMutability": "view",
      "type": "function"
    },
    {
      "constant": true,
      "inputs": [],
      "name": "initHeight",
      "outputs": [
        {
          "name": "",
          "type": "uint256"
        }
      ],
      "payable": false,
      "stateMutability": "view",
      "type": "function"
    },
    {
      "constant": true,
      "inputs": [],
      "name": "debug4",
      "outputs": [
        {
          "name": "",
          "type": "bool"
        }
      ],
      "payable": false,
      "stateMutability": "view",
      "type": "function"
    },
    {
      "constant": true,
      "inputs": [],
      "name": "setup",
      "outputs": [
        {
          "name": "",
          "type": "bool"
        }
      ],
      "payable": false,
      "stateMutability": "view",
      "type": "function"
    },
    {
      "constant": true,
      "inputs": [],
      "name": "prevboard",
      "outputs": [
        {
          "name": "",
          "type": "bytes32"
        }
      ],
      "payable": false,
      "stateMutability": "view",
      "type": "function"
    },
    {
      "constant": true,
      "inputs": [],
      "name": "fee",
      "outputs": [
        {
          "name": "",
          "type": "uint256"
        }
      ],
      "payable": false,
      "stateMutability": "view",
      "type": "function"
    },
    {
      "constant": true,
      "inputs": [],
      "name": "winner",
      "outputs": [
        {
          "name": "",
          "type": "address"
        }
      ],
      "payable": false,
      "stateMutability": "view",
      "type": "function"
    },
    {
      "inputs": [
        {
          "name": "_init",
          "type": "bytes32"
        }
      ],
      "payable": true,
      "stateMutability": "payable",
      "type": "constructor"
    },
    {
      "payable": false,
      "stateMutability": "nonpayable",
      "type": "fallback"
    },
    {
      "constant": false,
      "inputs": [],
      "name": "withdraw",
      "outputs": [
        {
          "name": "",
          "type": "bool"
        }
      ],
      "payable": false,
      "stateMutability": "nonpayable",
      "type": "function"
    },
    {
      "constant": false,
      "inputs": [
        {
          "name": "_debug1",
          "type": "bool"
        },
        {
          "name": "_debug2",
          "type": "bool"
        },
        {
          "name": "_debug3",
          "type": "bool"
        },
        {
          "name": "_debug4",
          "type": "bool"
        },
        {
          "name": "_debug5",
          "type": "bool"
        }
      ],
      "name": "debugParams",
      "outputs": [
        {
          "name": "",
          "type": "bool"
        }
      ],
      "payable": false,
      "stateMutability": "nonpayable",
      "type": "function"
    },
    {
      "constant": false,
      "inputs": [
        {
          "name": "secret",
          "type": "bytes32"
        },
        {
          "name": "slots",
          "type": "string"
        },
        {
          "name": "blockNo",
          "type": "uint256"
        },
        {
          "name": "submitBlocks",
          "type": "uint256[]"
        },
        {
          "name": "winningTickets",
          "type": "uint256[]"
        },
        {
          "name": "proof",
          "type": "bytes32[]"
        },
        {
          "name": "isLeft",
          "type": "bool[]"
        },
        {
          "name": "score",
          "type": "bytes32"
        },
        {
          "name": "claimHash",
          "type": "bytes32"
        }
      ],
      "name": "claimLotteReward",
      "outputs": [
        {
          "name": "",
          "type": "bool"
        }
      ],
      "payable": false,
      "stateMutability": "nonpayable",
      "type": "function"
    },
    {
      "constant": true,
      "inputs": [
        {
          "name": "_board",
          "type": "bytes32"
        },
        {
          "name": "submitBlocks",
          "type": "uint256[]"
        },
        {
          "name": "winningTickets",
          "type": "uint256[]"
        },
        {
          "name": "genTickets",
          "type": "bytes32[]"
        }
      ],
      "name": "verifyWinnumber",
      "outputs": [
        {
          "name": "",
          "type": "bool"
        }
      ],
      "payable": false,
      "stateMutability": "view",
      "type": "function"
    },
    {
      "constant": true,
      "inputs": [
        {
          "name": "score",
          "type": "bytes32"
        },
        {
          "name": "numTickets",
          "type": "uint256"
        }
      ],
      "name": "generateTickets",
      "outputs": [
        {
          "name": "",
          "type": "bytes32[]"
        }
      ],
      "payable": false,
      "stateMutability": "view",
      "type": "function"
    },
    {
      "constant": true,
      "inputs": [
        {
          "name": "score",
          "type": "bytes32"
        }
      ],
      "name": "getNumOfTickets",
      "outputs": [
        {
          "name": "",
          "type": "uint256"
        }
      ],
      "payable": false,
      "stateMutability": "pure",
      "type": "function"
    },
    {
      "constant": true,
      "inputs": [
        {
          "name": "_addr",
          "type": "address"
        }
      ],
      "name": "getPlayerInfo",
      "outputs": [
        {
          "name": "",
          "type": "uint256"
        },
        {
          "name": "",
          "type": "bytes32"
        },
        {
          "name": "",
          "type": "bool"
        }
      ],
      "payable": false,
      "stateMutability": "view",
      "type": "function"
    },
    {
      "constant": false,
      "inputs": [
        {
          "name": "defense",
          "type": "bytes32"
        }
      ],
      "name": "fortify",
      "outputs": [
        {
          "name": "",
          "type": "bool"
        }
      ],
      "payable": true,
      "stateMutability": "payable",
      "type": "function"
    },
    {
      "constant": false,
      "inputs": [
        {
          "name": "scoreHash",
          "type": "bytes32"
        }
      ],
      "name": "challenge",
      "outputs": [
        {
          "name": "",
          "type": "bool"
        }
      ],
      "payable": true,
      "stateMutability": "payable",
      "type": "function"
    },
    {
      "constant": true,
      "inputs": [
        {
          "name": "secret",
          "type": "bytes32"
        },
        {
          "name": "blockNo",
          "type": "uint256"
        }
      ],
      "name": "testOutcome",
      "outputs": [
        {
          "name": "_board",
          "type": "bytes32"
        },
        {
          "name": "_slots",
          "type": "bool[32]"
        }
      ],
      "payable": false,
      "stateMutability": "view",
      "type": "function"
    },
    {
      "constant": true,
      "inputs": [
        {
          "name": "blockNo",
          "type": "uint256"
        },
        {
          "name": "_board",
          "type": "bytes32"
        }
      ],
      "name": "winningNumber",
      "outputs": [
        {
          "name": "",
          "type": "bytes32"
        }
      ],
      "payable": false,
      "stateMutability": "view",
      "type": "function"
    },
    {
      "constant": true,
      "inputs": [
        {
          "name": "proof",
          "type": "bytes32[]"
        },
        {
          "name": "isLeft",
          "type": "bool[]"
        },
        {
          "name": "targetLeaf",
          "type": "bytes32"
        },
        {
          "name": "_merkleRoot",
          "type": "bytes32"
        }
      ],
      "name": "merkleTreeValidator",
      "outputs": [
        {
          "name": "",
          "type": "bool"
        }
      ],
      "payable": false,
      "stateMutability": "pure",
      "type": "function"
    },
    {
      "constant": false,
      "inputs": [
        {
          "name": "_initHeight",
          "type": "uint256"
        },
        {
          "name": "_merkleRoot",
          "type": "bytes32"
        },
        {
          "name": "_ipfsAddr",
          "type": "string"
        }
      ],
      "name": "submitMerkleRoot",
      "outputs": [
        {
          "name": "",
          "type": "bool"
        }
      ],
      "payable": false,
      "stateMutability": "nonpayable",
      "type": "function"
    },
    {
      "constant": true,
      "inputs": [
        {
          "name": "_initHeight",
          "type": "uint256"
        }
      ],
      "name": "getBlockInfo",
      "outputs": [
        {
          "name": "",
          "type": "bytes32"
        },
        {
          "name": "",
          "type": "string"
        }
      ],
      "payable": false,
      "stateMutability": "view",
      "type": "function"
    },
    {
      "constant": true,
      "inputs": [
        {
          "name": "blockNo",
          "type": "uint256"
        }
      ],
      "name": "getBlockhash",
      "outputs": [
        {
          "name": "",
          "type": "bytes32"
        }
      ],
      "payable": false,
      "stateMutability": "view",
      "type": "function"
    },
    {
      "constant": true,
      "inputs": [
        {
          "name": "secret",
          "type": "bytes32"
        },
        {
          "name": "slotString",
          "type": "string"
        },
        {
          "name": "blockNo",
          "type": "uint256"
        },
        {
          "name": "_board",
          "type": "bytes32"
        }
      ],
      "name": "getScore",
      "outputs": [
        {
          "name": "",
          "type": "bytes"
        }
      ],
      "payable": false,
      "stateMutability": "view",
      "type": "function"
    },
    {
      "constant": false,
      "inputs": [
        {
          "name": "_newValidator",
          "type": "address"
        }
      ],
      "name": "newValidator",
      "outputs": [
        {
          "name": "",
          "type": "bool"
        }
      ],
      "payable": false,
      "stateMutability": "nonpayable",
      "type": "function"
    },
    {
      "constant": false,
      "inputs": [
        {
          "name": "_newDefender",
          "type": "address"
        }
      ],
      "name": "newDefender",
      "outputs": [
        {
          "name": "",
          "type": "bool"
        }
      ],
      "payable": false,
      "stateMutability": "nonpayable",
      "type": "function"
    }
  ],
  "bytecode": "0x60806040527dffffffffffffffffffffffffffffffffffffffffffffffffffffffffffff600102600490600019169055662386f26fc100006005556000600660006101000a81548160ff02191690831515021790555060006007556000600d60006101000a81548160ff0219169083151502179055506001600d60016101000a81548160ff0219169083151502179055506001600d60026101000a81548160ff0219169083151502179055506001600d60036101000a81548160ff0219169083151502179055506001600d60046101000a81548160ff02191690831515021790555060405160208062003d198339810180604052810190808051906020019092919050505060055434101515156200011657600080fd5b336000806101000a81548173ffffffffffffffffffffffffffffffffffffffff021916908373ffffffffffffffffffffffffffffffffffffffff16021790555033600260006101000a81548173ffffffffffffffffffffffffffffffffffffffff021916908373ffffffffffffffffffffffffffffffffffffffff16021790555060011515620001b582620001cb640100000000026401000000009004565b1515141515620001c457600080fd5b50620003b2565b60006005543410151515620001df57600080fd5b6000809054906101000a900473ffffffffffffffffffffffffffffffffffffffff1673ffffffffffffffffffffffffffffffffffffffff163373ffffffffffffffffffffffffffffffffffffffff161415156200023b57600080fd5b60001515600660009054906101000a900460ff1615151415156200025e57600080fd5b6004546000191682600019161115156200027757600080fd5b6000600160006101000a81548173ffffffffffffffffffffffffffffffffffffffff021916908373ffffffffffffffffffffffffffffffffffffffff160217905550436003819055506060604051908101604052806003548152602001600060010260001916815260200160001515815250600b60003373ffffffffffffffffffffffffffffffffffffffff1673ffffffffffffffffffffffffffffffffffffffff168152602001908152602001600020600082015181600001556020820151816001019060001916905560408201518160020160006101000a81548160ff02191690831515021790555090505060016007600082825401925050819055506001600660006101000a81548160ff021916908315150217905550600954600a8160001916905550816009816000191690555060019050919050565b61395780620003c26000396000f3006080604052600436106101c2576000357c0100000000000000000000000000000000000000000000000000000000900463ffffffff168063065c11cc1461039b578063113097ad146103f657806319cae462146105085780631cb9409f1461053b5780633a5381b5146105c05780633ccfd60b14610617578063585336121461064657806359328401146106825780635ba88c28146106f35780635c0effb214610722578063610da891146107675780636426b1e4146107965780636b180b59146107c15780637cd3229a146107ec5780637dc7c5a51461081f5780637f4c91c51461084e5780638186a8f9146108a55780639b76d3f9146108d8578063a4dd1d7d14610907578063a78eacdb14610932578063afde797c1461095d578063b04cd588146109b4578063b70902bc14610a4d578063b8f69e3714610a7c578063ba0bba4014610b59578063babb3b1314610b88578063bb141cf414610d49578063c13375db14610dfe578063cff483b914610e8e578063cffd46dc14610ec1578063ddca3f4314610efd578063dfbf53ae14610f28578063e9413d3814610f7f578063ed6f62b714610fc8578063ed958671146110d0578063fbe5f6471461112b575b3480156101ce57600080fd5b506000809054906101000a900473ffffffffffffffffffffffffffffffffffffffff1673ffffffffffffffffffffffffffffffffffffffff163373ffffffffffffffffffffffffffffffffffffffff1614151561022a57600080fd5b60011515600660009054906101000a900460ff1615151480156102515750600a6003540143115b80156102ab5750600073ffffffffffffffffffffffffffffffffffffffff16600160009054906101000a900473ffffffffffffffffffffffffffffffffffffffff1673ffffffffffffffffffffffffffffffffffffffff16145b15156102b657600080fd5b6000809054906101000a900473ffffffffffffffffffffffffffffffffffffffff16600160006101000a81548173ffffffffffffffffffffffffffffffffffffffff021916908373ffffffffffffffffffffffffffffffffffffffff1602179055506000600660006101000a81548160ff0219169083151502179055506000600781905550600115153373ffffffffffffffffffffffffffffffffffffffff166108fc3073ffffffffffffffffffffffffffffffffffffffff16319081150290604051600060405180830381858888f19350505050151514151561039957600080fd5b005b3480156103a757600080fd5b506103dc600480360381019080803573ffffffffffffffffffffffffffffffffffffffff1690602001909291905050506111a2565b604051808215151515815260200191505060405180910390f35b34801561040257600080fd5b506104ee6004803603810190808035600019169060200190929190803590602001908201803590602001908080602002602001604051908101604052809392919081815260200183836020028082843782019150505050505091929192908035906020019082018035906020019080806020026020016040519081016040528093929190818152602001838360200280828437820191505050505050919291929080359060200190820180359060200190808060200260200160405190810160405280939291908181526020018383602002808284378201915050505050509192919290505050611285565b604051808215151515815260200191505060405180910390f35b34801561051457600080fd5b5061051d611467565b60405180826000191660001916815260200191505060405180910390f35b34801561054757600080fd5b5061057460048036038101908080356000191690602001909291908035906020019092919050505061146d565b604051808360001916600019168152602001826020800280838360005b838110156105ac578082015181840152602081019050610591565b505050509050019250505060405180910390f35b3480156105cc57600080fd5b506105d5611816565b604051808273ffffffffffffffffffffffffffffffffffffffff1673ffffffffffffffffffffffffffffffffffffffff16815260200191505060405180910390f35b34801561062357600080fd5b5061062c61183c565b604051808215151515815260200191505060405180910390f35b6106686004803603810190808035600019169060200190929190505050611a69565b604051808215151515815260200191505060405180910390f35b34801561068e57600080fd5b506106c3600480360381019080803573ffffffffffffffffffffffffffffffffffffffff169060200190929190505050611c4c565b60405180848152602001836000191660001916815260200182151515158152602001935050505060405180910390f35b3480156106ff57600080fd5b50610708611d34565b604051808215151515815260200191505060405180910390f35b34801561072e57600080fd5b506107516004803603810190808035600019169060200190929190505050611d47565b6040518082815260200191505060405180910390f35b34801561077357600080fd5b5061077c611e2d565b604051808215151515815260200191505060405180910390f35b3480156107a257600080fd5b506107ab611e40565b6040518082815260200191505060405180910390f35b3480156107cd57600080fd5b506107d6611e46565b6040518082815260200191505060405180910390f35b3480156107f857600080fd5b50610801611e4c565b60405180826000191660001916815260200191505060405180910390f35b34801561082b57600080fd5b50610834611e52565b604051808215151515815260200191505060405180910390f35b34801561085a57600080fd5b50610863611e65565b604051808273ffffffffffffffffffffffffffffffffffffffff1673ffffffffffffffffffffffffffffffffffffffff16815260200191505060405180910390f35b3480156108b157600080fd5b506108ba611e8a565b60405180826000191660001916815260200191505060405180910390f35b3480156108e457600080fd5b506108ed611e90565b604051808215151515815260200191505060405180910390f35b34801561091357600080fd5b5061091c611ea3565b6040518082815260200191505060405180910390f35b34801561093e57600080fd5b50610947611ea8565b6040518082815260200191505060405180910390f35b34801561096957600080fd5b50610996600480360381019080803590602001909291908035600019169060200190929190505050611eae565b60405180826000191660001916815260200191505060405180910390f35b3480156109c057600080fd5b50610a33600480360381019080803590602001909291908035600019169060200190929190803590602001908201803590602001908080601f0160208091040260200160405190810160405280939291908181526020018383808284378201915050505050509192919290505050611f65565b604051808215151515815260200191505060405180910390f35b348015610a5957600080fd5b50610a626120b7565b604051808215151515815260200191505060405180910390f35b348015610a8857600080fd5b50610b3f6004803603810190808035906020019082018035906020019080806020026020016040519081016040528093929190818152602001838360200280828437820191505050505050919291929080359060200190820180359060200190808060200260200160405190810160405280939291908181526020018383602002808284378201915050505050509192919290803560001916906020019092919080356000191690602001909291905050506120ca565b604051808215151515815260200191505060405180910390f35b348015610b6557600080fd5b50610b6e6122c8565b604051808215151515815260200191505060405180910390f35b348015610b9457600080fd5b50610d2f6004803603810190808035600019169060200190929190803590602001908201803590602001908080601f01602080910402602001604051908101604052809392919081815260200183838082843782019150505050505091929192908035906020019092919080359060200190820180359060200190808060200260200160405190810160405280939291908181526020018383602002808284378201915050505050509192919290803590602001908201803590602001908080602002602001604051908101604052809392919081815260200183836020028082843782019150505050505091929192908035906020019082018035906020019080806020026020016040519081016040528093929190818152602001838360200280828437820191505050505050919291929080359060200190820180359060200190808060200260200160405190810160405280939291908181526020018383602002808284378201915050505050509192919290803560001916906020019092919080356000191690602001909291905050506122db565b604051808215151515815260200191505060405180910390f35b348015610d5557600080fd5b50610d7460048036038101908080359060200190929190505050612dc4565b60405180836000191660001916815260200180602001828103825283818151815260200191508051906020019080838360005b83811015610dc2578082015181840152602081019050610da7565b50505050905090810190601f168015610def5780820380516001836020036101000a031916815260200191505b50935050505060405180910390f35b348015610e0a57600080fd5b50610e37600480360381019080803560001916906020019092919080359060200190929190505050612e9a565b6040518080602001828103825283818151815260200191508051906020019060200280838360005b83811015610e7a578082015181840152602081019050610e5f565b505050509050019250505060405180910390f35b348015610e9a57600080fd5b50610ea3612fc3565b60405180826000191660001916815260200191505060405180910390f35b610ee36004803603810190808035600019169060200190929190505050612fc9565b604051808215151515815260200191505060405180910390f35b348015610f0957600080fd5b50610f126132dc565b6040518082815260200191505060405180910390f35b348015610f3457600080fd5b50610f3d6132e2565b604051808273ffffffffffffffffffffffffffffffffffffffff1673ffffffffffffffffffffffffffffffffffffffff16815260200191505060405180910390f35b348015610f8b57600080fd5b50610faa60048036038101908080359060200190929190505050613308565b60405180826000191660001916815260200191505060405180910390f35b348015610fd457600080fd5b506110556004803603810190808035600019169060200190929190803590602001908201803590602001908080601f0160208091040260200160405190810160405280939291908181526020018383808284378201915050505050509192919290803590602001909291908035600019169060200190929190505050613313565b6040518080602001828103825283818151815260200191508051906020019080838360005b8381101561109557808201518184015260208101905061107a565b50505050905090810190601f1680156110c25780820380516001836020036101000a031916815260200191505b509250505060405180910390f35b3480156110dc57600080fd5b50611111600480360381019080803573ffffffffffffffffffffffffffffffffffffffff16906020019092919050505061368f565b604051808215151515815260200191505060405180910390f35b34801561113757600080fd5b50611188600480360381019080803515159060200190929190803515159060200190929190803515159060200190929190803515159060200190929190803515159060200190929190505050613793565b604051808215151515815260200191505060405180910390f35b60008060009054906101000a900473ffffffffffffffffffffffffffffffffffffffff1673ffffffffffffffffffffffffffffffffffffffff163373ffffffffffffffffffffffffffffffffffffffff161415156111ff57600080fd5b600073ffffffffffffffffffffffffffffffffffffffff168273ffffffffffffffffffffffffffffffffffffffff161415151561123b57600080fd5b81600260006101000a81548173ffffffffffffffffffffffffffffffffffffffff021916908373ffffffffffffffffffffffffffffffffffffffff16021790555060019050919050565b60008060008090505b8551811015611458578686828151811015156112a657fe5b90602001906020020151406040516020018083600019166000191681526020018260001916600019168152602001925050506040516020818303038152906040526040518082805190602001908083835b60208310151561131c57805182526020820191506020810190506020830392506112f7565b6001836020036101000a03801982511681845116808217855250505050505090500191505060405180910390209150601084868381518110151561135c57fe5b9060200190602002015181518110151561137257fe5b90602001906020020151601f60208110151561138a57fe5b1a7f0100000000000000000000000000000000000000000000000000000000000000027f010000000000000000000000000000000000000000000000000000000000000090048115156113d957fe5b06601083601f6020811015156113eb57fe5b1a7f0100000000000000000000000000000000000000000000000000000000000000027f0100000000000000000000000000000000000000000000000000000000000000900481151561143a57fe5b0614151561144b576000925061145d565b808060010191505061128e565b600192505b5050949350505050565b60045481565b6000611477613862565b600060011515600660009054906101000a900460ff16151514151561149b57600080fd5b600760035401431180156114b45750600a600354014311155b1515611528576040517f08c379a000000000000000000000000000000000000000000000000000000000815260040180806020018281038252600e8152602001807f746573746f7574636f6d653a203100000000000000000000000000000000000081525060200191505060405180910390fd5b60078443031015156115a2576040517f08c379a000000000000000000000000000000000000000000000000000000000815260040180806020018281038252600e8152602001807f746573746f7574636f6d653a203200000000000000000000000000000000000081525060200191505060405180910390fd5b6001430384111580156115ba57506007600354018410155b80156115ca5750600a6003540184105b151561163e576040517f08c379a000000000000000000000000000000000000000000000000000000000815260040180806020018281038252600e8152602001807f746573746f7574636f6d653a203300000000000000000000000000000000000081525060200191505060405180910390fd5b33858540604051602001808473ffffffffffffffffffffffffffffffffffffffff1673ffffffffffffffffffffffffffffffffffffffff166c010000000000000000000000000281526014018360001916600019168152602001826000191660001916815260200193505050506040516020818303038152906040526040518082805190602001908083835b6020831015156116ef57805182526020820191506020810190506020830392506116ca565b6001836020036101000a03801982511681845116808217855250505050505090500191505060405180910390209250600090505b601f81111515611808576009548160208110151561173d57fe5b1a7f0100000000000000000000000000000000000000000000000000000000000000027effffffffffffffffffffffffffffffffffffffffffffffffffffffffffffff1916838260208110151561179057fe5b1a7f0100000000000000000000000000000000000000000000000000000000000000027effffffffffffffffffffffffffffffffffffffffffffffffffffffffffffff191610156117fb57600182826020811015156117eb57fe5b6020020190151590811515815250505b8080600101915050611723565b828292509250509250929050565b600260009054906101000a900473ffffffffffffffffffffffffffffffffffffffff1681565b600080600073ffffffffffffffffffffffffffffffffffffffff16600160009054906101000a900473ffffffffffffffffffffffffffffffffffffffff1673ffffffffffffffffffffffffffffffffffffffff16141580156118eb5750600160009054906101000a900473ffffffffffffffffffffffffffffffffffffffff1673ffffffffffffffffffffffffffffffffffffffff163373ffffffffffffffffffffffffffffffffffffffff16145b15156118f657600080fd5b601e600b60003373ffffffffffffffffffffffffffffffffffffffff1673ffffffffffffffffffffffffffffffffffffffff16815260200190815260200160002060000154014311151561194957600080fd5b6007601e600b60003373ffffffffffffffffffffffffffffffffffffffff1673ffffffffffffffffffffffffffffffffffffffff1681526020019081526020016000206000015401014310151561199f57600080fd5b6000600160006101000a81548173ffffffffffffffffffffffffffffffffffffffff021916908373ffffffffffffffffffffffffffffffffffffffff160217905550600a611a0e60063073ffffffffffffffffffffffffffffffffffffffff163161382490919063ffffffff16565b811515611a1757fe5b049050600115153373ffffffffffffffffffffffffffffffffffffffff166108fc839081150290604051600060405180830381858888f193505050501515141515611a6157600080fd5b600191505090565b60006005543410151515611a7c57600080fd5b6000809054906101000a900473ffffffffffffffffffffffffffffffffffffffff1673ffffffffffffffffffffffffffffffffffffffff163373ffffffffffffffffffffffffffffffffffffffff16141515611ad757600080fd5b60001515600660009054906101000a900460ff161515141515611af957600080fd5b600454600019168260001916111515611b1157600080fd5b6000600160006101000a81548173ffffffffffffffffffffffffffffffffffffffff021916908373ffffffffffffffffffffffffffffffffffffffff160217905550436003819055506060604051908101604052806003548152602001600060010260001916815260200160001515815250600b60003373ffffffffffffffffffffffffffffffffffffffff1673ffffffffffffffffffffffffffffffffffffffff168152602001908152602001600020600082015181600001556020820151816001019060001916905560408201518160020160006101000a81548160ff02191690831515021790555090505060016007600082825401925050819055506001600660006101000a81548160ff021916908315150217905550600954600a8160001916905550816009816000191690555060019050919050565b6000806000600b60008573ffffffffffffffffffffffffffffffffffffffff1673ffffffffffffffffffffffffffffffffffffffff16815260200190815260200160002060000154600b60008673ffffffffffffffffffffffffffffffffffffffff1673ffffffffffffffffffffffffffffffffffffffff16815260200190815260200160002060010154600b60008773ffffffffffffffffffffffffffffffffffffffff1673ffffffffffffffffffffffffffffffffffffffff16815260200190815260200160002060020160009054906101000a900460ff169250925092509193909250565b600d60019054906101000a900460ff1681565b60007effffffffffffffffffffffffffffffffffffffffffffffffffffffffffffff60010282600019161115611d805760019050611e28565b7e0fffffffffffffffffffffffffffffffffffffffffffffffffffffffffffff60010282600019161115611db75760029050611e28565b7dffffffffffffffffffffffffffffffffffffffffffffffffffffffffffff60010282600019161115611ded5760039050611e28565b7d0fffffffffffffffffffffffffffffffffffffffffffffffffffffffffff60010282600019161115611e235760049050611e28565b600590505b919050565b600d60029054906101000a900460ff1681565b6103e881565b60075481565b60095481565b600d60009054906101000a900460ff1681565b6000809054906101000a900473ffffffffffffffffffffffffffffffffffffffff1681565b60085481565b600d60049054906101000a900460ff1681565b601e81565b60035481565b6000600143038311151515611ec257600080fd5b8183406040516020018083600019166000191681526020018260001916600019168152602001925050506040516020818303038152906040526040518082805190602001908083835b602083101515611f305780518252602082019150602081019050602083039250611f0b565b6001836020036101000a0380198251168184511680821785525050505050509050019150506040518091039020905092915050565b60008073ffffffffffffffffffffffffffffffffffffffff16600260009054906101000a900473ffffffffffffffffffffffffffffffffffffffff1673ffffffffffffffffffffffffffffffffffffffff16141580156120125750600260009054906101000a900473ffffffffffffffffffffffffffffffffffffffff1673ffffffffffffffffffffffffffffffffffffffff163373ffffffffffffffffffffffffffffffffffffffff16145b151561201d57600080fd5b601e8401431015801561203657506003601e8501014311155b151561204157600080fd5b60408051908101604052808460001916815260200183815250600c6000868152602001908152602001600020600082015181600001906000191690556020820151816001019080519060200190612099929190613886565b50905050600884014060088160001916905550600190509392505050565b600d60039054906101000a900460ff1681565b600080600080602088511015156120e057600080fd5b865188511415156120f057600080fd5b859250600091505b87518210156122af57878281518110151561210f57fe5b906020019060200201519050868281518110151561212957fe5b90602001906020020151156121d95780836040516020018083600019166000191681526020018260001916600019168152602001925050506040516020818303038152906040526040518082805190602001908083835b6020831015156121a55780518252602082019150602081019050602083039250612180565b6001836020036101000a038019825116818451168082178552505050505050905001915050604051809103902092506122a2565b86828151811015156121e757fe5b9060200190602002015115156122985782816040516020018083600019166000191681526020018260001916600019168152602001925050506040516020818303038152906040526040518082805190602001908083835b602083101515612264578051825260208201915060208101905060208303925061223f565b6001836020036101000a038019825116818451168082178552505050505050905001915050604051809103902092506122a1565b600093506122bd565b5b81806001019250506120f8565b846000191683600019161493505b505050949350505050565b600660009054906101000a900460ff1681565b600080606060001515600b60003373ffffffffffffffffffffffffffffffffffffffff1673ffffffffffffffffffffffffffffffffffffffff16815260200190815260200160002060020160009054906101000a900460ff1615151415156123ab576040517f08c379a000000000000000000000000000000000000000000000000000000000815260040180806020018281038252600f8152602001807f616c726561647920636c61696d6564000000000000000000000000000000000081525060200191505060405180910390fd5b600a885111151515612425576040517f08c379a000000000000000000000000000000000000000000000000000000000815260040180806020018281038252601d8152602001807f796f752063616e6e6f7420636c61696d206d6f7265207469636b65747300000081525060200191505060405180910390fd5b8551875114151561249e576040517f08c379a000000000000000000000000000000000000000000000000000000000815260040180806020018281038252601c8152602001807f6c656e206f662070726f6f662f69734c656674206d69736d617463680000000081525060200191505060405180910390fd5b8851885114151561253d576040517f08c379a00000000000000000000000000000000000000000000000000000000081526004018080602001828103825260288152602001807f7375626d6974426c6f636b7320616e642077696e6e696e675469636b6574732081526020017f6d69736d6174636800000000000000000000000000000000000000000000000081525060400191505060405180910390fd5b600d60009054906101000a900460ff16156127aa57600060010260001916600c6000600b60003373ffffffffffffffffffffffffffffffffffffffff1673ffffffffffffffffffffffffffffffffffffffff16815260200190815260200160002060000154815260200190815260200160002060000154600019161415151561262e576040517f08c379a00000000000000000000000000000000000000000000000000000000081526004018080602001828103825260128152602001807f6e6f206d65726b6c6520726f6f7420796574000000000000000000000000000081525060200191505060405180910390fd5b601e600b60003373ffffffffffffffffffffffffffffffffffffffff1673ffffffffffffffffffffffffffffffffffffffff1681526020019081526020016000206000015401431115156126ea576040517f08c379a00000000000000000000000000000000000000000000000000000000081526004018080602001828103825260098152602001807f746f6f206561726c79000000000000000000000000000000000000000000000081525060200191505060405180910390fd5b6007601e600b60003373ffffffffffffffffffffffffffffffffffffffff1673ffffffffffffffffffffffffffffffffffffffff168152602001908152602001600020600001540101431015156127a9576040517f08c379a00000000000000000000000000000000000000000000000000000000081526004018080602001828103825260088152602001807f746f6f206c61746500000000000000000000000000000000000000000000000081525060200191505060405180910390fd5b5b600d60019054906101000a900460ff161561287957600354600b60003373ffffffffffffffffffffffffffffffffffffffff1673ffffffffffffffffffffffffffffffffffffffff168152602001908152602001600020600001541415612815576009549150612874565b601e600b60003373ffffffffffffffffffffffffffffffffffffffff1673ffffffffffffffffffffffffffffffffffffffff1681526020019081526020016000206000015460035403111561286e57600a549150612873565b600080fd5b5b61287f565b60095491505b6001600b60003373ffffffffffffffffffffffffffffffffffffffff1673ffffffffffffffffffffffffffffffffffffffff16815260200190815260200160002060020160006101000a81548160ff021916908315150217905550600d60029054906101000a900460ff1615612bd857846040516020018082600019166000191681526020019150506040516020818303038152906040526040518082805190602001908083835b60208310151561294c5780518252602082019150602081019050602083039250612927565b6001836020036101000a0380198251168184511680821785525050505050509050019150506040518091039020600019166129898d8d8d86613313565b6040516020018082805190602001908083835b6020831015156129c1578051825260208201915060208101905060208303925061299c565b6001836020036101000a0380198251168184511680821785525050505050509050019150506040516020818303038152906040526040518082805190602001908083835b602083101515612a2a5780518252602082019150602081019050602083039250612a05565b6001836020036101000a038019825116818451168082178552505050505050905001915050604051809103902060001916141515612a6757600080fd5b600b60003373ffffffffffffffffffffffffffffffffffffffff1673ffffffffffffffffffffffffffffffffffffffff1681526020019081526020016000206001015460001916856040516020018082600019166000191681526020019150506040516020818303038152906040526040518082805190602001908083835b602083101515612b0b5780518252602082019150602081019050602083039250612ae6565b6001836020036101000a038019825116818451168082178552505050505050905001915050604051809103902060001916141515612bd7576040517f08c379a000000000000000000000000000000000000000000000000000000000815260040180806020018281038252602c8152602001807f77726f6e672073636f72652062617365206f6e2074686520676976656e20736581526020017f637265742f626c6f636b4e6f000000000000000000000000000000000000000081525060400191505060405180910390fd5b5b612be185611d47565b604051908082528060200260200182016040528015612c0f5781602001602082028038833980820191505090505b509050612c2485612c1f87611d47565b612e9a565b9050600d60039054906101000a900460ff1615612d1457612c9f878786600c6000600b60003373ffffffffffffffffffffffffffffffffffffffff1673ffffffffffffffffffffffffffffffffffffffff168152602001908152602001600020600001548152602001908152602001600020600001546120ca565b1515612d13576040517f08c379a00000000000000000000000000000000000000000000000000000000081526004018080602001828103825260138152602001807f6d65726b6c652070726f6f66206661696c65640000000000000000000000000081525060200191505060405180910390fd5b5b600d60049054906101000a900460ff1615612db15760011515612d39838b8b85611285565b1515141515612db0576040517f08c379a00000000000000000000000000000000000000000000000000000000081526004018080602001828103825260148152602001807f666f756e6420612077726f6e67207469636b657400000000000000000000000081525060200191505060405180910390fd5b5b6001925050509998505050505050505050565b60006060600c600084815260200190815260200160002060000154600c6000858152602001908152602001600020600101808054600181600116156101000203166002900480601f016020809104026020016040519081016040528092919081815260200182805460018160011615610100020316600290048015612e8a5780601f10612e5f57610100808354040283529160200191612e8a565b820191906000526020600020905b815481529060010190602001808311612e6d57829003601f168201915b5050505050905091509150915091565b606080600083604051908082528060200260200182016040528015612ece5781602001602082028038833980820191505090505b509150600090505b83811015612fb8578460085460018301604051602001808460001916600019168152602001836000191660001916815260200182815260200193505050506040516020818303038152906040526040518082805190602001908083835b602083101515612f585780518252602082019150602081019050602083039250612f33565b6001836020036101000a03801982511681845116808217855250505050505090500191505060405180910390208282815181101515612f9357fe5b9060200190602002019060001916908160001916815250508080600101915050612ed6565b819250505092915050565b600a5481565b60006005543410151515612fdc57600080fd5b6000809054906101000a900473ffffffffffffffffffffffffffffffffffffffff1673ffffffffffffffffffffffffffffffffffffffff163373ffffffffffffffffffffffffffffffffffffffff161415151561303857600080fd5b60011515600660009054906101000a900460ff16151514151561305a57600080fd5b600354600b60003373ffffffffffffffffffffffffffffffffffffffff1673ffffffffffffffffffffffffffffffffffffffff16815260200190815260200160002060000154101515613115576040517f08c379a000000000000000000000000000000000000000000000000000000000815260040180806020018281038252600c8152602001807f6368616c6c616e67653a2031000000000000000000000000000000000000000081525060200191505060405180910390fd5b6007600354014311801561312e5750600a600354014311155b15156131a2576040517f08c379a000000000000000000000000000000000000000000000000000000000815260040180806020018281038252600c8152602001807f6368616c6c616e67653a2032000000000000000000000000000000000000000081525060200191505060405180910390fd5b6103e860016007540111151515613221576040517f08c379a000000000000000000000000000000000000000000000000000000000815260040180806020018281038252600c8152602001807f6368616c6c616e67653a2033000000000000000000000000000000000000000081525060200191505060405180910390fd5b60606040519081016040528060035481526020018360001916815260200160001515815250600b60003373ffffffffffffffffffffffffffffffffffffffff1673ffffffffffffffffffffffffffffffffffffffff168152602001908152602001600020600082015181600001556020820151816001019060001916905560408201518160020160006101000a81548160ff021916908315150217905550905050600160076000828254019250508190555060019050919050565b60055481565b600160009054906101000a900473ffffffffffffffffffffffffffffffffffffffff1681565b600081409050919050565b60606000606080600033898840604051602001808473ffffffffffffffffffffffffffffffffffffffff1673ffffffffffffffffffffffffffffffffffffffff166c010000000000000000000000000281526014018360001916600019168152602001826000191660001916815260200193505050506040516020818303038152906040526040518082805190602001908083835b6020831015156133cd57805182526020820191506020810190506020830392506133a8565b6001836020036101000a0380198251168184511680821785525050505050509050019150506040518091039020935087925060206040519080825280601f01601f1916602001820160405280156134335781602001602082028038833980820191505090505b509150600090505b60208110156136805760307f010000000000000000000000000000000000000000000000000000000000000002838281518110151561347657fe5b9060200101517f010000000000000000000000000000000000000000000000000000000000000090047f0100000000000000000000000000000000000000000000000000000000000000027effffffffffffffffffffffffffffffffffffffffffffffffffffffffffffff1916141561355d5785816020811015156134f757fe5b1a7f010000000000000000000000000000000000000000000000000000000000000002828281518110151561352857fe5b9060200101907effffffffffffffffffffffffffffffffffffffffffffffffffffffffffffff1916908160001a905350613673565b60317f010000000000000000000000000000000000000000000000000000000000000002838281518110151561358f57fe5b9060200101517f010000000000000000000000000000000000000000000000000000000000000090047f0100000000000000000000000000000000000000000000000000000000000000027effffffffffffffffffffffffffffffffffffffffffffffffffffffffffffff1916141561367257838160208110151561361057fe5b1a7f010000000000000000000000000000000000000000000000000000000000000002828281518110151561364157fe5b9060200101907effffffffffffffffffffffffffffffffffffffffffffffffffffffffffffff1916908160001a9053505b5b808060010191505061343b565b81945050505050949350505050565b60008060009054906101000a900473ffffffffffffffffffffffffffffffffffffffff1673ffffffffffffffffffffffffffffffffffffffff163373ffffffffffffffffffffffffffffffffffffffff161415156136ec57600080fd5b600073ffffffffffffffffffffffffffffffffffffffff168273ffffffffffffffffffffffffffffffffffffffff161415151561372857600080fd5b60001515600660009054906101000a900460ff16151514151561374a57600080fd5b816000806101000a81548173ffffffffffffffffffffffffffffffffffffffff021916908373ffffffffffffffffffffffffffffffffffffffff16021790555060019050919050565b600085600d60006101000a81548160ff02191690831515021790555084600d60016101000a81548160ff02191690831515021790555083600d60026101000a81548160ff02191690831515021790555082600d60036101000a81548160ff02191690831515021790555081600d60046101000a81548160ff0219169083151502179055506001905095945050505050565b6000806000841415613839576000915061385b565b828402905082848281151561384a57fe5b0414151561385757600080fd5b8091505b5092915050565b61040060405190810160405280602090602082028038833980820191505090505090565b828054600181600116156101000203166002900490600052602060002090601f016020900481019282601f106138c757805160ff19168380011785556138f5565b828001600101855582156138f5579182015b828111156138f45782518255916020019190600101906138d9565b5b5090506139029190613906565b5090565b61392891905b8082111561392457600081600090555060010161390c565b5090565b905600a165627a7a72305820f4545b346f0ce363517f91fea355e749898672b383a66e8fbfc01774685cf6470029",
  "source": "pragma solidity ^0.4.24;\n\n// import \"./ERC20.sol\";\nimport \"./SafeMath.sol\";\n// import \"./RNTInterface.sol\";\n\n// About the game\n// # Roles\n//  * defender : setup the game (only the fee)\n//  * player : join the game, max 1000 players, pay 0.01 eth and may win some RNT\n//  * validator: provide merkle proof at `end` block\n//\n// # time line of a game:\n//    start ------------ n ------- m -------------------------------- end --------\n//          calc           reg to    lottery, each round: 0-n winners     mr submit to chain;\n//                         sc        (only on sc)                         withdraw eth/claim RNT in several blks\n//          (period1)      (period2) (period3)                            could start next round\n//\n//  * sc: state channel; mr: merkle root\n//  * period_all = period1 + period2 + period3\n//  * during period2 (btw. `n` and `m`) players get tickets on sc\n//  * player obtain ticket in the form `ticket[i] = hash(score + bn[m-1] + i)` where 0<=i<5, depend on score\n// todo: add an upper limit for the contract to give to players? Such as (the order of) 1000*0.01 eth = 10 eth = 1e5 RNT\n\ncontract BattleShip {\n\tusing SafeMath for uint256;\n\t// Variables\n\taddress public defender;\n\taddress public winner;\n\taddress public validator;\n\t// address public RNTAddr;\n\tuint constant public maxPlayer = 1000;\n\tuint constant public period_all = 30;  // 7 + 3 + 20\n\tuint public initHeight;\n\t// uint public lastActivity;\n\tbytes32 public difficulty = 0x0000ffffffffffffffffffffffffffffffffffffffffffffffffffffffffffff;\n\tuint public fee = 10000000000000000;\n\tbool public setup = false;\n\tuint public playercount = 0;\n\n\tstruct playerInfo {\n\t\t// uint since;     // block height when joined\n\t\tuint initHeightJoined;\n\t\tbytes32 scoreHash;\n\t\tbool claimed;\n\t}\n\n        struct battleStat{\n            bytes32 merkleRoot;\n            string ipfsAddr;\n        }\n\n        bytes32 public ticketSeed;  // blockhash(initHeight+8) of each game\n        bytes32 public board;\n        bytes32 public prevboard;\n        // address ethWinnerAddr;  // only one winner take eth\n        // uint ethWinnerReward;\n\n\tmapping (address => playerInfo) playerDB;\n\tmapping (uint => battleStat) battleHistory;\n\n\t// Modifiers\n\tmodifier defenderOnly() {\n\t\trequire(msg.sender == defender);\n\t\t_;\n\t}\n\n\tmodifier WinnerOnly() {\n\t\trequire(winner != address(0) && msg.sender == winner);\n\t\t_;\n\t}\n\n\tmodifier ValidatorOnly() {\n\t        require(validator != address(0) && msg.sender == validator);\n\t        _;\n        }\n\n\tmodifier NewGameOnly() {\n\t\trequire(setup == false);\n\t\t_;\n\t}\n\n\tmodifier feePaid() {\n\t\trequire(msg.value >= fee);\n\t\t_;\n\t}\n\n\tmodifier gameStarted() {\n\t\trequire(setup == true);\n\t\t_;\n\t}\n\n\tmodifier gameStalled() {\n\t\t// require(setup == true && block.number > initHeight + period_all && winner == address(0));\n\t\trequire(setup == true && block.number > initHeight + 10 && winner == address(0));  // for debug\n\t\t_;\n\t}\n\n\tmodifier notDefender() {\n\t\trequire(msg.sender != defender);\n\t\t_;\n\t}\n\n\t// Contract constructor\n\tconstructor(bytes32 _init) public payable {\n\t\trequire(msg.value >= fee);\n\t\tdefender = msg.sender;\n\t\tvalidator = msg.sender;\n\t\t// RNTAddr  = _RNTAddr;\n\n\t\trequire(fortify(_init) == true);\n\t}\n\n\t// WinnerOnly\n\tfunction withdraw() public WinnerOnly returns (bool) {\n\t        // only one player win eth; make sure winner can claim the reward after next game started\n\t\trequire(block.number > playerDB[msg.sender].initHeightJoined + period_all);\n\t\trequire(block.number < playerDB[msg.sender].initHeightJoined + period_all + 7);\n\t\twinner = address(0);\n\n\t\tuint256 reward = uint256(address(this).balance).mul(uint256(6)) / uint256(10);\n\t\t// require(RNTInterface(RNTAddr).mint(msg.sender) == true);\n\t\trequire(msg.sender.send(reward) == true);\n\t\treturn true;\n\t}\n\n\tbool public debug1 = false;\n\tbool public debug2 = true;\n\tbool public debug3 = true;\n\tbool public debug4 = true;\n\tbool public debug5 = true;\n\tfunction debugParams(bool _debug1, bool _debug2, bool _debug3, bool _debug4, bool _debug5) public returns (bool){\n                debug1 = _debug1;\n                debug2 = _debug2;\n                debug3 = _debug3;\n                debug4 = _debug4;\n                debug5 = _debug5;\n                return true;\n        }\n\n\tfunction claimLotteReward( // this happens after end of a game, next round may started\n\t    bytes32 secret,\n\t    string memory slots,\n\t    uint blockNo,\n\t    uint[] memory submitBlocks,  // the winning blocks the player claimed\n\t    uint[] memory winningTickets, // the idx of generateTickets. same order as submitBlocks\n\t    bytes32[] memory proof,\n\t    bool[] memory isLeft,\n\t    bytes32 score,\n\t    bytes32 claimHash\n\t) public returns (bool) {\n\t\trequire(playerDB[msg.sender].claimed == false, \"already claimed\");\n\t\trequire(winningTickets.length <= 10, \"you cannot claim more tickets\");\n\t        require(proof.length == isLeft.length, \"len of proof/isLeft mismatch\");\n\t        require(winningTickets.length == submitBlocks.length, \"submitBlocks and winningTickets mismatch\");\n\n\t\tif (debug1){\n                        require(battleHistory[playerDB[msg.sender].initHeightJoined].merkleRoot != bytes32(0), \"no merkle root yet\");\n                        require(block.number > playerDB[msg.sender].initHeightJoined + period_all, \"too early\");\n                        require(block.number < playerDB[msg.sender].initHeightJoined + period_all + 7, \"too late\");\n                }\n\n                bytes32 _board;\n                if (debug2){\n                        if (playerDB[msg.sender].initHeightJoined == initHeight) {\n                                _board = board;\n                        } else if (initHeight - playerDB[msg.sender].initHeightJoined > period_all) {\n                                _board = prevboard;\n                        } else {\n                                revert();\n                        }\n                } else {\n                        _board = board;\n                }\n\n                // No second chance: if one of the following verification failed, the player cannot call this function again.\n                playerDB[msg.sender].claimed = true;\n\n                // verify score\n                if (debug3){\n                        require(keccak256(abi.encodePacked(getScore(secret, slots, blockNo, _board))) == keccak256(abi.encodePacked(score)));\n                        require(keccak256(abi.encodePacked(score)) == playerDB[msg.sender].scoreHash,\n                                \"wrong score base on the given secret/blockNo\");\n                }\n\n                // generate \"claimhash\", which is hash(msg.sender, submitBlocks[i], winningTickets[i], ...) where i=0,1,2,...\n\t\t// bytes32[5] memory genTickets = generateTickets(score);\n\t\tbytes32[] memory genTickets = new bytes32[](getNumOfTickets(score));\n\t\tgenTickets = generateTickets(score, getNumOfTickets(score));\n                // bytes32[] memory claimHashElements;\n                // claimHashElements[0] = bytes20(msg.sender);\n                // for (uint i=0; i<winningTickets.length; i++){\n                //         claimHashElements[i*2+1] = bytes32(submitBlocks[i]);\n                //         claimHashElements[i*2+2] = bytes32(genTickets[winningTickets[i]]);\n                // }\n                // bytes32 claimHash = keccak256(abi.encodePacked(claimHashElements));\n                // require(merkleTreeValidator(proof, isLeft, keccak256(abi.encodePacked(claimHashElements)),\n                if (debug4){\n                        require(merkleTreeValidator(proof, isLeft, claimHash,\n                                                    battleHistory[playerDB[msg.sender].initHeightJoined].merkleRoot),\n                                \"merkle proof failed\");\n                }\n\n                // count number of winning tickets\n                if (debug5){\n                        require(verifyWinnumber(_board, submitBlocks, winningTickets, genTickets) == true, \"found a wrong ticket\");\n                }\n\t\treturn true;\n        }\n\n        function verifyWinnumber(bytes32 _board, uint[] memory submitBlocks, uint[] memory winningTickets, bytes32[] memory genTickets) public view returns(bool){\n                bytes32 winNumber;\n                for (uint i=0; i<submitBlocks.length; i++){\n                            winNumber = keccak256(abi.encodePacked(_board, blockhash(submitBlocks[i])));\n                            if (uint(winNumber[31])%16 != uint(genTickets[winningTickets[i]][31])%16 ){\n                                    return false;\n                            }\n                            // require(winNumber[31] == genTickets[winningTickets[i]][31]);  // last 1 byte = 2 digits of hex\n                            // require(winNumber[31] == genTickets[winningTickets[i]][31] && \n                            //         uint(winNumber[30])%16 == uint(genTickets[winningTickets[i]][30])%16 );  // last 3 digits of hex\n                            // require(winNumber[31] == genTickets[winningTickets[i]][31] && \n                            //         winNumber[30] == genTickets[winningTickets[i]][30]);  // last 4 digits of hex\n\n                            // require(RNTInterface(RNTAddr).mint(msg.sender) == true);\n                }\n                return true;\n        }\n\n        function generateTickets(bytes32 score, uint numTickets) public view returns (bytes32[] memory){\n                // require(score != bytes32(0));\n                bytes32[] memory tickets = new bytes32[](numTickets);\n\t\tfor (uint i = 0; i < numTickets; i++) {\n\t\t        tickets[i] = keccak256(abi.encodePacked(score, ticketSeed, i+1));  // idx of ticket start from 1\n                }\n                return tickets;\n        }\n\n        function getNumOfTickets(bytes32 score) public pure returns(uint){\n                if (score > 0x00ffffffffffffffffffffffffffffffffffffffffffffffffffffffffffffff) {\n                        return 1;  // min: 1 ticket\n                } else if (score > 0x000fffffffffffffffffffffffffffffffffffffffffffffffffffffffffffff) {\n                        return 2;\n                } else if (score > 0x0000ffffffffffffffffffffffffffffffffffffffffffffffffffffffffffff) {\n                        return 3;\n                } else if (score > 0x00000fffffffffffffffffffffffffffffffffffffffffffffffffffffffffff) {\n                        return 4;\n                } else {\n                        return 5;  // max: 5 tickets\n                }\n        }\n\n\n\t// function randomNumber() public view returns (bytes32) {\n\t// \trequire(lastRevived != samGroup[3] && samGroup[3] != bytes32(0));\n\t// \trequire(block.number - lastActivity <= 5);\n\t// \treturn keccak256(abi.encodePacked(samGroup[0], samGroup[1], samGroup[2], samGroup[3], blockhash(block.number - 1)));\n\t// }\n\n\tfunction getPlayerInfo(address _addr) public view returns (uint, bytes32, bool) {\n\t\treturn (playerDB[_addr].initHeightJoined, playerDB[_addr].scoreHash, playerDB[_addr].claimed);\n\t}\n\n\tfunction fortify(bytes32 defense) public payable feePaid defenderOnly NewGameOnly returns (bool) {\n\t\trequire(defense > difficulty);\n\n\t\twinner = address(0);\n\n\t\tinitHeight = block.number;\n\n                playerDB[msg.sender] = playerInfo(initHeight, bytes32(0), false);\n\t\tplayercount += 1;\n\t\tsetup = true;\n\n\t        prevboard = board;\n\t        board = defense;\n\n\t\treturn true;\n\t}\n\n\t// Join game\n\tfunction challenge(bytes32 scoreHash) public payable feePaid notDefender gameStarted returns (bool) {\n\t\trequire(playerDB[msg.sender].initHeightJoined < initHeight, \"challange: 1\");\n\t\trequire(block.number > initHeight + 7 && block.number <= initHeight + 10, \"challange: 2\");\n\t\trequire(playercount + 1 <= maxPlayer, \"challange: 3\");\n\n\t\tplayerDB[msg.sender] = playerInfo(initHeight, scoreHash, false);\n\n\t\tplayercount += 1;\n\n\t\treturn true;\n\t}\n\n\tfunction testOutcome(bytes32 secret, uint blockNo) public gameStarted view returns (bytes32 _board, bool[32] memory _slots) {\n\t\trequire(block.number > initHeight + 7 && block.number <= initHeight + 10, 'testoutcome: 1');\n\t\trequire(block.number - blockNo < 7, 'testoutcome: 2');\n\t\trequire(blockNo <= block.number - 1 && blockNo >= initHeight + 7 && blockNo < initHeight + 10, 'testoutcome: 3');\n\n\t\t_board = keccak256(abi.encodePacked(msg.sender, secret, blockhash(blockNo)));\n\n\t\tfor (uint i = 0; i <= 31; i++) {\n\t\t\tif(_board[i] < board[i]) {\n\t\t\t\t_slots[i] = true;\n\t\t\t}\n\t\t}\n\n\t\treturn (_board, _slots);\n\t}\n\n\tfunction winningNumber(uint blockNo, bytes32 _board) public view returns (bytes32) {\n\t        require(blockNo <= block.number - 1);\n\t        return keccak256(abi.encodePacked(_board, blockhash(blockNo)));\n        }\n\n        function merkleTreeValidator(bytes32[] memory proof, bool[] memory isLeft, bytes32 targetLeaf, bytes32 _merkleRoot) public pure returns (bool) {\n                require(proof.length < 32);  // 2**32 ~ 4.3e9 leaves!\n                require(proof.length == isLeft.length);\n\n                bytes32 targetHash = targetLeaf;\n                for (uint256 i = 0; i < proof.length; i++) {\n                        bytes32 proofEle = proof[i]; \n                        if (isLeft[i]) {\n                                targetHash = keccak256(abi.encodePacked(proofEle, targetHash));\n                        } else if (!isLeft[i]) {\n                                targetHash = keccak256(abi.encodePacked(targetHash, proofEle));\n                        } else {\n                                return false;\n                        }\n                }\n                return targetHash == _merkleRoot;\n        }\n\n\tfunction submitMerkleRoot(uint _initHeight, bytes32 _merkleRoot, string memory _ipfsAddr) public ValidatorOnly returns (bool) {\n\t\trequire(block.number >= _initHeight + period_all && block.number <= _initHeight + period_all + 3);\n\t        battleHistory[_initHeight]= battleStat(_merkleRoot, _ipfsAddr);\n\t        ticketSeed = blockhash(_initHeight+8);\n\t        return true;\n        }\n\n        function getBlockInfo(uint _initHeight) public view returns(bytes32, string){\n\t        return (battleHistory[_initHeight].merkleRoot, battleHistory[_initHeight].ipfsAddr);\n        }\n\n        function getBlockhash(uint blockNo) external view returns (bytes32) {\n                return blockhash(blockNo);\n        }\n\n        function getScore(bytes32 secret, string memory slotString, uint blockNo, bytes32 _board) public view returns (bytes memory){\n\t        // verification: the secret belongs to the player\n\t\tbytes32 myboard = keccak256(abi.encodePacked(msg.sender, secret, blockhash(blockNo))); // initialize for the loop below\n\t\t// bool[32] memory _slots = convertString32ToBool(slots);\n                bytes memory slots = bytes(slotString);\n                bytes memory score = new bytes(32);\n                for (uint i = 0; i < 32; i++) {\n\t\t        if(slots[i] == 0x30) {  // see decimal ascii chart, '0' = 48 (decimal) = 0x30 (hex)\n\t\t                score[i] = _board[i];\n                        } else if (slots[i] == 0x31) {\n                                score[i] = myboard[i];\n\t\t\t}\n                }\n                return score;\n\n                // bytes to bytes32\n                // bytes32 out;\n                // for (i=0; i<32; i++){\n                //         out |= bytes32( score[i] & 0xff ) >> (i + 8);\n                // }\n\t\t// return out;\n\t}\n\n\n        function newValidator(address _newValidator) public defenderOnly returns (bool){\n                require(_newValidator != address(0));\n                validator = _newValidator;\n                return true;\n        }\n\n        function newDefender(address _newDefender) public defenderOnly returns (bool){\n                require(_newDefender != address(0));\n                require(setup == false);\n\t\tdefender = _newDefender;\n                return true;\n        }\n\n        // fallback\n        function () defenderOnly gameStalled external { \n            winner = defender; \n            setup = false;\n            // board = bytes32(0);\n            playercount = 0;\n            // require(withdraw());\n\t    require(msg.sender.send(address(this).balance) == true);  // for debug\n        }\n}\n",
  "sourcePath": "/home/kai/Work/project/BattleShip/contracts/BattleShip.sol",
  "compiler": {
    "name": "solc",
    "version": "0.4.25+commit.59dbf8f1.Emscripten.clang"
  },
  "schemaVersion": "2.0.2",
  "updatedAt": "2019-01-23T21:55:16.145Z"
}