{
  "contractName": "BattleShip",
  "abi": [
    {
      "constant": true,
      "inputs": [],
      "name": "validator",
      "outputs": [
        {
          "name": "",
          "type": "address"
        }
      ],
      "payable": false,
      "stateMutability": "view",
      "type": "function"
    },
    {
      "constant": true,
      "inputs": [],
      "name": "maxPlayer",
      "outputs": [
        {
          "name": "",
          "type": "uint256"
        }
      ],
      "payable": false,
      "stateMutability": "view",
      "type": "function"
    },
    {
      "constant": true,
      "inputs": [],
      "name": "playercount",
      "outputs": [
        {
          "name": "",
          "type": "uint256"
        }
      ],
      "payable": false,
      "stateMutability": "view",
      "type": "function"
    },
    {
      "constant": true,
      "inputs": [],
      "name": "board",
      "outputs": [
        {
          "name": "",
          "type": "bytes32"
        }
      ],
      "payable": false,
      "stateMutability": "view",
      "type": "function"
    },
    {
      "constant": true,
      "inputs": [],
      "name": "defender",
      "outputs": [
        {
          "name": "",
          "type": "address"
        }
      ],
      "payable": false,
      "stateMutability": "view",
      "type": "function"
    },
    {
      "constant": true,
      "inputs": [],
      "name": "period_all",
      "outputs": [
        {
          "name": "",
          "type": "uint256"
        }
      ],
      "payable": false,
      "stateMutability": "view",
      "type": "function"
    },
    {
      "constant": true,
      "inputs": [],
      "name": "initHeight",
      "outputs": [
        {
          "name": "",
          "type": "uint256"
        }
      ],
      "payable": false,
      "stateMutability": "view",
      "type": "function"
    },
    {
      "constant": true,
      "inputs": [],
      "name": "setup",
      "outputs": [
        {
          "name": "",
          "type": "bool"
        }
      ],
      "payable": false,
      "stateMutability": "view",
      "type": "function"
    },
    {
      "constant": true,
      "inputs": [],
      "name": "prevboard",
      "outputs": [
        {
          "name": "",
          "type": "bytes32"
        }
      ],
      "payable": false,
      "stateMutability": "view",
      "type": "function"
    },
    {
      "constant": true,
      "inputs": [],
      "name": "fee",
      "outputs": [
        {
          "name": "",
          "type": "uint256"
        }
      ],
      "payable": false,
      "stateMutability": "view",
      "type": "function"
    },
    {
      "constant": true,
      "inputs": [],
      "name": "winner",
      "outputs": [
        {
          "name": "",
          "type": "address"
        }
      ],
      "payable": false,
      "stateMutability": "view",
      "type": "function"
    },
    {
      "inputs": [
        {
          "name": "_init",
          "type": "bytes32"
        }
      ],
      "payable": true,
      "stateMutability": "payable",
      "type": "constructor"
    },
    {
      "payable": false,
      "stateMutability": "nonpayable",
      "type": "fallback"
    },
    {
      "constant": false,
      "inputs": [],
      "name": "withdraw",
      "outputs": [
        {
          "name": "",
          "type": "bool"
        }
      ],
      "payable": false,
      "stateMutability": "nonpayable",
      "type": "function"
    },
    {
      "constant": false,
      "inputs": [
        {
          "name": "secret",
          "type": "bytes32"
        },
        {
          "name": "slots",
          "type": "string"
        },
        {
          "name": "blockNo",
          "type": "uint256"
        },
        {
          "name": "submitBlocks",
          "type": "uint256[]"
        },
        {
          "name": "winningTickets",
          "type": "uint256[]"
        },
        {
          "name": "proof",
          "type": "bytes32[]"
        },
        {
          "name": "isLeft",
          "type": "bool[]"
        },
        {
          "name": "score",
          "type": "bytes32"
        },
        {
          "name": "claimHash",
          "type": "bytes32"
        }
      ],
      "name": "claimLotteReward",
      "outputs": [
        {
          "name": "",
          "type": "bool"
        }
      ],
      "payable": false,
      "stateMutability": "nonpayable",
      "type": "function"
    },
    {
      "constant": true,
      "inputs": [
        {
          "name": "_board",
          "type": "bytes32"
        },
        {
          "name": "submitBlocks",
          "type": "uint256[]"
        },
        {
          "name": "winningTickets",
          "type": "uint256[]"
        },
        {
          "name": "genTickets",
          "type": "bytes32[5]"
        }
      ],
      "name": "verifyWinnumber",
      "outputs": [
        {
          "name": "",
          "type": "bool"
        }
      ],
      "payable": false,
      "stateMutability": "view",
      "type": "function"
    },
    {
      "constant": true,
      "inputs": [
        {
          "name": "score",
          "type": "bytes32"
        },
        {
          "name": "_blockNo",
          "type": "uint256"
        }
      ],
      "name": "generateTickets",
      "outputs": [
        {
          "name": "",
          "type": "bytes32[5]"
        }
      ],
      "payable": false,
      "stateMutability": "view",
      "type": "function"
    },
    {
      "constant": true,
      "inputs": [
        {
          "name": "score",
          "type": "bytes32"
        }
      ],
      "name": "getNumOfTickets",
      "outputs": [
        {
          "name": "",
          "type": "uint256"
        }
      ],
      "payable": false,
      "stateMutability": "pure",
      "type": "function"
    },
    {
      "constant": true,
      "inputs": [
        {
          "name": "_addr",
          "type": "address"
        }
      ],
      "name": "getPlayerInfo",
      "outputs": [
        {
          "name": "",
          "type": "uint256"
        },
        {
          "name": "",
          "type": "bytes32"
        },
        {
          "name": "",
          "type": "bool"
        }
      ],
      "payable": false,
      "stateMutability": "view",
      "type": "function"
    },
    {
      "constant": false,
      "inputs": [
        {
          "name": "defense",
          "type": "bytes32"
        }
      ],
      "name": "fortify",
      "outputs": [
        {
          "name": "",
          "type": "bool"
        }
      ],
      "payable": true,
      "stateMutability": "payable",
      "type": "function"
    },
    {
      "constant": false,
      "inputs": [
        {
          "name": "scoreHash",
          "type": "bytes32"
        }
      ],
      "name": "challenge",
      "outputs": [
        {
          "name": "",
          "type": "bool"
        }
      ],
      "payable": true,
      "stateMutability": "payable",
      "type": "function"
    },
    {
      "constant": true,
      "inputs": [
        {
          "name": "secret",
          "type": "bytes32"
        },
        {
          "name": "blockNo",
          "type": "uint256"
        }
      ],
      "name": "testOutcome",
      "outputs": [
        {
          "name": "_board",
          "type": "bytes32"
        },
        {
          "name": "_slots",
          "type": "bool[32]"
        }
      ],
      "payable": false,
      "stateMutability": "view",
      "type": "function"
    },
    {
      "constant": true,
      "inputs": [
        {
          "name": "blockNo",
          "type": "uint256"
        },
        {
          "name": "_board",
          "type": "bytes32"
        }
      ],
      "name": "winningNumber",
      "outputs": [
        {
          "name": "",
          "type": "bytes32"
        }
      ],
      "payable": false,
      "stateMutability": "view",
      "type": "function"
    },
    {
      "constant": true,
      "inputs": [
        {
          "name": "proof",
          "type": "bytes32[]"
        },
        {
          "name": "isLeft",
          "type": "bool[]"
        },
        {
          "name": "targetLeaf",
          "type": "bytes32"
        },
        {
          "name": "_merkleRoot",
          "type": "bytes32"
        }
      ],
      "name": "merkleTreeValidator",
      "outputs": [
        {
          "name": "",
          "type": "bool"
        }
      ],
      "payable": false,
      "stateMutability": "pure",
      "type": "function"
    },
    {
      "constant": false,
      "inputs": [
        {
          "name": "_initHeight",
          "type": "uint256"
        },
        {
          "name": "_merkleRoot",
          "type": "bytes32"
        },
        {
          "name": "_ipfsAddr",
          "type": "string"
        }
      ],
      "name": "submitMerkleRoot",
      "outputs": [
        {
          "name": "",
          "type": "bool"
        }
      ],
      "payable": false,
      "stateMutability": "nonpayable",
      "type": "function"
    },
    {
      "constant": true,
      "inputs": [
        {
          "name": "_initHeight",
          "type": "uint256"
        }
      ],
      "name": "getBlockInfo",
      "outputs": [
        {
          "name": "",
          "type": "bytes32"
        },
        {
          "name": "",
          "type": "string"
        }
      ],
      "payable": false,
      "stateMutability": "view",
      "type": "function"
    },
    {
      "constant": true,
      "inputs": [
        {
          "name": "blockNo",
          "type": "uint256"
        }
      ],
      "name": "getBlockhash",
      "outputs": [
        {
          "name": "",
          "type": "bytes32"
        }
      ],
      "payable": false,
      "stateMutability": "view",
      "type": "function"
    },
    {
      "constant": false,
      "inputs": [
        {
          "name": "_newValidator",
          "type": "address"
        }
      ],
      "name": "newValidator",
      "outputs": [
        {
          "name": "",
          "type": "bool"
        }
      ],
      "payable": false,
      "stateMutability": "nonpayable",
      "type": "function"
    }
  ],
  "bytecode": "0x6080604052662386f26fc100006004556000600560006101000a81548160ff02191690831515021790555060006006556040516020806200294e8339810180604052810190808051906020019092919050505060045434101515156200006457600080fd5b336000806101000a81548173ffffffffffffffffffffffffffffffffffffffff021916908373ffffffffffffffffffffffffffffffffffffffff16021790555033600260006101000a81548173ffffffffffffffffffffffffffffffffffffffff021916908373ffffffffffffffffffffffffffffffffffffffff16021790555060011515620001038262000119640100000000026401000000009004565b15151415156200011257600080fd5b506200028b565b600060045434101515156200012d57600080fd5b6000809054906101000a900473ffffffffffffffffffffffffffffffffffffffff1673ffffffffffffffffffffffffffffffffffffffff163373ffffffffffffffffffffffffffffffffffffffff161415156200018957600080fd5b60001515600560009054906101000a900460ff161515141515620001ac57600080fd5b6000600160006101000a81548173ffffffffffffffffffffffffffffffffffffffff021916908373ffffffffffffffffffffffffffffffffffffffff16021790555043600381905550600354600960003373ffffffffffffffffffffffffffffffffffffffff1673ffffffffffffffffffffffffffffffffffffffff1681526020019081526020016000206000018190555060016006600082825401925050819055506001600560006101000a81548160ff02191690831515021790555060075460088160001916905550816007816000191690555060019050919050565b6126b3806200029b6000396000f300608060405260043610610154576000357c0100000000000000000000000000000000000000000000000000000000900463ffffffff168063065c11cc1461033c5780631cb9409f146103975780633a5381b51461041c5780633ccfd60b1461047357806358533612146104a257806359328401146104de5780635c0effb21461054f5780636426b1e4146105945780636b180b59146105bf5780637cd3229a146105ea5780637f4c91c51461061d578063a4dd1d7d14610674578063a78eacdb1461069f578063afde797c146106ca578063b04cd58814610721578063b8f69e37146107ba578063ba0bba4014610897578063babb3b13146108c6578063bb141cf414610a87578063c13375db14610b3c578063cf226c6d14610bb3578063cff483b914610cb1578063cffd46dc14610ce4578063ddca3f4314610d20578063dfbf53ae14610d4b578063e9413d3814610da2575b34801561016057600080fd5b506000809054906101000a900473ffffffffffffffffffffffffffffffffffffffff1673ffffffffffffffffffffffffffffffffffffffff163373ffffffffffffffffffffffffffffffffffffffff161415156101bc57600080fd5b60011515600560009054906101000a900460ff1615151480156101e35750600a6003540143115b801561023d5750600073ffffffffffffffffffffffffffffffffffffffff16600160009054906101000a900473ffffffffffffffffffffffffffffffffffffffff1673ffffffffffffffffffffffffffffffffffffffff16145b151561024857600080fd5b6000809054906101000a900473ffffffffffffffffffffffffffffffffffffffff16600160006101000a81548173ffffffffffffffffffffffffffffffffffffffff021916908373ffffffffffffffffffffffffffffffffffffffff1602179055506000600560006101000a81548160ff0219169083151502179055506000600102600781600019169055506000600681905550600115153373ffffffffffffffffffffffffffffffffffffffff166108fc3073ffffffffffffffffffffffffffffffffffffffff16319081150290604051600060405180830381858888f19350505050151514151561033a57600080fd5b005b34801561034857600080fd5b5061037d600480360381019080803573ffffffffffffffffffffffffffffffffffffffff169060200190929190505050610deb565b604051808215151515815260200191505060405180910390f35b3480156103a357600080fd5b506103d0600480360381019080803560001916906020019092919080359060200190929190505050610ece565b604051808360001916600019168152602001826020800280838360005b838110156104085780820151818401526020810190506103ed565b505050509050019250505060405180910390f35b34801561042857600080fd5b50610431611277565b604051808273ffffffffffffffffffffffffffffffffffffffff1673ffffffffffffffffffffffffffffffffffffffff16815260200191505060405180910390f35b34801561047f57600080fd5b5061048861129d565b604051808215151515815260200191505060405180910390f35b6104c460048036038101908080356000191690602001909291905050506114a6565b604051808215151515815260200191505060405180910390f35b3480156104ea57600080fd5b5061051f600480360381019080803573ffffffffffffffffffffffffffffffffffffffff169060200190929190505050611615565b60405180848152602001836000191660001916815260200182151515158152602001935050505060405180910390f35b34801561055b57600080fd5b5061057e60048036038101908080356000191690602001909291905050506116fd565b6040518082815260200191505060405180910390f35b3480156105a057600080fd5b506105a96117e3565b6040518082815260200191505060405180910390f35b3480156105cb57600080fd5b506105d46117e9565b6040518082815260200191505060405180910390f35b3480156105f657600080fd5b506105ff6117ef565b60405180826000191660001916815260200191505060405180910390f35b34801561062957600080fd5b506106326117f5565b604051808273ffffffffffffffffffffffffffffffffffffffff1673ffffffffffffffffffffffffffffffffffffffff16815260200191505060405180910390f35b34801561068057600080fd5b5061068961181a565b6040518082815260200191505060405180910390f35b3480156106ab57600080fd5b506106b461181f565b6040518082815260200191505060405180910390f35b3480156106d657600080fd5b50610703600480360381019080803590602001909291908035600019169060200190929190505050611825565b60405180826000191660001916815260200191505060405180910390f35b34801561072d57600080fd5b506107a0600480360381019080803590602001909291908035600019169060200190929190803590602001908201803590602001908080601f01602080910402602001604051908101604052809392919081815260200183838082843782019150505050505091929192905050506118dc565b604051808215151515815260200191505060405180910390f35b3480156107c657600080fd5b5061087d600480360381019080803590602001908201803590602001908080602002602001604051908101604052809392919081815260200183836020028082843782019150505050505091929192908035906020019082018035906020019080806020026020016040519081016040528093929190818152602001838360200280828437820191505050505050919291929080356000191690602001909291908035600019169060200190929190505050611a0d565b604051808215151515815260200191505060405180910390f35b3480156108a357600080fd5b506108ac611c0b565b604051808215151515815260200191505060405180910390f35b3480156108d257600080fd5b50610a6d6004803603810190808035600019169060200190929190803590602001908201803590602001908080601f0160208091040260200160405190810160405280939291908181526020018383808284378201915050505050509192919290803590602001909291908035906020019082018035906020019080806020026020016040519081016040528093929190818152602001838360200280828437820191505050505050919291929080359060200190820180359060200190808060200260200160405190810160405280939291908181526020018383602002808284378201915050505050509192919290803590602001908201803590602001908080602002602001604051908101604052809392919081815260200183836020028082843782019150505050505091929192908035906020019082018035906020019080806020026020016040519081016040528093929190818152602001838360200280828437820191505050505050919291929080356000191690602001909291908035600019169060200190929190505050611c1e565b604051808215151515815260200191505060405180910390f35b348015610a9357600080fd5b50610ab260048036038101908080359060200190929190505050611e07565b60405180836000191660001916815260200180602001828103825283818151815260200191508051906020019080838360005b83811015610b00578082015181840152602081019050610ae5565b50505050905090810190601f168015610b2d5780820380516001836020036101000a031916815260200191505b50935050505060405180910390f35b348015610b4857600080fd5b50610b75600480360381019080803560001916906020019092919080359060200190929190505050611edd565b6040518082600560200280838360005b83811015610ba0578082015181840152602081019050610b85565b5050505090500191505060405180910390f35b348015610bbf57600080fd5b50610c97600480360381019080803560001916906020019092919080359060200190820180359060200190808060200260200160405190810160405280939291908181526020018383602002808284378201915050505050509192919290803590602001908201803590602001908080602002602001604051908101604052809392919081815260200183836020028082843782019150505050505091929192908060a00190600580602002604051908101604052809291908260056020028082843782019150505050509192919290505050611fe2565b604051808215151515815260200191505060405180910390f35b348015610cbd57600080fd5b50610cc66121bf565b60405180826000191660001916815260200191505060405180910390f35b610d0660048036038101908080356000191690602001909291905050506121c5565b604051808215151515815260200191505060405180910390f35b348015610d2c57600080fd5b50610d35612526565b6040518082815260200191505060405180910390f35b348015610d5757600080fd5b50610d6061252c565b604051808273ffffffffffffffffffffffffffffffffffffffff1673ffffffffffffffffffffffffffffffffffffffff16815260200191505060405180910390f35b348015610dae57600080fd5b50610dcd60048036038101908080359060200190929190505050612552565b60405180826000191660001916815260200191505060405180910390f35b60008060009054906101000a900473ffffffffffffffffffffffffffffffffffffffff1673ffffffffffffffffffffffffffffffffffffffff163373ffffffffffffffffffffffffffffffffffffffff16141515610e4857600080fd5b600073ffffffffffffffffffffffffffffffffffffffff168273ffffffffffffffffffffffffffffffffffffffff1614151515610e8457600080fd5b81600260006101000a81548173ffffffffffffffffffffffffffffffffffffffff021916908373ffffffffffffffffffffffffffffffffffffffff16021790555060019050919050565b6000610ed861259b565b600060011515600560009054906101000a900460ff161515141515610efc57600080fd5b60076003540143118015610f155750600a600354014311155b1515610f89576040517f08c379a000000000000000000000000000000000000000000000000000000000815260040180806020018281038252600e8152602001807f746573746f7574636f6d653a203100000000000000000000000000000000000081525060200191505060405180910390fd5b6007844303101515611003576040517f08c379a000000000000000000000000000000000000000000000000000000000815260040180806020018281038252600e8152602001807f746573746f7574636f6d653a203200000000000000000000000000000000000081525060200191505060405180910390fd5b60014303841115801561101b57506007600354018410155b801561102b5750600a6003540184105b151561109f576040517f08c379a000000000000000000000000000000000000000000000000000000000815260040180806020018281038252600e8152602001807f746573746f7574636f6d653a203300000000000000000000000000000000000081525060200191505060405180910390fd5b33858540604051602001808473ffffffffffffffffffffffffffffffffffffffff1673ffffffffffffffffffffffffffffffffffffffff166c010000000000000000000000000281526014018360001916600019168152602001826000191660001916815260200193505050506040516020818303038152906040526040518082805190602001908083835b602083101515611150578051825260208201915060208101905060208303925061112b565b6001836020036101000a03801982511681845116808217855250505050505090500191505060405180910390209250600090505b601f81111515611269576007548160208110151561119e57fe5b1a7f0100000000000000000000000000000000000000000000000000000000000000027effffffffffffffffffffffffffffffffffffffffffffffffffffffffffffff191683826020811015156111f157fe5b1a7f0100000000000000000000000000000000000000000000000000000000000000027effffffffffffffffffffffffffffffffffffffffffffffffffffffffffffff1916101561125c576001828260208110151561124c57fe5b6020020190151590811515815250505b8080600101915050611184565b828292509250509250929050565b600260009054906101000a900473ffffffffffffffffffffffffffffffffffffffff1681565b600080600073ffffffffffffffffffffffffffffffffffffffff16600160009054906101000a900473ffffffffffffffffffffffffffffffffffffffff1673ffffffffffffffffffffffffffffffffffffffff161415801561134c5750600160009054906101000a900473ffffffffffffffffffffffffffffffffffffffff1673ffffffffffffffffffffffffffffffffffffffff163373ffffffffffffffffffffffffffffffffffffffff16145b151561135757600080fd5b601e600960003373ffffffffffffffffffffffffffffffffffffffff1673ffffffffffffffffffffffffffffffffffffffff1681526020019081526020016000206000015401431115156113aa57600080fd5b6000600560006101000a81548160ff0219169083151502179055506000600160006101000a81548173ffffffffffffffffffffffffffffffffffffffff021916908373ffffffffffffffffffffffffffffffffffffffff1602179055506000600102600781600019169055506000600681905550600a61144b60063073ffffffffffffffffffffffffffffffffffffffff163161255d90919063ffffffff16565b81151561145457fe5b049050600115153373ffffffffffffffffffffffffffffffffffffffff166108fc839081150290604051600060405180830381858888f19350505050151514151561149e57600080fd5b600191505090565b600060045434101515156114b957600080fd5b6000809054906101000a900473ffffffffffffffffffffffffffffffffffffffff1673ffffffffffffffffffffffffffffffffffffffff163373ffffffffffffffffffffffffffffffffffffffff1614151561151457600080fd5b60001515600560009054906101000a900460ff16151514151561153657600080fd5b6000600160006101000a81548173ffffffffffffffffffffffffffffffffffffffff021916908373ffffffffffffffffffffffffffffffffffffffff16021790555043600381905550600354600960003373ffffffffffffffffffffffffffffffffffffffff1673ffffffffffffffffffffffffffffffffffffffff1681526020019081526020016000206000018190555060016006600082825401925050819055506001600560006101000a81548160ff02191690831515021790555060075460088160001916905550816007816000191690555060019050919050565b6000806000600960008573ffffffffffffffffffffffffffffffffffffffff1673ffffffffffffffffffffffffffffffffffffffff16815260200190815260200160002060000154600960008673ffffffffffffffffffffffffffffffffffffffff1673ffffffffffffffffffffffffffffffffffffffff16815260200190815260200160002060010154600960008773ffffffffffffffffffffffffffffffffffffffff1673ffffffffffffffffffffffffffffffffffffffff16815260200190815260200160002060020160009054906101000a900460ff169250925092509193909250565b60007effffffffffffffffffffffffffffffffffffffffffffffffffffffffffffff6001028260001916111561173657600190506117de565b7e0fffffffffffffffffffffffffffffffffffffffffffffffffffffffffffff6001028260001916111561176d57600290506117de565b7dffffffffffffffffffffffffffffffffffffffffffffffffffffffffffff600102826000191611156117a357600390506117de565b7d0fffffffffffffffffffffffffffffffffffffffffffffffffffffffffff600102826000191611156117d957600490506117de565b600590505b919050565b6103e881565b60065481565b60075481565b6000809054906101000a900473ffffffffffffffffffffffffffffffffffffffff1681565b601e81565b60035481565b600060014303831115151561183957600080fd5b8183406040516020018083600019166000191681526020018260001916600019168152602001925050506040516020818303038152906040526040518082805190602001908083835b6020831015156118a75780518252602082019150602081019050602083039250611882565b6001836020036101000a0380198251168184511680821785525050505050509050019150506040518091039020905092915050565b60008073ffffffffffffffffffffffffffffffffffffffff16600260009054906101000a900473ffffffffffffffffffffffffffffffffffffffff1673ffffffffffffffffffffffffffffffffffffffff16141580156119895750600260009054906101000a900473ffffffffffffffffffffffffffffffffffffffff1673ffffffffffffffffffffffffffffffffffffffff163373ffffffffffffffffffffffffffffffffffffffff16145b151561199457600080fd5b601e840143101580156119ad57506003601e8501014311155b15156119b857600080fd5b82600a6000868152602001908152602001600020600001816000191690555081600a60008681526020019081526020016000206001019080519060200190611a019291906125bf565b50600190509392505050565b60008060008060208851101515611a2357600080fd5b86518851141515611a3357600080fd5b859250600091505b8751821015611bf2578782815181101515611a5257fe5b9060200190602002015190508682815181101515611a6c57fe5b9060200190602002015115611b1c5780836040516020018083600019166000191681526020018260001916600019168152602001925050506040516020818303038152906040526040518082805190602001908083835b602083101515611ae85780518252602082019150602081019050602083039250611ac3565b6001836020036101000a03801982511681845116808217855250505050505090500191505060405180910390209250611be5565b8682815181101515611b2a57fe5b906020019060200201511515611bdb5782816040516020018083600019166000191681526020018260001916600019168152602001925050506040516020818303038152906040526040518082805190602001908083835b602083101515611ba75780518252602082019150602081019050602083039250611b82565b6001836020036101000a03801982511681845116808217855250505050505090500191505060405180910390209250611be4565b60009350611c00565b5b8180600101925050611a3b565b846000191683600019161493505b505050949350505050565b600560009054906101000a900460ff1681565b6000611c2861263f565b6001600960003373ffffffffffffffffffffffffffffffffffffffff1673ffffffffffffffffffffffffffffffffffffffff16815260200190815260200160002060020160006101000a81548160ff021916908315150217905550611c9284600860035401611edd565b9050611cf8868685600a6000600960003373ffffffffffffffffffffffffffffffffffffffff1673ffffffffffffffffffffffffffffffffffffffff16815260200190815260200160002060000154815260200190815260200160002060000154611a0d565b1515611d6c576040517f08c379a00000000000000000000000000000000000000000000000000000000081526004018080602001828103825260138152602001807f6d65726b6c652070726f6f66206661696c65640000000000000000000000000081525060200191505060405180910390fd5b60011515611d7e6007548a8a85611fe2565b1515141515611df5576040517f08c379a00000000000000000000000000000000000000000000000000000000081526004018080602001828103825260148152602001807f666f756e6420612077726f6e67207469636b657400000000000000000000000081525060200191505060405180910390fd5b60019150509998505050505050505050565b60006060600a600084815260200190815260200160002060000154600a6000858152602001908152602001600020600101808054600181600116156101000203166002900480601f016020809104026020016040519081016040528092919081815260200182805460018160011615610100020316600290048015611ecd5780601f10611ea257610100808354040283529160200191611ecd565b820191906000526020600020905b815481529060010190602001808311611eb057829003601f168201915b5050505050905091509150915091565b611ee561263f565b611eed61263f565b60008090505b611efc856116fd565b811015611fd75784844060018301604051602001808460001916600019168152602001836000191660001916815260200182815260200193505050506040516020818303038152906040526040518082805190602001908083835b602083101515611f7c5780518252602082019150602081019050602083039250611f57565b6001836020036101000a03801982511681845116808217855250505050505090500191505060405180910390208282600581101515611fb757fe5b602002019060001916908160001916815250508080600101915050611ef3565b819250505092915050565b60008060008090505b85518110156121b05786868281518110151561200357fe5b90602001906020020151406040516020018083600019166000191681526020018260001916600019168152602001925050506040516020818303038152906040526040518082805190602001908083835b6020831015156120795780518252602082019150602081019050602083039250612054565b6001836020036101000a0380198251168184511680821785525050505050509050019150506040518091039020915060108486838151811015156120b957fe5b906020019060200201516005811015156120cf57fe5b6020020151601f6020811015156120e257fe5b1a7f0100000000000000000000000000000000000000000000000000000000000000027f0100000000000000000000000000000000000000000000000000000000000000900481151561213157fe5b06601083601f60208110151561214357fe5b1a7f0100000000000000000000000000000000000000000000000000000000000000027f0100000000000000000000000000000000000000000000000000000000000000900481151561219257fe5b061415156121a357600092506121b5565b8080600101915050611feb565b600192505b5050949350505050565b60085481565b600060045434101515156121d857600080fd5b6000809054906101000a900473ffffffffffffffffffffffffffffffffffffffff1673ffffffffffffffffffffffffffffffffffffffff163373ffffffffffffffffffffffffffffffffffffffff161415151561223457600080fd5b60011515600560009054906101000a900460ff16151514151561225657600080fd5b600354600960003373ffffffffffffffffffffffffffffffffffffffff1673ffffffffffffffffffffffffffffffffffffffff16815260200190815260200160002060000154101515612311576040517f08c379a000000000000000000000000000000000000000000000000000000000815260040180806020018281038252600c8152602001807f6368616c6c616e67653a2031000000000000000000000000000000000000000081525060200191505060405180910390fd5b6007600354014311801561232a5750600a600354014311155b151561239e576040517f08c379a000000000000000000000000000000000000000000000000000000000815260040180806020018281038252600c8152602001807f6368616c6c616e67653a2032000000000000000000000000000000000000000081525060200191505060405180910390fd5b6103e86001600654011115151561241d576040517f08c379a000000000000000000000000000000000000000000000000000000000815260040180806020018281038252600c8152602001807f6368616c6c616e67653a2033000000000000000000000000000000000000000081525060200191505060405180910390fd5b6000600960003373ffffffffffffffffffffffffffffffffffffffff1673ffffffffffffffffffffffffffffffffffffffff16815260200190815260200160002060020160006101000a81548160ff021916908315150217905550600354600960003373ffffffffffffffffffffffffffffffffffffffff1673ffffffffffffffffffffffffffffffffffffffff1681526020019081526020016000206000018190555081600960003373ffffffffffffffffffffffffffffffffffffffff1673ffffffffffffffffffffffffffffffffffffffff1681526020019081526020016000206001018160001916905550600160066000828254019250508190555060019050919050565b60045481565b600160009054906101000a900473ffffffffffffffffffffffffffffffffffffffff1681565b600081409050919050565b60008060008414156125725760009150612594565b828402905082848281151561258357fe5b0414151561259057600080fd5b8091505b5092915050565b61040060405190810160405280602090602082028038833980820191505090505090565b828054600181600116156101000203166002900490600052602060002090601f016020900481019282601f1061260057805160ff191683800117855561262e565b8280016001018555821561262e579182015b8281111561262d578251825591602001919060010190612612565b5b50905061263b9190612662565b5090565b60a060405190810160405280600590602082028038833980820191505090505090565b61268491905b80821115612680576000816000905550600101612668565b5090565b905600a165627a7a72305820edb15be6a56634f0408d80d069ee41058b06d9b005e31d7ae7b8c1b438871ade0029",
  "source": "pragma solidity ^0.4.24;\n\n// import \"./ERC20.sol\";\nimport \"./SafeMath.sol\";\n// import \"./RNTInterface.sol\";\n// import \"./MerkleTreeValidatorInterface.sol\";\n\n// About the game\n// # Roles\n//  * defender : setup the game (only the fee)\n//  * player : join the game, max 1000 players, pay 0.01 eth and may win some RNT\n//  * validator: provide merkle proof at `end` block\n//\n// # time line of a game:\n//    start ------------ n ------- m -------------------------------- end --------\n//          calc           reg to    lottery, each round: 0-n winners     mr submit to chain;\n//                         sc        (only on sc)                         withdraw eth/claim reward\n//          (period1)      (period2) (period3)                            could start next round\n//\n//  * sc: state channel; mr: merkle root\n//  * period_all = period1 + period2 + period3\n//  * during period2 (btw. `n` and `m`) players get tickets on sc\n//  * player obtain ticket in the form `ticket[i] = hash(score + bn[m-1] + i)` where 0<=i<5, depend on score\n// todo: add an upper limit for the contract to give to players? Such as (the order of) 1000*0.01 eth = 10 eth = 1e5 RNT\n\ncontract BattleShip {\n\tusing SafeMath for uint256;\n\t// Variables\n\taddress public defender;\n\taddress public winner;\n\taddress public validator;\n\t// address public RNTAddr;\n\tuint constant public maxPlayer = 1000;\n\tuint constant public period_all = 30;  // 7 + 3 + 20\n\tuint public initHeight;\n\t// uint public lastActivity;\n\t// bytes32 public difficulty = 0x000000000000000000000000000000ffffffffffffffffffffffffffffffffff;\n\tuint public fee = 10000000000000000;\n\tbool public setup = false;\n\tuint public playercount = 0;\n        // address constant public MerkleTreeAddr = 0x127bfc8AFfdCaeee6043e7eC79239542e5A470B7;\n\n\tstruct playerInfo {\n\t\t// address wallet; // msg.sender\n\t\t// uint since;     // block height when joined\n\t\tuint initHeightJoined;\n\t\tbytes32 scoreHash;\n\t\tbool claimed;\n\t}\n\n        struct battleStat{\n            bytes32 merkleRoot;\n            string ipfsAddr;\n        }\n\n        bytes32 public board;\n        bytes32 public prevboard;\n        // address ethWinnerAddr;  // only one winner take eth\n        // uint ethWinnerReward;\n\n\tmapping (address => playerInfo) playerDB;\n\t// mapping (uint => mapping (address => battleStat)) battleHistory;\n\tmapping (uint => battleStat) battleHistory;\n\n\t// Modifiers\n\tmodifier defenderOnly() {\n\t\trequire(msg.sender == defender);\n\t\t_;\n\t}\n\n\tmodifier WinnerOnly() {\n\t\trequire(winner != address(0) && msg.sender == winner);\n\t\t_;\n\t}\n\n\tmodifier ValidatorOnly() {\n\t        require(validator != address(0) && msg.sender == validator);\n\t        _;\n        }\n\n\tmodifier NewGameOnly() {\n\t\trequire(setup == false);\n\t\t_;\n\t}\n\n\tmodifier feePaid() {\n\t\trequire(msg.value >= fee);\n\t\t_;\n\t}\n\n\tmodifier gameStarted() {\n\t\trequire(setup == true);\n\t\t_;\n\t}\n\n\tmodifier gameStalled() {\n\t\t// require(setup == true && block.number > initHeight + period_all && winner == address(0));\n\t\trequire(setup == true && block.number > initHeight + 10 && winner == address(0));\n\t\t_;\n\t}\n\n\tmodifier notDefender() {\n\t\trequire(msg.sender != defender);\n\t\t_;\n\t}\n\n\t// Contract constructor\n\tconstructor(bytes32 _init) public payable {\n\t\trequire(msg.value >= fee);\n\t\tdefender = msg.sender;\n\t\tvalidator = msg.sender;\n\t\t// RNTAddr  = _RNTAddr;\n\n\t\trequire(fortify(_init) == true);\n\t}\n\n\t// WinnerOnly\n\tfunction withdraw() public WinnerOnly returns (bool) {\n\t        // only one player win eth; make sure winner can claim the reward after next game started\n\t\trequire(block.number > playerDB[msg.sender].initHeightJoined + period_all);\n\t\t// require(block.number < playerDB[msg.sender].initHeightJoined + period_all + 7);\n\t\tsetup = false;\n\t\twinner = address(0);\n\t\tboard = bytes32(0);\n\t\tplayercount = 0;\n\n\t\tuint256 reward = uint256(address(this).balance).mul(uint256(6)) / uint256(10);\n\t\t// require(RNTInterface(RNTAddr).mint(msg.sender) == true);\n\t\trequire(msg.sender.send(reward) == true);\n\t\treturn true;\n\t}\n\n\n\tfunction claimLotteReward( // this happens after end of a game, next round may started\n\t    bytes32 secret,\n\t    string memory slots,\n\t    uint blockNo,\n\t    uint[] memory submitBlocks,  // the winning blocks the player claimed\n\t    uint[] memory winningTickets, // the idx of generateTickets. same order as submitBlocks\n\t    bytes32[] memory proof,\n\t    bool[] memory isLeft,\n\t    bytes32 score,\n\t    bytes32 claimHash\n\t) public returns (bool) {\n\t\t// require(playerDB[msg.sender].claimed == false, \"already claimed\");\n\t\t// require(winningTickets.length <= 10, \"you cannot claim more tickets\");\n\t        // require(proof.length == isLeft.length, \"len of proof/isLeft mismatch\");\n\t        // require(winningTickets.length == submitBlocks.length, \"submitBlocks and winningTickets mismatch\");\n\t\t// require(battleHistory[playerDB[msg.sender].initHeightJoined].merkleRoot != bytes32(0), \"no merkle root yet\");\n\t\t// require(block.number > playerDB[msg.sender].initHeightJoined + period_all, \"too early\");\n\t\t// require(block.number < playerDB[msg.sender].initHeightJoined + period_all + 7, \"too late\");\n\t\t// require(ecrecover(keccak256(abi.encodePacked(\"\\x19Ethereum Signed Message:\\n32\", keccak256(abi.encodePacked(score)))), v, r, s) == msg.sender);\n\t\t// bytes32 _board;\n\t\t// if (playerDB[msg.sender].initHeightJoined == initHeight) {\n\t\t//         _board = board;\n                // } else if (initHeight - playerDB[msg.sender].initHeightJoined > period_all) {\n                        // _board = prevboard;\n                // } else {\n                        // revert();\n                // }\n\n                // No second chance: if one of the following verification failed, the player cannot call this function again.\n                playerDB[msg.sender].claimed = true;\n                // uint i;\n\n\t        // verification: the secret belongs to the player\n\t\t// bytes32 newscore = keccak256(abi.encodePacked(msg.sender, secret, blockhash(blockNo))); // initialize for the loop below\n\t\t// bool[32] memory _slots = convertString32ToBool(slots); \n                // for (i = 0; i <= 31; i++) {\n\t\t// \tif(_slots[i] == false) {\n\t\t// \t\tassert(score[i] == _board[i]);\n\t\t// \t} else {\n\t\t// \t\tassert(score[i] == newscore[i]);\n\t\t// \t}\n\t\t// }\n\n\t\t// require(keccak256(abi.encodePacked(score)) == playerDB[msg.sender].scoreHash,\n\t\t//         \"wrong score base on the given secret/blockNo\");\n\n                // generate \"claimhash\", which is hash(msg.sender, submitBlocks[i], winningTickets[i], ...) where i=0,1,2,...\n\t\tbytes32[5] memory genTickets = generateTickets(score, initHeight+8);  // BUG: two continuos game\n                // bytes32[] memory claimHashElements;\n                // claimHashElements[0] = bytes20(msg.sender);\n                // for (i=0; i<winningTickets.length; i++){\n                //         claimHashElements[i*2+1] = bytes32(submitBlocks[i]);\n                //         claimHashElements[i*2+2] = bytes32(genTickets[winningTickets[i]]);\n                // }\n                // bytes32 claimHash = keccak256(abi.encodePacked(claimHashElements));\n                // require(merkleTreeValidator(proof, isLeft, keccak256(abi.encodePacked(claimHashElements)),\n                require(merkleTreeValidator(proof, isLeft, claimHash,\n                                            battleHistory[playerDB[msg.sender].initHeightJoined].merkleRoot),\n                        \"merkle proof failed\");\n\n                // count number of winning tickets\n                require(verifyWinnumber(board, submitBlocks, winningTickets, genTickets) == true, \"found a wrong ticket\");\n\t\treturn true;\n        }\n\n        function verifyWinnumber(bytes32 _board, uint[] submitBlocks, uint[] winningTickets, bytes32[5] genTickets) public view returns(bool){\n                bytes32 winNumber;\n                for (uint i=0; i<submitBlocks.length; i++){\n                            winNumber = keccak256(abi.encodePacked(_board, blockhash(submitBlocks[i])));\n                            if (uint(winNumber[31])%16 != uint(genTickets[winningTickets[i]][31])%16 ){\n                                    return false;\n                            }\n                            // require(winNumber[31] == genTickets[winningTickets[i]][31]);  // last 1 byte = 2 digits of hex\n                            // require(winNumber[31] == genTickets[winningTickets[i]][31] && \n                            //         uint(winNumber[30])%16 == uint(genTickets[winningTickets[i]][30])%16 );  // last 3 digits of hex\n                            // require(winNumber[31] == genTickets[winningTickets[i]][31] && \n                            //         winNumber[30] == genTickets[winningTickets[i]][30]);  // last 4 digits of hex\n\n                            // require(RNTInterface(RNTAddr).mint(msg.sender) == true);\n                }\n                return true;\n        }\n\n        function generateTickets(bytes32 score, uint _blockNo) public view returns (bytes32[5] memory){\n                // require(score != bytes32(0));\n                bytes32[5] memory tickets;\n                // uint ticketSeedBlockNo = playerDB[msg.sender].initHeightJoined + 8;\n\t\tfor (uint i = 0; i < getNumOfTickets(score); i++) {\n\t\t        tickets[i] = keccak256(abi.encodePacked(score, blockhash(_blockNo), i+1));  // idx of ticket start from 1\n\t\t        // tickets[i] = keccak256(abi.encodePacked(score, blockhash(playerDB[msg.sender].initHeight+8), i+1));  // idx of ticket start from 1\n\t\t        // tickets[i] = keccak256(abi.encodePacked(score, getBlockhash(playerDB[msg.sender].initHeight+8), i+1));  // idx of ticket start from 1\n                }\n                return tickets;\n        }\n\n        function getNumOfTickets(bytes32 score) public pure returns(uint){\n                if (score > 0x00ffffffffffffffffffffffffffffffffffffffffffffffffffffffffffffff) {\n                        return 1;  // min: 1 ticket\n                } else if (score > 0x000fffffffffffffffffffffffffffffffffffffffffffffffffffffffffffff) {\n                        return 2;\n                } else if (score > 0x0000ffffffffffffffffffffffffffffffffffffffffffffffffffffffffffff) {\n                        return 3;\n                } else if (score > 0x00000fffffffffffffffffffffffffffffffffffffffffffffffffffffffffff) {\n                        return 4;\n                } else {\n                        return 5;  // max: 5 tickets\n                }\n        }\n\n\n\t// function randomNumber() public view returns (bytes32) {\n\t// \trequire(lastRevived != samGroup[3] && samGroup[3] != bytes32(0));\n\t// \trequire(block.number - lastActivity <= 5);\n\t// \treturn keccak256(abi.encodePacked(samGroup[0], samGroup[1], samGroup[2], samGroup[3], blockhash(block.number - 1)));\n\t// }\n\n\tfunction getPlayerInfo(address _addr) public view returns (uint, bytes32, bool) {\n\t\treturn (playerDB[_addr].initHeightJoined, playerDB[_addr].scoreHash, playerDB[_addr].claimed);\n\t}\n\n\tfunction fortify(bytes32 defense) public payable feePaid defenderOnly NewGameOnly returns (bool) {\n\t\t// require(defense > difficulty);\n\n\t\twinner = address(0);\n\n\t\tinitHeight = block.number;\n\n\t\tplayerDB[msg.sender].initHeightJoined = initHeight;\n\t\tplayercount += 1;\n\t\tsetup = true;\n\n\t        prevboard = board;\n\t        board = defense;\n\n\t\treturn true;\n\t}\n\n\t// Join game\n\tfunction challenge(bytes32 scoreHash) public payable feePaid notDefender gameStarted returns (bool) {\n\t\trequire(playerDB[msg.sender].initHeightJoined < initHeight, \"challange: 1\");\n\t\trequire(block.number > initHeight + 7 && block.number <= initHeight + 10, \"challange: 2\");\n\t\trequire(playercount + 1 <= maxPlayer, \"challange: 3\");\n\n\t\tplayerDB[msg.sender].claimed = false;\n\t\tplayerDB[msg.sender].initHeightJoined = initHeight;\n\t\tplayerDB[msg.sender].scoreHash = scoreHash;\n\n\t\tplayercount += 1;\n\n\t\treturn true;\n\t}\n\n\tfunction testOutcome(bytes32 secret, uint blockNo) public gameStarted view returns (bytes32 _board, bool[32] memory _slots) {\n\t\trequire(block.number > initHeight + 7 && block.number <= initHeight + 10, 'testoutcome: 1');\n\t\trequire(block.number - blockNo < 7, 'testoutcome: 2');\n\t\trequire(blockNo <= block.number - 1 && blockNo >= initHeight + 7 && blockNo < initHeight + 10, 'testoutcome: 3');\n\n\t\t_board = keccak256(abi.encodePacked(msg.sender, secret, blockhash(blockNo)));\n\n\t\tfor (uint i = 0; i <= 31; i++) {\n\t\t\tif(_board[i] < board[i]) {\n\t\t\t\t_slots[i] = true;\n\t\t\t}\n\t\t}\n\n\t\treturn (_board, _slots);\n\t}\n\n\tfunction winningNumber(uint blockNo, bytes32 _board) public view returns (bytes32) {\n\t        // TODO: \"board\" should be a input value\n\t        require(blockNo <= block.number - 1);\n\t        return keccak256(abi.encodePacked(_board, blockhash(blockNo)));\n        }\n\n        function merkleTreeValidator(bytes32[] memory proof, bool[] memory isLeft, bytes32 targetLeaf, bytes32 _merkleRoot) public pure returns (bool) {\n                require(proof.length < 32);  // 2**32 ~ 4.3e9 leaves!\n                require(proof.length == isLeft.length);\n\n                bytes32 targetHash = targetLeaf;\n                for (uint256 i = 0; i < proof.length; i++) {\n                        bytes32 proofEle = proof[i]; \n                        if (isLeft[i]) {\n                                targetHash = keccak256(abi.encodePacked(proofEle, targetHash));\n                        } else if (!isLeft[i]) {\n                                targetHash = keccak256(abi.encodePacked(targetHash, proofEle));\n                        } else {\n                                return false;\n                        }\n                }\n                return targetHash == _merkleRoot;\n        }\n\n\tfunction submitMerkleRoot(uint _initHeight, bytes32 _merkleRoot, string memory _ipfsAddr) public ValidatorOnly returns (bool) {\n\t\trequire(block.number >= _initHeight + period_all && block.number <= _initHeight + period_all + 3);\n\t        battleHistory[_initHeight].merkleRoot = _merkleRoot;\n\t        battleHistory[_initHeight].ipfsAddr = _ipfsAddr;\n\t        return true;\n        }\n\n        function getBlockInfo(uint _initHeight) public view returns(bytes32, string){\n\t        return (battleHistory[_initHeight].merkleRoot, battleHistory[_initHeight].ipfsAddr);\n        }\n\n        function getBlockhash(uint blockNo) external view returns (bytes32) {\n                return blockhash(blockNo);\n        }\n\n        function convertString32ToBool(string memory s32) internal pure returns (bool[32] memory) {\n                // i.g., convert string \"01001....\" to bool[32]: [false, true, false, false, true, ...]\n                bytes memory s32Bytes = bytes(s32);\n                bool[32] memory result;\n                for (uint i = 0; i < s32Bytes.length; i++) {\n                        if(s32Bytes[i] == '1') {\n                            result[i] = true;\n                        } else {\n                            result[i] = false;\n                        }\n                }\n                return result;\n        }\n\n        function newValidator(address _newValidator) public defenderOnly returns (bool){\n                require(_newValidator != address(0));\n                validator = _newValidator;\n                return true;\n        }\n\n        // fallback\n        function () defenderOnly gameStalled external { \n            winner = defender; \n            // require(withdraw());\n            setup = false;\n            board = bytes32(0);\n            playercount = 0;\n\t    require(msg.sender.send(address(this).balance) == true);\n        }\n}\n",
  "sourcePath": "/home/kai/Work/project/BattleShip/contracts/BattleShip.sol",
  "compiler": {
    "name": "solc",
    "version": "0.4.25+commit.59dbf8f1.Emscripten.clang"
  },
  "schemaVersion": "2.0.2",
  "updatedAt": "2019-01-19T04:48:11.797Z"
}