{
  "contractName": "BattleShip",
  "abi": [
    {
      "constant": true,
      "inputs": [],
      "name": "RNTAddr",
      "outputs": [
        {
          "name": "",
          "type": "address"
        }
      ],
      "payable": false,
      "stateMutability": "view",
      "type": "function"
    },
    {
      "constant": true,
      "inputs": [],
      "name": "difficulty",
      "outputs": [
        {
          "name": "",
          "type": "bytes32"
        }
      ],
      "payable": false,
      "stateMutability": "view",
      "type": "function"
    },
    {
      "constant": true,
      "inputs": [],
      "name": "maxPlayer",
      "outputs": [
        {
          "name": "",
          "type": "uint256"
        }
      ],
      "payable": false,
      "stateMutability": "view",
      "type": "function"
    },
    {
      "constant": true,
      "inputs": [],
      "name": "playercount",
      "outputs": [
        {
          "name": "",
          "type": "uint256"
        }
      ],
      "payable": false,
      "stateMutability": "view",
      "type": "function"
    },
    {
      "constant": true,
      "inputs": [],
      "name": "board",
      "outputs": [
        {
          "name": "",
          "type": "bytes32"
        }
      ],
      "payable": false,
      "stateMutability": "view",
      "type": "function"
    },
    {
      "constant": true,
      "inputs": [],
      "name": "defender",
      "outputs": [
        {
          "name": "",
          "type": "address"
        }
      ],
      "payable": false,
      "stateMutability": "view",
      "type": "function"
    },
    {
      "constant": true,
      "inputs": [],
      "name": "initHeight",
      "outputs": [
        {
          "name": "",
          "type": "uint256"
        }
      ],
      "payable": false,
      "stateMutability": "view",
      "type": "function"
    },
    {
      "constant": true,
      "inputs": [],
      "name": "setup",
      "outputs": [
        {
          "name": "",
          "type": "bool"
        }
      ],
      "payable": false,
      "stateMutability": "view",
      "type": "function"
    },
    {
      "constant": true,
      "inputs": [],
      "name": "fee",
      "outputs": [
        {
          "name": "",
          "type": "uint256"
        }
      ],
      "payable": false,
      "stateMutability": "view",
      "type": "function"
    },
    {
      "constant": true,
      "inputs": [],
      "name": "winner",
      "outputs": [
        {
          "name": "",
          "type": "address"
        }
      ],
      "payable": false,
      "stateMutability": "view",
      "type": "function"
    },
    {
      "constant": true,
      "inputs": [],
      "name": "period",
      "outputs": [
        {
          "name": "",
          "type": "uint256"
        }
      ],
      "payable": false,
      "stateMutability": "view",
      "type": "function"
    },
    {
      "inputs": [
        {
          "name": "_init",
          "type": "bytes32"
        },
        {
          "name": "_RNTAddr",
          "type": "address"
        }
      ],
      "payable": true,
      "stateMutability": "payable",
      "type": "constructor"
    },
    {
      "payable": false,
      "stateMutability": "nonpayable",
      "type": "fallback"
    },
    {
      "constant": false,
      "inputs": [],
      "name": "withdraw",
      "outputs": [
        {
          "name": "",
          "type": "bool"
        }
      ],
      "payable": false,
      "stateMutability": "nonpayable",
      "type": "function"
    },
    {
      "constant": true,
      "inputs": [
        {
          "name": "a",
          "type": "bytes32"
        },
        {
          "name": "b",
          "type": "bytes32"
        },
        {
          "name": "slot",
          "type": "uint256"
        }
      ],
      "name": "equalTest",
      "outputs": [
        {
          "name": "",
          "type": "bytes1"
        },
        {
          "name": "",
          "type": "bytes1"
        }
      ],
      "payable": false,
      "stateMutability": "pure",
      "type": "function"
    },
    {
      "constant": true,
      "inputs": [],
      "name": "myInfo",
      "outputs": [
        {
          "name": "",
          "type": "uint256"
        },
        {
          "name": "",
          "type": "uint8"
        },
        {
          "name": "",
          "type": "bytes32"
        },
        {
          "name": "",
          "type": "bytes32"
        },
        {
          "name": "",
          "type": "uint256"
        }
      ],
      "payable": false,
      "stateMutability": "view",
      "type": "function"
    },
    {
      "constant": false,
      "inputs": [
        {
          "name": "defense",
          "type": "bytes32"
        }
      ],
      "name": "fortify",
      "outputs": [
        {
          "name": "",
          "type": "bool"
        }
      ],
      "payable": true,
      "stateMutability": "payable",
      "type": "function"
    },
    {
      "constant": false,
      "inputs": [
        {
          "name": "v",
          "type": "uint8"
        },
        {
          "name": "r",
          "type": "bytes32"
        },
        {
          "name": "s",
          "type": "bytes32"
        }
      ],
      "name": "challenge",
      "outputs": [
        {
          "name": "",
          "type": "bool"
        }
      ],
      "payable": true,
      "stateMutability": "payable",
      "type": "function"
    },
    {
      "constant": true,
      "inputs": [
        {
          "name": "secret",
          "type": "bytes32"
        },
        {
          "name": "blockNo",
          "type": "uint256"
        }
      ],
      "name": "testOutcome",
      "outputs": [
        {
          "name": "_board",
          "type": "bytes32"
        },
        {
          "name": "_slots",
          "type": "bool[32]"
        }
      ],
      "payable": false,
      "stateMutability": "view",
      "type": "function"
    },
    {
      "constant": false,
      "inputs": [
        {
          "name": "secret",
          "type": "bytes32"
        },
        {
          "name": "score",
          "type": "bytes32"
        },
        {
          "name": "slots",
          "type": "bool[32]"
        },
        {
          "name": "blockNo",
          "type": "uint256"
        }
      ],
      "name": "revealSecret",
      "outputs": [
        {
          "name": "",
          "type": "bool"
        }
      ],
      "payable": false,
      "stateMutability": "nonpayable",
      "type": "function"
    }
  ],
  "bytecode": "0x608060405270ffffffffffffffffffffffffffffffffff600102600490600019169055662386f26fc100006006556000600760006101000a81548160ff0219169083151502179055506000600855604051604080620021a0833981018060405281019080805190602001909291908051906020019092919050505060065434101515156200008c57600080fd5b336000806101000a81548173ffffffffffffffffffffffffffffffffffffffff021916908373ffffffffffffffffffffffffffffffffffffffff16021790555080600260006101000a81548173ffffffffffffffffffffffffffffffffffffffff021916908373ffffffffffffffffffffffffffffffffffffffff160217905550600115156200012b8362000142640100000000026401000000009004565b15151415156200013a57600080fd5b5050620003a6565b60006200014e62000357565b60065434101515156200016057600080fd5b6000809054906101000a900473ffffffffffffffffffffffffffffffffffffffff1673ffffffffffffffffffffffffffffffffffffffff163373ffffffffffffffffffffffffffffffffffffffff16141515620001bc57600080fd5b60001515600760009054906101000a900460ff161515141515620001df57600080fd5b600454600019168360001916111515620001f857600080fd5b33816000019073ffffffffffffffffffffffffffffffffffffffff16908173ffffffffffffffffffffffffffffffffffffffff16815250504381602001818152505082600581600019169055504360038190555080600960003373ffffffffffffffffffffffffffffffffffffffff1673ffffffffffffffffffffffffffffffffffffffff16815260200190815260200160002060008201518160000160006101000a81548173ffffffffffffffffffffffffffffffffffffffff021916908373ffffffffffffffffffffffffffffffffffffffff1602179055506020820151816001015560408201518160020160006101000a81548160ff021916908360ff160217905550606082015181600301906000191690556080820151816004019060001916905590505060016008600082825401925050819055506001600760006101000a81548160ff0219169083151502179055506001915050919050565b60a060405190810160405280600073ffffffffffffffffffffffffffffffffffffffff16815260200160008152602001600060ff16815260200160008019168152602001600080191681525090565b611dea80620003b66000396000f3006080604052600436106100fc576000357c0100000000000000000000000000000000000000000000000000000000900463ffffffff16806306491eff1461026757806319cae462146102be5780631cb9409f146102f157806334fdd273146103765780633ccfd60b1461040657806358533612146104355780636426b1e4146104715780636526845c1461049c5780636b180b59146105885780637cd3229a146105b35780637f4c91c5146105e6578063805604fd1461063d57806385b31d7b14610694578063a78eacdb146106f1578063ba0bba401461071c578063ddca3f431461074b578063dfbf53ae14610776578063ef78d4fd146107cd575b34801561010857600080fd5b506000809054906101000a900473ffffffffffffffffffffffffffffffffffffffff1673ffffffffffffffffffffffffffffffffffffffff163373ffffffffffffffffffffffffffffffffffffffff1614151561016457600080fd5b60011515600760009054906101000a900460ff16151514801561018b5750607d6003540143115b80156101e55750600073ffffffffffffffffffffffffffffffffffffffff16600160009054906101000a900473ffffffffffffffffffffffffffffffffffffffff1673ffffffffffffffffffffffffffffffffffffffff16145b15156101f057600080fd5b6000809054906101000a900473ffffffffffffffffffffffffffffffffffffffff16600160006101000a81548173ffffffffffffffffffffffffffffffffffffffff021916908373ffffffffffffffffffffffffffffffffffffffff16021790555061025a6107f8565b151561026557600080fd5b005b34801561027357600080fd5b5061027c610acb565b604051808273ffffffffffffffffffffffffffffffffffffffff1673ffffffffffffffffffffffffffffffffffffffff16815260200191505060405180910390f35b3480156102ca57600080fd5b506102d3610af1565b60405180826000191660001916815260200191505060405180910390f35b3480156102fd57600080fd5b5061032a600480360381019080803560001916906020019092919080359060200190929190505050610af7565b604051808360001916600019168152602001826020800280838360005b83811015610362578082015181840152602081019050610347565b505050509050019250505060405180910390f35b34801561038257600080fd5b506103ec60048036038101908080356000191690602001909291908035600019169060200190929190806104000190602080602002604051908101604052809291908260208002808284378201915050505050919291929080359060200190929190505050610d23565b604051808215151515815260200191505060405180910390f35b34801561041257600080fd5b5061041b6107f8565b604051808215151515815260200191505060405180910390f35b6104576004803603810190808035600019169060200190929190505050611625565b604051808215151515815260200191505060405180910390f35b34801561047d57600080fd5b50610486611834565b6040518082815260200191505060405180910390f35b3480156104a857600080fd5b506104e3600480360381019080803560001916906020019092919080356000191690602001909291908035906020019092919050505061183a565b60405180837effffffffffffffffffffffffffffffffffffffffffffffffffffffffffffff19167effffffffffffffffffffffffffffffffffffffffffffffffffffffffffffff19168152602001827effffffffffffffffffffffffffffffffffffffffffffffffffffffffffffff19167effffffffffffffffffffffffffffffffffffffffffffffffffffffffffffff191681526020019250505060405180910390f35b34801561059457600080fd5b5061059d6118ab565b6040518082815260200191505060405180910390f35b3480156105bf57600080fd5b506105c86118b1565b60405180826000191660001916815260200191505060405180910390f35b3480156105f257600080fd5b506105fb6118b7565b604051808273ffffffffffffffffffffffffffffffffffffffff1673ffffffffffffffffffffffffffffffffffffffff16815260200191505060405180910390f35b61067a600480360381019080803560ff169060200190929190803560001916906020019092919080356000191690602001909291905050506118dc565b604051808215151515815260200191505060405180910390f35b3480156106a057600080fd5b506106a9611b4b565b604051808681526020018560ff1660ff168152602001846000191660001916815260200183600019166000191681526020018281526020019550505050505060405180910390f35b3480156106fd57600080fd5b50610706611c80565b6040518082815260200191505060405180910390f35b34801561072857600080fd5b50610731611c86565b604051808215151515815260200191505060405180910390f35b34801561075757600080fd5b50610760611c99565b6040518082815260200191505060405180910390f35b34801561078257600080fd5b5061078b611c9f565b604051808273ffffffffffffffffffffffffffffffffffffffff1673ffffffffffffffffffffffffffffffffffffffff16815260200191505060405180910390f35b3480156107d957600080fd5b506107e2611cc5565b6040518082815260200191505060405180910390f35b600080600073ffffffffffffffffffffffffffffffffffffffff16600160009054906101000a900473ffffffffffffffffffffffffffffffffffffffff1673ffffffffffffffffffffffffffffffffffffffff16141580156108a75750600160009054906101000a900473ffffffffffffffffffffffffffffffffffffffff1673ffffffffffffffffffffffffffffffffffffffff163373ffffffffffffffffffffffffffffffffffffffff16145b15156108b257600080fd5b607d60035401431115156108c557600080fd5b6000600760006101000a81548160ff0219169083151502179055506000600160006101000a81548173ffffffffffffffffffffffffffffffffffffffff021916908373ffffffffffffffffffffffffffffffffffffffff1602179055506000600102600581600019169055506000600881905550600a61096660063073ffffffffffffffffffffffffffffffffffffffff1631611cca90919063ffffffff16565b81151561096f57fe5b04905060011515600260009054906101000a900473ffffffffffffffffffffffffffffffffffffffff1673ffffffffffffffffffffffffffffffffffffffff16636a627842336040518263ffffffff167c0100000000000000000000000000000000000000000000000000000000028152600401808273ffffffffffffffffffffffffffffffffffffffff1673ffffffffffffffffffffffffffffffffffffffff168152602001915050602060405180830381600087803b158015610a3357600080fd5b505af1158015610a47573d6000803e3d6000fd5b505050506040513d6020811015610a5d57600080fd5b81019080805190602001909291905050501515141515610a7c57600080fd5b600115153373ffffffffffffffffffffffffffffffffffffffff166108fc839081150290604051600060405180830381858888f193505050501515141515610ac357600080fd5b600191505090565b600260009054906101000a900473ffffffffffffffffffffffffffffffffffffffff1681565b60045481565b6000610b01611d08565b600060011515600760009054906101000a900460ff161515141515610b2557600080fd5b607d600354014311158015610b3c57506003544310155b1515610b4757600080fd5b6005607d03844303101515610b5b57600080fd5b600143038411158015610b725750607d6003540184105b8015610b8357506005600354018410155b1515610b8e57600080fd5b8484406040516020018083600019166000191681526020018260001916600019168152602001925050506040516020818303038152906040526040518082805190602001908083835b602083101515610bfc5780518252602082019150602081019050602083039250610bd7565b6001836020036101000a03801982511681845116808217855250505050505090500191505060405180910390209250600090505b601f81111515610d155760055481602081101515610c4a57fe5b1a7f0100000000000000000000000000000000000000000000000000000000000000027effffffffffffffffffffffffffffffffffffffffffffffffffffffffffffff19168382602081101515610c9d57fe5b1a7f0100000000000000000000000000000000000000000000000000000000000000027effffffffffffffffffffffffffffffffffffffffffffffffffffffffffffff19161015610d085760018282602081101515610cf857fe5b6020020190151590811515815250505b8080600101915050610c30565b828292509250509250929050565b6000610d2d611d2c565b600060011515600760009054906101000a900460ff161515141515610d5157600080fd5b6000809054906101000a900473ffffffffffffffffffffffffffffffffffffffff1673ffffffffffffffffffffffffffffffffffffffff163373ffffffffffffffffffffffffffffffffffffffff1614151515610dad57600080fd5b600354600960003373ffffffffffffffffffffffffffffffffffffffff1673ffffffffffffffffffffffffffffffffffffffff16815260200190815260200160002060010154111515610dff57600080fd5b6000600a6000600354815260200190815260200160002060003373ffffffffffffffffffffffffffffffffffffffff1673ffffffffffffffffffffffffffffffffffffffff16815260200190815260200160002060000154141515610e6357600080fd5b607d600354014311158015610ebd57506005600960003373ffffffffffffffffffffffffffffffffffffffff1673ffffffffffffffffffffffffffffffffffffffff16815260200190815260200160002060010154014310155b1515610ec857600080fd5b6005607d03844303101515610edc57600080fd5b600143038411158015610ef35750607d6003540184105b8015610f0457506005600354018410155b1515610f0f57600080fd5b3373ffffffffffffffffffffffffffffffffffffffff1660018860405160200180807f19457468657265756d205369676e6564204d6573736167653a0a333200000000815250601c0182600019166000191681526020019150506040516020818303038152906040526040518082805190602001908083835b602083101515610fad5780518252602082019150602081019050602083039250610f88565b6001836020036101000a0380198251168184511680821785525050505050509050019150506040518091039020600960003373ffffffffffffffffffffffffffffffffffffffff1673ffffffffffffffffffffffffffffffffffffffff16815260200190815260200160002060020160009054906101000a900460ff16600960003373ffffffffffffffffffffffffffffffffffffffff1673ffffffffffffffffffffffffffffffffffffffff16815260200190815260200160002060030154600960003373ffffffffffffffffffffffffffffffffffffffff1673ffffffffffffffffffffffffffffffffffffffff16815260200190815260200160002060040154604051600081526020016040526040518085600019166000191681526020018460ff1660ff1681526020018360001916600019168152602001826000191660001916815260200194505050505060206040516020810390808403906000865af1158015611121573d6000803e3d6000fd5b5050506020604051035173ffffffffffffffffffffffffffffffffffffffff1614151561114d57600080fd5b600354826000018181525050868260600190600019169081600019168152505083408260a0019060001916908160001916815250508684406040516020018083600019166000191681526020018260001916600019168152602001925050506040516020818303038152906040526040518082805190602001908083835b6020831015156111f057805182526020820191506020810190506020830392506111cb565b6001836020036101000a038019825116818451168082178552505050505050905001915050604051809103902082608001906000191690816000191681525050600090505b601f811115156113d55760001515858260208110151561125157fe5b602002015115151415611314576005548160208110151561126e57fe5b1a7f0100000000000000000000000000000000000000000000000000000000000000027effffffffffffffffffffffffffffffffffffffffffffffffffffffffffffff191686826020811015156112c157fe5b1a7f0100000000000000000000000000000000000000000000000000000000000000027effffffffffffffffffffffffffffffffffffffffffffffffffffffffffffff191614151561130f57fe5b6113c8565b81608001518160208110151561132657fe5b1a7f0100000000000000000000000000000000000000000000000000000000000000027effffffffffffffffffffffffffffffffffffffffffffffffffffffffffffff1916868260208110151561137957fe5b1a7f0100000000000000000000000000000000000000000000000000000000000000027effffffffffffffffffffffffffffffffffffffffffffffffffffffffffffff19161415156113c757fe5b5b8080600101915050611235565b858260800190600019169081600019168152505081600a6000600354815260200190815260200160002060003373ffffffffffffffffffffffffffffffffffffffff1673ffffffffffffffffffffffffffffffffffffffff168152602001908152602001600020600082015181600001556020820151816001015560408201518160020190600019169055606082015181600301906000191690556080820151816004019060001916905560a08201518160050190600019169055905050600073ffffffffffffffffffffffffffffffffffffffff16600160009054906101000a900473ffffffffffffffffffffffffffffffffffffffff1673ffffffffffffffffffffffffffffffffffffffff161480156114fe575060055460001916826080015160001916105b156115495733600160006101000a81548173ffffffffffffffffffffffffffffffffffffffff021916908373ffffffffffffffffffffffffffffffffffffffff160217905550611617565b600a600060035481526020019081526020016000206000600160009054906101000a900473ffffffffffffffffffffffffffffffffffffffff1673ffffffffffffffffffffffffffffffffffffffff1673ffffffffffffffffffffffffffffffffffffffff168152602001908152602001600020600401546000191682608001516000191610156116165733600160006101000a81548173ffffffffffffffffffffffffffffffffffffffff021916908373ffffffffffffffffffffffffffffffffffffffff1602179055505b5b600192505050949350505050565b600061162f611d6f565b600654341015151561164057600080fd5b6000809054906101000a900473ffffffffffffffffffffffffffffffffffffffff1673ffffffffffffffffffffffffffffffffffffffff163373ffffffffffffffffffffffffffffffffffffffff1614151561169b57600080fd5b60001515600760009054906101000a900460ff1615151415156116bd57600080fd5b6004546000191683600019161115156116d557600080fd5b33816000019073ffffffffffffffffffffffffffffffffffffffff16908173ffffffffffffffffffffffffffffffffffffffff16815250504381602001818152505082600581600019169055504360038190555080600960003373ffffffffffffffffffffffffffffffffffffffff1673ffffffffffffffffffffffffffffffffffffffff16815260200190815260200160002060008201518160000160006101000a81548173ffffffffffffffffffffffffffffffffffffffff021916908373ffffffffffffffffffffffffffffffffffffffff1602179055506020820151816001015560408201518160020160006101000a81548160ff021916908360ff160217905550606082015181600301906000191690556080820151816004019060001916905590505060016008600082825401925050819055506001600760006101000a81548160ff0219169083151502179055506001915050919050565b6103e881565b600080848360208110151561184b57fe5b1a7f010000000000000000000000000000000000000000000000000000000000000002848460208110151561187c57fe5b1a7f01000000000000000000000000000000000000000000000000000000000000000291509150935093915050565b60085481565b60055481565b6000809054906101000a900473ffffffffffffffffffffffffffffffffffffffff1681565b60006118e6611d6f565b60065434101515156118f757600080fd5b6000809054906101000a900473ffffffffffffffffffffffffffffffffffffffff1673ffffffffffffffffffffffffffffffffffffffff163373ffffffffffffffffffffffffffffffffffffffff161415151561195357600080fd5b60011515600760009054906101000a900460ff16151514151561197557600080fd5b600354600960003373ffffffffffffffffffffffffffffffffffffffff1673ffffffffffffffffffffffffffffffffffffffff168152602001908152602001600020600101541015156119c757600080fd5b6103e8600160085401111515156119dd57600080fd5b33816000019073ffffffffffffffffffffffffffffffffffffffff16908173ffffffffffffffffffffffffffffffffffffffff16815250504381602001818152505084816040019060ff16908160ff16815250508381606001906000191690816000191681525050828160800190600019169081600019168152505080600960003373ffffffffffffffffffffffffffffffffffffffff1673ffffffffffffffffffffffffffffffffffffffff16815260200190815260200160002060008201518160000160006101000a81548173ffffffffffffffffffffffffffffffffffffffff021916908373ffffffffffffffffffffffffffffffffffffffff1602179055506020820151816001015560408201518160020160006101000a81548160ff021916908360ff1602179055506060820151816003019060001916905560808201518160040190600019169055905050600160086000828254019250508190555060019150509392505050565b6000806000806000600960003373ffffffffffffffffffffffffffffffffffffffff1673ffffffffffffffffffffffffffffffffffffffff16815260200190815260200160002060010154600960003373ffffffffffffffffffffffffffffffffffffffff1673ffffffffffffffffffffffffffffffffffffffff16815260200190815260200160002060020160009054906101000a900460ff16600960003373ffffffffffffffffffffffffffffffffffffffff1673ffffffffffffffffffffffffffffffffffffffff16815260200190815260200160002060030154600960003373ffffffffffffffffffffffffffffffffffffffff1673ffffffffffffffffffffffffffffffffffffffff16815260200190815260200160002060040154600354945094509450945094509091929394565b60035481565b600760009054906101000a900460ff1681565b60065481565b600160009054906101000a900473ffffffffffffffffffffffffffffffffffffffff1681565b607d81565b6000806000841415611cdf5760009150611d01565b8284029050828482811515611cf057fe5b04141515611cfd57600080fd5b8091505b5092915050565b61040060405190810160405280602090602082028038833980820191505090505090565b60c0604051908101604052806000815260200160008152602001600080191681526020016000801916815260200160008019168152602001600080191681525090565b60a060405190810160405280600073ffffffffffffffffffffffffffffffffffffffff16815260200160008152602001600060ff168152602001600080191681526020016000801916815250905600a165627a7a723058208ab740c8b7789b868372c8728965f8ed95496f7756f8d14aa2d8a28c493403860029",
  "source": "pragma solidity ^0.4.24;\n\nimport \"./ERC20.sol\";\nimport \"./SafeMath.sol\";\nimport \"./RNTInterface.sol\";\n\ncontract BattleShip {\n\tusing SafeMath for uint256;\n\t// Variables\n\taddress public defender;\n\taddress public winner;\n\taddress public RNTAddr;\n\tuint constant public maxPlayer = 1000;\n\tuint constant public period = 125;\n\tuint public initHeight;\n\tbytes32 public difficulty = 0x000000000000000000000000000000ffffffffffffffffffffffffffffffffff;\n\tbytes32 public board;\n\tuint public fee = 10000000000000000;\n\tbool public setup = false;\n\tuint public playercount = 0;\n\n\tstruct playerInfo {\n\t\taddress wallet; // msg.sender\n\t\tuint since;     // block height when joined\n\t\tuint8 v;\n\t\tbytes32 r;\n\t\tbytes32 s; \n\t}\n\n\tstruct battleStat {\n\t\tuint battle;\n\t\tuint height;\n\t\tbytes32 merkleRoot;\n\t\tbytes32 secret;\n\t\tbytes32 score;\n\t\tbytes32 bhash;\n\t}\n\n\tmapping (address => playerInfo) playerDB;\n\tmapping (uint => mapping (address => battleStat)) battleHistory;\n\n\t// Modifiers\n\tmodifier defenderOnly() {\n\t\trequire(msg.sender == defender);\n\t\t_;\n\t}\n\n\tmodifier WinnerOnly() {\n\t\trequire(winner != address(0) && msg.sender == winner);\n\t\t_;\n\t}\n\n\tmodifier NewGameOnly() {\n\t\trequire(setup == false);\n\t\t_;\n\t}\n\n\tmodifier feePaid() {\n\t\trequire(msg.value >= fee);\n\t\t_;\n\t}\n\n\tmodifier gameStarted() {\n\t\trequire(setup == true);\n\t\t_;\n\t}\n\n\tmodifier gameStalled() {\n\t\trequire(setup == true && block.number > initHeight + period && winner == address(0));\n\t\t_;\n\t}\n\n\tmodifier notDefender() {\n\t\trequire(msg.sender != defender);\n\t\t_;\n\t}\n\n\t// Contract constructor\n\tconstructor(bytes32 _init, address _RNTAddr) public payable {\n\t\trequire(msg.value >= fee);\n\t\tdefender = msg.sender;\n\t\tRNTAddr  = _RNTAddr;\n\n\t\trequire(fortify(_init) == true);\n\t}\n\n\t// WinnerOnly\n\tfunction withdraw() public WinnerOnly returns (bool) {\n\t\trequire(block.number > initHeight + period);\n\t\tsetup = false;\n\t\twinner = address(0);\n\t\tboard = bytes32(0);\n\t\tplayercount = 0;\n\n\t\tuint256 reward = uint256(address(this).balance).mul(uint256(6)) / uint256(10);\n\t\trequire(RNTInterface(RNTAddr).mint(msg.sender) == true);\n\t\trequire(msg.sender.send(reward) == true);\n\n\t\treturn true;\n\t}\n\n\t// Constant functions\n\tfunction equalTest(bytes32 a, bytes32 b, uint slot) public pure returns (byte, byte) {\n\t\treturn (a[slot], b[slot]);\n\t}\n\n\tfunction myInfo() public view returns (uint, uint8, bytes32, bytes32, uint) {\n\t\treturn (playerDB[msg.sender].since, playerDB[msg.sender].v, playerDB[msg.sender].r, playerDB[msg.sender].s, initHeight);\n\t}\n\n\tfunction fortify(bytes32 defense) public payable feePaid defenderOnly NewGameOnly returns (bool) {\n\t\trequire(defense > difficulty);\n\t\tplayerInfo memory newone;\n\n\t\tnewone.wallet = msg.sender;\n\t\tnewone.since  = block.number;\n\t\tboard = defense;\n\n\t\tinitHeight = block.number;\n\t\tplayerDB[msg.sender] = newone;\n\t\tplayercount += 1;\n\t\tsetup = true;\n\n\t\treturn true;\n\t}\n\n\t// Join game\n\tfunction challenge(uint8 v, bytes32 r, bytes32 s) public payable feePaid notDefender gameStarted returns (bool) {\n\t\trequire(playerDB[msg.sender].since < initHeight);\n\t\trequire(playercount + 1 <= maxPlayer);\n\n\t\tplayerInfo memory newone;\n\n\t\tnewone.wallet = msg.sender;\n\t\tnewone.since  = block.number;\n\t\tnewone.v = v; newone.r = r; newone.s = s;\n\n\t\tplayerDB[msg.sender] = newone;\n\t\tplayercount += 1;\n\n\t\treturn true;\n\t}\n\n\tfunction testOutcome(bytes32 secret, uint blockNo) public gameStarted view returns (bytes32 _board, bool[32] memory _slots) {\n\t\trequire(block.number <= initHeight + period && block.number >= initHeight);\n\t\trequire(block.number - blockNo < period - 5);\n\t\trequire(blockNo <= block.number - 1 && blockNo < initHeight + period && blockNo >= initHeight + 5);\n\n\t\t_board = keccak256(abi.encodePacked(secret, blockhash(blockNo)));\n\n\t\tfor (uint i = 0; i <= 31; i++) {\n\t\t\tif(_board[i] < board[i]) {\n\t\t\t\t_slots[i] = true;\n\t\t\t}\n\t\t}\n\n\t\treturn (_board, _slots);\n\t}\n\n\tfunction revealSecret(bytes32 secret, bytes32 score, bool[32] memory slots, uint blockNo) public gameStarted notDefender returns (bool) {\n\t\trequire(playerDB[msg.sender].since > initHeight);\n\t\trequire(battleHistory[initHeight][msg.sender].battle == 0);\n\t\trequire(block.number <= initHeight + period && block.number >= playerDB[msg.sender].since + 5);\n\t\trequire(block.number - blockNo < period - 5);\n\t\trequire(blockNo <= block.number - 1 && blockNo < initHeight + period && blockNo >= initHeight + 5);\n\t\trequire(ecrecover(keccak256(abi.encodePacked(\"\\x19Ethereum Signed Message:\\n32\", secret)), playerDB[msg.sender].v, playerDB[msg.sender].r, playerDB[msg.sender].s) == msg.sender);\n\n\t\tbattleStat memory newbat;\n\t\tnewbat.battle = initHeight;\n\t\tnewbat.secret = secret;\n\t\tnewbat.bhash = blockhash(blockNo);\n\t\tnewbat.score = keccak256(abi.encodePacked(secret, blockhash(blockNo))); // initialize for the loop below\n\n\t\tfor (uint i = 0; i <= 31; i++) {\n\t\t\tif(slots[i] == false) {\n\t\t\t\tassert(score[i] == board[i]);\n\t\t\t} else {\n\t\t\t\tassert(score[i] == newbat.score[i]);\n\t\t\t}\n\t\t}\n\n\t\tnewbat.score = score;\n\t\tbattleHistory[initHeight][msg.sender] = newbat;\n\n\t\t// ToDo: majority merkle root voting and checking of each submission \n\t\tif (winner == address(0) && newbat.score < board) {\n\t\t\twinner = msg.sender;\n\t\t} else if (newbat.score < battleHistory[initHeight][winner].score) {\n\t\t\twinner = msg.sender;\n\t\t}\n\n\t\treturn true;\n\t}\n\n\t// fallback\n  \tfunction () defenderOnly gameStalled external { \n  \t    winner = defender; \n  \t    require(withdraw()); \n  \t}\n}\n",
  "sourcePath": "/workspace/GameEth/contracts/BattleShip.sol",
  "compiler": {
    "name": "solc",
    "version": "0.4.24+commit.e67f0147.Emscripten.clang"
  },
  "schemaVersion": "2.0.1",
  "updatedAt": "2019-01-02T22:36:24.178Z"
}