{
  "contractName": "BattleShip",
  "abi": [
    {
      "constant": true,
      "inputs": [],
      "name": "period2",
      "outputs": [
        {
          "name": "",
          "type": "uint256"
        }
      ],
      "payable": false,
      "stateMutability": "view",
      "type": "function"
    },
    {
      "constant": true,
      "inputs": [],
      "name": "difficulty",
      "outputs": [
        {
          "name": "",
          "type": "bytes32"
        }
      ],
      "payable": false,
      "stateMutability": "view",
      "type": "function"
    },
    {
      "constant": true,
      "inputs": [],
      "name": "validator",
      "outputs": [
        {
          "name": "",
          "type": "address"
        }
      ],
      "payable": false,
      "stateMutability": "view",
      "type": "function"
    },
    {
      "constant": true,
      "inputs": [],
      "name": "period1",
      "outputs": [
        {
          "name": "",
          "type": "uint256"
        }
      ],
      "payable": false,
      "stateMutability": "view",
      "type": "function"
    },
    {
      "constant": true,
      "inputs": [],
      "name": "lastActivity",
      "outputs": [
        {
          "name": "",
          "type": "uint256"
        }
      ],
      "payable": false,
      "stateMutability": "view",
      "type": "function"
    },
    {
      "constant": true,
      "inputs": [],
      "name": "maxPlayer",
      "outputs": [
        {
          "name": "",
          "type": "uint256"
        }
      ],
      "payable": false,
      "stateMutability": "view",
      "type": "function"
    },
    {
      "constant": true,
      "inputs": [],
      "name": "playercount",
      "outputs": [
        {
          "name": "",
          "type": "uint256"
        }
      ],
      "payable": false,
      "stateMutability": "view",
      "type": "function"
    },
    {
      "constant": true,
      "inputs": [],
      "name": "board",
      "outputs": [
        {
          "name": "",
          "type": "bytes32"
        }
      ],
      "payable": false,
      "stateMutability": "view",
      "type": "function"
    },
    {
      "constant": true,
      "inputs": [],
      "name": "defender",
      "outputs": [
        {
          "name": "",
          "type": "address"
        }
      ],
      "payable": false,
      "stateMutability": "view",
      "type": "function"
    },
    {
      "constant": true,
      "inputs": [],
      "name": "period_all",
      "outputs": [
        {
          "name": "",
          "type": "uint256"
        }
      ],
      "payable": false,
      "stateMutability": "view",
      "type": "function"
    },
    {
      "constant": true,
      "inputs": [],
      "name": "initHeight",
      "outputs": [
        {
          "name": "",
          "type": "uint256"
        }
      ],
      "payable": false,
      "stateMutability": "view",
      "type": "function"
    },
    {
      "constant": true,
      "inputs": [],
      "name": "period3",
      "outputs": [
        {
          "name": "",
          "type": "uint256"
        }
      ],
      "payable": false,
      "stateMutability": "view",
      "type": "function"
    },
    {
      "constant": true,
      "inputs": [],
      "name": "setup",
      "outputs": [
        {
          "name": "",
          "type": "bool"
        }
      ],
      "payable": false,
      "stateMutability": "view",
      "type": "function"
    },
    {
      "constant": true,
      "inputs": [],
      "name": "fee",
      "outputs": [
        {
          "name": "",
          "type": "uint256"
        }
      ],
      "payable": false,
      "stateMutability": "view",
      "type": "function"
    },
    {
      "constant": true,
      "inputs": [],
      "name": "winner",
      "outputs": [
        {
          "name": "",
          "type": "address"
        }
      ],
      "payable": false,
      "stateMutability": "view",
      "type": "function"
    },
    {
      "inputs": [
        {
          "name": "_init",
          "type": "bytes32"
        }
      ],
      "payable": true,
      "stateMutability": "payable",
      "type": "constructor"
    },
    {
      "payable": false,
      "stateMutability": "nonpayable",
      "type": "fallback"
    },
    {
      "constant": false,
      "inputs": [],
      "name": "withdraw",
      "outputs": [
        {
          "name": "",
          "type": "bool"
        }
      ],
      "payable": false,
      "stateMutability": "nonpayable",
      "type": "function"
    },
    {
      "constant": true,
      "inputs": [],
      "name": "randomNumber",
      "outputs": [
        {
          "name": "",
          "type": "bytes32"
        }
      ],
      "payable": false,
      "stateMutability": "view",
      "type": "function"
    },
    {
      "constant": true,
      "inputs": [],
      "name": "getPlayerInfo",
      "outputs": [
        {
          "name": "",
          "type": "uint256"
        },
        {
          "name": "",
          "type": "uint256"
        },
        {
          "name": "",
          "type": "uint256"
        }
      ],
      "payable": false,
      "stateMutability": "view",
      "type": "function"
    },
    {
      "constant": false,
      "inputs": [
        {
          "name": "defense",
          "type": "bytes32"
        }
      ],
      "name": "fortify",
      "outputs": [
        {
          "name": "",
          "type": "bool"
        }
      ],
      "payable": true,
      "stateMutability": "payable",
      "type": "function"
    },
    {
      "constant": false,
      "inputs": [],
      "name": "challenge",
      "outputs": [
        {
          "name": "",
          "type": "bool"
        }
      ],
      "payable": true,
      "stateMutability": "payable",
      "type": "function"
    },
    {
      "constant": true,
      "inputs": [
        {
          "name": "secret",
          "type": "bytes32"
        },
        {
          "name": "blockNo",
          "type": "uint256"
        }
      ],
      "name": "testOutcome",
      "outputs": [
        {
          "name": "_board",
          "type": "bytes32"
        },
        {
          "name": "_slots",
          "type": "bool[32]"
        }
      ],
      "payable": false,
      "stateMutability": "view",
      "type": "function"
    },
    {
      "constant": false,
      "inputs": [
        {
          "name": "secret",
          "type": "bytes32"
        },
        {
          "name": "score",
          "type": "bytes32"
        },
        {
          "name": "slots",
          "type": "bool[32]"
        },
        {
          "name": "blockNo",
          "type": "uint256"
        },
        {
          "name": "v",
          "type": "uint8"
        },
        {
          "name": "r",
          "type": "bytes32"
        },
        {
          "name": "s",
          "type": "bytes32"
        }
      ],
      "name": "revealSecret",
      "outputs": [
        {
          "name": "",
          "type": "bool"
        }
      ],
      "payable": false,
      "stateMutability": "nonpayable",
      "type": "function"
    }
  ],
  "bytecode": "0x608060405270ffffffffffffffffffffffffffffffffff600102600590600019169055662386f26fc100006007556000600860006101000a81548160ff0219169083151502179055506000600955604051602080620020248339810180604052810190808051906020019092919050505060075434101515156200008257600080fd5b336000806101000a81548173ffffffffffffffffffffffffffffffffffffffff021916908373ffffffffffffffffffffffffffffffffffffffff16021790555033600260006101000a81548173ffffffffffffffffffffffffffffffffffffffff021916908373ffffffffffffffffffffffffffffffffffffffff16021790555060011515620001218262000137640100000000026401000000009004565b15151415156200013057600080fd5b5062000386565b6000620001436200034e565b60075434101515156200015557600080fd5b6000809054906101000a900473ffffffffffffffffffffffffffffffffffffffff1673ffffffffffffffffffffffffffffffffffffffff163373ffffffffffffffffffffffffffffffffffffffff16141515620001b157600080fd5b60001515600860009054906101000a900460ff161515141515620001d457600080fd5b600554600019168360001916111515620001ed57600080fd5b33816000019073ffffffffffffffffffffffffffffffffffffffff16908173ffffffffffffffffffffffffffffffffffffffff168152505043816020018181525050826006816000191690555060648160400181815250504360038190555080600f60003373ffffffffffffffffffffffffffffffffffffffff1673ffffffffffffffffffffffffffffffffffffffff16815260200190815260200160002060008201518160000160006101000a81548173ffffffffffffffffffffffffffffffffffffffff021916908373ffffffffffffffffffffffffffffffffffffffff160217905550602082015181600101556040820151816002015590505060016009600082825401925050819055506001600860006101000a81548160ff0219169083151502179055506000600102600e81600019169055506000600102600a60036004811015156200033b57fe5b0181600019169055506001915050919050565b606060405190810160405280600073ffffffffffffffffffffffffffffffffffffffff16815260200160008152602001600081525090565b611c8e80620003966000396000f300608060405260043610610128576000357c0100000000000000000000000000000000000000000000000000000000900463ffffffff168063030e34221461029957806319cae462146102c45780631cb9409f146102f75780633a5381b51461037c5780633ccfd60b146103d3578063475fcbf614610402578063585336121461042d5780635fd51b37146104695780636426b1e4146104945780636b180b59146104bf5780637cd3229a146104ea5780637f4c91c51461051d578063a4dd1d7d14610574578063a78eacdb1461059f578063b307b704146105ca578063ba0bba40146105f5578063c9d7d27f14610624578063ccbac9f5146106dd578063d1df81df14610710578063d2ef739814610749578063ddca3f431461076b578063dfbf53ae14610796575b34801561013457600080fd5b506000809054906101000a900473ffffffffffffffffffffffffffffffffffffffff1673ffffffffffffffffffffffffffffffffffffffff163373ffffffffffffffffffffffffffffffffffffffff1614151561019057600080fd5b60011515600860009054906101000a900460ff1615151480156101bd575060166003600501016003540143115b80156102175750600073ffffffffffffffffffffffffffffffffffffffff16600160009054906101000a900473ffffffffffffffffffffffffffffffffffffffff1673ffffffffffffffffffffffffffffffffffffffff16145b151561022257600080fd5b6000809054906101000a900473ffffffffffffffffffffffffffffffffffffffff16600160006101000a81548173ffffffffffffffffffffffffffffffffffffffff021916908373ffffffffffffffffffffffffffffffffffffffff16021790555061028c6107ed565b151561029757600080fd5b005b3480156102a557600080fd5b506102ae610966565b6040518082815260200191505060405180910390f35b3480156102d057600080fd5b506102d961096b565b60405180826000191660001916815260200191505060405180910390f35b34801561030357600080fd5b50610330600480360381019080803560001916906020019092919080359060200190929190505050610971565b604051808360001916600019168152602001826020800280838360005b8381101561036857808201518184015260208101905061034d565b505050509050019250505060405180910390f35b34801561038857600080fd5b50610391610b96565b604051808273ffffffffffffffffffffffffffffffffffffffff1673ffffffffffffffffffffffffffffffffffffffff16815260200191505060405180910390f35b3480156103df57600080fd5b506103e86107ed565b604051808215151515815260200191505060405180910390f35b34801561040e57600080fd5b50610417610bbc565b6040518082815260200191505060405180910390f35b61044f6004803603810190808035600019169060200190929190505050610bc1565b604051808215151515815260200191505060405180910390f35b34801561047557600080fd5b5061047e610dd1565b6040518082815260200191505060405180910390f35b3480156104a057600080fd5b506104a9610dd7565b6040518082815260200191505060405180910390f35b3480156104cb57600080fd5b506104d4610ddd565b6040518082815260200191505060405180910390f35b3480156104f657600080fd5b506104ff610de3565b60405180826000191660001916815260200191505060405180910390f35b34801561052957600080fd5b50610532610de9565b604051808273ffffffffffffffffffffffffffffffffffffffff1673ffffffffffffffffffffffffffffffffffffffff16815260200191505060405180910390f35b34801561058057600080fd5b50610589610e0e565b6040518082815260200191505060405180910390f35b3480156105ab57600080fd5b506105b4610e19565b6040518082815260200191505060405180910390f35b3480156105d657600080fd5b506105df610e1f565b6040518082815260200191505060405180910390f35b34801561060157600080fd5b5061060a610e24565b604051808215151515815260200191505060405180910390f35b34801561063057600080fd5b506106c360048036038101908080356000191690602001909291908035600019169060200190929190806104000190602080602002604051908101604052809291908260208002808284378201915050505050919291929080359060200190929190803560ff16906020019092919080356000191690602001909291908035600019169060200190929190505050610e37565b604051808215151515815260200191505060405180910390f35b3480156106e957600080fd5b506106f2611774565b60405180826000191660001916815260200191505060405180910390f35b34801561071c57600080fd5b506107256118f4565b60405180848152602001838152602001828152602001935050505060405180910390f35b61075161198d565b604051808215151515815260200191505060405180910390f35b34801561077757600080fd5b50610780611bb2565b6040518082815260200191505060405180910390f35b3480156107a257600080fd5b506107ab611bb8565b604051808273ffffffffffffffffffffffffffffffffffffffff1673ffffffffffffffffffffffffffffffffffffffff16815260200191505060405180910390f35b60008073ffffffffffffffffffffffffffffffffffffffff16600160009054906101000a900473ffffffffffffffffffffffffffffffffffffffff1673ffffffffffffffffffffffffffffffffffffffff161415801561089a5750600160009054906101000a900473ffffffffffffffffffffffffffffffffffffffff1673ffffffffffffffffffffffffffffffffffffffff163373ffffffffffffffffffffffffffffffffffffffff16145b15156108a557600080fd5b601660036005010160035401431115156108be57600080fd5b6000600860006101000a81548160ff0219169083151502179055506000600160006101000a81548173ffffffffffffffffffffffffffffffffffffffff021916908373ffffffffffffffffffffffffffffffffffffffff1602179055506000600102600681600019169055506000600102600e81600019169055506000600102600a600360048110151561094e57fe5b01816000191690555060006009819055506001905090565b600381565b60055481565b600061097b611bde565b600060011515600860009054906101000a900460ff16151514151561099f57600080fd5b600560035401431080156109b557506003544310155b15156109c057600080fd5b60058443031015156109d157600080fd5b6001430384111580156109e8575060056003540184105b80156109f657506003548410155b1515610a0157600080fd5b8484406040516020018083600019166000191681526020018260001916600019168152602001925050506040516020818303038152906040526040518082805190602001908083835b602083101515610a6f5780518252602082019150602081019050602083039250610a4a565b6001836020036101000a03801982511681845116808217855250505050505090500191505060405180910390209250600090505b601f81111515610b885760065481602081101515610abd57fe5b1a7f0100000000000000000000000000000000000000000000000000000000000000027effffffffffffffffffffffffffffffffffffffffffffffffffffffffffffff19168382602081101515610b1057fe5b1a7f0100000000000000000000000000000000000000000000000000000000000000027effffffffffffffffffffffffffffffffffffffffffffffffffffffffffffff19161015610b7b5760018282602081101515610b6b57fe5b6020020190151590811515815250505b8080600101915050610aa3565b828292509250509250929050565b600260009054906101000a900473ffffffffffffffffffffffffffffffffffffffff1681565b600581565b6000610bcb611c02565b6007543410151515610bdc57600080fd5b6000809054906101000a900473ffffffffffffffffffffffffffffffffffffffff1673ffffffffffffffffffffffffffffffffffffffff163373ffffffffffffffffffffffffffffffffffffffff16141515610c3757600080fd5b60001515600860009054906101000a900460ff161515141515610c5957600080fd5b600554600019168360001916111515610c7157600080fd5b33816000019073ffffffffffffffffffffffffffffffffffffffff16908173ffffffffffffffffffffffffffffffffffffffff168152505043816020018181525050826006816000191690555060648160400181815250504360038190555080600f60003373ffffffffffffffffffffffffffffffffffffffff1673ffffffffffffffffffffffffffffffffffffffff16815260200190815260200160002060008201518160000160006101000a81548173ffffffffffffffffffffffffffffffffffffffff021916908373ffffffffffffffffffffffffffffffffffffffff160217905550602082015181600101556040820151816002015590505060016009600082825401925050819055506001600860006101000a81548160ff0219169083151502179055506000600102600e81600019169055506000600102600a6003600481101515610dbe57fe5b0181600019169055506001915050919050565b60045481565b6103e881565b60095481565b60065481565b6000809054906101000a900473ffffffffffffffffffffffffffffffffffffffff1681565b601660036005010181565b60035481565b601681565b600860009054906101000a900460ff1681565b6000610e41611c3a565b600060011515600860009054906101000a900460ff161515141515610e6557600080fd5b6000809054906101000a900473ffffffffffffffffffffffffffffffffffffffff1673ffffffffffffffffffffffffffffffffffffffff163373ffffffffffffffffffffffffffffffffffffffff1614151515610ec157600080fd5b60065460001916896000191614151515610eda57600080fd5b60106000600354815260200190815260200160002060003373ffffffffffffffffffffffffffffffffffffffff1673ffffffffffffffffffffffffffffffffffffffff1681526020019081526020016000206002015460001916896000191614151515610f4657600080fd5b600354600f60003373ffffffffffffffffffffffffffffffffffffffff1673ffffffffffffffffffffffffffffffffffffffff16815260200190815260200160002060010154111515610f9857600080fd5b600060106000600354815260200190815260200160002060003373ffffffffffffffffffffffffffffffffffffffff1673ffffffffffffffffffffffffffffffffffffffff16815260200190815260200160002060000154141515610ffc57600080fd5b600360056003540101431115151561101357600080fd5b600587430310151561102457600080fd5b60014303871115801561103b575060056003540187105b8015611048575060035487115b151561105357600080fd5b3373ffffffffffffffffffffffffffffffffffffffff1660018a6040516020018082600019166000191681526020019150506040516020818303038152906040526040518082805190602001908083835b6020831015156110c957805182526020820191506020810190506020830392506110a4565b6001836020036101000a038019825116818451168082178552505050505050905001915050604051809103902060405160200180807f19457468657265756d205369676e6564204d6573736167653a0a333200000000815250601c0182600019166000191681526020019150506040516020818303038152906040526040518082805190602001908083835b60208310151561117a5780518252602082019150602081019050602083039250611155565b6001836020036101000a0380198251168184511680821785525050505050509050019150506040518091039020888888604051600081526020016040526040518085600019166000191681526020018460ff1660ff1681526020018360001916600019168152602001826000191660001916815260200194505050505060206040516020810390808403906000865af115801561121b573d6000803e3d6000fd5b5050506020604051035173ffffffffffffffffffffffffffffffffffffffff1614151561124757600080fd5b60035482600001818152505089826020019060001916908160001916815250508987406040516020018083600019166000191681526020018260001916600019168152602001925050506040516020818303038152906040526040518082805190602001908083835b6020831015156112d557805182526020820191506020810190506020830392506112b0565b6001836020036101000a038019825116818451168082178552505050505050905001915050604051809103902082604001906000191690816000191681525050600090505b601f811115156114ba5760001515888260208110151561133657fe5b6020020151151514156113f9576006548160208110151561135357fe5b1a7f0100000000000000000000000000000000000000000000000000000000000000027effffffffffffffffffffffffffffffffffffffffffffffffffffffffffffff191689826020811015156113a657fe5b1a7f0100000000000000000000000000000000000000000000000000000000000000027effffffffffffffffffffffffffffffffffffffffffffffffffffffffffffff19161415156113f457fe5b6114ad565b81604001518160208110151561140b57fe5b1a7f0100000000000000000000000000000000000000000000000000000000000000027effffffffffffffffffffffffffffffffffffffffffffffffffffffffffffff1916898260208110151561145e57fe5b1a7f0100000000000000000000000000000000000000000000000000000000000000027effffffffffffffffffffffffffffffffffffffffffffffffffffffffffffff19161415156114ac57fe5b5b808060010191505061131a565b88826040019060001916908160001916815250508160106000600354815260200190815260200160002060003373ffffffffffffffffffffffffffffffffffffffff1673ffffffffffffffffffffffffffffffffffffffff168152602001908152602001600020600082015181600001556020820151816001019060001916905560408201518160020190600019169055905050600073ffffffffffffffffffffffffffffffffffffffff16600160009054906101000a900473ffffffffffffffffffffffffffffffffffffffff1673ffffffffffffffffffffffffffffffffffffffff161480156115b9575060065460001916826040015160001916105b156116225733600160006101000a81548173ffffffffffffffffffffffffffffffffffffffff021916908373ffffffffffffffffffffffffffffffffffffffff1602179055508160400151600a600060048110151561161457fe5b01816000191690555061175c565b6010600060035481526020019081526020016000206000600160009054906101000a900473ffffffffffffffffffffffffffffffffffffffff1673ffffffffffffffffffffffffffffffffffffffff1673ffffffffffffffffffffffffffffffffffffffff1681526020019081526020016000206002015460001916826040015160001916101561173c5733600160006101000a81548173ffffffffffffffffffffffffffffffffffffffff021916908373ffffffffffffffffffffffffffffffffffffffff160217905550600a60006004811015156116fe57fe5b0154600a600160048110151561171057fe5b0181600019169055508160400151600a600060048110151561172e57fe5b01816000191690555061175b565b8160400151600a600260048110151561175157fe5b0181600019169055505b5b43600481905550600192505050979650505050505050565b6000600a600360048110151561178657fe5b015460001916600e5460001916141580156117be5750600060010260001916600a60036004811015156117b557fe5b01546000191614155b15156117c957600080fd5b60056004544303111515156117dd57600080fd5b600a60006004811015156117ed57fe5b0154600a60016004811015156117ff57fe5b0154600a600260048110151561181157fe5b0154600a600360048110151561182357fe5b015460014303406040516020018086600019166000191681526020018560001916600019168152602001846000191660001916815260200183600019166000191681526020018260001916600019168152602001955050505050506040516020818303038152906040526040518082805190602001908083835b6020831015156118c2578051825260208201915060208101905060208303925061189d565b6001836020036101000a0380198251168184511680821785525050505050509050019150506040518091039020905090565b6000806000600f60003373ffffffffffffffffffffffffffffffffffffffff1673ffffffffffffffffffffffffffffffffffffffff16815260200190815260200160002060010154600354600f60003373ffffffffffffffffffffffffffffffffffffffff1673ffffffffffffffffffffffffffffffffffffffff16815260200190815260200160002060020154925092509250909192565b6000611997611c02565b60075434101515156119a857600080fd5b6000809054906101000a900473ffffffffffffffffffffffffffffffffffffffff1673ffffffffffffffffffffffffffffffffffffffff163373ffffffffffffffffffffffffffffffffffffffff1614151515611a0457600080fd5b60011515600860009054906101000a900460ff161515141515611a2657600080fd5b600354600f60003373ffffffffffffffffffffffffffffffffffffffff1673ffffffffffffffffffffffffffffffffffffffff16815260200190815260200160002060010154101515611a7857600080fd5b60056003540143108015611a8d575060035443115b1515611a9857600080fd5b6103e860016009540111151515611aae57600080fd5b33816000019073ffffffffffffffffffffffffffffffffffffffff16908173ffffffffffffffffffffffffffffffffffffffff168152505043816020018181525050600a81604001818152505080600f60003373ffffffffffffffffffffffffffffffffffffffff1673ffffffffffffffffffffffffffffffffffffffff16815260200190815260200160002060008201518160000160006101000a81548173ffffffffffffffffffffffffffffffffffffffff021916908373ffffffffffffffffffffffffffffffffffffffff16021790555060208201518160010155604082015181600201559050506001600960008282540192505081905550600191505090565b60075481565b600160009054906101000a900473ffffffffffffffffffffffffffffffffffffffff1681565b61040060405190810160405280602090602082028038833980820191505090505090565b606060405190810160405280600073ffffffffffffffffffffffffffffffffffffffff16815260200160008152602001600081525090565b60606040519081016040528060008152602001600080191681526020016000801916815250905600a165627a7a72305820ef78e6dfb177763f3d4349ee3f2c5d6c02460a9c9e625056f3606631f1cf5e600029",
  "source": "pragma solidity ^0.4.24;\n\n// import \"./ERC20.sol\";\nimport \"./SafeMath.sol\";\n// import \"./RNTInterface.sol\";\n// import \"./MerkleTreeValidatorInterface.sol\";\n\n// About the game\n// # Roles\n//  * defender : setup the game (only the fee)\n//  * player : join the game, max 1000 players, pay 0.01 eth and can win 150 RNT potentially\n//  * validator: provide merkle proof in block `n` (a tiny amount)\n//\n// # state channel (sc):\n//  * users send hashed-score (signed) before `n`\n//  * validator provide a merkle root, and put the root on-chain at block `n`\n//    - validator (or player) generate tickets, but players can only use the ticket if they `revealSecret()`\n//  * [?] another merkle tree based on tickets generated at block `m`\n//\n// # time line of a game:\n//    start ------------ n ------- m -------------------------------- end\n//          calc and reg   reveal    lottery, each round: 0-n winners\n//          submit to sc   secret    and random number\n//          (period1)      (period2) (period3)\n//\n//  * period_all = period1 + period2 + period3\n//  * during period2 (btw. `n` and `m`): generate tickets for players (verify on sc, also stored on sc?)\n//  * there is a winner of battleship game at block `m`, who can withdraw btw. the end and several blocks after end\n//  * probably, at block `n` and `m` players do nothing. Leave these as buffer for sc to do something\n//  * player obtain ticket in the form `ticket[i] = hash(score + bn[m-1] + i)` where 1<=i<=5, depend on score\n// todo: add an upper limit for the contract to give to players? Such as (the order of) 1000*0.01 eth = 10 eth = 1e5 RNT\n\ncontract BattleShip {\n\tusing SafeMath for uint256;\n\t// Variables\n\taddress public defender;\n\taddress public winner;\n\taddress public validator;\n\t// address public RNTAddr;\n\tuint constant public maxPlayer = 1000;\n\tuint constant public period1 = 5;\n\tuint constant public period2 = 3;\n\tuint constant public period3 = 22;\n\tuint constant public period_all = period1 + period2 + period3;  // shoudl be in the range 30-120\n\tuint public initHeight;\n\tuint public lastActivity;\n\tbytes32 public difficulty = 0x000000000000000000000000000000ffffffffffffffffffffffffffffffffff;\n\tbytes32 public board;\n\tuint public fee = 10000000000000000;\n\tbool public setup = false;\n\tuint public playercount = 0;\n\tbytes32[4] private samGroup;\n\tbytes32 private lastRevived;\n\t// bytes32[2] public merkleRoot; // leaves of 1st tree: hash(score), 2nd: tickets. submitted by validator\n        // address constant public MerkleTreeAddr = 0x127bfc8AFfdCaeee6043e7eC79239542e5A470B7;\n\n\tstruct playerInfo {\n\t\taddress wallet; // msg.sender\n\t\tuint since;     // block height when joined\n\t\tuint maxNonce;\n\t}\n\n\tstruct battleStat {\n\t\tuint battle;\n\t\tbytes32 secret;\n\t\tbytes32 score;\n\t}\n\n\tmapping (address => playerInfo) playerDB;\n\tmapping (uint => mapping (address => battleStat)) battleHistory;\n\n\t// Modifiers\n\tmodifier defenderOnly() {\n\t\trequire(msg.sender == defender);\n\t\t_;\n\t}\n\n\tmodifier WinnerOnly() {\n\t\trequire(winner != address(0) && msg.sender == winner);\n\t\t_;\n\t}\n\n\tmodifier ValidatorOnly() {\n\t        require(validator != address(0) && msg.sender == validator);\n\t        _;\n        }\n\n\tmodifier NewGameOnly() {\n\t\trequire(setup == false);\n\t\t_;\n\t}\n\n\tmodifier feePaid() {\n\t\trequire(msg.value >= fee);\n\t\t_;\n\t}\n\n\tmodifier gameStarted() {\n\t\trequire(setup == true);\n\t\t_;\n\t}\n\n\tmodifier gameStalled() {\n\t\trequire(setup == true && block.number > initHeight + period_all && winner == address(0));\n\t\t_;\n\t}\n\n\tmodifier notDefender() {\n\t\trequire(msg.sender != defender);\n\t\t_;\n\t}\n\n\t// Contract constructor\n\tconstructor(bytes32 _init) public payable {\n\t\trequire(msg.value >= fee);\n\t\tdefender = msg.sender;\n\t\tvalidator = msg.sender;\n\t\t// RNTAddr  = _RNTAddr;\n\n\t\trequire(fortify(_init) == true);\n\t}\n\n\t// WinnerOnly\n\tfunction withdraw() public WinnerOnly returns (bool) {\n\t\trequire(block.number > initHeight + period_all);\n\t\tsetup = false;\n\t\twinner = address(0);\n\t\tboard = bytes32(0);\n\t\tlastRevived = bytes32(0);\n\t\tsamGroup[3] = bytes32(0);\n\t\tplayercount = 0;\n\n\t\t// uint256 reward = uint256(address(this).balance).mul(uint256(6)) / uint256(10);\n\t\t// require(RNTInterface(RNTAddr).mint(msg.sender) == true);\n\t\t// require(msg.sender.send(reward) == true);\n\t\treturn true;\n\t}\n\n\tfunction randomNumber() public view returns (bytes32) {\n\t\trequire(lastRevived != samGroup[3] && samGroup[3] != bytes32(0));\n\t\trequire(block.number - lastActivity <= 5);\n\t\treturn keccak256(abi.encodePacked(samGroup[0], samGroup[1], samGroup[2], samGroup[3], blockhash(block.number - 1)));\n\t}\n\n\tfunction getPlayerInfo() public view returns (uint, uint, uint) {\n\t\treturn (playerDB[msg.sender].since, initHeight, playerDB[msg.sender].maxNonce);\n\t}\n\n\tfunction fortify(bytes32 defense) public payable feePaid defenderOnly NewGameOnly returns (bool) {\n\t\trequire(defense > difficulty);\n\t\tplayerInfo memory newone;\n\n\t\tnewone.wallet = msg.sender;\n\t\tnewone.since  = block.number;\n\t\tboard = defense;\n\t\tnewone.maxNonce = 100;\n\n\t\tinitHeight = block.number;\n\t\tplayerDB[msg.sender] = newone;\n\t\tplayercount += 1;\n\t\tsetup = true;\n\t\tlastRevived = bytes32(0);\n\t\tsamGroup[3] = bytes32(0);\n\n\t\treturn true;\n\t}\n\n\t// Join game\n\tfunction challenge() public payable feePaid notDefender gameStarted returns (bool) {\n\t\trequire(playerDB[msg.sender].since < initHeight);\n\t\trequire(block.number < initHeight + period1 && block.number > initHeight);\n\t\trequire(playercount + 1 <= maxPlayer);\n\n\t\tplayerInfo memory newone;\n\n\t\tnewone.wallet = msg.sender;\n\t\tnewone.since  = block.number;\n\t\tnewone.maxNonce = 10;  // for test\n\n\t\tplayerDB[msg.sender] = newone;\n\t\tplayercount += 1;\n\n\t\treturn true;\n\t}\n\n\tfunction testOutcome(bytes32 secret, uint blockNo) public gameStarted view returns (bytes32 _board, bool[32] memory _slots) {\n\t\trequire(block.number < initHeight + period1 && block.number >= initHeight);\n\t\trequire(block.number - blockNo < period1);\n\t\trequire(blockNo <= block.number - 1 && blockNo < initHeight + period1 && blockNo >= initHeight);\n\n\t\t_board = keccak256(abi.encodePacked(secret, blockhash(blockNo)));\n\n\t\tfor (uint i = 0; i <= 31; i++) {\n\t\t\tif(_board[i] < board[i]) {\n\t\t\t\t_slots[i] = true;\n\t\t\t}\n\t\t}\n\n\t\treturn (_board, _slots);\n\t}\n\n\t// function reviveReward() public gameStarted notDefender returns (bool) {\n\t// \trequire(battleHistory[initHeight][msg.sender].battle == initHeight);\n\t// \trequire(block.number > initHeight + 10);\n\n\t// \tbytes32 _board = keccak256(abi.encodePacked(battleHistory[initHeight][msg.sender].score, blockhash(block.number - 1)));\n\n\t// \tassert(_board != samGroup[3]);\n\t\t\t\n\t// \tif (_board[30] == board[30] && _board[31] == board[31]) {\n\t// \t\tbattleHist`ory[initHeight][msg.sender].battle = 0;\n\t// \t\tlastRevived = samGroup[3];\n\t// \t\tsamGroup[3] = _board;\n\t// \t\tlastActivity = block.number;\n\t// \t\trequire(RNTInterface(RNTAddr).mint(msg.sender) == true);\n\t// \t\treturn true;\n\t// \t} else {\n\t// \t\trevert();\n\t// \t}\n\t// }\n\n\tfunction revealSecret(bytes32 secret, bytes32 score, bool[32] memory slots, uint blockNo, uint8 v, bytes32 r, bytes32 s) public gameStarted notDefender returns (bool) {\n\t\trequire(score != board);\n\t\trequire(score != battleHistory[initHeight][msg.sender].score);\n\t\trequire(playerDB[msg.sender].since > initHeight);\n\t\trequire(battleHistory[initHeight][msg.sender].battle == 0);\n\t\trequire(block.number <= initHeight + period1 + period2);\n\t\trequire(block.number - blockNo < period1);\n\t\trequire(blockNo <= block.number - 1 && blockNo < initHeight + period1 && blockNo > initHeight);\n\t\t// require(merkleRoot[0] != 0x0);\n\t\t// todo: require(merkleProofValidate(proofs, keccak256(score), merkleRoot[0]);\n\t\trequire(ecrecover(keccak256(abi.encodePacked(\"\\x19Ethereum Signed Message:\\n32\", keccak256(abi.encodePacked(score)))), v, r, s) == msg.sender);\n\n\t\tbattleStat memory newbat;\n\t\tnewbat.battle = initHeight;\n\t\tnewbat.secret = secret;\n\t\t// newbat.bhash = blockhash(blockNo);\n\t\tnewbat.score = keccak256(abi.encodePacked(secret, blockhash(blockNo))); // initialize for the loop below\n\n\t\tfor (uint i = 0; i <= 31; i++) {\n\t\t\tif(slots[i] == false) {\n\t\t\t\tassert(score[i] == board[i]);\n\t\t\t} else {\n\t\t\t\tassert(score[i] == newbat.score[i]);\n\t\t\t}\n\t\t}\n\n\t\tnewbat.score = score;\n\t\tbattleHistory[initHeight][msg.sender] = newbat;\n\n\t\t// winner and sample group\n\t\tif (winner == address(0) && newbat.score < board) {\n\t\t\twinner = msg.sender;\n\t\t\tsamGroup[0] = newbat.score;\n\t\t} else if (newbat.score < battleHistory[initHeight][winner].score) {\n\t\t\twinner = msg.sender;\n\t\t\tsamGroup[1] = samGroup[0];\n\t\t\tsamGroup[0] = newbat.score;\n\t\t} else {\n\t\t\tsamGroup[2] = newbat.score;\n\t\t}\n\n\t\tlastActivity = block.number;\n\t\treturn true;\n\t\t// state channel has to send out ticket after block 'm', i.e., end of revealSecret()\n\t}\n\n\t// function lottery(bytes32[] tickets) public gameStarted notDefender returns (bool) {\n\t// \trequire(battleHistory[initHeight][msg.sender].battle == initHeight);\n\t// \trequire(block.number > initHeight + period1 + period2 && block.number <= initHeight + period_all);\n\t// \trequire(tickets.length <= 5);\n\t// \t// todo:\n\t// \t// require(merkleProofValidate(proofs, tickets[0], merkleRoot[1]);  // verify existence of ticket\n\t// \t// require(merkleProofValidate(proofs, tickets[1], merkleRoot[1]);  // can one loop in 'require'?\n\t// \t// require(merkleProofValidate(proofs, tickets[2], merkleRoot[1]);  // or deal with array in the function\n\t// \t// require(merkleProofValidate(proofs, tickets[3], merkleRoot[1]);\n\t// \t// require(merkleProofValidate(proofs, tickets[4], merkleRoot[1]);\n\n\t// \tbytes32 memory _board = keccak256(board, blockhash(block.number - 1)));\n\n                // for (i=0; i<tickets.length; i++) {\n                        // _ticket = tickets[i];\n                        // if (_board[30] == _ticket[30] && _board[31] == _ticket[31]) {\n                                // battleHistory[initHeight][msg.sender].battle = 0;\n                                // sampleGroup[2] = _board;\n                                // // require(RNTInterface(RNTAddr).mint(msg.sender) == true);\n                                // return true;\n                        // } else {\n                                // revert();\n                        // }\n                // }\n\t// }\n\n        // function MerkleTreeValidator(bytes32[] memory proof, bool[] memory isLeft, bytes32 targetLeaf, bytes32 merkleRoot) public view returns (bool) {\n                // require(proof.length < 16);  // 16 is an arbitrary number, 2**16=65536 shoud be large enough\n                // require(proof.length == isLeft.length);\n                // MerkleTreeValidatorInterface(MerkleTreeAddr).validate(proof, isLeft, targetLeaf, merkleRoot);\n                // return true;\n        // }\n\n\t// function submitMerkleRoot(bytes32 _merkleRoot, uint i) external view ValidatorOnly returns (bool) {\n\t//         require(i==0 || i==1);\n\t//         merkleRoot[i] = _merkleRoot;\n\t//         return true;\n        // }\n\n\t// fallback\n  \tfunction () defenderOnly gameStalled external { \n  \t    winner = defender; \n  \t    require(withdraw()); \n  \t}\n}\n",
  "sourcePath": "/home/kai/Work/project/11be/dapps/BattleShip/contracts/BattleShip.sol",
  "compiler": {
    "name": "solc",
    "version": "0.4.25+commit.59dbf8f1.Emscripten.clang"
  },
  "schemaVersion": "2.0.2",
  "updatedAt": "2019-01-11T22:38:16.895Z"
}