{
  "contractName": "BattleShip",
  "abi": [
    {
      "constant": true,
      "inputs": [],
      "name": "validator",
      "outputs": [
        {
          "name": "",
          "type": "address"
        }
      ],
      "payable": false,
      "stateMutability": "view",
      "type": "function"
    },
    {
      "constant": true,
      "inputs": [],
      "name": "maxPlayer",
      "outputs": [
        {
          "name": "",
          "type": "uint256"
        }
      ],
      "payable": false,
      "stateMutability": "view",
      "type": "function"
    },
    {
      "constant": true,
      "inputs": [],
      "name": "playercount",
      "outputs": [
        {
          "name": "",
          "type": "uint256"
        }
      ],
      "payable": false,
      "stateMutability": "view",
      "type": "function"
    },
    {
      "constant": true,
      "inputs": [],
      "name": "board",
      "outputs": [
        {
          "name": "",
          "type": "bytes32"
        }
      ],
      "payable": false,
      "stateMutability": "view",
      "type": "function"
    },
    {
      "constant": true,
      "inputs": [],
      "name": "defender",
      "outputs": [
        {
          "name": "",
          "type": "address"
        }
      ],
      "payable": false,
      "stateMutability": "view",
      "type": "function"
    },
    {
      "constant": true,
      "inputs": [],
      "name": "ticketSeed",
      "outputs": [
        {
          "name": "",
          "type": "bytes32"
        }
      ],
      "payable": false,
      "stateMutability": "view",
      "type": "function"
    },
    {
      "constant": true,
      "inputs": [],
      "name": "period_all",
      "outputs": [
        {
          "name": "",
          "type": "uint256"
        }
      ],
      "payable": false,
      "stateMutability": "view",
      "type": "function"
    },
    {
      "constant": true,
      "inputs": [],
      "name": "initHeight",
      "outputs": [
        {
          "name": "",
          "type": "uint256"
        }
      ],
      "payable": false,
      "stateMutability": "view",
      "type": "function"
    },
    {
      "constant": true,
      "inputs": [],
      "name": "setup",
      "outputs": [
        {
          "name": "",
          "type": "bool"
        }
      ],
      "payable": false,
      "stateMutability": "view",
      "type": "function"
    },
    {
      "constant": true,
      "inputs": [],
      "name": "prevboard",
      "outputs": [
        {
          "name": "",
          "type": "bytes32"
        }
      ],
      "payable": false,
      "stateMutability": "view",
      "type": "function"
    },
    {
      "constant": true,
      "inputs": [],
      "name": "fee",
      "outputs": [
        {
          "name": "",
          "type": "uint256"
        }
      ],
      "payable": false,
      "stateMutability": "view",
      "type": "function"
    },
    {
      "constant": true,
      "inputs": [],
      "name": "winner",
      "outputs": [
        {
          "name": "",
          "type": "address"
        }
      ],
      "payable": false,
      "stateMutability": "view",
      "type": "function"
    },
    {
      "inputs": [
        {
          "name": "_init",
          "type": "bytes32"
        }
      ],
      "payable": true,
      "stateMutability": "payable",
      "type": "constructor"
    },
    {
      "payable": false,
      "stateMutability": "nonpayable",
      "type": "fallback"
    },
    {
      "constant": false,
      "inputs": [],
      "name": "withdraw",
      "outputs": [
        {
          "name": "",
          "type": "bool"
        }
      ],
      "payable": false,
      "stateMutability": "nonpayable",
      "type": "function"
    },
    {
      "constant": false,
      "inputs": [
        {
          "name": "secret",
          "type": "bytes32"
        },
        {
          "name": "slots",
          "type": "string"
        },
        {
          "name": "blockNo",
          "type": "uint256"
        },
        {
          "name": "submitBlocks",
          "type": "uint256[]"
        },
        {
          "name": "winningTickets",
          "type": "uint256[]"
        },
        {
          "name": "proof",
          "type": "bytes32[]"
        },
        {
          "name": "isLeft",
          "type": "bool[]"
        },
        {
          "name": "score",
          "type": "bytes32"
        },
        {
          "name": "claimHash",
          "type": "bytes32"
        }
      ],
      "name": "claimLotteReward",
      "outputs": [
        {
          "name": "",
          "type": "bool"
        }
      ],
      "payable": false,
      "stateMutability": "nonpayable",
      "type": "function"
    },
    {
      "constant": true,
      "inputs": [
        {
          "name": "_board",
          "type": "bytes32"
        },
        {
          "name": "submitBlocks",
          "type": "uint256[]"
        },
        {
          "name": "winningTickets",
          "type": "uint256[]"
        },
        {
          "name": "genTickets",
          "type": "bytes32[5]"
        }
      ],
      "name": "verifyWinnumber",
      "outputs": [
        {
          "name": "",
          "type": "bool"
        }
      ],
      "payable": false,
      "stateMutability": "view",
      "type": "function"
    },
    {
      "constant": true,
      "inputs": [
        {
          "name": "score",
          "type": "bytes32"
        }
      ],
      "name": "generateTickets",
      "outputs": [
        {
          "name": "",
          "type": "bytes32[5]"
        }
      ],
      "payable": false,
      "stateMutability": "view",
      "type": "function"
    },
    {
      "constant": true,
      "inputs": [
        {
          "name": "score",
          "type": "bytes32"
        }
      ],
      "name": "getNumOfTickets",
      "outputs": [
        {
          "name": "",
          "type": "uint256"
        }
      ],
      "payable": false,
      "stateMutability": "pure",
      "type": "function"
    },
    {
      "constant": true,
      "inputs": [
        {
          "name": "_addr",
          "type": "address"
        }
      ],
      "name": "getPlayerInfo",
      "outputs": [
        {
          "name": "",
          "type": "uint256"
        },
        {
          "name": "",
          "type": "bytes32"
        },
        {
          "name": "",
          "type": "bool"
        }
      ],
      "payable": false,
      "stateMutability": "view",
      "type": "function"
    },
    {
      "constant": false,
      "inputs": [
        {
          "name": "defense",
          "type": "bytes32"
        }
      ],
      "name": "fortify",
      "outputs": [
        {
          "name": "",
          "type": "bool"
        }
      ],
      "payable": true,
      "stateMutability": "payable",
      "type": "function"
    },
    {
      "constant": false,
      "inputs": [
        {
          "name": "scoreHash",
          "type": "bytes32"
        }
      ],
      "name": "challenge",
      "outputs": [
        {
          "name": "",
          "type": "bool"
        }
      ],
      "payable": true,
      "stateMutability": "payable",
      "type": "function"
    },
    {
      "constant": true,
      "inputs": [
        {
          "name": "secret",
          "type": "bytes32"
        },
        {
          "name": "blockNo",
          "type": "uint256"
        }
      ],
      "name": "testOutcome",
      "outputs": [
        {
          "name": "_board",
          "type": "bytes32"
        },
        {
          "name": "_slots",
          "type": "bool[32]"
        }
      ],
      "payable": false,
      "stateMutability": "view",
      "type": "function"
    },
    {
      "constant": true,
      "inputs": [
        {
          "name": "blockNo",
          "type": "uint256"
        },
        {
          "name": "_board",
          "type": "bytes32"
        }
      ],
      "name": "winningNumber",
      "outputs": [
        {
          "name": "",
          "type": "bytes32"
        }
      ],
      "payable": false,
      "stateMutability": "view",
      "type": "function"
    },
    {
      "constant": true,
      "inputs": [
        {
          "name": "proof",
          "type": "bytes32[]"
        },
        {
          "name": "isLeft",
          "type": "bool[]"
        },
        {
          "name": "targetLeaf",
          "type": "bytes32"
        },
        {
          "name": "_merkleRoot",
          "type": "bytes32"
        }
      ],
      "name": "merkleTreeValidator",
      "outputs": [
        {
          "name": "",
          "type": "bool"
        }
      ],
      "payable": false,
      "stateMutability": "pure",
      "type": "function"
    },
    {
      "constant": false,
      "inputs": [
        {
          "name": "_initHeight",
          "type": "uint256"
        },
        {
          "name": "_merkleRoot",
          "type": "bytes32"
        },
        {
          "name": "_ipfsAddr",
          "type": "string"
        }
      ],
      "name": "submitMerkleRoot",
      "outputs": [
        {
          "name": "",
          "type": "bool"
        }
      ],
      "payable": false,
      "stateMutability": "nonpayable",
      "type": "function"
    },
    {
      "constant": true,
      "inputs": [
        {
          "name": "_initHeight",
          "type": "uint256"
        }
      ],
      "name": "getBlockInfo",
      "outputs": [
        {
          "name": "",
          "type": "bytes32"
        },
        {
          "name": "",
          "type": "string"
        }
      ],
      "payable": false,
      "stateMutability": "view",
      "type": "function"
    },
    {
      "constant": true,
      "inputs": [
        {
          "name": "blockNo",
          "type": "uint256"
        }
      ],
      "name": "getBlockhash",
      "outputs": [
        {
          "name": "",
          "type": "bytes32"
        }
      ],
      "payable": false,
      "stateMutability": "view",
      "type": "function"
    },
    {
      "constant": true,
      "inputs": [
        {
          "name": "secret",
          "type": "bytes32"
        },
        {
          "name": "slotString",
          "type": "string"
        },
        {
          "name": "blockNo",
          "type": "uint256"
        },
        {
          "name": "_board",
          "type": "bytes32"
        }
      ],
      "name": "getScore",
      "outputs": [
        {
          "name": "",
          "type": "bytes"
        }
      ],
      "payable": false,
      "stateMutability": "view",
      "type": "function"
    },
    {
      "constant": false,
      "inputs": [
        {
          "name": "_newValidator",
          "type": "address"
        }
      ],
      "name": "newValidator",
      "outputs": [
        {
          "name": "",
          "type": "bool"
        }
      ],
      "payable": false,
      "stateMutability": "nonpayable",
      "type": "function"
    },
    {
      "constant": false,
      "inputs": [
        {
          "name": "_newDefender",
          "type": "address"
        }
      ],
      "name": "newDefender",
      "outputs": [
        {
          "name": "",
          "type": "bool"
        }
      ],
      "payable": false,
      "stateMutability": "nonpayable",
      "type": "function"
    }
  ],
  "bytecode": "0x6080604052662386f26fc100006004556000600560006101000a81548160ff0219169083151502179055506000600655604051602080620035788339810180604052810190808051906020019092919050505060045434101515156200006457600080fd5b336000806101000a81548173ffffffffffffffffffffffffffffffffffffffff021916908373ffffffffffffffffffffffffffffffffffffffff16021790555033600260006101000a81548173ffffffffffffffffffffffffffffffffffffffff021916908373ffffffffffffffffffffffffffffffffffffffff16021790555060011515620001038262000119640100000000026401000000009004565b15151415156200011257600080fd5b50620002da565b600060045434101515156200012d57600080fd5b6000809054906101000a900473ffffffffffffffffffffffffffffffffffffffff1673ffffffffffffffffffffffffffffffffffffffff163373ffffffffffffffffffffffffffffffffffffffff161415156200018957600080fd5b60001515600560009054906101000a900460ff161515141515620001ac57600080fd5b6000600160006101000a81548173ffffffffffffffffffffffffffffffffffffffff021916908373ffffffffffffffffffffffffffffffffffffffff160217905550436003819055506060604051908101604052806003548152602001600060010260001916815260200160001515815250600a60003373ffffffffffffffffffffffffffffffffffffffff1673ffffffffffffffffffffffffffffffffffffffff168152602001908152602001600020600082015181600001556020820151816001019060001916905560408201518160020160006101000a81548160ff02191690831515021790555090505060016006600082825401925050819055506001600560006101000a81548160ff021916908315150217905550816008816000191690555060019050919050565b61328e80620002ea6000396000f300608060405260043610610175576000357c0100000000000000000000000000000000000000000000000000000000900463ffffffff168063065c11cc1461035d5780631cb9409f146103b85780633a5381b51461043d5780633ccfd60b1461049457806358533612146104c357806359328401146104ff5780635c0effb2146105705780636426b1e4146105b55780636b180b59146105e05780637cd3229a1461060b5780637f4c91c51461063e5780638186a8f914610695578063a4dd1d7d146106c8578063a78eacdb146106f3578063afde797c1461071e578063b04cd58814610775578063b8f69e371461080e578063b99b11dc146108eb578063ba0bba4014610958578063babb3b1314610987578063bb141cf414610b48578063cf226c6d14610bfd578063cff483b914610cfb578063cffd46dc14610d2e578063ddca3f4314610d6a578063dfbf53ae14610d95578063e9413d3814610dec578063ed6f62b714610e35578063ed95867114610f3d575b34801561018157600080fd5b506000809054906101000a900473ffffffffffffffffffffffffffffffffffffffff1673ffffffffffffffffffffffffffffffffffffffff163373ffffffffffffffffffffffffffffffffffffffff161415156101dd57600080fd5b60011515600560009054906101000a900460ff1615151480156102045750600a6003540143115b801561025e5750600073ffffffffffffffffffffffffffffffffffffffff16600160009054906101000a900473ffffffffffffffffffffffffffffffffffffffff1673ffffffffffffffffffffffffffffffffffffffff16145b151561026957600080fd5b6000809054906101000a900473ffffffffffffffffffffffffffffffffffffffff16600160006101000a81548173ffffffffffffffffffffffffffffffffffffffff021916908373ffffffffffffffffffffffffffffffffffffffff1602179055506000600560006101000a81548160ff0219169083151502179055506000600102600881600019169055506000600681905550600115153373ffffffffffffffffffffffffffffffffffffffff166108fc3073ffffffffffffffffffffffffffffffffffffffff16319081150290604051600060405180830381858888f19350505050151514151561035b57600080fd5b005b34801561036957600080fd5b5061039e600480360381019080803573ffffffffffffffffffffffffffffffffffffffff169060200190929190505050610f98565b604051808215151515815260200191505060405180910390f35b3480156103c457600080fd5b506103f160048036038101908080356000191690602001909291908035906020019092919050505061107b565b604051808360001916600019168152602001826020800280838360005b8381101561042957808201518184015260208101905061040e565b505050509050019250505060405180910390f35b34801561044957600080fd5b50610452611330565b604051808273ffffffffffffffffffffffffffffffffffffffff1673ffffffffffffffffffffffffffffffffffffffff16815260200191505060405180910390f35b3480156104a057600080fd5b506104a9611356565b604051808215151515815260200191505060405180910390f35b6104e5600480360381019080803560001916906020019092919050505061156c565b604051808215151515815260200191505060405180910390f35b34801561050b57600080fd5b50610540600480360381019080803573ffffffffffffffffffffffffffffffffffffffff16906020019092919050505061172a565b60405180848152602001836000191660001916815260200182151515158152602001935050505060405180910390f35b34801561057c57600080fd5b5061059f6004803603810190808035600019169060200190929190505050611812565b6040518082815260200191505060405180910390f35b3480156105c157600080fd5b506105ca6118f8565b6040518082815260200191505060405180910390f35b3480156105ec57600080fd5b506105f56118fe565b6040518082815260200191505060405180910390f35b34801561061757600080fd5b50610620611904565b60405180826000191660001916815260200191505060405180910390f35b34801561064a57600080fd5b5061065361190a565b604051808273ffffffffffffffffffffffffffffffffffffffff1673ffffffffffffffffffffffffffffffffffffffff16815260200191505060405180910390f35b3480156106a157600080fd5b506106aa61192f565b60405180826000191660001916815260200191505060405180910390f35b3480156106d457600080fd5b506106dd611935565b6040518082815260200191505060405180910390f35b3480156106ff57600080fd5b5061070861193a565b6040518082815260200191505060405180910390f35b34801561072a57600080fd5b50610757600480360381019080803590602001909291908035600019169060200190929190505050611940565b60405180826000191660001916815260200191505060405180910390f35b34801561078157600080fd5b506107f4600480360381019080803590602001909291908035600019169060200190929190803590602001908201803590602001908080601f01602080910402602001604051908101604052809392919081815260200183838082843782019150505050505091929192905050506119f7565b604051808215151515815260200191505060405180910390f35b34801561081a57600080fd5b506108d1600480360381019080803590602001908201803590602001908080602002602001604051908101604052809392919081815260200183836020028082843782019150505050505091929192908035906020019082018035906020019080806020026020016040519081016040528093929190818152602001838360200280828437820191505050505050919291929080356000191690602001909291908035600019169060200190929190505050611b49565b604051808215151515815260200191505060405180910390f35b3480156108f757600080fd5b5061091a6004803603810190808035600019169060200190929190505050611d47565b6040518082600560200280838360005b8381101561094557808201518184015260208101905061092a565b5050505090500191505060405180910390f35b34801561096457600080fd5b5061096d611e4c565b604051808215151515815260200191505060405180910390f35b34801561099357600080fd5b50610b2e6004803603810190808035600019169060200190929190803590602001908201803590602001908080601f0160208091040260200160405190810160405280939291908181526020018383808284378201915050505050509192919290803590602001909291908035906020019082018035906020019080806020026020016040519081016040528093929190818152602001838360200280828437820191505050505050919291929080359060200190820180359060200190808060200260200160405190810160405280939291908181526020018383602002808284378201915050505050509192919290803590602001908201803590602001908080602002602001604051908101604052809392919081815260200183836020028082843782019150505050505091929192908035906020019082018035906020019080806020026020016040519081016040528093929190818152602001838360200280828437820191505050505050919291929080356000191690602001909291908035600019169060200190929190505050611e5f565b604051808215151515815260200191505060405180910390f35b348015610b5457600080fd5b50610b73600480360381019080803590602001909291905050506126b2565b60405180836000191660001916815260200180602001828103825283818151815260200191508051906020019080838360005b83811015610bc1578082015181840152602081019050610ba6565b50505050905090810190601f168015610bee5780820380516001836020036101000a031916815260200191505b50935050505060405180910390f35b348015610c0957600080fd5b50610ce1600480360381019080803560001916906020019092919080359060200190820180359060200190808060200260200160405190810160405280939291908181526020018383602002808284378201915050505050509192919290803590602001908201803590602001908080602002602001604051908101604052809392919081815260200183836020028082843782019150505050505091929192908060a00190600580602002604051908101604052809291908260056020028082843782019150505050509192919290505050612788565b604051808215151515815260200191505060405180910390f35b348015610d0757600080fd5b50610d10612965565b60405180826000191660001916815260200191505060405180910390f35b610d50600480360381019080803560001916906020019092919050505061296b565b604051808215151515815260200191505060405180910390f35b348015610d7657600080fd5b50610d7f612c7e565b6040518082815260200191505060405180910390f35b348015610da157600080fd5b50610daa612c84565b604051808273ffffffffffffffffffffffffffffffffffffffff1673ffffffffffffffffffffffffffffffffffffffff16815260200191505060405180910390f35b348015610df857600080fd5b50610e1760048036038101908080359060200190929190505050612caa565b60405180826000191660001916815260200191505060405180910390f35b348015610e4157600080fd5b50610ec26004803603810190808035600019169060200190929190803590602001908201803590602001908080601f0160208091040260200160405190810160405280939291908181526020018383808284378201915050505050509192919290803590602001909291908035600019169060200190929190505050612cb5565b6040518080602001828103825283818151815260200191508051906020019080838360005b83811015610f02578082015181840152602081019050610ee7565b50505050905090810190601f168015610f2f5780820380516001836020036101000a031916815260200191505b509250505060405180910390f35b348015610f4957600080fd5b50610f7e600480360381019080803573ffffffffffffffffffffffffffffffffffffffff169060200190929190505050613031565b604051808215151515815260200191505060405180910390f35b60008060009054906101000a900473ffffffffffffffffffffffffffffffffffffffff1673ffffffffffffffffffffffffffffffffffffffff163373ffffffffffffffffffffffffffffffffffffffff16141515610ff557600080fd5b600073ffffffffffffffffffffffffffffffffffffffff168273ffffffffffffffffffffffffffffffffffffffff161415151561103157600080fd5b81600260006101000a81548173ffffffffffffffffffffffffffffffffffffffff021916908373ffffffffffffffffffffffffffffffffffffffff16021790555060019050919050565b6000611085613176565b600060011515600560009054906101000a900460ff1615151415156110a957600080fd5b600760035401431115156110bc57600080fd5b6001430384111580156110d457506007600354018410155b80156110e45750600a6003540184105b1515611158576040517f08c379a000000000000000000000000000000000000000000000000000000000815260040180806020018281038252600e8152602001807f746573746f7574636f6d653a203300000000000000000000000000000000000081525060200191505060405180910390fd5b33858540604051602001808473ffffffffffffffffffffffffffffffffffffffff1673ffffffffffffffffffffffffffffffffffffffff166c010000000000000000000000000281526014018360001916600019168152602001826000191660001916815260200193505050506040516020818303038152906040526040518082805190602001908083835b60208310151561120957805182526020820191506020810190506020830392506111e4565b6001836020036101000a03801982511681845116808217855250505050505090500191505060405180910390209250600090505b601f81111515611322576008548160208110151561125757fe5b1a7f0100000000000000000000000000000000000000000000000000000000000000027effffffffffffffffffffffffffffffffffffffffffffffffffffffffffffff191683826020811015156112aa57fe5b1a7f0100000000000000000000000000000000000000000000000000000000000000027effffffffffffffffffffffffffffffffffffffffffffffffffffffffffffff19161015611315576001828260208110151561130557fe5b6020020190151590811515815250505b808060010191505061123d565b828292509250509250929050565b600260009054906101000a900473ffffffffffffffffffffffffffffffffffffffff1681565b600080600073ffffffffffffffffffffffffffffffffffffffff16600160009054906101000a900473ffffffffffffffffffffffffffffffffffffffff1673ffffffffffffffffffffffffffffffffffffffff16141580156114055750600160009054906101000a900473ffffffffffffffffffffffffffffffffffffffff1673ffffffffffffffffffffffffffffffffffffffff163373ffffffffffffffffffffffffffffffffffffffff16145b151561141057600080fd5b601e600a60003373ffffffffffffffffffffffffffffffffffffffff1673ffffffffffffffffffffffffffffffffffffffff16815260200190815260200160002060000154014311151561146357600080fd5b6000600560006101000a81548160ff0219169083151502179055506000600160006101000a81548173ffffffffffffffffffffffffffffffffffffffff021916908373ffffffffffffffffffffffffffffffffffffffff160217905550600854600981600019169055506000600102600881600019169055506000600681905550600a61151160063073ffffffffffffffffffffffffffffffffffffffff163161313890919063ffffffff16565b81151561151a57fe5b049050600115153373ffffffffffffffffffffffffffffffffffffffff166108fc839081150290604051600060405180830381858888f19350505050151514151561156457600080fd5b600191505090565b6000600454341015151561157f57600080fd5b6000809054906101000a900473ffffffffffffffffffffffffffffffffffffffff1673ffffffffffffffffffffffffffffffffffffffff163373ffffffffffffffffffffffffffffffffffffffff161415156115da57600080fd5b60001515600560009054906101000a900460ff1615151415156115fc57600080fd5b6000600160006101000a81548173ffffffffffffffffffffffffffffffffffffffff021916908373ffffffffffffffffffffffffffffffffffffffff160217905550436003819055506060604051908101604052806003548152602001600060010260001916815260200160001515815250600a60003373ffffffffffffffffffffffffffffffffffffffff1673ffffffffffffffffffffffffffffffffffffffff168152602001908152602001600020600082015181600001556020820151816001019060001916905560408201518160020160006101000a81548160ff02191690831515021790555090505060016006600082825401925050819055506001600560006101000a81548160ff021916908315150217905550816008816000191690555060019050919050565b6000806000600a60008573ffffffffffffffffffffffffffffffffffffffff1673ffffffffffffffffffffffffffffffffffffffff16815260200190815260200160002060000154600a60008673ffffffffffffffffffffffffffffffffffffffff1673ffffffffffffffffffffffffffffffffffffffff16815260200190815260200160002060010154600a60008773ffffffffffffffffffffffffffffffffffffffff1673ffffffffffffffffffffffffffffffffffffffff16815260200190815260200160002060020160009054906101000a900460ff169250925092509193909250565b60007effffffffffffffffffffffffffffffffffffffffffffffffffffffffffffff6001028260001916111561184b57600190506118f3565b7e0fffffffffffffffffffffffffffffffffffffffffffffffffffffffffffff6001028260001916111561188257600290506118f3565b7dffffffffffffffffffffffffffffffffffffffffffffffffffffffffffff600102826000191611156118b857600390506118f3565b7d0fffffffffffffffffffffffffffffffffffffffffffffffffffffffffff600102826000191611156118ee57600490506118f3565b600590505b919050565b6103e881565b60065481565b60085481565b6000809054906101000a900473ffffffffffffffffffffffffffffffffffffffff1681565b60075481565b601e81565b60035481565b600060014303831115151561195457600080fd5b8183406040516020018083600019166000191681526020018260001916600019168152602001925050506040516020818303038152906040526040518082805190602001908083835b6020831015156119c2578051825260208201915060208101905060208303925061199d565b6001836020036101000a0380198251168184511680821785525050505050509050019150506040518091039020905092915050565b60008073ffffffffffffffffffffffffffffffffffffffff16600260009054906101000a900473ffffffffffffffffffffffffffffffffffffffff1673ffffffffffffffffffffffffffffffffffffffff1614158015611aa45750600260009054906101000a900473ffffffffffffffffffffffffffffffffffffffff1673ffffffffffffffffffffffffffffffffffffffff163373ffffffffffffffffffffffffffffffffffffffff16145b1515611aaf57600080fd5b601e84014310158015611ac857506003601e8501014311155b1515611ad357600080fd5b60408051908101604052808460001916815260200183815250600b6000868152602001908152602001600020600082015181600001906000191690556020820151816001019080519060200190611b2b92919061319a565b50905050600884014060078160001916905550600190509392505050565b60008060008060208851101515611b5f57600080fd5b86518851141515611b6f57600080fd5b859250600091505b8751821015611d2e578782815181101515611b8e57fe5b9060200190602002015190508682815181101515611ba857fe5b9060200190602002015115611c585780836040516020018083600019166000191681526020018260001916600019168152602001925050506040516020818303038152906040526040518082805190602001908083835b602083101515611c245780518252602082019150602081019050602083039250611bff565b6001836020036101000a03801982511681845116808217855250505050505090500191505060405180910390209250611d21565b8682815181101515611c6657fe5b906020019060200201511515611d175782816040516020018083600019166000191681526020018260001916600019168152602001925050506040516020818303038152906040526040518082805190602001908083835b602083101515611ce35780518252602082019150602081019050602083039250611cbe565b6001836020036101000a03801982511681845116808217855250505050505090500191505060405180910390209250611d20565b60009350611d3c565b5b8180600101925050611b77565b846000191683600019161493505b505050949350505050565b611d4f61321a565b611d5761321a565b60008090505b611d6684611812565b811015611e42578360075460018301604051602001808460001916600019168152602001836000191660001916815260200182815260200193505050506040516020818303038152906040526040518082805190602001908083835b602083101515611de75780518252602082019150602081019050602083039250611dc2565b6001836020036101000a03801982511681845116808217855250505050505090500191505060405180910390208282600581101515611e2257fe5b602002019060001916908160001916815250508080600101915050611d5d565b8192505050919050565b600560009054906101000a900460ff1681565b6000806060611e6c61321a565b60001515600a60003373ffffffffffffffffffffffffffffffffffffffff1673ffffffffffffffffffffffffffffffffffffffff16815260200190815260200160002060020160009054906101000a900460ff161515141515611f37576040517f08c379a000000000000000000000000000000000000000000000000000000000815260040180806020018281038252600f8152602001807f616c726561647920636c61696d6564000000000000000000000000000000000081525060200191505060405180910390fd5b600a895111151515611fb1576040517f08c379a000000000000000000000000000000000000000000000000000000000815260040180806020018281038252601d8152602001807f796f752063616e6e6f7420636c61696d206d6f7265207469636b65747300000081525060200191505060405180910390fd5b8651885114151561202a576040517f08c379a000000000000000000000000000000000000000000000000000000000815260040180806020018281038252601c8152602001807f6c656e206f662070726f6f662f69734c656674206d69736d617463680000000081525060200191505060405180910390fd5b895189511415156120c9576040517f08c379a00000000000000000000000000000000000000000000000000000000081526004018080602001828103825260288152602001807f7375626d6974426c6f636b7320616e642077696e6e696e675469636b6574732081526020017f6d69736d6174636800000000000000000000000000000000000000000000000081525060400191505060405180910390fd5b600060010260001916600b6000600a60003373ffffffffffffffffffffffffffffffffffffffff1673ffffffffffffffffffffffffffffffffffffffff1681526020019081526020016000206000015481526020019081526020016000206000015460001916141515156121a5576040517f08c379a00000000000000000000000000000000000000000000000000000000081526004018080602001828103825260128152602001807f6e6f206d65726b6c6520726f6f7420796574000000000000000000000000000081525060200191505060405180910390fd5b600354600a60003373ffffffffffffffffffffffffffffffffffffffff1673ffffffffffffffffffffffffffffffffffffffff1681526020019081526020016000206000015414156121fb57600854925061225a565b601e600a60003373ffffffffffffffffffffffffffffffffffffffff1673ffffffffffffffffffffffffffffffffffffffff16815260200190815260200160002060000154600354031115612254576009549250612259565b600080fd5b5b6001600a60003373ffffffffffffffffffffffffffffffffffffffff1673ffffffffffffffffffffffffffffffffffffffff16815260200190815260200160002060020160006101000a81548160ff0219169083151502179055506122c18d8d8d86612cb5565b9150856040516020018082600019166000191681526020019150506040516020818303038152906040526040518082805190602001908083835b60208310151561232057805182526020820191506020810190506020830392506122fb565b6001836020036101000a038019825116818451168082178552505050505050905001915050604051809103902060001916826040518082805190602001908083835b6020831015156123875780518252602082019150602081019050602083039250612362565b6001836020036101000a0380198251168184511680821785525050505050509050019150506040518091039020600019161415156123c457600080fd5b600a60003373ffffffffffffffffffffffffffffffffffffffff1673ffffffffffffffffffffffffffffffffffffffff1681526020019081526020016000206001015460001916866040516020018082600019166000191681526020019150506040516020818303038152906040526040518082805190602001908083835b6020831015156124685780518252602082019150602081019050602083039250612443565b6001836020036101000a038019825116818451168082178552505050505050905001915050604051809103902060001916141515612534576040517f08c379a000000000000000000000000000000000000000000000000000000000815260040180806020018281038252602c8152602001807f77726f6e672073636f72652062617365206f6e2074686520676976656e20736581526020017f637265742f626c6f636b4e6f000000000000000000000000000000000000000081525060400191505060405180910390fd5b61253d86611d47565b90506125a3888887600b6000600a60003373ffffffffffffffffffffffffffffffffffffffff1673ffffffffffffffffffffffffffffffffffffffff16815260200190815260200160002060000154815260200190815260200160002060000154611b49565b1515612617576040517f08c379a00000000000000000000000000000000000000000000000000000000081526004018080602001828103825260138152602001807f6d65726b6c652070726f6f66206661696c65640000000000000000000000000081525060200191505060405180910390fd5b60011515612627848c8c85612788565b151514151561269e576040517f08c379a00000000000000000000000000000000000000000000000000000000081526004018080602001828103825260148152602001807f666f756e6420612077726f6e67207469636b657400000000000000000000000081525060200191505060405180910390fd5b600193505050509998505050505050505050565b60006060600b600084815260200190815260200160002060000154600b6000858152602001908152602001600020600101808054600181600116156101000203166002900480601f0160208091040260200160405190810160405280929190818152602001828054600181600116156101000203166002900480156127785780601f1061274d57610100808354040283529160200191612778565b820191906000526020600020905b81548152906001019060200180831161275b57829003601f168201915b5050505050905091509150915091565b60008060008090505b8551811015612956578686828151811015156127a957fe5b90602001906020020151406040516020018083600019166000191681526020018260001916600019168152602001925050506040516020818303038152906040526040518082805190602001908083835b60208310151561281f57805182526020820191506020810190506020830392506127fa565b6001836020036101000a03801982511681845116808217855250505050505090500191505060405180910390209150601084868381518110151561285f57fe5b9060200190602002015160058110151561287557fe5b6020020151601f60208110151561288857fe5b1a7f0100000000000000000000000000000000000000000000000000000000000000027f010000000000000000000000000000000000000000000000000000000000000090048115156128d757fe5b06601083601f6020811015156128e957fe5b1a7f0100000000000000000000000000000000000000000000000000000000000000027f0100000000000000000000000000000000000000000000000000000000000000900481151561293857fe5b06141515612949576000925061295b565b8080600101915050612791565b600192505b5050949350505050565b60095481565b6000600454341015151561297e57600080fd5b6000809054906101000a900473ffffffffffffffffffffffffffffffffffffffff1673ffffffffffffffffffffffffffffffffffffffff163373ffffffffffffffffffffffffffffffffffffffff16141515156129da57600080fd5b60011515600560009054906101000a900460ff1615151415156129fc57600080fd5b600354600a60003373ffffffffffffffffffffffffffffffffffffffff1673ffffffffffffffffffffffffffffffffffffffff16815260200190815260200160002060000154101515612ab7576040517f08c379a000000000000000000000000000000000000000000000000000000000815260040180806020018281038252600c8152602001807f6368616c6c616e67653a2031000000000000000000000000000000000000000081525060200191505060405180910390fd5b60076003540143118015612ad05750600a600354014311155b1515612b44576040517f08c379a000000000000000000000000000000000000000000000000000000000815260040180806020018281038252600c8152602001807f6368616c6c616e67653a2032000000000000000000000000000000000000000081525060200191505060405180910390fd5b6103e860016006540111151515612bc3576040517f08c379a000000000000000000000000000000000000000000000000000000000815260040180806020018281038252600c8152602001807f6368616c6c616e67653a2033000000000000000000000000000000000000000081525060200191505060405180910390fd5b60606040519081016040528060035481526020018360001916815260200160001515815250600a60003373ffffffffffffffffffffffffffffffffffffffff1673ffffffffffffffffffffffffffffffffffffffff168152602001908152602001600020600082015181600001556020820151816001019060001916905560408201518160020160006101000a81548160ff021916908315150217905550905050600160066000828254019250508190555060019050919050565b60045481565b600160009054906101000a900473ffffffffffffffffffffffffffffffffffffffff1681565b600081409050919050565b60606000606080600033898840604051602001808473ffffffffffffffffffffffffffffffffffffffff1673ffffffffffffffffffffffffffffffffffffffff166c010000000000000000000000000281526014018360001916600019168152602001826000191660001916815260200193505050506040516020818303038152906040526040518082805190602001908083835b602083101515612d6f5780518252602082019150602081019050602083039250612d4a565b6001836020036101000a0380198251168184511680821785525050505050509050019150506040518091039020935087925060206040519080825280601f01601f191660200182016040528015612dd55781602001602082028038833980820191505090505b509150600090505b60208110156130225760307f0100000000000000000000000000000000000000000000000000000000000000028382815181101515612e1857fe5b9060200101517f010000000000000000000000000000000000000000000000000000000000000090047f0100000000000000000000000000000000000000000000000000000000000000027effffffffffffffffffffffffffffffffffffffffffffffffffffffffffffff19161415612eff578581602081101515612e9957fe5b1a7f0100000000000000000000000000000000000000000000000000000000000000028282815181101515612eca57fe5b9060200101907effffffffffffffffffffffffffffffffffffffffffffffffffffffffffffff1916908160001a905350613015565b60317f0100000000000000000000000000000000000000000000000000000000000000028382815181101515612f3157fe5b9060200101517f010000000000000000000000000000000000000000000000000000000000000090047f0100000000000000000000000000000000000000000000000000000000000000027effffffffffffffffffffffffffffffffffffffffffffffffffffffffffffff19161415613014578381602081101515612fb257fe5b1a7f0100000000000000000000000000000000000000000000000000000000000000028282815181101515612fe357fe5b9060200101907effffffffffffffffffffffffffffffffffffffffffffffffffffffffffffff1916908160001a9053505b5b8080600101915050612ddd565b81945050505050949350505050565b60008060009054906101000a900473ffffffffffffffffffffffffffffffffffffffff1673ffffffffffffffffffffffffffffffffffffffff163373ffffffffffffffffffffffffffffffffffffffff1614151561308e57600080fd5b600073ffffffffffffffffffffffffffffffffffffffff168273ffffffffffffffffffffffffffffffffffffffff16141515156130ca57600080fd5b6000600560006101000a81548160ff021916908315150217905515156130ef57600080fd5b816000806101000a81548173ffffffffffffffffffffffffffffffffffffffff021916908373ffffffffffffffffffffffffffffffffffffffff16021790555060019050919050565b600080600084141561314d576000915061316f565b828402905082848281151561315e57fe5b0414151561316b57600080fd5b8091505b5092915050565b61040060405190810160405280602090602082028038833980820191505090505090565b828054600181600116156101000203166002900490600052602060002090601f016020900481019282601f106131db57805160ff1916838001178555613209565b82800160010185558215613209579182015b828111156132085782518255916020019190600101906131ed565b5b509050613216919061323d565b5090565b60a060405190810160405280600590602082028038833980820191505090505090565b61325f91905b8082111561325b576000816000905550600101613243565b5090565b905600a165627a7a72305820622d197c79524f35837cb1121f2c5a6a89cd32e862b74267d42ed8d5f4053b040029",
  "source": "pragma solidity ^0.4.24;\n\n// import \"./ERC20.sol\";\nimport \"./SafeMath.sol\";\n// import \"./RNTInterface.sol\";\n// import \"./MerkleTreeValidatorInterface.sol\";\n\n// About the game\n// # Roles\n//  * defender : setup the game (only the fee)\n//  * player : join the game, max 1000 players, pay 0.01 eth and may win some RNT\n//  * validator: provide merkle proof at `end` block\n//\n// # time line of a game:\n//    start ------------ n ------- m -------------------------------- end --------\n//          calc           reg to    lottery, each round: 0-n winners     mr submit to chain;\n//                         sc        (only on sc)                         withdraw eth/claim reward\n//          (period1)      (period2) (period3)                            could start next round\n//\n//  * sc: state channel; mr: merkle root\n//  * period_all = period1 + period2 + period3\n//  * during period2 (btw. `n` and `m`) players get tickets on sc\n//  * player obtain ticket in the form `ticket[i] = hash(score + bn[m-1] + i)` where 0<=i<5, depend on score\n// todo: add an upper limit for the contract to give to players? Such as (the order of) 1000*0.01 eth = 10 eth = 1e5 RNT\n\ncontract BattleShip {\n\tusing SafeMath for uint256;\n\t// Variables\n\taddress public defender;\n\taddress public winner;\n\taddress public validator;\n\t// address public RNTAddr;\n\tuint constant public maxPlayer = 1000;\n\tuint constant public period_all = 30;  // 7 + 3 + 20\n\tuint public initHeight;\n\t// uint public lastActivity;\n\t// bytes32 public difficulty = 0x000000000000000000000000000000ffffffffffffffffffffffffffffffffff;\n\tuint public fee = 10000000000000000;\n\tbool public setup = false;\n\tuint public playercount = 0;\n        // address constant public MerkleTreeAddr = 0x127bfc8AFfdCaeee6043e7eC79239542e5A470B7;\n\n\tstruct playerInfo {\n\t\t// address wallet; // msg.sender\n\t\t// uint since;     // block height when joined\n\t\tuint initHeightJoined;\n\t\tbytes32 scoreHash;\n\t\tbool claimed;\n\t}\n\n        struct battleStat{\n            bytes32 merkleRoot;\n            string ipfsAddr;\n        }\n\n        bytes32 public ticketSeed;  // blockhash(initHeight+8) of each game\n        bytes32 public board;\n        bytes32 public prevboard;\n        // address ethWinnerAddr;  // only one winner take eth\n        // uint ethWinnerReward;\n\n\tmapping (address => playerInfo) playerDB;\n\tmapping (uint => battleStat) battleHistory;\n\n\t// Modifiers\n\tmodifier defenderOnly() {\n\t\trequire(msg.sender == defender);\n\t\t_;\n\t}\n\n\tmodifier WinnerOnly() {\n\t\trequire(winner != address(0) && msg.sender == winner);\n\t\t_;\n\t}\n\n\tmodifier ValidatorOnly() {\n\t        require(validator != address(0) && msg.sender == validator);\n\t        _;\n        }\n\n\tmodifier NewGameOnly() {\n\t\trequire(setup == false);\n\t\t_;\n\t}\n\n\tmodifier feePaid() {\n\t\trequire(msg.value >= fee);\n\t\t_;\n\t}\n\n\tmodifier gameStarted() {\n\t\trequire(setup == true);\n\t\t_;\n\t}\n\n\tmodifier gameStalled() {\n\t\t// require(setup == true && block.number > initHeight + period_all && winner == address(0));\n\t\trequire(setup == true && block.number > initHeight + 10 && winner == address(0));\n\t\t_;\n\t}\n\n\tmodifier notDefender() {\n\t\trequire(msg.sender != defender);\n\t\t_;\n\t}\n\n\t// Contract constructor\n\tconstructor(bytes32 _init) public payable {\n\t\trequire(msg.value >= fee);\n\t\tdefender = msg.sender;\n\t\tvalidator = msg.sender;\n\t\t// RNTAddr  = _RNTAddr;\n\n\t\trequire(fortify(_init) == true);\n\t}\n\n\t// WinnerOnly\n\tfunction withdraw() public WinnerOnly returns (bool) {\n\t        // only one player win eth; make sure winner can claim the reward after next game started\n\t\trequire(block.number > playerDB[msg.sender].initHeightJoined + period_all);\n\t\t// require(block.number < playerDB[msg.sender].initHeightJoined + period_all + 7);\n\t\tsetup = false;\n\t\twinner = address(0);\n\t        prevboard = board;\n\t\tboard = bytes32(0);\n\t\tplayercount = 0;\n\n\t\tuint256 reward = uint256(address(this).balance).mul(uint256(6)) / uint256(10);\n\t\t// require(RNTInterface(RNTAddr).mint(msg.sender) == true);\n\t\trequire(msg.sender.send(reward) == true);\n\t\treturn true;\n\t}\n\n\n\tfunction claimLotteReward( // this happens after end of a game, next round may started\n\t    bytes32 secret,\n\t    string memory slots,\n\t    uint blockNo,\n\t    uint[] memory submitBlocks,  // the winning blocks the player claimed\n\t    uint[] memory winningTickets, // the idx of generateTickets. same order as submitBlocks\n\t    bytes32[] memory proof,\n\t    bool[] memory isLeft,\n\t    bytes32 score,\n\t    bytes32 claimHash\n\t) public returns (bool) {\n\t\trequire(playerDB[msg.sender].claimed == false, \"already claimed\");\n\t\trequire(winningTickets.length <= 10, \"you cannot claim more tickets\");\n\t        require(proof.length == isLeft.length, \"len of proof/isLeft mismatch\");\n\t        require(winningTickets.length == submitBlocks.length, \"submitBlocks and winningTickets mismatch\");\n\t\trequire(battleHistory[playerDB[msg.sender].initHeightJoined].merkleRoot != bytes32(0), \"no merkle root yet\");\n\t\t// require(block.number > playerDB[msg.sender].initHeightJoined + period_all, \"too early\");\n\t\t// require(block.number < playerDB[msg.sender].initHeightJoined + period_all + 7, \"too late\");\n\t\tbytes32 _board;\n\t\tif (playerDB[msg.sender].initHeightJoined == initHeight) {\n\t\t        _board = board;\n                } else if (initHeight - playerDB[msg.sender].initHeightJoined > period_all) {\n                        _board = prevboard;\n                } else {\n                        revert();\n                }\n\n                // No second chance: if one of the following verification failed, the player cannot call this function again.\n                playerDB[msg.sender].claimed = true;\n                // uint i;\n\n                bytes memory _score = getScore(secret, slots, blockNo, _board);\n                require(keccak256(_score) == keccak256(abi.encodePacked(score)));\n\t\trequire(keccak256(abi.encodePacked(score)) == playerDB[msg.sender].scoreHash,\n\t\t        \"wrong score base on the given secret/blockNo\");\n\n                // generate \"claimhash\", which is hash(msg.sender, submitBlocks[i], winningTickets[i], ...) where i=0,1,2,...\n\t\tbytes32[5] memory genTickets = generateTickets(score);\n                // bytes32[] memory claimHashElements;\n                // claimHashElements[0] = bytes20(msg.sender);\n                // for (i=0; i<winningTickets.length; i++){\n                //         claimHashElements[i*2+1] = bytes32(submitBlocks[i]);\n                //         claimHashElements[i*2+2] = bytes32(genTickets[winningTickets[i]]);\n                // }\n                // bytes32 claimHash = keccak256(abi.encodePacked(claimHashElements));\n                // require(merkleTreeValidator(proof, isLeft, keccak256(abi.encodePacked(claimHashElements)),\n                require(merkleTreeValidator(proof, isLeft, claimHash,\n                                            battleHistory[playerDB[msg.sender].initHeightJoined].merkleRoot),\n                        \"merkle proof failed\");\n\n                // count number of winning tickets\n                require(verifyWinnumber(_board, submitBlocks, winningTickets, genTickets) == true, \"found a wrong ticket\");\n\t\treturn true;\n        }\n\n        function verifyWinnumber(bytes32 _board, uint[] submitBlocks, uint[] winningTickets, bytes32[5] genTickets) public view returns(bool){\n                bytes32 winNumber;\n                for (uint i=0; i<submitBlocks.length; i++){\n                            winNumber = keccak256(abi.encodePacked(_board, blockhash(submitBlocks[i])));\n                            if (uint(winNumber[31])%16 != uint(genTickets[winningTickets[i]][31])%16 ){\n                                    return false;\n                            }\n                            // require(winNumber[31] == genTickets[winningTickets[i]][31]);  // last 1 byte = 2 digits of hex\n                            // require(winNumber[31] == genTickets[winningTickets[i]][31] && \n                            //         uint(winNumber[30])%16 == uint(genTickets[winningTickets[i]][30])%16 );  // last 3 digits of hex\n                            // require(winNumber[31] == genTickets[winningTickets[i]][31] && \n                            //         winNumber[30] == genTickets[winningTickets[i]][30]);  // last 4 digits of hex\n\n                            // require(RNTInterface(RNTAddr).mint(msg.sender) == true);\n                }\n                return true;\n        }\n\n        function generateTickets(bytes32 score) public view returns (bytes32[5] memory){\n                // require(score != bytes32(0));\n                bytes32[5] memory tickets;\n\t\tfor (uint i = 0; i < getNumOfTickets(score); i++) {\n\t\t        tickets[i] = keccak256(abi.encodePacked(score, ticketSeed, i+1));  // idx of ticket start from 1\n                }\n                return tickets;\n        }\n\n        function getNumOfTickets(bytes32 score) public pure returns(uint){\n                if (score > 0x00ffffffffffffffffffffffffffffffffffffffffffffffffffffffffffffff) {\n                        return 1;  // min: 1 ticket\n                } else if (score > 0x000fffffffffffffffffffffffffffffffffffffffffffffffffffffffffffff) {\n                        return 2;\n                } else if (score > 0x0000ffffffffffffffffffffffffffffffffffffffffffffffffffffffffffff) {\n                        return 3;\n                } else if (score > 0x00000fffffffffffffffffffffffffffffffffffffffffffffffffffffffffff) {\n                        return 4;\n                } else {\n                        return 5;  // max: 5 tickets\n                }\n        }\n\n\n\t// function randomNumber() public view returns (bytes32) {\n\t// \trequire(lastRevived != samGroup[3] && samGroup[3] != bytes32(0));\n\t// \trequire(block.number - lastActivity <= 5);\n\t// \treturn keccak256(abi.encodePacked(samGroup[0], samGroup[1], samGroup[2], samGroup[3], blockhash(block.number - 1)));\n\t// }\n\n\tfunction getPlayerInfo(address _addr) public view returns (uint, bytes32, bool) {\n\t\treturn (playerDB[_addr].initHeightJoined, playerDB[_addr].scoreHash, playerDB[_addr].claimed);\n\t}\n\n\tfunction fortify(bytes32 defense) public payable feePaid defenderOnly NewGameOnly returns (bool) {\n\t\t// require(defense > difficulty);\n\n\t\twinner = address(0);\n\n\t\tinitHeight = block.number;\n\n                playerDB[msg.sender] = playerInfo(initHeight, bytes32(0), false);\n\t\tplayercount += 1;\n\t\tsetup = true;\n\n\t        board = defense;\n\n\t\treturn true;\n\t}\n\n\t// Join game\n\tfunction challenge(bytes32 scoreHash) public payable feePaid notDefender gameStarted returns (bool) {\n\t\trequire(playerDB[msg.sender].initHeightJoined < initHeight, \"challange: 1\");\n\t\trequire(block.number > initHeight + 7 && block.number <= initHeight + 10, \"challange: 2\");\n\t\trequire(playercount + 1 <= maxPlayer, \"challange: 3\");\n\n\t\tplayerDB[msg.sender] = playerInfo(initHeight, scoreHash, false);\n\n\t\tplayercount += 1;\n\n\t\treturn true;\n\t}\n\n\tfunction testOutcome(bytes32 secret, uint blockNo) public gameStarted view returns (bytes32 _board, bool[32] memory _slots) {\n\t\trequire(block.number > initHeight + 7); // for debug\n\t\t// require(block.number > initHeight + 7 && block.number <= initHeight + 10, 'testoutcome: 1');\n\t\t// require(block.number - blockNo < 7, 'testoutcome: 2');\n\t\trequire(blockNo <= block.number - 1 && blockNo >= initHeight + 7 && blockNo < initHeight + 10, 'testoutcome: 3');\n\n\t\t_board = keccak256(abi.encodePacked(msg.sender, secret, blockhash(blockNo)));\n\n\t\tfor (uint i = 0; i <= 31; i++) {\n\t\t\tif(_board[i] < board[i]) {\n\t\t\t\t_slots[i] = true;\n\t\t\t}\n\t\t}\n\n\t\treturn (_board, _slots);\n\t}\n\n\tfunction winningNumber(uint blockNo, bytes32 _board) public view returns (bytes32) {\n\t        // TODO: \"board\" should be a input value\n\t        require(blockNo <= block.number - 1);\n\t        return keccak256(abi.encodePacked(_board, blockhash(blockNo)));\n        }\n\n        function merkleTreeValidator(bytes32[] memory proof, bool[] memory isLeft, bytes32 targetLeaf, bytes32 _merkleRoot) public pure returns (bool) {\n                require(proof.length < 32);  // 2**32 ~ 4.3e9 leaves!\n                require(proof.length == isLeft.length);\n\n                bytes32 targetHash = targetLeaf;\n                for (uint256 i = 0; i < proof.length; i++) {\n                        bytes32 proofEle = proof[i]; \n                        if (isLeft[i]) {\n                                targetHash = keccak256(abi.encodePacked(proofEle, targetHash));\n                        } else if (!isLeft[i]) {\n                                targetHash = keccak256(abi.encodePacked(targetHash, proofEle));\n                        } else {\n                                return false;\n                        }\n                }\n                return targetHash == _merkleRoot;\n        }\n\n\tfunction submitMerkleRoot(uint _initHeight, bytes32 _merkleRoot, string memory _ipfsAddr) public ValidatorOnly returns (bool) {\n\t\trequire(block.number >= _initHeight + period_all && block.number <= _initHeight + period_all + 3);\n\t        battleHistory[_initHeight]= battleStat(_merkleRoot, _ipfsAddr);\n\t        ticketSeed = blockhash(_initHeight+8);\n\t        return true;\n        }\n\n        function getBlockInfo(uint _initHeight) public view returns(bytes32, string){\n\t        return (battleHistory[_initHeight].merkleRoot, battleHistory[_initHeight].ipfsAddr);\n        }\n\n        function getBlockhash(uint blockNo) external view returns (bytes32) {\n                return blockhash(blockNo);\n        }\n\n        // function convertString32ToBool(string memory s32) internal pure returns (bool[32] memory) {\n        //         // i.g., convert string \"01001....\" to bool[32]: [false, true, false, false, true, ...]\n        //         bytes memory s32Bytes = bytes(s32);\n        //         bool[32] memory result;\n        //         for (uint i = 0; i < s32Bytes.length; i++) {\n        //                 if(s32Bytes[i] == '1') {\n        //                     result[i] = true;\n        //                 } else {\n        //                     result[i] = false;\n        //                 }\n        //         }\n        //         return result;\n        // }\n                \n        function getScore(bytes32 secret, string memory slotString, uint blockNo, bytes32 _board) public view returns (bytes memory){ \n\t        // verification: the secret belongs to the player\n\t\tbytes32 myboard = keccak256(abi.encodePacked(msg.sender, secret, blockhash(blockNo))); // initialize for the loop below\n\t\t// bool[32] memory _slots = convertString32ToBool(slots); \n                bytes memory slots = bytes(slotString);\n                bytes memory score = new bytes(32);\n                for (uint i = 0; i < 32; i++) {\n\t\t        if(slots[i] == 0x30) {  // see decimal ascii chart, '0' = 48 (decimal) = 0x30 (hex)\n\t\t                score[i] = _board[i];\n                        } else if (slots[i] == 0x31) {\n                                score[i] = myboard[i];\n\t\t\t} \n                }\n\n                return score;\n\n                // // bytes to bytes32\n                // bytes32 out;\n                // for (i=0; i<32; i++){\n                //         out |= bytes32( score[i] & 0xff ) >> (i + 8);\n                // }\n\t\t// return out;\n\t}\n\n\n        function newValidator(address _newValidator) public defenderOnly returns (bool){\n                require(_newValidator != address(0));\n                validator = _newValidator;\n                return true;\n        }\n\n        function newDefender(address _newDefender) public defenderOnly returns (bool){\n                require(_newDefender != address(0));\n                require(setup = false);\n\t\tdefender = _newDefender;\n                return true;\n        }\n\n        // fallback\n        function () defenderOnly gameStalled external { \n            winner = defender; \n            // require(withdraw());\n            setup = false;\n            board = bytes32(0);\n            playercount = 0;\n\t    require(msg.sender.send(address(this).balance) == true);\n        }\n}\n",
  "sourcePath": "/home/kai/Work/project/BattleShip/contracts/BattleShip.sol",
  "compiler": {
    "name": "solc",
    "version": "0.4.25+commit.59dbf8f1.Emscripten.clang"
  },
  "schemaVersion": "2.0.2",
  "updatedAt": "2019-01-23T00:05:14.679Z"
}