{
  "contractName": "BattleShip",
  "abi": [
    {
      "constant": true,
      "inputs": [],
      "name": "ipfsAddr",
      "outputs": [
        {
          "name": "",
          "type": "string"
        }
      ],
      "payable": false,
      "stateMutability": "view",
      "type": "function"
    },
    {
      "constant": true,
      "inputs": [],
      "name": "merkleRoot",
      "outputs": [
        {
          "name": "",
          "type": "bytes32"
        }
      ],
      "payable": false,
      "stateMutability": "view",
      "type": "function"
    },
    {
      "constant": true,
      "inputs": [],
      "name": "validator",
      "outputs": [
        {
          "name": "",
          "type": "address"
        }
      ],
      "payable": false,
      "stateMutability": "view",
      "type": "function"
    },
    {
      "constant": true,
      "inputs": [],
      "name": "maxPlayer",
      "outputs": [
        {
          "name": "",
          "type": "uint256"
        }
      ],
      "payable": false,
      "stateMutability": "view",
      "type": "function"
    },
    {
      "constant": true,
      "inputs": [],
      "name": "playercount",
      "outputs": [
        {
          "name": "",
          "type": "uint256"
        }
      ],
      "payable": false,
      "stateMutability": "view",
      "type": "function"
    },
    {
      "constant": true,
      "inputs": [],
      "name": "board",
      "outputs": [
        {
          "name": "",
          "type": "bytes32"
        }
      ],
      "payable": false,
      "stateMutability": "view",
      "type": "function"
    },
    {
      "constant": true,
      "inputs": [],
      "name": "defender",
      "outputs": [
        {
          "name": "",
          "type": "address"
        }
      ],
      "payable": false,
      "stateMutability": "view",
      "type": "function"
    },
    {
      "constant": true,
      "inputs": [],
      "name": "period_all",
      "outputs": [
        {
          "name": "",
          "type": "uint256"
        }
      ],
      "payable": false,
      "stateMutability": "view",
      "type": "function"
    },
    {
      "constant": true,
      "inputs": [],
      "name": "initHeight",
      "outputs": [
        {
          "name": "",
          "type": "uint256"
        }
      ],
      "payable": false,
      "stateMutability": "view",
      "type": "function"
    },
    {
      "constant": true,
      "inputs": [],
      "name": "MerkleTreeAddr",
      "outputs": [
        {
          "name": "",
          "type": "address"
        }
      ],
      "payable": false,
      "stateMutability": "view",
      "type": "function"
    },
    {
      "constant": true,
      "inputs": [],
      "name": "setup",
      "outputs": [
        {
          "name": "",
          "type": "bool"
        }
      ],
      "payable": false,
      "stateMutability": "view",
      "type": "function"
    },
    {
      "constant": true,
      "inputs": [],
      "name": "prevboard",
      "outputs": [
        {
          "name": "",
          "type": "bytes32"
        }
      ],
      "payable": false,
      "stateMutability": "view",
      "type": "function"
    },
    {
      "constant": true,
      "inputs": [],
      "name": "fee",
      "outputs": [
        {
          "name": "",
          "type": "uint256"
        }
      ],
      "payable": false,
      "stateMutability": "view",
      "type": "function"
    },
    {
      "constant": true,
      "inputs": [],
      "name": "winner",
      "outputs": [
        {
          "name": "",
          "type": "address"
        }
      ],
      "payable": false,
      "stateMutability": "view",
      "type": "function"
    },
    {
      "inputs": [
        {
          "name": "_init",
          "type": "bytes32"
        }
      ],
      "payable": true,
      "stateMutability": "payable",
      "type": "constructor"
    },
    {
      "payable": false,
      "stateMutability": "nonpayable",
      "type": "fallback"
    },
    {
      "constant": false,
      "inputs": [],
      "name": "withdraw",
      "outputs": [
        {
          "name": "",
          "type": "bool"
        }
      ],
      "payable": false,
      "stateMutability": "nonpayable",
      "type": "function"
    },
    {
      "constant": false,
      "inputs": [
        {
          "name": "secret",
          "type": "bytes32"
        },
        {
          "name": "slots",
          "type": "string"
        },
        {
          "name": "blockNo",
          "type": "uint256"
        },
        {
          "name": "submitBlocks",
          "type": "uint256[]"
        },
        {
          "name": "winningTickets",
          "type": "uint256[]"
        },
        {
          "name": "proof",
          "type": "bytes32[]"
        },
        {
          "name": "isLeft",
          "type": "bool[]"
        }
      ],
      "name": "claimLotteReward",
      "outputs": [
        {
          "name": "",
          "type": "bool"
        }
      ],
      "payable": false,
      "stateMutability": "nonpayable",
      "type": "function"
    },
    {
      "constant": true,
      "inputs": [
        {
          "name": "score",
          "type": "bytes32"
        }
      ],
      "name": "generateTickets",
      "outputs": [
        {
          "name": "",
          "type": "bytes32[10]"
        }
      ],
      "payable": false,
      "stateMutability": "view",
      "type": "function"
    },
    {
      "constant": true,
      "inputs": [
        {
          "name": "score",
          "type": "bytes32"
        }
      ],
      "name": "getNumOfTickets",
      "outputs": [
        {
          "name": "",
          "type": "uint256"
        }
      ],
      "payable": false,
      "stateMutability": "pure",
      "type": "function"
    },
    {
      "constant": true,
      "inputs": [
        {
          "name": "_addr",
          "type": "address"
        }
      ],
      "name": "getPlayerInfo",
      "outputs": [
        {
          "name": "",
          "type": "uint256"
        },
        {
          "name": "",
          "type": "bytes32"
        }
      ],
      "payable": false,
      "stateMutability": "view",
      "type": "function"
    },
    {
      "constant": false,
      "inputs": [
        {
          "name": "defense",
          "type": "bytes32"
        }
      ],
      "name": "fortify",
      "outputs": [
        {
          "name": "",
          "type": "bool"
        }
      ],
      "payable": true,
      "stateMutability": "payable",
      "type": "function"
    },
    {
      "constant": false,
      "inputs": [
        {
          "name": "scoreHash",
          "type": "bytes32"
        }
      ],
      "name": "challenge",
      "outputs": [
        {
          "name": "",
          "type": "bool"
        }
      ],
      "payable": true,
      "stateMutability": "payable",
      "type": "function"
    },
    {
      "constant": true,
      "inputs": [
        {
          "name": "secret",
          "type": "bytes32"
        },
        {
          "name": "blockNo",
          "type": "uint256"
        }
      ],
      "name": "testOutcome",
      "outputs": [
        {
          "name": "_board",
          "type": "bytes32"
        },
        {
          "name": "_slots",
          "type": "bool[32]"
        }
      ],
      "payable": false,
      "stateMutability": "view",
      "type": "function"
    },
    {
      "constant": true,
      "inputs": [
        {
          "name": "blockNo",
          "type": "uint256"
        }
      ],
      "name": "winningNumber",
      "outputs": [
        {
          "name": "",
          "type": "bytes32"
        }
      ],
      "payable": false,
      "stateMutability": "view",
      "type": "function"
    },
    {
      "constant": true,
      "inputs": [
        {
          "name": "proof",
          "type": "bytes32[]"
        },
        {
          "name": "isLeft",
          "type": "bool[]"
        },
        {
          "name": "targetLeaf",
          "type": "bytes32"
        },
        {
          "name": "_merkleRoot",
          "type": "bytes32"
        }
      ],
      "name": "merkleTreeValidator",
      "outputs": [
        {
          "name": "",
          "type": "bool"
        }
      ],
      "payable": false,
      "stateMutability": "pure",
      "type": "function"
    },
    {
      "constant": false,
      "inputs": [
        {
          "name": "_initHeight",
          "type": "uint256"
        },
        {
          "name": "_merkleRoot",
          "type": "bytes32"
        },
        {
          "name": "_ipfsAddr",
          "type": "string"
        }
      ],
      "name": "submitMerkleRoot",
      "outputs": [
        {
          "name": "",
          "type": "bool"
        }
      ],
      "payable": false,
      "stateMutability": "nonpayable",
      "type": "function"
    },
    {
      "constant": true,
      "inputs": [
        {
          "name": "blockNo",
          "type": "uint256"
        }
      ],
      "name": "getBlockhash",
      "outputs": [
        {
          "name": "",
          "type": "bytes32"
        }
      ],
      "payable": false,
      "stateMutability": "view",
      "type": "function"
    }
  ],
  "bytecode": "0x6080604052662386f26fc100006004556000600560006101000a81548160ff0219169083151502179055506000600655604051602080620033ac8339810180604052810190808051906020019092919050505060045434101515156200006457600080fd5b336000806101000a81548173ffffffffffffffffffffffffffffffffffffffff021916908373ffffffffffffffffffffffffffffffffffffffff16021790555033600260006101000a81548173ffffffffffffffffffffffffffffffffffffffff021916908373ffffffffffffffffffffffffffffffffffffffff16021790555060011515620001038262000119640100000000026401000000009004565b15151415156200011257600080fd5b50620003d5565b600062000125620002ff565b60045434101515156200013757600080fd5b6000809054906101000a900473ffffffffffffffffffffffffffffffffffffffff1673ffffffffffffffffffffffffffffffffffffffff163373ffffffffffffffffffffffffffffffffffffffff161415156200019357600080fd5b60001515600560009054906101000a900460ff161515141515620001b657600080fd5b6000600160006101000a81548173ffffffffffffffffffffffffffffffffffffffff021916908373ffffffffffffffffffffffffffffffffffffffff1602179055506020604051908101604052806000815250600a90805190602001906200022092919062000326565b504360038190555060035481600001818152505080600b60003373ffffffffffffffffffffffffffffffffffffffff1673ffffffffffffffffffffffffffffffffffffffff168152602001908152602001600020600082015181600001556020820151816001019060001916905560408201518160020160006101000a81548160ff02191690831515021790555090505060016006600082825401925050819055506001600560006101000a81548160ff0219169083151502179055506008546009816000191690555082600881600019169055506001915050919050565b60606040519081016040528060008152602001600080191681526020016000151581525090565b828054600181600116156101000203166002900490600052602060002090601f016020900481019282601f106200036957805160ff19168380011785556200039a565b828001600101855582156200039a579182015b82811115620003995782518255916020019190600101906200037c565b5b509050620003a99190620003ad565b5090565b620003d291905b80821115620003ce576000816000905550600101620003b4565b5090565b90565b612fc780620003e56000396000f300608060405260043610610154576000357c0100000000000000000000000000000000000000000000000000000000900463ffffffff16806305df721e146102bf5780631cb9409f1461034f5780632eb4a7ab146103d45780633a5381b5146104075780633ccfd60b1461045e5780633f4ec20a1461048d5780635853361214610632578063593284011461066e5780635c0effb2146106d45780636426b1e4146107195780636b180b59146107445780637cd3229a1461076f5780637f4c91c5146107a2578063a4dd1d7d146107f9578063a78eacdb14610824578063a7ca2e201461084f578063b04cd588146108a6578063b8b81e401461093f578063b8f69e3714610988578063b99b11dc14610a65578063ba0bba4014610ad2578063cff483b914610b01578063cffd46dc14610b34578063ddca3f4314610b70578063dfbf53ae14610b9b578063e9413d3814610bf2575b34801561016057600080fd5b506000809054906101000a900473ffffffffffffffffffffffffffffffffffffffff1673ffffffffffffffffffffffffffffffffffffffff163373ffffffffffffffffffffffffffffffffffffffff161415156101bc57600080fd5b60011515600560009054906101000a900460ff1615151480156101e35750600a6003540143115b801561023d5750600073ffffffffffffffffffffffffffffffffffffffff16600160009054906101000a900473ffffffffffffffffffffffffffffffffffffffff1673ffffffffffffffffffffffffffffffffffffffff16145b151561024857600080fd5b6000809054906101000a900473ffffffffffffffffffffffffffffffffffffffff16600160006101000a81548173ffffffffffffffffffffffffffffffffffffffff021916908373ffffffffffffffffffffffffffffffffffffffff1602179055506102b2610c3b565b15156102bd57600080fd5b005b3480156102cb57600080fd5b506102d4610e6b565b6040518080602001828103825283818151815260200191508051906020019080838360005b838110156103145780820151818401526020810190506102f9565b50505050905090810190601f1680156103415780820380516001836020036101000a031916815260200191505b509250505060405180910390f35b34801561035b57600080fd5b50610388600480360381019080803560001916906020019092919080359060200190929190505050610f09565b604051808360001916600019168152602001826020800280838360005b838110156103c05780820151818401526020810190506103a5565b505050509050019250505060405180910390f35b3480156103e057600080fd5b506103e96112b2565b60405180826000191660001916815260200191505060405180910390f35b34801561041357600080fd5b5061041c6112b8565b604051808273ffffffffffffffffffffffffffffffffffffffff1673ffffffffffffffffffffffffffffffffffffffff16815260200191505060405180910390f35b34801561046a57600080fd5b50610473610c3b565b604051808215151515815260200191505060405180910390f35b34801561049957600080fd5b506106186004803603810190808035600019169060200190929190803590602001908201803590602001908080601f016020809104026020016040519081016040528093929190818152602001838380828437820191505050505050919291929080359060200190929190803590602001908201803590602001908080602002602001604051908101604052809392919081815260200183836020028082843782019150505050505091929192908035906020019082018035906020019080806020026020016040519081016040528093929190818152602001838360200280828437820191505050505050919291929080359060200190820180359060200190808060200260200160405190810160405280939291908181526020018383602002808284378201915050505050509192919290803590602001908201803590602001908080602002602001604051908101604052809392919081815260200183836020028082843782019150505050505091929192905050506112de565b604051808215151515815260200191505060405180910390f35b61065460048036038101908080356000191690602001909291905050506120b0565b604051808215151515815260200191505060405180910390f35b34801561067a57600080fd5b506106af600480360381019080803573ffffffffffffffffffffffffffffffffffffffff16906020019092919050505061228f565b6040518083815260200182600019166000191681526020019250505060405180910390f35b3480156106e057600080fd5b506107036004803603810190808035600019169060200190929190505050612321565b6040518082815260200191505060405180910390f35b34801561072557600080fd5b5061072e612407565b6040518082815260200191505060405180910390f35b34801561075057600080fd5b5061075961240d565b6040518082815260200191505060405180910390f35b34801561077b57600080fd5b50610784612413565b60405180826000191660001916815260200191505060405180910390f35b3480156107ae57600080fd5b506107b7612419565b604051808273ffffffffffffffffffffffffffffffffffffffff1673ffffffffffffffffffffffffffffffffffffffff16815260200191505060405180910390f35b34801561080557600080fd5b5061080e61243e565b6040518082815260200191505060405180910390f35b34801561083057600080fd5b50610839612443565b6040518082815260200191505060405180910390f35b34801561085b57600080fd5b50610864612449565b604051808273ffffffffffffffffffffffffffffffffffffffff1673ffffffffffffffffffffffffffffffffffffffff16815260200191505060405180910390f35b3480156108b257600080fd5b50610925600480360381019080803590602001909291908035600019169060200190929190803590602001908201803590602001908080601f0160208091040260200160405190810160405280939291908181526020018383808284378201915050505050509192919290505050612461565b604051808215151515815260200191505060405180910390f35b34801561094b57600080fd5b5061096a60048036038101908080359060200190929190505050612569565b60405180826000191660001916815260200191505060405180910390f35b34801561099457600080fd5b50610a4b600480360381019080803590602001908201803590602001908080602002602001604051908101604052809392919081815260200183836020028082843782019150505050505091929192908035906020019082018035906020019080806020026020016040519081016040528093929190818152602001838360200280828437820191505050505050919291929080356000191690602001909291908035600019169060200190929190505050612621565b604051808215151515815260200191505060405180910390f35b348015610a7157600080fd5b50610a9460048036038101908080356000191690602001909291905050506127b5565b6040518082600a60200280838360005b83811015610abf578082015181840152602081019050610aa4565b5050505090500191505060405180910390f35b348015610ade57600080fd5b50610ae761292e565b604051808215151515815260200191505060405180910390f35b348015610b0d57600080fd5b50610b16612941565b60405180826000191660001916815260200191505060405180910390f35b610b566004803603810190808035600019169060200190929190505050612947565b604051808215151515815260200191505060405180910390f35b348015610b7c57600080fd5b50610b85612cef565b6040518082815260200191505060405180910390f35b348015610ba757600080fd5b50610bb0612cf5565b604051808273ffffffffffffffffffffffffffffffffffffffff1673ffffffffffffffffffffffffffffffffffffffff16815260200191505060405180910390f35b348015610bfe57600080fd5b50610c1d60048036038101908080359060200190929190505050612d1b565b60405180826000191660001916815260200191505060405180910390f35b600080600073ffffffffffffffffffffffffffffffffffffffff16600160009054906101000a900473ffffffffffffffffffffffffffffffffffffffff1673ffffffffffffffffffffffffffffffffffffffff1614158015610cea5750600160009054906101000a900473ffffffffffffffffffffffffffffffffffffffff1673ffffffffffffffffffffffffffffffffffffffff163373ffffffffffffffffffffffffffffffffffffffff16145b1515610cf557600080fd5b601e600b60003373ffffffffffffffffffffffffffffffffffffffff1673ffffffffffffffffffffffffffffffffffffffff168152602001908152602001600020600001540143111515610d4857600080fd5b6000600560006101000a81548160ff0219169083151502179055506000600160006101000a81548173ffffffffffffffffffffffffffffffffffffffff021916908373ffffffffffffffffffffffffffffffffffffffff16021790555060006001026008816000191690555060006006819055506020604051908101604052806000815250600a9080519060200190610de2929190612e87565b50600a610e1060063073ffffffffffffffffffffffffffffffffffffffff1631612d2690919063ffffffff16565b811515610e1957fe5b049050600115153373ffffffffffffffffffffffffffffffffffffffff166108fc839081150290604051600060405180830381858888f193505050501515141515610e6357600080fd5b600191505090565b600a8054600181600116156101000203166002900480601f016020809104026020016040519081016040528092919081815260200182805460018160011615610100020316600290048015610f015780601f10610ed657610100808354040283529160200191610f01565b820191906000526020600020905b815481529060010190602001808311610ee457829003601f168201915b505050505081565b6000610f13612f07565b600060011515600560009054906101000a900460ff161515141515610f3757600080fd5b60076003540143118015610f505750600a600354014311155b1515610fc4576040517f08c379a000000000000000000000000000000000000000000000000000000000815260040180806020018281038252600e8152602001807f746573746f7574636f6d653a203100000000000000000000000000000000000081525060200191505060405180910390fd5b600784430310151561103e576040517f08c379a000000000000000000000000000000000000000000000000000000000815260040180806020018281038252600e8152602001807f746573746f7574636f6d653a203200000000000000000000000000000000000081525060200191505060405180910390fd5b60014303841115801561105657506007600354018410155b80156110665750600a6003540184105b15156110da576040517f08c379a000000000000000000000000000000000000000000000000000000000815260040180806020018281038252600e8152602001807f746573746f7574636f6d653a203300000000000000000000000000000000000081525060200191505060405180910390fd5b33858540604051602001808473ffffffffffffffffffffffffffffffffffffffff1673ffffffffffffffffffffffffffffffffffffffff166c010000000000000000000000000281526014018360001916600019168152602001826000191660001916815260200193505050506040516020818303038152906040526040518082805190602001908083835b60208310151561118b5780518252602082019150602081019050602083039250611166565b6001836020036101000a03801982511681845116808217855250505050505090500191505060405180910390209250600090505b601f811115156112a457600854816020811015156111d957fe5b1a7f0100000000000000000000000000000000000000000000000000000000000000027effffffffffffffffffffffffffffffffffffffffffffffffffffffffffffff1916838260208110151561122c57fe5b1a7f0100000000000000000000000000000000000000000000000000000000000000027effffffffffffffffffffffffffffffffffffffffffffffffffffffffffffff19161015611297576001828260208110151561128757fe5b6020020190151590811515815250505b80806001019150506111bf565b828292509250509250929050565b60075481565b600260009054906101000a900473ffffffffffffffffffffffffffffffffffffffff1681565b6000806000806112ec612f07565b6112f4612f2b565b60606000801515600b60003373ffffffffffffffffffffffffffffffffffffffff1673ffffffffffffffffffffffffffffffffffffffff16815260200190815260200160002060020160009054906101000a900460ff1615151415156113c2576040517f08c379a000000000000000000000000000000000000000000000000000000000815260040180806020018281038252600f8152602001807f616c726561647920636c61696d6564000000000000000000000000000000000081525060200191505060405180910390fd5b600a8b511115151561143c576040517f08c379a000000000000000000000000000000000000000000000000000000000815260040180806020018281038252601d8152602001807f796f752063616e6e6f7420636c61696d206d6f7265207469636b65747300000081525060200191505060405180910390fd5b88518a511415156114b5576040517f08c379a000000000000000000000000000000000000000000000000000000000815260040180806020018281038252601c8152602001807f6c656e206f662070726f6f662f69734c656674206d69736d617463680000000081525060200191505060405180910390fd5b8b518b51141515611554576040517f08c379a00000000000000000000000000000000000000000000000000000000081526004018080602001828103825260288152602001807f7375626d6974426c6f636b7320616e642077696e6e696e675469636b6574732081526020017f6d69736d6174636800000000000000000000000000000000000000000000000081525060400191505060405180910390fd5b600060010260075460001916141515156115d6576040517f08c379a00000000000000000000000000000000000000000000000000000000081526004018080602001828103825260128152602001807f6e6f206d65726b6c6520726f6f7420796574000000000000000000000000000081525060200191505060405180910390fd5b601e600b60003373ffffffffffffffffffffffffffffffffffffffff1673ffffffffffffffffffffffffffffffffffffffff168152602001908152602001600020600001540143111515611692576040517f08c379a00000000000000000000000000000000000000000000000000000000081526004018080602001828103825260098152602001807f746f6f206561726c79000000000000000000000000000000000000000000000081525060200191505060405180910390fd5b6007601e600b60003373ffffffffffffffffffffffffffffffffffffffff1673ffffffffffffffffffffffffffffffffffffffff16815260200190815260200160002060000154010143101515611751576040517f08c379a00000000000000000000000000000000000000000000000000000000081526004018080602001828103825260088152602001807f746f6f206c61746500000000000000000000000000000000000000000000000081525060200191505060405180910390fd5b600354600b60003373ffffffffffffffffffffffffffffffffffffffff1673ffffffffffffffffffffffffffffffffffffffff1681526020019081526020016000206000015414806117e95750601e600b60003373ffffffffffffffffffffffffffffffffffffffff1673ffffffffffffffffffffffffffffffffffffffff1681526020019081526020016000206000015460035403115b151561185d576040517f08c379a000000000000000000000000000000000000000000000000000000000815260040180806020018281038252600a8152602001807f77726f6e672067616d650000000000000000000000000000000000000000000081525060200191505060405180910390fd5b6001600b60003373ffffffffffffffffffffffffffffffffffffffff1673ffffffffffffffffffffffffffffffffffffffff16815260200190815260200160002060020160006101000a81548160ff021916908315150217905550338f8e40604051602001808473ffffffffffffffffffffffffffffffffffffffff1673ffffffffffffffffffffffffffffffffffffffff166c010000000000000000000000000281526014018360001916600019168152602001826000191660001916815260200193505050506040516020818303038152906040526040518082805190602001908083835b6020831015156119695780518252602082019150602081019050602083039250611944565b6001836020036101000a038019825116818451168082178552505050505050905001915050604051809103902094506119a18e612d64565b9350600096505b601f87111515611b44576000151584886020811015156119c457fe5b602002015115151415611a8757600854876020811015156119e157fe5b1a7f0100000000000000000000000000000000000000000000000000000000000000027effffffffffffffffffffffffffffffffffffffffffffffffffffffffffffff19168688602081101515611a3457fe5b1a7f0100000000000000000000000000000000000000000000000000000000000000027effffffffffffffffffffffffffffffffffffffffffffffffffffffffffffff1916141515611a8257fe5b611b37565b8487602081101515611a9557fe5b1a7f0100000000000000000000000000000000000000000000000000000000000000027effffffffffffffffffffffffffffffffffffffffffffffffffffffffffffff19168688602081101515611ae857fe5b1a7f0100000000000000000000000000000000000000000000000000000000000000027effffffffffffffffffffffffffffffffffffffffffffffffffffffffffffff1916141515611b3657fe5b5b86806001019750506119a8565b600b60003373ffffffffffffffffffffffffffffffffffffffff1673ffffffffffffffffffffffffffffffffffffffff1681526020019081526020016000206001015460001916866040516020018082600019166000191681526020019150506040516020818303038152906040526040518082805190602001908083835b602083101515611be85780518252602082019150602081019050602083039250611bc3565b6001836020036101000a038019825116818451168082178552505050505050905001915050604051809103902060001916141515611cb4576040517f08c379a000000000000000000000000000000000000000000000000000000000815260040180806020018281038252602c8152602001807f77726f6e672073636f72652062617365206f6e2074686520676976656e20736581526020017f637265742f626c6f636b4e6f000000000000000000000000000000000000000081525060400191505060405180910390fd5b611cbd866127b5565b9250336c01000000000000000000000000026bffffffffffffffffffffffff1916826000815181101515611ced57fe5b906020019060200201906000191690816000191681525050600096505b8a51871015611dbc578b87815181101515611d2157fe5b9060200190602002015160010282600160028a0201815181101515611d4257fe5b906020019060200201906000191690816000191681525050828b88815181101515611d6957fe5b90602001906020020151600a81101515611d7f57fe5b6020020151826002808a0201815181101515611d9757fe5b9060200190602002019060001916908160001916815250508680600101975050611d0a565b611e788a8a8460405160200180828051906020019060200280838360005b83811015611df5578082015181840152602081019050611dda565b505050509050019150506040516020818303038152906040526040518082805190602001908083835b602083101515611e435780518252602082019150602081019050602083039250611e1e565b6001836020036101000a0380198251168184511680821785525050505050509050019150506040518091039020600754612621565b1515611e8357600080fd5b600096505b8b5187101561209a576009548c88815181101515611ea257fe5b90602001906020020151406040516020018083600019166000191681526020018260001916600019168152602001925050506040516020818303038152906040526040518082805190602001908083835b602083101515611f185780518252602082019150602081019050602083039250611ef3565b6001836020036101000a03801982511681845116808217855250505050505090500191505060405180910390209050828b88815181101515611f5657fe5b90602001906020020151600a81101515611f6c57fe5b6020020151601f602081101515611f7f57fe5b1a7f0100000000000000000000000000000000000000000000000000000000000000027effffffffffffffffffffffffffffffffffffffffffffffffffffffffffffff191681601f602081101515611fd357fe5b1a7f0100000000000000000000000000000000000000000000000000000000000000027effffffffffffffffffffffffffffffffffffffffffffffffffffffffffffff191614151561208d576040517f08c379a00000000000000000000000000000000000000000000000000000000081526004018080602001828103825260148152602001807f666f756e6420612077726f6e67207469636b657400000000000000000000000081525060200191505060405180910390fd5b8680600101975050611e88565b6001975050505050505050979650505050505050565b60006120ba612f4f565b60045434101515156120cb57600080fd5b6000809054906101000a900473ffffffffffffffffffffffffffffffffffffffff1673ffffffffffffffffffffffffffffffffffffffff163373ffffffffffffffffffffffffffffffffffffffff1614151561212657600080fd5b60001515600560009054906101000a900460ff16151514151561214857600080fd5b6000600160006101000a81548173ffffffffffffffffffffffffffffffffffffffff021916908373ffffffffffffffffffffffffffffffffffffffff1602179055506020604051908101604052806000815250600a90805190602001906121b0929190612e87565b504360038190555060035481600001818152505080600b60003373ffffffffffffffffffffffffffffffffffffffff1673ffffffffffffffffffffffffffffffffffffffff168152602001908152602001600020600082015181600001556020820151816001019060001916905560408201518160020160006101000a81548160ff02191690831515021790555090505060016006600082825401925050819055506001600560006101000a81548160ff0219169083151502179055506008546009816000191690555082600881600019169055506001915050919050565b600080600b60008473ffffffffffffffffffffffffffffffffffffffff1673ffffffffffffffffffffffffffffffffffffffff16815260200190815260200160002060000154600b60008573ffffffffffffffffffffffffffffffffffffffff1673ffffffffffffffffffffffffffffffffffffffff1681526020019081526020016000206001015491509150915091565b60007effffffffffffffffffffffffffffffffffffffffffffffffffffffffffffff6001028260001916111561235a5760019050612402565b7e0fffffffffffffffffffffffffffffffffffffffffffffffffffffffffffff600102826000191611156123915760029050612402565b7dffffffffffffffffffffffffffffffffffffffffffffffffffffffffffff600102826000191611156123c75760039050612402565b7d0fffffffffffffffffffffffffffffffffffffffffffffffffffffffffff600102826000191611156123fd5760049050612402565b600590505b919050565b6103e881565b60065481565b60085481565b6000809054906101000a900473ffffffffffffffffffffffffffffffffffffffff1681565b601e81565b60035481565b73127bfc8affdcaeee6043e7ec79239542e5a470b781565b60008073ffffffffffffffffffffffffffffffffffffffff16600260009054906101000a900473ffffffffffffffffffffffffffffffffffffffff1673ffffffffffffffffffffffffffffffffffffffff161415801561250e5750600260009054906101000a900473ffffffffffffffffffffffffffffffffffffffff1673ffffffffffffffffffffffffffffffffffffffff163373ffffffffffffffffffffffffffffffffffffffff16145b151561251957600080fd5b601e8401431015801561253157506003601e85010143105b151561253c57600080fd5b826007816000191690555081600a908051906020019061255d929190612e87565b50600190509392505050565b600060014303821115151561257d57600080fd5b60085482406040516020018083600019166000191681526020018260001916600019168152602001925050506040516020818303038152906040526040518082805190602001908083835b6020831015156125ed57805182526020820191506020810190506020830392506125c8565b6001836020036101000a03801982511681845116808217855250505050505090500191505060405180910390209050919050565b60006010855110151561263357600080fd5b8351855114151561264357600080fd5b73127bfc8affdcaeee6043e7ec79239542e5a470b773ffffffffffffffffffffffffffffffffffffffff166398ecbb6f868686866040518563ffffffff167c010000000000000000000000000000000000000000000000000000000002815260040180806020018060200185600019166000191681526020018460001916600019168152602001838103835287818151815260200191508051906020019060200280838360005b838110156127055780820151818401526020810190506126ea565b50505050905001838103825286818151815260200191508051906020019060200280838360005b8381101561274757808201518184015260208101905061272c565b505050509050019650505050505050602060405180830381600087803b15801561277057600080fd5b505af1158015612784573d6000803e3d6000fd5b505050506040513d602081101561279a57600080fd5b81019080805190602001909291905050509050949350505050565b6127bd612f2b565b6127c5612f2b565b6000807f30783000000000000000000000000000000000000000000000000000000000008560001916141515156127fb57600080fd5b600a600b60003373ffffffffffffffffffffffffffffffffffffffff1673ffffffffffffffffffffffffffffffffffffffff16815260200190815260200160002060000154019150600090505b61285185612321565b8110156129235784826001830160405160200180846000191660001916815260200183815260200182815260200193505050506040516020818303038152906040526040518082805190602001908083835b6020831015156128c857805182526020820191506020810190506020830392506128a3565b6001836020036101000a03801982511681845116808217855250505050505090500191505060405180910390208382600a8110151561290357fe5b602002019060001916908160001916815250508080600101915050612848565b829350505050919050565b600560009054906101000a900460ff1681565b60095481565b6000612951612f4f565b600454341015151561296257600080fd5b6000809054906101000a900473ffffffffffffffffffffffffffffffffffffffff1673ffffffffffffffffffffffffffffffffffffffff163373ffffffffffffffffffffffffffffffffffffffff16141515156129be57600080fd5b60011515600560009054906101000a900460ff1615151415156129e057600080fd5b600354600b60003373ffffffffffffffffffffffffffffffffffffffff1673ffffffffffffffffffffffffffffffffffffffff16815260200190815260200160002060000154101515612a9b576040517f08c379a000000000000000000000000000000000000000000000000000000000815260040180806020018281038252600c8152602001807f6368616c6c616e67653a2031000000000000000000000000000000000000000081525060200191505060405180910390fd5b60076003540143118015612ab45750600a600354014311155b1515612b28576040517f08c379a000000000000000000000000000000000000000000000000000000000815260040180806020018281038252600c8152602001807f6368616c6c616e67653a2032000000000000000000000000000000000000000081525060200191505060405180910390fd5b6103e860016006540111151515612ba7576040517f08c379a000000000000000000000000000000000000000000000000000000000815260040180806020018281038252600c8152602001807f6368616c6c616e67653a2033000000000000000000000000000000000000000081525060200191505060405180910390fd5b60001515600b60003373ffffffffffffffffffffffffffffffffffffffff1673ffffffffffffffffffffffffffffffffffffffff16815260200190815260200160002060020160009054906101000a90505050600354600b60003373ffffffffffffffffffffffffffffffffffffffff1673ffffffffffffffffffffffffffffffffffffffff16815260200190815260200160002060000181905550828160200190600019169081600019168152505080600b60003373ffffffffffffffffffffffffffffffffffffffff1673ffffffffffffffffffffffffffffffffffffffff168152602001908152602001600020600082015181600001556020820151816001019060001916905560408201518160020160006101000a81548160ff02191690831515021790555090505060016006600082825401925050819055506001915050919050565b60045481565b600160009054906101000a900473ffffffffffffffffffffffffffffffffffffffff1681565b600081409050919050565b6000806000841415612d3b5760009150612d5d565b8284029050828482811515612d4c57fe5b04141515612d5957600080fd5b8091505b5092915050565b612d6c612f07565b6060612d76612f07565b6000849250600090505b8251811015612e7c577f31000000000000000000000000000000000000000000000000000000000000008382815181101515612db857fe5b9060200101517f010000000000000000000000000000000000000000000000000000000000000090047f0100000000000000000000000000000000000000000000000000000000000000027effffffffffffffffffffffffffffffffffffffffffffffffffffffffffffff19161415612e4f5760018282602081101515612e3b57fe5b602002019015159081151581525050612e6f565b60008282602081101515612e5f57fe5b6020020190151590811515815250505b8080600101915050612d80565b819350505050919050565b828054600181600116156101000203166002900490600052602060002090601f016020900481019282601f10612ec857805160ff1916838001178555612ef6565b82800160010185558215612ef6579182015b82811115612ef5578251825591602001919060010190612eda565b5b509050612f039190612f76565b5090565b61040060405190810160405280602090602082028038833980820191505090505090565b61014060405190810160405280600a90602082028038833980820191505090505090565b60606040519081016040528060008152602001600080191681526020016000151581525090565b612f9891905b80821115612f94576000816000905550600101612f7c565b5090565b905600a165627a7a72305820bfeb509d6cfa59db388373b6048be6761967ba459fa32c9f75e99f8c0d3473480029",
  "source": "pragma solidity ^0.4.24;\n\n// import \"./ERC20.sol\";\nimport \"./SafeMath.sol\";\n// import \"./RNTInterface.sol\";\nimport \"./MerkleTreeValidatorInterface.sol\";\n\n// About the game\n// # Roles\n//  * defender : setup the game (only the fee)\n//  * player : join the game, max 1000 players, pay 0.01 eth and may win some RNT\n//  * validator: provide merkle proof at `end` block\n//\n// # time line of a game:\n//    start ------------ n ------- m -------------------------------- end --------\n//          calc           reg to    lottery, each round: 0-n winners     mr submit to chain;\n//                         sc        (only on sc)                         withdraw eth/claim reward\n//          (period1)      (period2) (period3)                            could start next round\n//\n//  * sc: state channel; mr: merkle root\n//  * period_all = period1 + period2 + period3\n//  * during period2 (btw. `n` and `m`) players get tickets on sc\n//  * player obtain ticket in the form `ticket[i] = hash(score + bn[m-1] + i)` where 0<=i<5, depend on score\n// todo: add an upper limit for the contract to give to players? Such as (the order of) 1000*0.01 eth = 10 eth = 1e5 RNT\n\ncontract BattleShip {\n\tusing SafeMath for uint256;\n\t// Variables\n\taddress public defender;\n\taddress public winner;\n\taddress public validator;\n\t// address public RNTAddr;\n\tuint constant public maxPlayer = 1000;\n\tuint constant public period_all = 30;  // 7 + 3 + 20\n\tuint public initHeight;\n\t// uint public lastActivity;\n\t// bytes32 public difficulty = 0x000000000000000000000000000000ffffffffffffffffffffffffffffffffff;\n\tuint public fee = 10000000000000000;\n\tbool public setup = false;\n\tuint public playercount = 0;\n        address constant public MerkleTreeAddr = 0x127bfc8AFfdCaeee6043e7eC79239542e5A470B7;\n\n\tstruct playerInfo {\n\t\t// address wallet; // msg.sender\n\t\t// uint since;     // block height when joined\n\t\tuint initHeightJoined;\n\t\tbytes32 scoreHash;\n\t\tbool claimed;\n\t}\n\n        bytes32 public merkleRoot;\n        bytes32 public board;\n        bytes32 public prevboard;\n        // address ethWinnerAddr;  // only one winner take eth\n        // uint ethWinnerReward;\n        string public ipfsAddr;\n\n\tmapping (address => playerInfo) playerDB;\n\t// mapping (uint => mapping (address => battleStat)) battleHistory;\n\t// mapping (uint => battleStat) battleHistory;\n\n\t// Modifiers\n\tmodifier defenderOnly() {\n\t\trequire(msg.sender == defender);\n\t\t_;\n\t}\n\n\tmodifier WinnerOnly() {\n\t\trequire(winner != address(0) && msg.sender == winner);\n\t\t_;\n\t}\n\n\tmodifier ValidatorOnly() {\n\t        require(validator != address(0) && msg.sender == validator);\n\t        _;\n        }\n\n\tmodifier NewGameOnly() {\n\t\trequire(setup == false);\n\t\t_;\n\t}\n\n\tmodifier feePaid() {\n\t\trequire(msg.value >= fee);\n\t\t_;\n\t}\n\n\tmodifier gameStarted() {\n\t\trequire(setup == true);\n\t\t_;\n\t}\n\n\tmodifier gameStalled() {\n\t\t// require(setup == true && block.number > initHeight + period_all && winner == address(0));\n\t\trequire(setup == true && block.number > initHeight + 10 && winner == address(0));\n\t\t_;\n\t}\n\n\tmodifier notDefender() {\n\t\trequire(msg.sender != defender);\n\t\t_;\n\t}\n\n\t// Contract constructor\n\tconstructor(bytes32 _init) public payable {\n\t\trequire(msg.value >= fee);\n\t\tdefender = msg.sender;\n\t\tvalidator = msg.sender;\n\t\t// RNTAddr  = _RNTAddr;\n\n\t\trequire(fortify(_init) == true);\n\t}\n\n\t// WinnerOnly\n\tfunction withdraw() public WinnerOnly returns (bool) {\n\t        // only one player win eth; make sure winner can claim the reward after next game started\n\t\trequire(block.number > playerDB[msg.sender].initHeightJoined + period_all);\n\t\t// require(block.number < playerDB[msg.sender].initHeightJoined + period_all + 7);\n\t\tsetup = false;\n\t\twinner = address(0);\n\t\tboard = bytes32(0);\n\t\tplayercount = 0;\n\t\tipfsAddr = '';\n\n\t\tuint256 reward = uint256(address(this).balance).mul(uint256(6)) / uint256(10);\n\t\t// require(RNTInterface(RNTAddr).mint(msg.sender) == true);\n\t\trequire(msg.sender.send(reward) == true);\n\t\treturn true;\n\t}\n\n\tfunction claimLotteReward( // this happens after end of a game, next round may started\n\t    bytes32 secret,\n\t    string memory slots,\n\t    uint blockNo,\n\t    uint256[] memory submitBlocks,  // the winning blocks the player claimed\n\t    uint[] memory winningTickets, // the idx of generateTickets. same order as submitBlocks\n\t    bytes32[] memory proof,\n\t    bool[] memory isLeft\n\t) public returns (bool) {\n\t\trequire(playerDB[msg.sender].claimed == false, \"already claimed\");\n\t\trequire(winningTickets.length <= 10, \"you cannot claim more tickets\");\n\t        require(proof.length == isLeft.length, \"len of proof/isLeft mismatch\");\n\t        require(winningTickets.length == submitBlocks.length, \"submitBlocks and winningTickets mismatch\");\n\t\trequire(merkleRoot != 0x0, \"no merkle root yet\");\n\t\trequire(block.number > playerDB[msg.sender].initHeightJoined + period_all, \"too early\");\n\t\trequire(block.number < playerDB[msg.sender].initHeightJoined + period_all + 7, \"too late\");\n\t\trequire(playerDB[msg.sender].initHeightJoined == initHeight || \n\t\t        initHeight - playerDB[msg.sender].initHeightJoined > period_all, \"wrong game\");  // how to more precise?\n\t\t// require(ecrecover(keccak256(abi.encodePacked(\"\\x19Ethereum Signed Message:\\n32\", keccak256(abi.encodePacked(score)))), v, r, s) == msg.sender);\n\n                // No second chance: if one of the following verification failed, the player cannot call this function again.\n                playerDB[msg.sender].claimed = true;\n                uint i;\n\n\t        // verification: the secret belongs to the player\n\t\tbytes32 score;\n\t\tbytes32 newscore = keccak256(abi.encodePacked(msg.sender, secret, blockhash(blockNo))); // initialize for the loop below\n\t\tbool[32] memory _slots = convertString32ToBool(slots); \n                for (i = 0; i <= 31; i++) {\n\t\t\tif(_slots[i] == false) {\n\t\t\t\tassert(score[i] == board[i]);\n\t\t\t} else {\n\t\t\t\tassert(score[i] == newscore[i]);\n\t\t\t}\n\t\t}\n\n\t\trequire(keccak256(abi.encodePacked(score)) == playerDB[msg.sender].scoreHash,\n\t\t        \"wrong score base on the given secret/blockNo\");\n\n                // generate \"claimhash\", which is hash(msg.sender, submitBlocks[i], winningTickets[i], ...) where i=0,1,2,...\n\t\tbytes32[10] memory genTickets = generateTickets(score);\n                bytes32[] memory claimHashElements;\n                claimHashElements[0] = bytes20(msg.sender);\n                for (i=0; i<winningTickets.length; i++){\n                        claimHashElements[i*2+1] = bytes32(submitBlocks[i]);\n                        claimHashElements[i*2+2] = bytes32(genTickets[winningTickets[i]]);\n                }\n                // bytes32 claimHash = keccak256(abi.encodePacked(claimHashElements));\n                require(merkleTreeValidator(proof, isLeft, keccak256(abi.encodePacked(claimHashElements)), merkleRoot));\n\n                // count number of winning tickets\n                bytes32 winNumber;\n                for (i=0; i<submitBlocks.length; i++){\n\t                winNumber = keccak256(abi.encodePacked(prevboard, blockhash(submitBlocks[i])));\n                        // require(winNumber[30] == genTickets[winningTickets[i]][30] && winNumber[31] == genTickets[winningTickets[i]][31])\n                        require(winNumber[31] == genTickets[winningTickets[i]][31], \"found a wrong ticket\");  // for debug only\n\t\t        // require(RNTInterface(RNTAddr).mint(msg.sender) == true);\n                }\n\t\treturn true;\n        }\n\n        function generateTickets(bytes32 score) public view returns (bytes32[10] memory){\n                require(score != '0x0');\n                bytes32[10] memory tickets;\n                uint ticketSeedBlockNo = playerDB[msg.sender].initHeightJoined + 10;\n\t\tfor (uint i = 0; i < getNumOfTickets(score); i++) {\n\t\t        tickets[i] = keccak256(abi.encodePacked(score, ticketSeedBlockNo, i+1));  // idx of ticket start from 1\n                }\n                return tickets;\n        }\n\n        function getNumOfTickets(bytes32 score) public pure returns(uint){\n                if (score > 0x00ffffffffffffffffffffffffffffffffffffffffffffffffffffffffffffff) {\n                        return 1;  // min: 1 ticket\n                } else if (score > 0x000fffffffffffffffffffffffffffffffffffffffffffffffffffffffffffff) {\n                        return 2;\n                } else if (score > 0x0000ffffffffffffffffffffffffffffffffffffffffffffffffffffffffffff) {\n                        return 3;\n                } else if (score > 0x00000fffffffffffffffffffffffffffffffffffffffffffffffffffffffffff) {\n                        return 4;\n                } else {\n                        return 5;  // max: 5 tickets\n                }\n        }\n\n\n\t// function randomNumber() public view returns (bytes32) {\n\t// \trequire(lastRevived != samGroup[3] && samGroup[3] != bytes32(0));\n\t// \trequire(block.number - lastActivity <= 5);\n\t// \treturn keccak256(abi.encodePacked(samGroup[0], samGroup[1], samGroup[2], samGroup[3], blockhash(block.number - 1)));\n\t// }\n\n\tfunction getPlayerInfo(address _addr) public view returns (uint, bytes32) {\n\t\treturn (playerDB[_addr].initHeightJoined, playerDB[_addr].scoreHash);\n\t}\n\n\tfunction fortify(bytes32 defense) public payable feePaid defenderOnly NewGameOnly returns (bool) {\n\t\t// require(defense > difficulty);\n\n\t\twinner = address(0);\n\t\tipfsAddr = '';\n\n\t\tinitHeight = block.number;\n\t\tplayerInfo memory newone;\n\n\t\tnewone.initHeightJoined = initHeight;\n\t\tplayerDB[msg.sender] = newone;\n\t\tplayercount += 1;\n\t\tsetup = true;\n\n\t        prevboard = board;\n\t        board = defense;\n\n\t\treturn true;\n\t}\n\n\t// Join game\n\tfunction challenge(bytes32 scoreHash) public payable feePaid notDefender gameStarted returns (bool) {\n\t\trequire(playerDB[msg.sender].initHeightJoined < initHeight, \"challange: 1\");\n\t\trequire(block.number > initHeight + 7 && block.number <= initHeight + 10, \"challange: 2\");\n\t\trequire(playercount + 1 <= maxPlayer, \"challange: 3\");\n\n\t\tplayerInfo memory newone;\n\t\tplayerDB[msg.sender].claimed == false;\n\t\tplayerDB[msg.sender].initHeightJoined = initHeight;\n\n\t\tnewone.scoreHash = scoreHash;\n\n\t\tplayerDB[msg.sender] = newone;\n\t\tplayercount += 1;\n\n\t\treturn true;\n\t}\n\n\tfunction testOutcome(bytes32 secret, uint blockNo) public gameStarted view returns (bytes32 _board, bool[32] memory _slots) {\n\t\trequire(block.number > initHeight + 7 && block.number <= initHeight + 10, 'testoutcome: 1');\n\t\trequire(block.number - blockNo < 7, 'testoutcome: 2');\n\t\trequire(blockNo <= block.number - 1 && blockNo >= initHeight + 7 && blockNo < initHeight + 10, 'testoutcome: 3');\n\n\t\t_board = keccak256(abi.encodePacked(msg.sender, secret, blockhash(blockNo)));\n\n\t\tfor (uint i = 0; i <= 31; i++) {\n\t\t\tif(_board[i] < board[i]) {\n\t\t\t\t_slots[i] = true;\n\t\t\t}\n\t\t}\n\n\t\treturn (_board, _slots);\n\t}\n\n\tfunction winningNumber(uint blockNo) public view returns (bytes32) {\n\t        require(blockNo <= block.number - 1);\n\t        return keccak256(abi.encodePacked(board, blockhash(blockNo)));\n        }\n\n        function merkleTreeValidator(bytes32[] memory proof, bool[] memory isLeft, bytes32 targetLeaf, bytes32 _merkleRoot) public pure returns (bool) {\n                require(proof.length < 16);  // 16 is an arbitrary number, 2**16=65536 shoud be large enough\n                require(proof.length == isLeft.length);\n                return MerkleTreeValidatorInterface(MerkleTreeAddr).validate(proof, isLeft, targetLeaf, _merkleRoot);\n        }\n\n\tfunction submitMerkleRoot(uint _initHeight, bytes32 _merkleRoot, string memory _ipfsAddr) public ValidatorOnly returns (bool) {\n\t\trequire(block.number >= _initHeight + period_all && block.number < _initHeight + period_all + 3);\n\t        merkleRoot = _merkleRoot;\n\t        ipfsAddr = _ipfsAddr;\n\n\t        return true;\n        }\n\n        function getBlockhash(uint blockNo) external view returns (bytes32) {\n                return blockhash(blockNo);\n        }\n\n        function convertString32ToBool(string memory s32) internal pure returns (bool[32] memory) {\n                // i.g., convert string \"01001....\" to bool[32]: [false, true, false, false, true, ...]\n                bytes memory s32Bytes = bytes(s32);\n                bool[32] memory result;\n                for (uint i = 0; i < s32Bytes.length; i++) {\n                        if(s32Bytes[i] == '1') {\n                            result[i] = true;\n                        } else {\n                            result[i] = false;\n                        }\n                }\n                return result;\n        }\n\n        // fallback\n        function () defenderOnly gameStalled external { \n            winner = defender; \n            require(withdraw());\n        }\n}\n",
  "sourcePath": "/home/kai/Work/project/BattleShip/contracts/BattleShip.sol",
  "compiler": {
    "name": "solc",
    "version": "0.4.25+commit.59dbf8f1.Emscripten.clang"
  },
  "schemaVersion": "2.0.2",
  "updatedAt": "2019-01-16T21:07:49.132Z"
}