{
  "contractName": "BattleShip",
  "abi": [
    {
      "constant": true,
      "inputs": [],
      "name": "period2",
      "outputs": [
        {
          "name": "",
          "type": "uint256"
        }
      ],
      "payable": false,
      "stateMutability": "view",
      "type": "function"
    },
    {
      "constant": true,
      "inputs": [],
      "name": "difficulty",
      "outputs": [
        {
          "name": "",
          "type": "bytes32"
        }
      ],
      "payable": false,
      "stateMutability": "view",
      "type": "function"
    },
    {
      "constant": true,
      "inputs": [],
      "name": "merkleRoot",
      "outputs": [
        {
          "name": "",
          "type": "bytes32"
        }
      ],
      "payable": false,
      "stateMutability": "view",
      "type": "function"
    },
    {
      "constant": true,
      "inputs": [],
      "name": "validator",
      "outputs": [
        {
          "name": "",
          "type": "address"
        }
      ],
      "payable": false,
      "stateMutability": "view",
      "type": "function"
    },
    {
      "constant": true,
      "inputs": [],
      "name": "period1",
      "outputs": [
        {
          "name": "",
          "type": "uint256"
        }
      ],
      "payable": false,
      "stateMutability": "view",
      "type": "function"
    },
    {
      "constant": true,
      "inputs": [],
      "name": "lastActivity",
      "outputs": [
        {
          "name": "",
          "type": "uint256"
        }
      ],
      "payable": false,
      "stateMutability": "view",
      "type": "function"
    },
    {
      "constant": true,
      "inputs": [],
      "name": "maxPlayer",
      "outputs": [
        {
          "name": "",
          "type": "uint256"
        }
      ],
      "payable": false,
      "stateMutability": "view",
      "type": "function"
    },
    {
      "constant": true,
      "inputs": [],
      "name": "playercount",
      "outputs": [
        {
          "name": "",
          "type": "uint256"
        }
      ],
      "payable": false,
      "stateMutability": "view",
      "type": "function"
    },
    {
      "constant": true,
      "inputs": [],
      "name": "board",
      "outputs": [
        {
          "name": "",
          "type": "bytes32"
        }
      ],
      "payable": false,
      "stateMutability": "view",
      "type": "function"
    },
    {
      "constant": true,
      "inputs": [],
      "name": "defender",
      "outputs": [
        {
          "name": "",
          "type": "address"
        }
      ],
      "payable": false,
      "stateMutability": "view",
      "type": "function"
    },
    {
      "constant": true,
      "inputs": [],
      "name": "period_all",
      "outputs": [
        {
          "name": "",
          "type": "uint256"
        }
      ],
      "payable": false,
      "stateMutability": "view",
      "type": "function"
    },
    {
      "constant": true,
      "inputs": [],
      "name": "initHeight",
      "outputs": [
        {
          "name": "",
          "type": "uint256"
        }
      ],
      "payable": false,
      "stateMutability": "view",
      "type": "function"
    },
    {
      "constant": true,
      "inputs": [],
      "name": "MerkleTreeAddr",
      "outputs": [
        {
          "name": "",
          "type": "address"
        }
      ],
      "payable": false,
      "stateMutability": "view",
      "type": "function"
    },
    {
      "constant": true,
      "inputs": [],
      "name": "period3",
      "outputs": [
        {
          "name": "",
          "type": "uint256"
        }
      ],
      "payable": false,
      "stateMutability": "view",
      "type": "function"
    },
    {
      "constant": true,
      "inputs": [],
      "name": "setup",
      "outputs": [
        {
          "name": "",
          "type": "bool"
        }
      ],
      "payable": false,
      "stateMutability": "view",
      "type": "function"
    },
    {
      "constant": true,
      "inputs": [],
      "name": "fee",
      "outputs": [
        {
          "name": "",
          "type": "uint256"
        }
      ],
      "payable": false,
      "stateMutability": "view",
      "type": "function"
    },
    {
      "constant": true,
      "inputs": [],
      "name": "winner",
      "outputs": [
        {
          "name": "",
          "type": "address"
        }
      ],
      "payable": false,
      "stateMutability": "view",
      "type": "function"
    },
    {
      "inputs": [
        {
          "name": "_init",
          "type": "bytes32"
        }
      ],
      "payable": true,
      "stateMutability": "payable",
      "type": "constructor"
    },
    {
      "payable": false,
      "stateMutability": "nonpayable",
      "type": "fallback"
    },
    {
      "constant": false,
      "inputs": [],
      "name": "withdraw",
      "outputs": [
        {
          "name": "",
          "type": "bool"
        }
      ],
      "payable": false,
      "stateMutability": "nonpayable",
      "type": "function"
    },
    {
      "constant": true,
      "inputs": [],
      "name": "getPlayerInfo",
      "outputs": [
        {
          "name": "",
          "type": "uint256"
        },
        {
          "name": "",
          "type": "uint256"
        },
        {
          "name": "",
          "type": "bytes32"
        }
      ],
      "payable": false,
      "stateMutability": "view",
      "type": "function"
    },
    {
      "constant": false,
      "inputs": [
        {
          "name": "defense",
          "type": "bytes32"
        }
      ],
      "name": "fortify",
      "outputs": [
        {
          "name": "",
          "type": "bool"
        }
      ],
      "payable": true,
      "stateMutability": "payable",
      "type": "function"
    },
    {
      "constant": false,
      "inputs": [
        {
          "name": "scoreHash",
          "type": "bytes32"
        }
      ],
      "name": "challenge",
      "outputs": [
        {
          "name": "",
          "type": "bool"
        }
      ],
      "payable": true,
      "stateMutability": "payable",
      "type": "function"
    },
    {
      "constant": true,
      "inputs": [
        {
          "name": "secret",
          "type": "bytes32"
        },
        {
          "name": "blockNo",
          "type": "uint256"
        }
      ],
      "name": "testOutcome",
      "outputs": [
        {
          "name": "_board",
          "type": "bytes32"
        },
        {
          "name": "_slots",
          "type": "bool[32]"
        }
      ],
      "payable": false,
      "stateMutability": "view",
      "type": "function"
    },
    {
      "constant": true,
      "inputs": [
        {
          "name": "blockNo",
          "type": "uint256"
        }
      ],
      "name": "winningNumber",
      "outputs": [
        {
          "name": "",
          "type": "bytes32"
        }
      ],
      "payable": false,
      "stateMutability": "view",
      "type": "function"
    },
    {
      "constant": true,
      "inputs": [
        {
          "name": "proof",
          "type": "bytes32[]"
        },
        {
          "name": "isLeft",
          "type": "bool[]"
        },
        {
          "name": "targetLeaf",
          "type": "bytes32"
        },
        {
          "name": "_merkleRoot",
          "type": "bytes32"
        }
      ],
      "name": "MerkleTreeValidator",
      "outputs": [
        {
          "name": "",
          "type": "bool"
        }
      ],
      "payable": false,
      "stateMutability": "pure",
      "type": "function"
    },
    {
      "constant": false,
      "inputs": [
        {
          "name": "_merkleRoot",
          "type": "bytes32"
        }
      ],
      "name": "submitMerkleRoot",
      "outputs": [
        {
          "name": "",
          "type": "bool"
        }
      ],
      "payable": false,
      "stateMutability": "nonpayable",
      "type": "function"
    },
    {
      "constant": true,
      "inputs": [
        {
          "name": "blockNo",
          "type": "uint256"
        }
      ],
      "name": "getBlockhash",
      "outputs": [
        {
          "name": "",
          "type": "bytes32"
        }
      ],
      "payable": false,
      "stateMutability": "view",
      "type": "function"
    }
  ],
  "bytecode": "0x608060405270ffffffffffffffffffffffffffffffffff600102600590600019169055662386f26fc100006007556000600860006101000a81548160ff021916908315150217905550600060095560405160208062001ac08339810180604052810190808051906020019092919050505060075434101515156200008257600080fd5b336000806101000a81548173ffffffffffffffffffffffffffffffffffffffff021916908373ffffffffffffffffffffffffffffffffffffffff16021790555033600260006101000a81548173ffffffffffffffffffffffffffffffffffffffff021916908373ffffffffffffffffffffffffffffffffffffffff16021790555060011515620001218262000137640100000000026401000000009004565b15151415156200013057600080fd5b50620003a7565b6000620001436200036c565b60075434101515156200015557600080fd5b6000809054906101000a900473ffffffffffffffffffffffffffffffffffffffff1673ffffffffffffffffffffffffffffffffffffffff163373ffffffffffffffffffffffffffffffffffffffff16141515620001b157600080fd5b60001515600860009054906101000a900460ff161515141515620001d457600080fd5b600554600019168360001916111515620001ed57600080fd5b33816000019073ffffffffffffffffffffffffffffffffffffffff16908173ffffffffffffffffffffffffffffffffffffffff16815250504381602001818152505082600681600019169055504360038190555080601060003373ffffffffffffffffffffffffffffffffffffffff1673ffffffffffffffffffffffffffffffffffffffff16815260200190815260200160002060008201518160000160006101000a81548173ffffffffffffffffffffffffffffffffffffffff021916908373ffffffffffffffffffffffffffffffffffffffff160217905550602082015181600101556040820151816002019060001916905590505060016009600082825401925050819055506001600860006101000a81548160ff0219169083151502179055506000600102600e81600019169055506000600102600a60036004811015156200033657fe5b01816000191690555060065460116000600354815260200190815260200160002060010181600019169055506001915050919050565b606060405190810160405280600073ffffffffffffffffffffffffffffffffffffffff16815260200160008152602001600080191681525090565b61170980620003b76000396000f300608060405260043610610154576000357c0100000000000000000000000000000000000000000000000000000000900463ffffffff168063030e3422146102c557806319cae462146102f05780631cb9409f146103235780632eb4a7ab146103a85780633a5381b5146103db5780633ccfd60b14610432578063475fcbf614610461578063585336121461048c5780635fd51b37146104c85780636426b1e4146104f35780636b180b591461051e5780637cd3229a146105495780637f4c91c51461057c578063a4dd1d7d146105d3578063a78eacdb146105fe578063a7ca2e2014610629578063b307b70414610680578063b8b81e40146106ab578063ba0bba40146106f4578063c9e1fa1514610723578063cda5de8314610800578063cffd46dc14610849578063d1df81df14610885578063ddca3f43146108c6578063dfbf53ae146108f1578063e9413d3814610948575b34801561016057600080fd5b506000809054906101000a900473ffffffffffffffffffffffffffffffffffffffff1673ffffffffffffffffffffffffffffffffffffffff163373ffffffffffffffffffffffffffffffffffffffff161415156101bc57600080fd5b60011515600860009054906101000a900460ff1615151480156101e9575060166003600501016003540143115b80156102435750600073ffffffffffffffffffffffffffffffffffffffff16600160009054906101000a900473ffffffffffffffffffffffffffffffffffffffff1673ffffffffffffffffffffffffffffffffffffffff16145b151561024e57600080fd5b6000809054906101000a900473ffffffffffffffffffffffffffffffffffffffff16600160006101000a81548173ffffffffffffffffffffffffffffffffffffffff021916908373ffffffffffffffffffffffffffffffffffffffff1602179055506102b8610991565b15156102c357600080fd5b005b3480156102d157600080fd5b506102da610b0a565b6040518082815260200191505060405180910390f35b3480156102fc57600080fd5b50610305610b0f565b60405180826000191660001916815260200191505060405180910390f35b34801561032f57600080fd5b5061035c600480360381019080803560001916906020019092919080359060200190929190505050610b15565b604051808360001916600019168152602001826020800280838360005b83811015610394578082015181840152602081019050610379565b505050509050019250505060405180910390f35b3480156103b457600080fd5b506103bd610d3a565b60405180826000191660001916815260200191505060405180910390f35b3480156103e757600080fd5b506103f0610d40565b604051808273ffffffffffffffffffffffffffffffffffffffff1673ffffffffffffffffffffffffffffffffffffffff16815260200191505060405180910390f35b34801561043e57600080fd5b50610447610991565b604051808215151515815260200191505060405180910390f35b34801561046d57600080fd5b50610476610d66565b6040518082815260200191505060405180910390f35b6104ae6004803603810190808035600019169060200190929190505050610d6b565b604051808215151515815260200191505060405180910390f35b3480156104d457600080fd5b506104dd610f99565b6040518082815260200191505060405180910390f35b3480156104ff57600080fd5b50610508610f9f565b6040518082815260200191505060405180910390f35b34801561052a57600080fd5b50610533610fa5565b6040518082815260200191505060405180910390f35b34801561055557600080fd5b5061055e610fab565b60405180826000191660001916815260200191505060405180910390f35b34801561058857600080fd5b50610591610fb1565b604051808273ffffffffffffffffffffffffffffffffffffffff1673ffffffffffffffffffffffffffffffffffffffff16815260200191505060405180910390f35b3480156105df57600080fd5b506105e8610fd6565b6040518082815260200191505060405180910390f35b34801561060a57600080fd5b50610613610fe1565b6040518082815260200191505060405180910390f35b34801561063557600080fd5b5061063e610fe7565b604051808273ffffffffffffffffffffffffffffffffffffffff1673ffffffffffffffffffffffffffffffffffffffff16815260200191505060405180910390f35b34801561068c57600080fd5b50610695610fff565b6040518082815260200191505060405180910390f35b3480156106b757600080fd5b506106d660048036038101908080359060200190929190505050611004565b60405180826000191660001916815260200191505060405180910390f35b34801561070057600080fd5b506107096110bc565b604051808215151515815260200191505060405180910390f35b34801561072f57600080fd5b506107e66004803603810190808035906020019082018035906020019080806020026020016040519081016040528093929190818152602001838360200280828437820191505050505050919291929080359060200190820180359060200190808060200260200160405190810160405280939291908181526020018383602002808284378201915050505050509192919290803560001916906020019092919080356000191690602001909291905050506110cf565b604051808215151515815260200191505060405180910390f35b34801561080c57600080fd5b5061082f6004803603810190808035600019169060200190929190505050611263565b604051808215151515815260200191505060405180910390f35b61086b6004803603810190808035600019169060200190929190505050611371565b604051808215151515815260200191505060405180910390f35b34801561089157600080fd5b5061089a6115ae565b604051808481526020018381526020018260001916600019168152602001935050505060405180910390f35b3480156108d257600080fd5b506108db611647565b6040518082815260200191505060405180910390f35b3480156108fd57600080fd5b5061090661164d565b604051808273ffffffffffffffffffffffffffffffffffffffff1673ffffffffffffffffffffffffffffffffffffffff16815260200191505060405180910390f35b34801561095457600080fd5b5061097360048036038101908080359060200190929190505050611673565b60405180826000191660001916815260200191505060405180910390f35b60008073ffffffffffffffffffffffffffffffffffffffff16600160009054906101000a900473ffffffffffffffffffffffffffffffffffffffff1673ffffffffffffffffffffffffffffffffffffffff1614158015610a3e5750600160009054906101000a900473ffffffffffffffffffffffffffffffffffffffff1673ffffffffffffffffffffffffffffffffffffffff163373ffffffffffffffffffffffffffffffffffffffff16145b1515610a4957600080fd5b60166003600501016003540143111515610a6257600080fd5b6000600860006101000a81548160ff0219169083151502179055506000600160006101000a81548173ffffffffffffffffffffffffffffffffffffffff021916908373ffffffffffffffffffffffffffffffffffffffff1602179055506000600102600681600019169055506000600102600e81600019169055506000600102600a6003600481101515610af257fe5b01816000191690555060006009819055506001905090565b600381565b60055481565b6000610b1f61167e565b600060011515600860009054906101000a900460ff161515141515610b4357600080fd5b60056003540143108015610b5957506003544310155b1515610b6457600080fd5b6005844303101515610b7557600080fd5b600143038411158015610b8c575060056003540184105b8015610b9a57506003548410155b1515610ba557600080fd5b8484406040516020018083600019166000191681526020018260001916600019168152602001925050506040516020818303038152906040526040518082805190602001908083835b602083101515610c135780518252602082019150602081019050602083039250610bee565b6001836020036101000a03801982511681845116808217855250505050505090500191505060405180910390209250600090505b601f81111515610d2c5760065481602081101515610c6157fe5b1a7f0100000000000000000000000000000000000000000000000000000000000000027effffffffffffffffffffffffffffffffffffffffffffffffffffffffffffff19168382602081101515610cb457fe5b1a7f0100000000000000000000000000000000000000000000000000000000000000027effffffffffffffffffffffffffffffffffffffffffffffffffffffffffffff19161015610d1f5760018282602081101515610d0f57fe5b6020020190151590811515815250505b8080600101915050610c47565b828292509250509250929050565b600f5481565b600260009054906101000a900473ffffffffffffffffffffffffffffffffffffffff1681565b600581565b6000610d756116a2565b6007543410151515610d8657600080fd5b6000809054906101000a900473ffffffffffffffffffffffffffffffffffffffff1673ffffffffffffffffffffffffffffffffffffffff163373ffffffffffffffffffffffffffffffffffffffff16141515610de157600080fd5b60001515600860009054906101000a900460ff161515141515610e0357600080fd5b600554600019168360001916111515610e1b57600080fd5b33816000019073ffffffffffffffffffffffffffffffffffffffff16908173ffffffffffffffffffffffffffffffffffffffff16815250504381602001818152505082600681600019169055504360038190555080601060003373ffffffffffffffffffffffffffffffffffffffff1673ffffffffffffffffffffffffffffffffffffffff16815260200190815260200160002060008201518160000160006101000a81548173ffffffffffffffffffffffffffffffffffffffff021916908373ffffffffffffffffffffffffffffffffffffffff160217905550602082015181600101556040820151816002019060001916905590505060016009600082825401925050819055506001600860006101000a81548160ff0219169083151502179055506000600102600e81600019169055506000600102600a6003600481101515610f6357fe5b01816000191690555060065460116000600354815260200190815260200160002060010181600019169055506001915050919050565b60045481565b6103e881565b60095481565b60065481565b6000809054906101000a900473ffffffffffffffffffffffffffffffffffffffff1681565b601660036005010181565b60035481565b73127bfc8affdcaeee6043e7ec79239542e5a470b781565b601681565b600060014303821115151561101857600080fd5b60065482406040516020018083600019166000191681526020018260001916600019168152602001925050506040516020818303038152906040526040518082805190602001908083835b6020831015156110885780518252602082019150602081019050602083039250611063565b6001836020036101000a03801982511681845116808217855250505050505090500191505060405180910390209050919050565b600860009054906101000a900460ff1681565b6000601085511015156110e157600080fd5b835185511415156110f157600080fd5b73127bfc8affdcaeee6043e7ec79239542e5a470b773ffffffffffffffffffffffffffffffffffffffff166398ecbb6f868686866040518563ffffffff167c010000000000000000000000000000000000000000000000000000000002815260040180806020018060200185600019166000191681526020018460001916600019168152602001838103835287818151815260200191508051906020019060200280838360005b838110156111b3578082015181840152602081019050611198565b50505050905001838103825286818151815260200191508051906020019060200280838360005b838110156111f55780820151818401526020810190506111da565b505050509050019650505050505050602060405180830381600087803b15801561121e57600080fd5b505af1158015611232573d6000803e3d6000fd5b505050506040513d602081101561124857600080fd5b81019080805190602001909291905050509050949350505050565b60008073ffffffffffffffffffffffffffffffffffffffff16600260009054906101000a900473ffffffffffffffffffffffffffffffffffffffff1673ffffffffffffffffffffffffffffffffffffffff16141580156113105750600260009054906101000a900473ffffffffffffffffffffffffffffffffffffffff1673ffffffffffffffffffffffffffffffffffffffff163373ffffffffffffffffffffffffffffffffffffffff16145b151561131b57600080fd5b600360056003540101431015801561133c5750600380600560035401010143105b151561134757600080fd5b81601160006003548152602001908152602001600020600001816000191690555060019050919050565b600061137b6116a2565b600754341015151561138c57600080fd5b6000809054906101000a900473ffffffffffffffffffffffffffffffffffffffff1673ffffffffffffffffffffffffffffffffffffffff163373ffffffffffffffffffffffffffffffffffffffff16141515156113e857600080fd5b60011515600860009054906101000a900460ff16151514151561140a57600080fd5b600354601060003373ffffffffffffffffffffffffffffffffffffffff1673ffffffffffffffffffffffffffffffffffffffff1681526020019081526020016000206001015410151561145c57600080fd5b6005600354014310158015611478575060036005600354010143105b151561148357600080fd5b6103e86001600954011115151561149957600080fd5b33816000019073ffffffffffffffffffffffffffffffffffffffff16908173ffffffffffffffffffffffffffffffffffffffff168152505043816020018181525050828160400190600019169081600019168152505080601060003373ffffffffffffffffffffffffffffffffffffffff1673ffffffffffffffffffffffffffffffffffffffff16815260200190815260200160002060008201518160000160006101000a81548173ffffffffffffffffffffffffffffffffffffffff021916908373ffffffffffffffffffffffffffffffffffffffff160217905550602082015181600101556040820151816002019060001916905590505060016009600082825401925050819055506001915050919050565b6000806000601060003373ffffffffffffffffffffffffffffffffffffffff1673ffffffffffffffffffffffffffffffffffffffff16815260200190815260200160002060010154600354601060003373ffffffffffffffffffffffffffffffffffffffff1673ffffffffffffffffffffffffffffffffffffffff16815260200190815260200160002060020154925092509250909192565b60075481565b600160009054906101000a900473ffffffffffffffffffffffffffffffffffffffff1681565b600081409050919050565b61040060405190810160405280602090602082028038833980820191505090505090565b606060405190810160405280600073ffffffffffffffffffffffffffffffffffffffff168152602001600081526020016000801916815250905600a165627a7a72305820b38e5dc4488b509807cd131db2716e9b4b6a86699ab3d5de17bf28c3d9adfddf0029",
  "source": "pragma solidity ^0.4.24;\n\n// import \"./ERC20.sol\";\nimport \"./SafeMath.sol\";\n// import \"./RNTInterface.sol\";\nimport \"./MerkleTreeValidatorInterface.sol\";\n\n// About the game\n// # Roles\n//  * defender : setup the game (only the fee)\n//  * player : join the game, max 1000 players, pay 0.01 eth and can win 150 RNT potentially\n//  * validator: provide merkle proof in block `n` (a tiny amount)\n//\n// # time line of a game:\n//    start ------------ n ------- m -------------------------------- end -----\n//          calc           reg to    lottery, each round: 0-n winners     merkle on sc submit\n//                         sc        (only on sc)                         to chain; withdraw\n//          (period1)      (period2) (period3)\n//\n//  * sc: state channel\n//  * period_all = period1 + period2 + period3\n//  * during period2 (btw. `n` and `m`) players get tickets on sc\n//  * player obtain ticket in the form `ticket[i] = hash(score + bn[m-1] + i)` where 0<=i<5, depend on score\n// todo: add an upper limit for the contract to give to players? Such as (the order of) 1000*0.01 eth = 10 eth = 1e5 RNT\n\ncontract BattleShip {\n\tusing SafeMath for uint256;\n\t// Variables\n\taddress public defender;\n\taddress public winner;\n\taddress public validator;\n\t// address public RNTAddr;\n\tuint constant public maxPlayer = 1000;\n\tuint constant public period1 = 5;\n\tuint constant public period2 = 3;\n\tuint constant public period3 = 22;\n\tuint constant public period_all = period1 + period2 + period3;  // shoudl be in the range 30-120\n\tuint public initHeight;\n\tuint public lastActivity;\n\tbytes32 public difficulty = 0x000000000000000000000000000000ffffffffffffffffffffffffffffffffff;\n\tbytes32 public board;\n\tuint public fee = 10000000000000000;\n\tbool public setup = false;\n\tuint public playercount = 0;\n\tbytes32[4] private samGroup;\n\tbytes32 private lastRevived;\n\tbytes32 public merkleRoot;\n        address constant public MerkleTreeAddr = 0x127bfc8AFfdCaeee6043e7eC79239542e5A470B7;\n\n\tstruct playerInfo {\n\t\taddress wallet; // msg.sender\n\t\tuint since;     // block height when joined\n\t\tbytes32 scoreHash;\n\t\t// uint maxNonce;\n\t}\n\n\tstruct battleStat {\n\t        bytes32 merkleRoot;\n\t\tbytes32 board;\n\t}\n\n\tmapping (address => playerInfo) playerDB;\n\t// mapping (uint => mapping (address => battleStat)) battleHistory;\n\tmapping (uint => battleStat) battleHistory;\n\n\t// Modifiers\n\tmodifier defenderOnly() {\n\t\trequire(msg.sender == defender);\n\t\t_;\n\t}\n\n\tmodifier WinnerOnly() {\n\t\trequire(winner != address(0) && msg.sender == winner);\n\t\t_;\n\t}\n\n\tmodifier ValidatorOnly() {\n\t        require(validator != address(0) && msg.sender == validator);\n\t        _;\n        }\n\n\tmodifier NewGameOnly() {\n\t\trequire(setup == false);\n\t\t_;\n\t}\n\n\tmodifier feePaid() {\n\t\trequire(msg.value >= fee);\n\t\t_;\n\t}\n\n\tmodifier gameStarted() {\n\t\trequire(setup == true);\n\t\t_;\n\t}\n\n\tmodifier gameStalled() {\n\t\trequire(setup == true && block.number > initHeight + period_all && winner == address(0));\n\t\t_;\n\t}\n\n\tmodifier notDefender() {\n\t\trequire(msg.sender != defender);\n\t\t_;\n\t}\n\n\t// Contract constructor\n\tconstructor(bytes32 _init) public payable {\n\t\trequire(msg.value >= fee);\n\t\tdefender = msg.sender;\n\t\tvalidator = msg.sender;\n\t\t// RNTAddr  = _RNTAddr;\n\n\t\trequire(fortify(_init) == true);\n\t}\n\n\t// WinnerOnly\n\tfunction withdraw() public WinnerOnly returns (bool) {\n\t\trequire(block.number > initHeight + period_all);\n\t\tsetup = false;\n\t\twinner = address(0);\n\t\tboard = bytes32(0);\n\t\tlastRevived = bytes32(0);\n\t\tsamGroup[3] = bytes32(0);\n\t\tplayercount = 0;\n\n\t\t// uint256 reward = uint256(address(this).balance).mul(uint256(6)) / uint256(10);\n\t\t// require(RNTInterface(RNTAddr).mint(msg.sender) == true);\n\t\t// require(msg.sender.send(reward) == true);\n\t\treturn true;\n\t}\n\n\t// function randomNumber() public view returns (bytes32) {\n\t// \trequire(lastRevived != samGroup[3] && samGroup[3] != bytes32(0));\n\t// \trequire(block.number - lastActivity <= 5);\n\t// \treturn keccak256(abi.encodePacked(samGroup[0], samGroup[1], samGroup[2], samGroup[3], blockhash(block.number - 1)));\n\t// }\n\n\tfunction getPlayerInfo() public view returns (uint, uint, bytes32) {\n\t\treturn (playerDB[msg.sender].since, initHeight, playerDB[msg.sender].scoreHash);\n\t}\n\n\tfunction fortify(bytes32 defense) public payable feePaid defenderOnly NewGameOnly returns (bool) {\n\t\trequire(defense > difficulty);\n\t\tplayerInfo memory newone;\n\n\t\tnewone.wallet = msg.sender;\n\t\tnewone.since  = block.number;\n\t\tboard = defense;\n\t\t// newone.maxNonce = 100;\n\n\t\tinitHeight = block.number;\n\t\tplayerDB[msg.sender] = newone;\n\t\tplayercount += 1;\n\t\tsetup = true;\n\t\tlastRevived = bytes32(0);\n\t\tsamGroup[3] = bytes32(0);\n\n\t        battleHistory[initHeight].board = board;\n\n\t\treturn true;\n\t}\n\n\t// Join game\n\tfunction challenge(bytes32 scoreHash) public payable feePaid notDefender gameStarted returns (bool) {\n\t\trequire(playerDB[msg.sender].since < initHeight);\n\t\trequire(block.number >= initHeight + period1 && block.number < initHeight + period1 + period2);\n\t\trequire(playercount + 1 <= maxPlayer);\n\n\t\tplayerInfo memory newone;\n\n\t\tnewone.wallet = msg.sender;\n\t\tnewone.since  = block.number;\n\t\t// newone.maxNonce = 10;  // for test\n\t\tnewone.scoreHash = scoreHash;\n\n\t\tplayerDB[msg.sender] = newone;\n\t\tplayercount += 1;\n\n\t\treturn true;\n\t}\n\n\tfunction testOutcome(bytes32 secret, uint blockNo) public gameStarted view returns (bytes32 _board, bool[32] memory _slots) {\n\t\trequire(block.number < initHeight + period1 && block.number >= initHeight);\n\t\trequire(block.number - blockNo < period1);\n\t\trequire(blockNo <= block.number - 1 && blockNo < initHeight + period1 && blockNo >= initHeight);\n\n\t\t_board = keccak256(abi.encodePacked(secret, blockhash(blockNo)));\n\n\t\tfor (uint i = 0; i <= 31; i++) {\n\t\t\tif(_board[i] < board[i]) {\n\t\t\t\t_slots[i] = true;\n\t\t\t}\n\t\t}\n\n\t\treturn (_board, _slots);\n\t}\n\n\t// function reviveReward() public gameStarted notDefender returns (bool) {\n\t// \trequire(battleHistory[initHeight][msg.sender].battle == initHeight);\n\t// \trequire(block.number > initHeight + period1 + period2);\n\n\t// \tbytes32 _board = keccak256(abi.encodePacked(battleHistory[initHeight][msg.sender].score, blockhash(block.number - 1)));\n\n\t// \tassert(_board != samGroup[3]);\n\t\t\t\n\t// \tif (_board[30] == board[30] && _board[31] == board[31]) {\n\t// \t\tbattleHistory[initHeight][msg.sender].battle = 0;\n\t// \t\tlastRevived = samGroup[3];\n\t// \t\tsamGroup[3] = _board;\n\t// \t\tlastActivity = block.number;\n\t// \t\trequire(RNTInterface(RNTAddr).mint(msg.sender) == true);\n\t// \t\treturn true;\n\t// \t} else {\n\t// \t\trevert();\n\t// \t}\n\t// }\n\n\t// function revealSecret(bytes32 secret, bytes32 score, bool[32] memory slots, uint blockNo, uint8 v, bytes32 r, bytes32 s) public gameStarted notDefender returns (bool) {\n\t// \trequire(score != board);\n\t// \trequire(score != battleHistory[initHeight][msg.sender].score);\n\t// \trequire(playerDB[msg.sender].since > initHeight);\n\t// \trequire(battleHistory[initHeight][msg.sender].battle == 0);\n\t// \trequire(block.number <= initHeight + period1 + period2);\n\t// \trequire(block.number - blockNo < period1);\n\t// \trequire(blockNo <= block.number - 1 && blockNo < initHeight + period1 && blockNo > initHeight);\n\t// \t// require(merkleRoot[0] != 0x0);\n\t// \t// todo: require(merkleProofValidate(proofs, keccak256(score), merkleRoot[0]);\n\t// \trequire(ecrecover(keccak256(abi.encodePacked(\"\\x19Ethereum Signed Message:\\n32\", keccak256(abi.encodePacked(score)))), v, r, s) == msg.sender);\n\n\t// \tbattleStat memory newbat;\n\t// \tnewbat.battle = initHeight;\n\t// \tnewbat.secret = secret;\n\t// \t// newbat.bhash = blockhash(blockNo);\n\t// \tnewbat.score = keccak256(abi.encodePacked(secret, blockhash(blockNo))); // initialize for the loop below\n\n\t// \tfor (uint i = 0; i <= 31; i++) {\n\t// \t\tif(slots[i] == false) {\n\t// \t\t\tassert(score[i] == board[i]);\n\t// \t\t} else {\n\t// \t\t\tassert(score[i] == newbat.score[i]);\n\t// \t\t}\n\t// \t}\n\n\t// \tnewbat.score = score;\n\t// \tbattleHistory[initHeight][msg.sender] = newbat;\n\n\t// \t// winner and sample group\n\t// \t// if (winner == address(0) && newbat.score < board) {\n\t// \t// \twinner = msg.sender;\n\t// \t// \tsamGroup[0] = newbat.score;\n\t// \t// } else if (newbat.score < battleHistory[initHeight][winner].score) {\n\t// \t// \twinner = msg.sender;\n\t// \t// \tsamGroup[1] = samGroup[0];\n\t// \t// \tsamGroup[0] = newbat.score;\n\t// \t// } else {\n\t// \t// \tsamGroup[2] = newbat.score;\n\t// \t// }\n\n\t// \tlastActivity = block.number;\n\t// \treturn true;\n\t// \t// state channel has to send out ticket after block 'm', i.e., end of revealSecret()\n\t// }\n\n\n\t// function lottery(bytes32[] tickets) public gameStarted notDefender returns (bool) {\n\t// \trequire(battleHistory[initHeight][msg.sender].battle == initHeight);\n\t// \trequire(block.number > initHeight + period1 + period2 && block.number <= initHeight + period_all);\n\t// \trequire(tickets.length <= 5);\n\t// \t// todo:\n\t// \t// require(merkleProofValidate(proofs, tickets[0], merkleRoot[1]);  // verify existence of ticket\n\t// \t// require(merkleProofValidate(proofs, tickets[1], merkleRoot[1]);  // can one loop in 'require'?\n\t// \t// require(merkleProofValidate(proofs, tickets[2], merkleRoot[1]);  // or deal with array in the function\n\t// \t// require(merkleProofValidate(proofs, tickets[3], merkleRoot[1]);\n\t// \t// require(merkleProofValidate(proofs, tickets[4], merkleRoot[1]);\n\n\t// \tbytes32 memory _board = keccak256(board, blockhash(block.number - 1)));\n\n                // for (i=0; i<tickets.length; i++) {\n                        // _ticket = tickets[i];\n                        // if (_board[30] == _ticket[30] && _board[31] == _ticket[31]) {\n                                // battleHistory[initHeight][msg.sender].battle = 0;\n                                // sampleGroup[2] = _board;\n                                // // require(RNTInterface(RNTAddr).mint(msg.sender) == true);\n                                // return true;\n                        // } else {\n                                // revert();\n                        // }\n                // }\n\t// }\n\n\tfunction winningNumber(uint blockNo) external view returns (bytes32) {\n\t        require(blockNo <= block.number - 1);\n\t        return keccak256(abi.encodePacked(board, blockhash(blockNo)));\n        }\n\n        function MerkleTreeValidator(bytes32[] memory proof, bool[] memory isLeft, bytes32 targetLeaf, bytes32 _merkleRoot) public pure returns (bool) {\n                require(proof.length < 16);  // 16 is an arbitrary number, 2**16=65536 shoud be large enough\n                require(proof.length == isLeft.length);\n                return MerkleTreeValidatorInterface(MerkleTreeAddr).validate(proof, isLeft, targetLeaf, _merkleRoot);\n        }\n\n\tfunction submitMerkleRoot(bytes32 _merkleRoot) external ValidatorOnly returns (bool) {\n\t\trequire(block.number >= initHeight + period1 + period2 && block.number < initHeight + period1 + period2 + 3);\n\t        // merkleRoot = _merkleRoot;\n\t        battleHistory[initHeight].merkleRoot = _merkleRoot;\n\t        return true;\n        }\n\n        function getBlockhash(uint blockNo) external view returns (bytes32) {\n                return blockhash(blockNo);\n        }\n\n        function convertScoreString(string scoreString) internal pure returns (bool[32]) {\n                // i.g., convert string \"01001....\" to bool[32]: [false, true, false, false, true, ...]\n                bytes memory scoreStr = bytes(scoreString);\n                bool[32] memory score;\n                for (uint i = 0; i < scoreStr.length; i++) {\n                        if(scoreStr[i] == '1') {\n                            score[i] = true;\n                        } else {\n                            score[i] = false;\n                        }\n                }\n                return score;\n        }\n\n        // fallback\n        function () defenderOnly gameStalled external { \n            winner = defender; \n            require(withdraw()); \n        }\n}\n",
  "sourcePath": "/home/kai/Work/project/11be/dapps/BattleShip/contracts/BattleShip.sol",
  "compiler": {
    "name": "solc",
    "version": "0.4.25+commit.59dbf8f1.Emscripten.clang"
  },
  "schemaVersion": "2.0.2",
  "updatedAt": "2019-01-13T05:41:45.976Z"
}